{
  "_format": "hh-sol-artifact-1",
  "contractName": "TheColors",
  "sourceName": "contracts/colors/TheColors.sol",
  "abi": [
    {
      "inputs": [],
      "stateMutability": "nonpayable",
      "type": "constructor"
    },
    {
      "anonymous": false,
      "inputs": [
        {
          "indexed": true,
          "internalType": "address",
          "name": "owner",
          "type": "address"
        },
        {
          "indexed": true,
          "internalType": "address",
          "name": "approved",
          "type": "address"
        },
        {
          "indexed": true,
          "internalType": "uint256",
          "name": "tokenId",
          "type": "uint256"
        }
      ],
      "name": "Approval",
      "type": "event"
    },
    {
      "anonymous": false,
      "inputs": [
        {
          "indexed": true,
          "internalType": "address",
          "name": "owner",
          "type": "address"
        },
        {
          "indexed": true,
          "internalType": "address",
          "name": "operator",
          "type": "address"
        },
        {
          "indexed": false,
          "internalType": "bool",
          "name": "approved",
          "type": "bool"
        }
      ],
      "name": "ApprovalForAll",
      "type": "event"
    },
    {
      "anonymous": false,
      "inputs": [
        {
          "indexed": true,
          "internalType": "address",
          "name": "previousOwner",
          "type": "address"
        },
        {
          "indexed": true,
          "internalType": "address",
          "name": "newOwner",
          "type": "address"
        }
      ],
      "name": "OwnershipTransferred",
      "type": "event"
    },
    {
      "anonymous": false,
      "inputs": [
        {
          "indexed": true,
          "internalType": "address",
          "name": "from",
          "type": "address"
        },
        {
          "indexed": true,
          "internalType": "address",
          "name": "to",
          "type": "address"
        },
        {
          "indexed": true,
          "internalType": "uint256",
          "name": "tokenId",
          "type": "uint256"
        }
      ],
      "name": "Transfer",
      "type": "event"
    },
    {
      "inputs": [],
      "name": "MAX_COLORS",
      "outputs": [
        {
          "internalType": "uint256",
          "name": "",
          "type": "uint256"
        }
      ],
      "stateMutability": "view",
      "type": "function"
    },
    {
      "inputs": [],
      "name": "PROVENANCE_HASH",
      "outputs": [
        {
          "internalType": "string",
          "name": "",
          "type": "string"
        }
      ],
      "stateMutability": "view",
      "type": "function"
    },
    {
      "inputs": [],
      "name": "THE_COLORS_LEGACY",
      "outputs": [
        {
          "internalType": "address",
          "name": "",
          "type": "address"
        }
      ],
      "stateMutability": "view",
      "type": "function"
    },
    {
      "inputs": [
        {
          "internalType": "address",
          "name": "to",
          "type": "address"
        },
        {
          "internalType": "uint256",
          "name": "tokenId",
          "type": "uint256"
        }
      ],
      "name": "approve",
      "outputs": [],
      "stateMutability": "nonpayable",
      "type": "function"
    },
    {
      "inputs": [
        {
          "internalType": "address",
          "name": "owner",
          "type": "address"
        }
      ],
      "name": "balanceOf",
      "outputs": [
        {
          "internalType": "uint256",
          "name": "",
          "type": "uint256"
        }
      ],
      "stateMutability": "view",
      "type": "function"
    },
    {
      "inputs": [
        {
          "internalType": "uint32",
          "name": "",
          "type": "uint32"
        }
      ],
      "name": "existingHexColors",
      "outputs": [
        {
          "internalType": "bool",
          "name": "",
          "type": "bool"
        }
      ],
      "stateMutability": "view",
      "type": "function"
    },
    {
      "inputs": [
        {
          "internalType": "uint256",
          "name": "tokenId",
          "type": "uint256"
        }
      ],
      "name": "getApproved",
      "outputs": [
        {
          "internalType": "address",
          "name": "",
          "type": "address"
        }
      ],
      "stateMutability": "view",
      "type": "function"
    },
    {
      "inputs": [
        {
          "internalType": "uint256",
          "name": "tokenId",
          "type": "uint256"
        }
      ],
      "name": "getBase64TokenSVG",
      "outputs": [
        {
          "internalType": "string",
          "name": "",
          "type": "string"
        }
      ],
      "stateMutability": "view",
      "type": "function"
    },
    {
      "inputs": [
        {
          "internalType": "uint256",
          "name": "tokenId",
          "type": "uint256"
        }
      ],
      "name": "getBlue",
      "outputs": [
        {
          "internalType": "uint32",
          "name": "",
          "type": "uint32"
        }
      ],
      "stateMutability": "view",
      "type": "function"
    },
    {
      "inputs": [
        {
          "internalType": "uint256",
          "name": "tokenId",
          "type": "uint256"
        }
      ],
      "name": "getGreen",
      "outputs": [
        {
          "internalType": "uint32",
          "name": "",
          "type": "uint32"
        }
      ],
      "stateMutability": "view",
      "type": "function"
    },
    {
      "inputs": [
        {
          "internalType": "uint256",
          "name": "tokenId",
          "type": "uint256"
        }
      ],
      "name": "getHexColor",
      "outputs": [
        {
          "internalType": "string",
          "name": "",
          "type": "string"
        }
      ],
      "stateMutability": "view",
      "type": "function"
    },
    {
      "inputs": [
        {
          "internalType": "uint256",
          "name": "tokenId",
          "type": "uint256"
        }
      ],
      "name": "getRGB",
      "outputs": [
        {
          "internalType": "string",
          "name": "",
          "type": "string"
        }
      ],
      "stateMutability": "view",
      "type": "function"
    },
    {
      "inputs": [
        {
          "internalType": "uint256",
          "name": "tokenId",
          "type": "uint256"
        }
      ],
      "name": "getRed",
      "outputs": [
        {
          "internalType": "uint32",
          "name": "",
          "type": "uint32"
        }
      ],
      "stateMutability": "view",
      "type": "function"
    },
    {
      "inputs": [
        {
          "internalType": "uint256",
          "name": "tokenId",
          "type": "uint256"
        }
      ],
      "name": "getTokenMetadata",
      "outputs": [
        {
          "internalType": "string",
          "name": "",
          "type": "string"
        }
      ],
      "stateMutability": "view",
      "type": "function"
    },
    {
      "inputs": [
        {
          "internalType": "uint256",
          "name": "tokenId",
          "type": "uint256"
        }
      ],
      "name": "getTokenSVG",
      "outputs": [
        {
          "internalType": "string",
          "name": "",
          "type": "string"
        }
      ],
      "stateMutability": "view",
      "type": "function"
    },
    {
      "inputs": [
        {
          "internalType": "address",
          "name": "owner",
          "type": "address"
        },
        {
          "internalType": "address",
          "name": "operator",
          "type": "address"
        }
      ],
      "name": "isApprovedForAll",
      "outputs": [
        {
          "internalType": "bool",
          "name": "",
          "type": "bool"
        }
      ],
      "stateMutability": "view",
      "type": "function"
    },
    {
      "inputs": [
        {
          "internalType": "uint256",
          "name": "numberOfTokens",
          "type": "uint256"
        }
      ],
      "name": "mintNextColors",
      "outputs": [],
      "stateMutability": "nonpayable",
      "type": "function"
    },
    {
      "inputs": [],
      "name": "name",
      "outputs": [
        {
          "internalType": "string",
          "name": "",
          "type": "string"
        }
      ],
      "stateMutability": "view",
      "type": "function"
    },
    {
      "inputs": [],
      "name": "owner",
      "outputs": [
        {
          "internalType": "address",
          "name": "",
          "type": "address"
        }
      ],
      "stateMutability": "view",
      "type": "function"
    },
    {
      "inputs": [
        {
          "internalType": "uint256",
          "name": "tokenId",
          "type": "uint256"
        }
      ],
      "name": "ownerOf",
      "outputs": [
        {
          "internalType": "address",
          "name": "",
          "type": "address"
        }
      ],
      "stateMutability": "view",
      "type": "function"
    },
    {
      "inputs": [],
      "name": "renounceOwnership",
      "outputs": [],
      "stateMutability": "nonpayable",
      "type": "function"
    },
    {
      "inputs": [
        {
          "internalType": "address",
          "name": "from",
          "type": "address"
        },
        {
          "internalType": "address",
          "name": "to",
          "type": "address"
        },
        {
          "internalType": "uint256",
          "name": "tokenId",
          "type": "uint256"
        }
      ],
      "name": "safeTransferFrom",
      "outputs": [],
      "stateMutability": "nonpayable",
      "type": "function"
    },
    {
      "inputs": [
        {
          "internalType": "address",
          "name": "from",
          "type": "address"
        },
        {
          "internalType": "address",
          "name": "to",
          "type": "address"
        },
        {
          "internalType": "uint256",
          "name": "tokenId",
          "type": "uint256"
        },
        {
          "internalType": "bytes",
          "name": "_data",
          "type": "bytes"
        }
      ],
      "name": "safeTransferFrom",
      "outputs": [],
      "stateMutability": "nonpayable",
      "type": "function"
    },
    {
      "inputs": [
        {
          "internalType": "address",
          "name": "operator",
          "type": "address"
        },
        {
          "internalType": "bool",
          "name": "approved",
          "type": "bool"
        }
      ],
      "name": "setApprovalForAll",
      "outputs": [],
      "stateMutability": "nonpayable",
      "type": "function"
    },
    {
      "inputs": [
        {
          "internalType": "string",
          "name": "provenanceHash",
          "type": "string"
        }
      ],
      "name": "setProvenanceHash",
      "outputs": [],
      "stateMutability": "nonpayable",
      "type": "function"
    },
    {
      "inputs": [
        {
          "internalType": "bytes4",
          "name": "interfaceId",
          "type": "bytes4"
        }
      ],
      "name": "supportsInterface",
      "outputs": [
        {
          "internalType": "bool",
          "name": "",
          "type": "bool"
        }
      ],
      "stateMutability": "view",
      "type": "function"
    },
    {
      "inputs": [],
      "name": "symbol",
      "outputs": [
        {
          "internalType": "string",
          "name": "",
          "type": "string"
        }
      ],
      "stateMutability": "view",
      "type": "function"
    },
    {
      "inputs": [
        {
          "internalType": "uint256",
          "name": "index",
          "type": "uint256"
        }
      ],
      "name": "tokenByIndex",
      "outputs": [
        {
          "internalType": "uint256",
          "name": "",
          "type": "uint256"
        }
      ],
      "stateMutability": "view",
      "type": "function"
    },
    {
      "inputs": [
        {
          "internalType": "address",
          "name": "owner",
          "type": "address"
        },
        {
          "internalType": "uint256",
          "name": "index",
          "type": "uint256"
        }
      ],
      "name": "tokenOfOwnerByIndex",
      "outputs": [
        {
          "internalType": "uint256",
          "name": "",
          "type": "uint256"
        }
      ],
      "stateMutability": "view",
      "type": "function"
    },
    {
      "inputs": [
        {
          "internalType": "uint256",
          "name": "tokenId",
          "type": "uint256"
        }
      ],
      "name": "tokenURI",
      "outputs": [
        {
          "internalType": "string",
          "name": "",
          "type": "string"
        }
      ],
      "stateMutability": "view",
      "type": "function"
    },
    {
      "inputs": [],
      "name": "totalSupply",
      "outputs": [
        {
          "internalType": "uint256",
          "name": "",
          "type": "uint256"
        }
      ],
      "stateMutability": "view",
      "type": "function"
    },
    {
      "inputs": [
        {
          "internalType": "address",
          "name": "from",
          "type": "address"
        },
        {
          "internalType": "address",
          "name": "to",
          "type": "address"
        },
        {
          "internalType": "uint256",
          "name": "tokenId",
          "type": "uint256"
        }
      ],
      "name": "transferFrom",
      "outputs": [],
      "stateMutability": "nonpayable",
      "type": "function"
    },
    {
      "inputs": [
        {
          "internalType": "address",
          "name": "newOwner",
          "type": "address"
        }
      ],
      "name": "transferOwnership",
      "outputs": [],
      "stateMutability": "nonpayable",
      "type": "function"
    },
    {
      "inputs": [
        {
          "internalType": "uint256",
          "name": "number",
          "type": "uint256"
        }
      ],
      "name": "uintToHexString",
      "outputs": [
        {
          "internalType": "string",
          "name": "",
          "type": "string"
        }
      ],
      "stateMutability": "pure",
      "type": "function"
    }
  ],
  "bytecode": "0x608060405260405180602001604052806000815250600b90805190602001906200002b929190620001ce565b503480156200003957600080fd5b506040518060400160405280601a81526020017f54686520436f6c6f72732028746865636f6c6f72732e617274290000000000008152506040518060400160405280600681526020017f434f4c4f525300000000000000000000000000000000000000000000000000008152508160009080519060200190620000be929190620001ce565b508060019080519060200190620000d7929190620001ce565b505050620000fa620000ee6200010060201b60201c565b6200010860201b60201c565b620002e3565b600033905090565b6000600a60009054906101000a900473ffffffffffffffffffffffffffffffffffffffff16905081600a60006101000a81548173ffffffffffffffffffffffffffffffffffffffff021916908373ffffffffffffffffffffffffffffffffffffffff1602179055508173ffffffffffffffffffffffffffffffffffffffff168173ffffffffffffffffffffffffffffffffffffffff167f8be0079c531659141344cd1fd0a4f28419497f9722a3daafe3b4186f6b6457e060405160405180910390a35050565b828054620001dc906200027e565b90600052602060002090601f0160209004810192826200020057600085556200024c565b82601f106200021b57805160ff19168380011785556200024c565b828001600101855582156200024c579182015b828111156200024b5782518255916020019190600101906200022e565b5b5090506200025b91906200025f565b5090565b5b808211156200027a57600081600090555060010162000260565b5090565b600060028204905060018216806200029757607f821691505b60208210811415620002ae57620002ad620002b4565b5b50919050565b7f4e487b7100000000000000000000000000000000000000000000000000000000600052602260045260246000fd5b61592780620002f36000396000f3fe608060405234801561001057600080fd5b50600436106102065760003560e01c8063715018a61161011a578063a22cb465116100ad578063ce02f8231161007c578063ce02f8231461065d578063e01c8fa11461068d578063e985e9c5146106bd578063f2fde38b146106ed578063ff1b65561461070957610206565b8063a22cb465146105c5578063b88d4fde146105e1578063c7ab2dbc146105fd578063c87b56dd1461062d57610206565b806382afe39f116100e957806382afe39f1461053b5780638da5cb5b1461056b5780638daf15b01461058957806395d89b41146105a757610206565b8063715018a6146104c75780637a8013c3146104d15780637cee7d37146105015780637eccd5941461051d57610206565b80632f745c591161019d578063521b80571161016c578063521b8057146103d757806360316801146104075780636352211e14610437578063696a82b71461046757806370a082311461049757610206565b80632f745c591461032b57806342842e0e1461035b578063469a6ed5146103775780634f6ccce7146103a757610206565b806310969523116101d957806310969523146102a557806318160ddd146102c1578063232f06b7146102df57806323b872dd1461030f57610206565b806301ffc9a71461020b57806306fdde031461023b578063081812fc14610259578063095ea7b314610289575b600080fd5b610225600480360381019061022091906138c6565b610727565b6040516102329190614566565b60405180910390f35b6102436107a1565b6040516102509190614581565b60405180910390f35b610273600480360381019061026e9190613959565b610833565b60405161028091906144ff565b60405180910390f35b6102a3600480360381019061029e919061388a565b6108b8565b005b6102bf60048036038101906102ba9190613918565b6109d0565b005b6102c9610a66565b6040516102d69190614803565b60405180910390f35b6102f960048036038101906102f49190613959565b610a73565b6040516103069190614581565b60405180910390f35b61032960048036038101906103249190613784565b610d9e565b005b6103456004803603810190610340919061388a565b610dfe565b6040516103529190614803565b60405180910390f35b61037560048036038101906103709190613784565b610ea3565b005b610391600480360381019061038c9190613959565b610ec3565b60405161039e919061481e565b60405180910390f35b6103c160048036038101906103bc9190613959565b610ef8565b6040516103ce9190614803565b60405180910390f35b6103f160048036038101906103ec9190613959565b610f8f565b6040516103fe9190614581565b60405180910390f35b610421600480360381019061041c9190613959565b611010565b60405161042e9190614581565b60405180910390f35b610451600480360381019061044c9190613959565b6110b4565b60405161045e91906144ff565b60405180910390f35b610481600480360381019061047c9190613982565b611166565b60405161048e9190614566565b60405180910390f35b6104b160048036038101906104ac91906136f6565b611186565b6040516104be9190614803565b60405180910390f35b6104cf61123e565b005b6104eb60048036038101906104e69190613959565b6112c6565b6040516104f8919061481e565b60405180910390f35b61051b60048036038101906105169190613959565b611305565b005b6105256114ce565b6040516105329190614803565b60405180910390f35b61055560048036038101906105509190613959565b6114d4565b604051610562919061481e565b60405180910390f35b610573611513565b60405161058091906144ff565b60405180910390f35b61059161153d565b60405161059e91906144ff565b60405180910390f35b6105af611555565b6040516105bc9190614581565b60405180910390f35b6105df60048036038101906105da919061384e565b6115e7565b005b6105fb60048036038101906105f691906137d3565b6115fd565b005b61061760048036038101906106129190613959565b61165f565b6040516106249190614581565b60405180910390f35b61064760048036038101906106429190613959565b6116ae565b6040516106549190614581565b60405180910390f35b61067760048036038101906106729190613959565b6117e5565b6040516106849190614581565b60405180910390f35b6106a760048036038101906106a29190613959565b611861565b6040516106b49190614581565b60405180910390f35b6106d760048036038101906106d29190613748565b6118c7565b6040516106e49190614566565b60405180910390f35b610707600480360381019061070291906136f6565b61195b565b005b610711611a53565b60405161071e9190614581565b60405180910390f35b60007f780e9d63000000000000000000000000000000000000000000000000000000007bffffffffffffffffffffffffffffffffffffffffffffffffffffffff1916827bffffffffffffffffffffffffffffffffffffffffffffffffffffffff1916148061079a575061079982611ae1565b5b9050919050565b6060600080546107b090614af0565b80601f01602080910402602001604051908101604052809291908181526020018280546107dc90614af0565b80156108295780601f106107fe57610100808354040283529160200191610829565b820191906000526020600020905b81548152906001019060200180831161080c57829003601f168201915b5050505050905090565b600061083e82611bc3565b61087d576040517f08c379a000000000000000000000000000000000000000000000000000000000815260040161087490614723565b60405180910390fd5b6004600083815260200190815260200160002060009054906101000a900473ffffffffffffffffffffffffffffffffffffffff169050919050565b60006108c3826110b4565b90508073ffffffffffffffffffffffffffffffffffffffff168373ffffffffffffffffffffffffffffffffffffffff161415610934576040517f08c379a000000000000000000000000000000000000000000000000000000000815260040161092b906147a3565b60405180910390fd5b8073ffffffffffffffffffffffffffffffffffffffff16610953611c2f565b73ffffffffffffffffffffffffffffffffffffffff16148061098257506109818161097c611c2f565b6118c7565b5b6109c1576040517f08c379a00000000000000000000000000000000000000000000000000000000081526004016109b8906146a3565b60405180910390fd5b6109cb8383611c37565b505050565b6109d8611c2f565b73ffffffffffffffffffffffffffffffffffffffff166109f6611513565b73ffffffffffffffffffffffffffffffffffffffff1614610a4c576040517f08c379a0000000000000000000000000000000000000000000000000000000008152600401610a4390614743565b60405180910390fd5b80600b9080519060200190610a629291906134f0565b5050565b6000600880549050905090565b606060008260001b905060006040518060400160405280601081526020017f303132333435363738396162636465660000000000000000000000000000000081525090506000600667ffffffffffffffff811115610afa577f4e487b7100000000000000000000000000000000000000000000000000000000600052604160045260246000fd5b6040519080825280601f01601f191660200182016040528015610b2c5781602001600182028036833780820191505090505b50905060005b6003811015610d925782600485601d84610b4c9190614903565b60208110610b83577f4e487b7100000000000000000000000000000000000000000000000000000000600052603260045260246000fd5b1a60f81b7effffffffffffffffffffffffffffffffffffffffffffffffffffffffffffff1916901c60f81c60ff1681518110610be8577f4e487b7100000000000000000000000000000000000000000000000000000000600052603260045260246000fd5b602001015160f81c60f81b82600283610c01919061498a565b81518110610c38577f4e487b7100000000000000000000000000000000000000000000000000000000600052603260045260246000fd5b60200101907effffffffffffffffffffffffffffffffffffffffffffffffffffffffffffff1916908160001a90535082600f60f81b85601d84610c7b9190614903565b60208110610cb2577f4e487b7100000000000000000000000000000000000000000000000000000000600052603260045260246000fd5b1a60f81b1660f81c60ff1681518110610cf4577f4e487b7100000000000000000000000000000000000000000000000000000000600052603260045260246000fd5b602001015160f81c60f81b82600283610d0d919061498a565b6001610d199190614903565b81518110610d50577f4e487b7100000000000000000000000000000000000000000000000000000000600052603260045260246000fd5b60200101907effffffffffffffffffffffffffffffffffffffffffffffffffffffffffffff1916908160001a9053508080610d8a90614b53565b915050610b32565b50809350505050919050565b610daf610da9611c2f565b82611cf0565b610dee576040517f08c379a0000000000000000000000000000000000000000000000000000000008152600401610de5906147c3565b60405180910390fd5b610df9838383611dce565b505050565b6000610e0983611186565b8210610e4a576040517f08c379a0000000000000000000000000000000000000000000000000000000008152600401610e41906145a3565b60405180910390fd5b600660008473ffffffffffffffffffffffffffffffffffffffff1673ffffffffffffffffffffffffffffffffffffffff168152602001908152602001600020600083815260200190815260200160002054905092915050565b610ebe838383604051806020016040528060008152506115fd565b505050565b600080600c600084815260200190815260200160002060009054906101000a900463ffffffff16905060ff8116915050919050565b6000610f02610a66565b8210610f43576040517f08c379a0000000000000000000000000000000000000000000000000000000008152600401610f3a906147e3565b60405180910390fd5b60088281548110610f7d577f4e487b7100000000000000000000000000000000000000000000000000000000600052603260045260246000fd5b90600052602060002001549050919050565b60606000610faa610f9f846112c6565b63ffffffff1661202a565b90506000610fc5610fba856114d4565b63ffffffff1661202a565b90506000610fe0610fd586610ec3565b63ffffffff1661202a565b9050828282604051602001610ff793929190614204565b6040516020818303038152906040529350505050919050565b60606000600c600084815260200190815260200160002060009054906101000a900463ffffffff169050600061104b8263ffffffff16610a73565b9050600061106061105b836121d7565b612200565b90508061107461106f846121d7565b6123ab565b61107e8785612712565b6110888686612748565b60405160200161109b9493929190614299565b6040516020818303038152906040529350505050919050565b6000806002600084815260200190815260200160002060009054906101000a900473ffffffffffffffffffffffffffffffffffffffff169050600073ffffffffffffffffffffffffffffffffffffffff168173ffffffffffffffffffffffffffffffffffffffff16141561115d576040517f08c379a0000000000000000000000000000000000000000000000000000000008152600401611154906146e3565b60405180910390fd5b80915050919050565b600d6020528060005260406000206000915054906101000a900460ff1681565b60008073ffffffffffffffffffffffffffffffffffffffff168273ffffffffffffffffffffffffffffffffffffffff1614156111f7576040517f08c379a00000000000000000000000000000000000000000000000000000000081526004016111ee906146c3565b60405180910390fd5b600360008373ffffffffffffffffffffffffffffffffffffffff1673ffffffffffffffffffffffffffffffffffffffff168152602001908152602001600020549050919050565b611246611c2f565b73ffffffffffffffffffffffffffffffffffffffff16611264611513565b73ffffffffffffffffffffffffffffffffffffffff16146112ba576040517f08c379a00000000000000000000000000000000000000000000000000000000081526004016112b190614743565b60405180910390fd5b6112c460006127fc565b565b600080600c600084815260200190815260200160002060009054906101000a900463ffffffff16905060ff60108263ffffffff16901c16915050919050565b61130d611c2f565b73ffffffffffffffffffffffffffffffffffffffff1661132b611513565b73ffffffffffffffffffffffffffffffffffffffff1614611381576040517f08c379a000000000000000000000000000000000000000000000000000000000815260040161137890614743565b60405180910390fd5b6110dd8161138d610a66565b6113979190614903565b11156113d8576040517f08c379a00000000000000000000000000000000000000000000000000000000081526004016113cf906145e3565b60405180910390fd5b60008060005b838110156114c8576113ee610a66565b92506110dd6113fb610a66565b10156114b55773c22f6c6f04c24fac546a43eb2e2eb10b1d2953da73ffffffffffffffffffffffffffffffffffffffff16636352211e846040518263ffffffff1660e01b815260040161144e9190614803565b60206040518083038186803b15801561146657600080fd5b505afa15801561147a573d6000803e3d6000fd5b505050506040513d601f19601f8201168201806040525081019061149e919061371f565b91506114aa82846128c2565b6114b3836128e0565b505b80806114c090614b53565b9150506113de565b50505050565b6110dd81565b600080600c600084815260200190815260200160002060009054906101000a900463ffffffff16905060ff60088263ffffffff16901c16915050919050565b6000600a60009054906101000a900473ffffffffffffffffffffffffffffffffffffffff16905090565b73c22f6c6f04c24fac546a43eb2e2eb10b1d2953da81565b60606001805461156490614af0565b80601f016020809104026020016040519081016040528092919081815260200182805461159090614af0565b80156115dd5780601f106115b2576101008083540402835291602001916115dd565b820191906000526020600020905b8154815290600101906020018083116115c057829003601f168201915b5050505050905090565b6115f96115f2611c2f565b83836129d3565b5050565b61160e611608611c2f565b83611cf0565b61164d576040517f08c379a0000000000000000000000000000000000000000000000000000000008152600401611644906147c3565b60405180910390fd5b61165984848484612b40565b50505050565b60606000600c600084815260200190815260200160002060009054906101000a900463ffffffff169050600061169a8263ffffffff16610a73565b90506116a5816121d7565b92505050919050565b60606000600c600084815260200190815260200160002060009054906101000a900463ffffffff1663ffffffff161161171c576040517f08c379a000000000000000000000000000000000000000000000000000000000815260040161171390614783565b60405180910390fd5b6000600c600084815260200190815260200160002060009054906101000a900463ffffffff16905060006117558263ffffffff16610a73565b9050600061176a611765836121d7565b612200565b90506117bc8161178161177c856121d7565b6123ab565b61178b8886612712565b6117958787612748565b6040516020016117a8949392919061432f565b604051602081830303815290604052612200565b6040516020016117cc91906143dc565b6040516020818303038152906040529350505050919050565b60606000600c600084815260200190815260200160002060009054906101000a900463ffffffff16905060006118208263ffffffff16610a73565b90506000611835611830836121d7565b612200565b90508060405160200161184891906143fe565b6040516020818303038152906040529350505050919050565b60606000600c600084815260200190815260200160002060009054906101000a900463ffffffff169050600061189c8263ffffffff16610a73565b9050806040516020016118af91906143ba565b60405160208183030381529060405292505050919050565b6000600560008473ffffffffffffffffffffffffffffffffffffffff1673ffffffffffffffffffffffffffffffffffffffff16815260200190815260200160002060008373ffffffffffffffffffffffffffffffffffffffff1673ffffffffffffffffffffffffffffffffffffffff16815260200190815260200160002060009054906101000a900460ff16905092915050565b611963611c2f565b73ffffffffffffffffffffffffffffffffffffffff16611981611513565b73ffffffffffffffffffffffffffffffffffffffff16146119d7576040517f08c379a00000000000000000000000000000000000000000000000000000000081526004016119ce90614743565b60405180910390fd5b600073ffffffffffffffffffffffffffffffffffffffff168173ffffffffffffffffffffffffffffffffffffffff161415611a47576040517f08c379a0000000000000000000000000000000000000000000000000000000008152600401611a3e90614603565b60405180910390fd5b611a50816127fc565b50565b600b8054611a6090614af0565b80601f0160208091040260200160405190810160405280929190818152602001828054611a8c90614af0565b8015611ad95780601f10611aae57610100808354040283529160200191611ad9565b820191906000526020600020905b815481529060010190602001808311611abc57829003601f168201915b505050505081565b60007f80ac58cd000000000000000000000000000000000000000000000000000000007bffffffffffffffffffffffffffffffffffffffffffffffffffffffff1916827bffffffffffffffffffffffffffffffffffffffffffffffffffffffff19161480611bac57507f5b5e139f000000000000000000000000000000000000000000000000000000007bffffffffffffffffffffffffffffffffffffffffffffffffffffffff1916827bffffffffffffffffffffffffffffffffffffffffffffffffffffffff1916145b80611bbc5750611bbb82612b9c565b5b9050919050565b60008073ffffffffffffffffffffffffffffffffffffffff166002600084815260200190815260200160002060009054906101000a900473ffffffffffffffffffffffffffffffffffffffff1673ffffffffffffffffffffffffffffffffffffffff1614159050919050565b600033905090565b816004600083815260200190815260200160002060006101000a81548173ffffffffffffffffffffffffffffffffffffffff021916908373ffffffffffffffffffffffffffffffffffffffff160217905550808273ffffffffffffffffffffffffffffffffffffffff16611caa836110b4565b73ffffffffffffffffffffffffffffffffffffffff167f8c5be1e5ebec7d5bd14f71427d1e84f3dd0314c0f7b2291e5b200ac8c7c3b92560405160405180910390a45050565b6000611cfb82611bc3565b611d3a576040517f08c379a0000000000000000000000000000000000000000000000000000000008152600401611d3190614683565b60405180910390fd5b6000611d45836110b4565b90508073ffffffffffffffffffffffffffffffffffffffff168473ffffffffffffffffffffffffffffffffffffffff161480611db457508373ffffffffffffffffffffffffffffffffffffffff16611d9c84610833565b73ffffffffffffffffffffffffffffffffffffffff16145b80611dc55750611dc481856118c7565b5b91505092915050565b8273ffffffffffffffffffffffffffffffffffffffff16611dee826110b4565b73ffffffffffffffffffffffffffffffffffffffff1614611e44576040517f08c379a0000000000000000000000000000000000000000000000000000000008152600401611e3b90614763565b60405180910390fd5b600073ffffffffffffffffffffffffffffffffffffffff168273ffffffffffffffffffffffffffffffffffffffff161415611eb4576040517f08c379a0000000000000000000000000000000000000000000000000000000008152600401611eab90614643565b60405180910390fd5b611ebf838383612c06565b611eca600082611c37565b6001600360008573ffffffffffffffffffffffffffffffffffffffff1673ffffffffffffffffffffffffffffffffffffffff1681526020019081526020016000206000828254611f1a91906149e4565b925050819055506001600360008473ffffffffffffffffffffffffffffffffffffffff1673ffffffffffffffffffffffffffffffffffffffff1681526020019081526020016000206000828254611f719190614903565b92505081905550816002600083815260200190815260200160002060006101000a81548173ffffffffffffffffffffffffffffffffffffffff021916908373ffffffffffffffffffffffffffffffffffffffff160217905550808273ffffffffffffffffffffffffffffffffffffffff168473ffffffffffffffffffffffffffffffffffffffff167fddf252ad1be2c89b69c2b068fc378daa952ba7f163c4a11628f55a4df523b3ef60405160405180910390a4505050565b60606000821415612072576040518060400160405280600181526020017f300000000000000000000000000000000000000000000000000000000000000081525090506121d2565b600082905060005b600082146120a457808061208d90614b53565b915050600a8261209d9190614959565b915061207a565b60008167ffffffffffffffff8111156120e6577f4e487b7100000000000000000000000000000000000000000000000000000000600052604160045260246000fd5b6040519080825280601f01601f1916602001820160405280156121185781602001600182028036833780820191505090505b5090505b600085146121cb5760018261213191906149e4565b9150600a856121409190614bca565b603061214c9190614903565b60f81b818381518110612188577f4e487b7100000000000000000000000000000000000000000000000000000000600052603260045260246000fd5b60200101907effffffffffffffffffffffffffffffffffffffffffffffffffffffffffffff1916908160001a905350600a856121c49190614959565b945061211c565b8093505050505b919050565b6060816040516020016121ea9190614261565b6040516020818303038152906040529050919050565b6060600082511415612223576040518060200160405280600081525090506123a6565b60006040518060600160405280604081526020016158b260409139905060006003600285516122529190614903565b61225c9190614959565b6004612268919061498a565b905060006020826122799190614903565b67ffffffffffffffff8111156122b8577f4e487b7100000000000000000000000000000000000000000000000000000000600052604160045260246000fd5b6040519080825280601f01601f1916602001820160405280156122ea5781602001600182028036833780820191505090505b509050818152600183018586518101602084015b81831015612365576003830192508251603f8160121c1685015160f81b8252600182019150603f81600c1c1685015160f81b8252600182019150603f8160061c1685015160f81b8252600182019150603f811685015160f81b8252600182019150506122fe565b60038951066001811461237f576002811461238f5761239a565b613d3d60f01b600283035261239a565b603d60f81b60018303525b50505050508093505050505b919050565b606060008290506000805b825181101561246e577f2200000000000000000000000000000000000000000000000000000000000000838281518110612419577f4e487b7100000000000000000000000000000000000000000000000000000000600052603260045260246000fd5b602001015160f81c60f81b7effffffffffffffffffffffffffffffffffffffffffffffffffffffffffffff1916141561245b57818061245790614b53565b9250505b808061246690614b53565b9150506123b6565b5060008111156127075760008183516124879190614903565b67ffffffffffffffff8111156124c6577f4e487b7100000000000000000000000000000000000000000000000000000000600052604160045260246000fd5b6040519080825280601f01601f1916602001820160405280156124f85781602001600182028036833780820191505090505b509050600080600090505b84518110156126fa577f2200000000000000000000000000000000000000000000000000000000000000858281518110612566577f4e487b7100000000000000000000000000000000000000000000000000000000600052603260045260246000fd5b602001015160f81c60f81b7effffffffffffffffffffffffffffffffffffffffffffffffffffffffffffff1916141561262f577f5c000000000000000000000000000000000000000000000000000000000000008383806125c690614b53565b9450815181106125ff577f4e487b7100000000000000000000000000000000000000000000000000000000600052603260045260246000fd5b60200101907effffffffffffffffffffffffffffffffffffffffffffffffffffffffffffff1916908160001a9053505b848181518110612668577f4e487b7100000000000000000000000000000000000000000000000000000000600052603260045260246000fd5b602001015160f81c60f81b83838061267f90614b53565b9450815181106126b8577f4e487b7100000000000000000000000000000000000000000000000000000000600052603260045260246000fd5b60200101907effffffffffffffffffffffffffffffffffffffffffffffffffffffffffffff1916908160001a90535080806126f290614b53565b915050612503565b508194505050505061270d565b83925050505b919050565b60608161271e8461202a565b8360405160200161273193929190614186565b604051602081830303815290604052905092915050565b6060600061276860ff60108663ffffffff16901c1663ffffffff1661202a565b9050600061278860ff60088763ffffffff16901c1663ffffffff1661202a565b9050600061279e60ff871663ffffffff1661202a565b905060008383836040516020016127b793929190614204565b604051602081830303815290604052905085818585856040516020016127e1959493929190614420565b60405160208183030381529060405294505050505092915050565b6000600a60009054906101000a900473ffffffffffffffffffffffffffffffffffffffff16905081600a60006101000a81548173ffffffffffffffffffffffffffffffffffffffff021916908373ffffffffffffffffffffffffffffffffffffffff1602179055508173ffffffffffffffffffffffffffffffffffffffff168173ffffffffffffffffffffffffffffffffffffffff167f8be0079c531659141344cd1fd0a4f28419497f9722a3daafe3b4186f6b6457e060405160405180910390a35050565b6128dc828260405180602001604052806000815250612d1a565b5050565b60008062ffffff6128ef612d75565b6128f99190614bca565b90505b600d60008263ffffffff1663ffffffff16815260200190815260200160002060009054906101000a900460ff16156129605762ffffff834261293e919061498a565b8263ffffffff1661294f9190614903565b6129599190614bca565b90506128fc565b6001600d60008363ffffffff1663ffffffff16815260200190815260200160002060006101000a81548160ff02191690831515021790555080600c600085815260200190815260200160002060006101000a81548163ffffffff021916908363ffffffff16021790555080915050919050565b8173ffffffffffffffffffffffffffffffffffffffff168373ffffffffffffffffffffffffffffffffffffffff161415612a42576040517f08c379a0000000000000000000000000000000000000000000000000000000008152600401612a3990614663565b60405180910390fd5b80600560008573ffffffffffffffffffffffffffffffffffffffff1673ffffffffffffffffffffffffffffffffffffffff16815260200190815260200160002060008473ffffffffffffffffffffffffffffffffffffffff1673ffffffffffffffffffffffffffffffffffffffff16815260200190815260200160002060006101000a81548160ff0219169083151502179055508173ffffffffffffffffffffffffffffffffffffffff168373ffffffffffffffffffffffffffffffffffffffff167f17307eab39ab6107e8899845ad3d59bd9653f200f220920489ca2b5937696c3183604051612b339190614566565b60405180910390a3505050565b612b4b848484611dce565b612b5784848484612dfb565b612b96576040517f08c379a0000000000000000000000000000000000000000000000000000000008152600401612b8d906145c3565b60405180910390fd5b50505050565b60007f01ffc9a7000000000000000000000000000000000000000000000000000000007bffffffffffffffffffffffffffffffffffffffffffffffffffffffff1916827bffffffffffffffffffffffffffffffffffffffffffffffffffffffff1916149050919050565b612c11838383612f92565b600073ffffffffffffffffffffffffffffffffffffffff168373ffffffffffffffffffffffffffffffffffffffff161415612c5457612c4f81612f97565b612c93565b8173ffffffffffffffffffffffffffffffffffffffff168373ffffffffffffffffffffffffffffffffffffffff1614612c9257612c918382612fe0565b5b5b600073ffffffffffffffffffffffffffffffffffffffff168273ffffffffffffffffffffffffffffffffffffffff161415612cd657612cd18161314d565b612d15565b8273ffffffffffffffffffffffffffffffffffffffff168273ffffffffffffffffffffffffffffffffffffffff1614612d1457612d138282613290565b5b5b505050565b612d24838361330f565b612d316000848484612dfb565b612d70576040517f08c379a0000000000000000000000000000000000000000000000000000000008152600401612d67906145c3565b60405180910390fd5b505050565b6000454341604051602001612d8a919061416b565b6040516020818303038152906040528051906020012060001c612dad9190614959565b4442612db99190614903565b604051602001612dc991906144e4565b6040516020818303038152906040528051906020012060001c612dec9190614903565b612df69190614903565b905090565b6000612e1c8473ffffffffffffffffffffffffffffffffffffffff166134dd565b15612f85578373ffffffffffffffffffffffffffffffffffffffff1663150b7a02612e45611c2f565b8786866040518563ffffffff1660e01b8152600401612e67949392919061451a565b602060405180830381600087803b158015612e8157600080fd5b505af1925050508015612eb257506040513d601f19601f82011682018060405250810190612eaf91906138ef565b60015b612f35573d8060008114612ee2576040519150601f19603f3d011682016040523d82523d6000602084013e612ee7565b606091505b50600081511415612f2d576040517f08c379a0000000000000000000000000000000000000000000000000000000008152600401612f24906145c3565b60405180910390fd5b805181602001fd5b63150b7a0260e01b7bffffffffffffffffffffffffffffffffffffffffffffffffffffffff1916817bffffffffffffffffffffffffffffffffffffffffffffffffffffffff191614915050612f8a565b600190505b949350505050565b505050565b6008805490506009600083815260200190815260200160002081905550600881908060018154018082558091505060019003906000526020600020016000909190919091505550565b60006001612fed84611186565b612ff791906149e4565b90506000600760008481526020019081526020016000205490508181146130dc576000600660008673ffffffffffffffffffffffffffffffffffffffff1673ffffffffffffffffffffffffffffffffffffffff168152602001908152602001600020600084815260200190815260200160002054905080600660008773ffffffffffffffffffffffffffffffffffffffff1673ffffffffffffffffffffffffffffffffffffffff168152602001908152602001600020600084815260200190815260200160002081905550816007600083815260200190815260200160002081905550505b6007600084815260200190815260200160002060009055600660008573ffffffffffffffffffffffffffffffffffffffff1673ffffffffffffffffffffffffffffffffffffffff16815260200190815260200160002060008381526020019081526020016000206000905550505050565b6000600160088054905061316191906149e4565b90506000600960008481526020019081526020016000205490506000600883815481106131b7577f4e487b7100000000000000000000000000000000000000000000000000000000600052603260045260246000fd5b9060005260206000200154905080600883815481106131ff577f4e487b7100000000000000000000000000000000000000000000000000000000600052603260045260246000fd5b906000526020600020018190555081600960008381526020019081526020016000208190555060096000858152602001908152602001600020600090556008805480613274577f4e487b7100000000000000000000000000000000000000000000000000000000600052603160045260246000fd5b6001900381819060005260206000200160009055905550505050565b600061329b83611186565b905081600660008573ffffffffffffffffffffffffffffffffffffffff1673ffffffffffffffffffffffffffffffffffffffff168152602001908152602001600020600083815260200190815260200160002081905550806007600084815260200190815260200160002081905550505050565b600073ffffffffffffffffffffffffffffffffffffffff168273ffffffffffffffffffffffffffffffffffffffff16141561337f576040517f08c379a000000000000000000000000000000000000000000000000000000000815260040161337690614703565b60405180910390fd5b61338881611bc3565b156133c8576040517f08c379a00000000000000000000000000000000000000000000000000000000081526004016133bf90614623565b60405180910390fd5b6133d460008383612c06565b6001600360008473ffffffffffffffffffffffffffffffffffffffff1673ffffffffffffffffffffffffffffffffffffffff16815260200190815260200160002060008282546134249190614903565b92505081905550816002600083815260200190815260200160002060006101000a81548173ffffffffffffffffffffffffffffffffffffffff021916908373ffffffffffffffffffffffffffffffffffffffff160217905550808273ffffffffffffffffffffffffffffffffffffffff16600073ffffffffffffffffffffffffffffffffffffffff167fddf252ad1be2c89b69c2b068fc378daa952ba7f163c4a11628f55a4df523b3ef60405160405180910390a45050565b600080823b905060008111915050919050565b8280546134fc90614af0565b90600052602060002090601f01602090048101928261351e5760008555613565565b82601f1061353757805160ff1916838001178555613565565b82800160010185558215613565579182015b82811115613564578251825591602001919060010190613549565b5b5090506135729190613576565b5090565b5b8082111561358f576000816000905550600101613577565b5090565b60006135a66135a18461485e565b614839565b9050828152602081018484840111156135be57600080fd5b6135c9848285614aae565b509392505050565b60006135e46135df8461488f565b614839565b9050828152602081018484840111156135fc57600080fd5b613607848285614aae565b509392505050565b60008135905061361e8161583e565b92915050565b6000815190506136338161583e565b92915050565b60008135905061364881615855565b92915050565b60008135905061365d8161586c565b92915050565b6000815190506136728161586c565b92915050565b600082601f83011261368957600080fd5b8135613699848260208601613593565b91505092915050565b600082601f8301126136b357600080fd5b81356136c38482602086016135d1565b91505092915050565b6000813590506136db81615883565b92915050565b6000813590506136f08161589a565b92915050565b60006020828403121561370857600080fd5b60006137168482850161360f565b91505092915050565b60006020828403121561373157600080fd5b600061373f84828501613624565b91505092915050565b6000806040838503121561375b57600080fd5b60006137698582860161360f565b925050602061377a8582860161360f565b9150509250929050565b60008060006060848603121561379957600080fd5b60006137a78682870161360f565b93505060206137b88682870161360f565b92505060406137c9868287016136cc565b9150509250925092565b600080600080608085870312156137e957600080fd5b60006137f78782880161360f565b94505060206138088782880161360f565b9350506040613819878288016136cc565b925050606085013567ffffffffffffffff81111561383657600080fd5b61384287828801613678565b91505092959194509250565b6000806040838503121561386157600080fd5b600061386f8582860161360f565b925050602061388085828601613639565b9150509250929050565b6000806040838503121561389d57600080fd5b60006138ab8582860161360f565b92505060206138bc858286016136cc565b9150509250929050565b6000602082840312156138d857600080fd5b60006138e68482850161364e565b91505092915050565b60006020828403121561390157600080fd5b600061390f84828501613663565b91505092915050565b60006020828403121561392a57600080fd5b600082013567ffffffffffffffff81111561394457600080fd5b613950848285016136a2565b91505092915050565b60006020828403121561396b57600080fd5b6000613979848285016136cc565b91505092915050565b60006020828403121561399457600080fd5b60006139a2848285016136e1565b91505092915050565b6139bc6139b782614a2a565b614b9c565b82525050565b6139cb81614a18565b82525050565b6139da81614a3c565b82525050565b60006139eb826148c0565b6139f581856148d6565b9350613a05818560208601614abd565b613a0e81614cb7565b840191505092915050565b6000613a24826148cb565b613a2e81856148e7565b9350613a3e818560208601614abd565b613a4781614cb7565b840191505092915050565b6000613a5d826148cb565b613a6781856148f8565b9350613a77818560208601614abd565b80840191505092915050565b6000613a906009836148f8565b9150613a9b82614cd5565b600982019050919050565b6000613ab3602b836148e7565b9150613abe82614cfe565b604082019050919050565b6000613ad66032836148e7565b9150613ae182614d4d565b604082019050919050565b6000613af9602a836148e7565b9150613b0482614d9c565b604082019050919050565b6000613b1c6026836148e7565b9150613b2782614deb565b604082019050919050565b6000613b3f6002836148f8565b9150613b4a82614e3a565b600282019050919050565b6000613b62601c836148e7565b9150613b6d82614e63565b602082019050919050565b6000613b856027836148f8565b9150613b9082614e8c565b602782019050919050565b6000613ba8601e836148f8565b9150613bb382614edb565b601e82019050919050565b6000613bcb6001836148f8565b9150613bd682614f04565b600182019050919050565b6000613bee6003836148f8565b9150613bf982614f2d565b600382019050919050565b6000613c116004836148f8565b9150613c1c82614f56565b600482019050919050565b6000613c346024836148e7565b9150613c3f82614f7f565b604082019050919050565b6000613c576019836148e7565b9150613c6282614fce565b602082019050919050565b6000613c7a6020836148f8565b9150613c8582614ff7565b602082019050919050565b6000613c9d602c836148e7565b9150613ca882615020565b604082019050919050565b6000613cc06001836148f8565b9150613ccb8261506f565b600182019050919050565b6000613ce36023836148f8565b9150613cee82615098565b602382019050919050565b6000613d06605a836148f8565b9150613d11826150e7565b605a82019050919050565b6000613d296038836148e7565b9150613d348261515c565b604082019050919050565b6000613d4c602a836148e7565b9150613d57826151ab565b604082019050919050565b6000613d6f6029836148e7565b9150613d7a826151fa565b604082019050919050565b6000613d92600e836148f8565b9150613d9d82615249565b600e82019050919050565b6000613db56015836148f8565b9150613dc082615272565b601582019050919050565b6000613dd86009836148f8565b9150613de38261529b565b600982019050919050565b6000613dfb6002836148f8565b9150613e06826152c4565b600282019050919050565b6000613e1e6020836148e7565b9150613e29826152ed565b602082019050919050565b6000613e416001836148f8565b9150613e4c82615316565b600182019050919050565b6000613e64602c836148e7565b9150613e6f8261533f565b604082019050919050565b6000613e876020836148e7565b9150613e928261538e565b602082019050919050565b6000613eaa6029836148e7565b9150613eb5826153b7565b604082019050919050565b6000613ecd602f836148e7565b9150613ed882615406565b604082019050919050565b6000613ef06001836148f8565b9150613efb82615455565b600182019050919050565b6000613f136001836148f8565b9150613f1e8261547e565b600182019050919050565b6000613f366001836148f8565b9150613f41826154a7565b600182019050919050565b6000613f596021836148e7565b9150613f64826154d0565b604082019050919050565b6000613f7c601d836148f8565b9150613f878261551f565b601d82019050919050565b6000613f9f601c836148f8565b9150613faa82615548565b601c82019050919050565b6000613fc2601d836148f8565b9150613fcd82615571565b601d82019050919050565b6000613fe56031836148e7565b9150613ff08261559a565b604082019050919050565b6000614008602c836148e7565b9150614013826155e9565b604082019050919050565b600061402b6002836148f8565b915061403682615638565b600282019050919050565b600061404e600f836148f8565b915061405982615661565b600f82019050919050565b600061407160af836148f8565b915061407c8261568a565b60af82019050919050565b6000614094601f836148f8565b915061409f82615771565b601f82019050919050565b60006140b76008836148f8565b91506140c28261579a565b600882019050919050565b60006140da6006836148f8565b91506140e5826157c3565b600682019050919050565b60006140fd601a836148f8565b9150614108826157ec565b601a82019050919050565b6000614120600e836148f8565b915061412b82615815565b600e82019050919050565b61413f81614a94565b82525050565b61415661415182614a94565b614bc0565b82525050565b61416581614a9e565b82525050565b600061417782846139ab565b60148201915081905092915050565b600061419182613b78565b915061419c82614064565b91506141a7826140aa565b91506141b38286613a52565b91506141be82614041565b91506141ca8285613a52565b91506141d582613b32565b91506141e082613a83565b91506141ec8284613a52565b91506141f782613b32565b9150819050949350505050565b600061420f82613c04565b915061421b8286613a52565b915061422682613bbe565b91506142328285613a52565b915061423d82613bbe565b91506142498284613a52565b915061425482613cb3565b9150819050949350505050565b600061426c82613cf9565b91506142788284613a52565b91506142838261401e565b915061428e826140cd565b915081905092915050565b60006142a482613da8565b91506142af82613ee3565b91506142ba82613dcb565b91506142c5826140f0565b91506142d18287613a52565b91506142dc82613b32565b91506142e782613d85565b91506142f38286613a52565b91506142fe82613b32565b915061430a8285613a52565b91506143168284613a52565b915061432182613e34565b915081905095945050505050565b600061433a82613ee3565b915061434582613dcb565b9150614350826140f0565b915061435c8287613a52565b915061436782613b32565b915061437282613d85565b915061437e8286613a52565b915061438982613b32565b91506143958285613a52565b91506143a18284613a52565b91506143ac82613e34565b915081905095945050505050565b60006143c582613f06565b91506143d18284613a52565b915081905092915050565b60006143e782613f6f565b91506143f38284613a52565b915081905092915050565b600061440982613f92565b91506144158284613a52565b915081905092915050565b600061442b82614113565b915061443682613cd6565b91506144428288613a52565b915061444d82613c6d565b91506144598287613a52565b915061446482613be1565b915061446f82613fb5565b915061447b8286613a52565b915061448682613be1565b915061449182614087565b915061449d8285613a52565b91506144a882613be1565b91506144b382613b9b565b91506144bf8284613a52565b91506144ca82613dee565b91506144d582613f29565b91508190509695505050505050565b60006144f08284614145565b60208201915081905092915050565b600060208201905061451460008301846139c2565b92915050565b600060808201905061452f60008301876139c2565b61453c60208301866139c2565b6145496040830185614136565b818103606083015261455b81846139e0565b905095945050505050565b600060208201905061457b60008301846139d1565b92915050565b6000602082019050818103600083015261459b8184613a19565b905092915050565b600060208201905081810360008301526145bc81613aa6565b9050919050565b600060208201905081810360008301526145dc81613ac9565b9050919050565b600060208201905081810360008301526145fc81613aec565b9050919050565b6000602082019050818103600083015261461c81613b0f565b9050919050565b6000602082019050818103600083015261463c81613b55565b9050919050565b6000602082019050818103600083015261465c81613c27565b9050919050565b6000602082019050818103600083015261467c81613c4a565b9050919050565b6000602082019050818103600083015261469c81613c90565b9050919050565b600060208201905081810360008301526146bc81613d1c565b9050919050565b600060208201905081810360008301526146dc81613d3f565b9050919050565b600060208201905081810360008301526146fc81613d62565b9050919050565b6000602082019050818103600083015261471c81613e11565b9050919050565b6000602082019050818103600083015261473c81613e57565b9050919050565b6000602082019050818103600083015261475c81613e7a565b9050919050565b6000602082019050818103600083015261477c81613e9d565b9050919050565b6000602082019050818103600083015261479c81613ec0565b9050919050565b600060208201905081810360008301526147bc81613f4c565b9050919050565b600060208201905081810360008301526147dc81613fd8565b9050919050565b600060208201905081810360008301526147fc81613ffb565b9050919050565b60006020820190506148186000830184614136565b92915050565b6000602082019050614833600083018461415c565b92915050565b6000614843614854565b905061484f8282614b22565b919050565b6000604051905090565b600067ffffffffffffffff82111561487957614878614c88565b5b61488282614cb7565b9050602081019050919050565b600067ffffffffffffffff8211156148aa576148a9614c88565b5b6148b382614cb7565b9050602081019050919050565b600081519050919050565b600081519050919050565b600082825260208201905092915050565b600082825260208201905092915050565b600081905092915050565b600061490e82614a94565b915061491983614a94565b9250827fffffffffffffffffffffffffffffffffffffffffffffffffffffffffffffffff0382111561494e5761494d614bfb565b5b828201905092915050565b600061496482614a94565b915061496f83614a94565b92508261497f5761497e614c2a565b5b828204905092915050565b600061499582614a94565b91506149a083614a94565b9250817fffffffffffffffffffffffffffffffffffffffffffffffffffffffffffffffff04831182151516156149d9576149d8614bfb565b5b828202905092915050565b60006149ef82614a94565b91506149fa83614a94565b925082821015614a0d57614a0c614bfb565b5b828203905092915050565b6000614a2382614a74565b9050919050565b6000614a3582614a74565b9050919050565b60008115159050919050565b60007fffffffff0000000000000000000000000000000000000000000000000000000082169050919050565b600073ffffffffffffffffffffffffffffffffffffffff82169050919050565b6000819050919050565b600063ffffffff82169050919050565b82818337600083830152505050565b60005b83811015614adb578082015181840152602081019050614ac0565b83811115614aea576000848401525b50505050565b60006002820490506001821680614b0857607f821691505b60208210811415614b1c57614b1b614c59565b5b50919050565b614b2b82614cb7565b810181811067ffffffffffffffff82111715614b4a57614b49614c88565b5b80604052505050565b6000614b5e82614a94565b91507fffffffffffffffffffffffffffffffffffffffffffffffffffffffffffffffff821415614b9157614b90614bfb565b5b600182019050919050565b6000614ba782614bae565b9050919050565b6000614bb982614cc8565b9050919050565b6000819050919050565b6000614bd582614a94565b9150614be083614a94565b925082614bf057614bef614c2a565b5b828206905092915050565b7f4e487b7100000000000000000000000000000000000000000000000000000000600052601160045260246000fd5b7f4e487b7100000000000000000000000000000000000000000000000000000000600052601260045260246000fd5b7f4e487b7100000000000000000000000000000000000000000000000000000000600052602260045260246000fd5b7f4e487b7100000000000000000000000000000000000000000000000000000000600052604160045260246000fd5b6000601f19601f8301169050919050565b60008160601b9050919050565b7f226e616d65223a22230000000000000000000000000000000000000000000000600082015250565b7f455243373231456e756d657261626c653a206f776e657220696e646578206f7560008201527f74206f6620626f756e6473000000000000000000000000000000000000000000602082015250565b7f4552433732313a207472616e7366657220746f206e6f6e20455243373231526560008201527f63656976657220696d706c656d656e7465720000000000000000000000000000602082015250565b7f507572636861736520776f756c6420657863656564206d617820737570706c7960008201527f206f6620436f6c6f727300000000000000000000000000000000000000000000602082015250565b7f4f776e61626c653a206e6577206f776e657220697320746865207a65726f206160008201527f6464726573730000000000000000000000000000000000000000000000000000602082015250565b7f222c000000000000000000000000000000000000000000000000000000000000600082015250565b7f4552433732313a20746f6b656e20616c7265616479206d696e74656400000000600082015250565b7f2265787465726e616c5f75726c223a2268747470733a2f2f746865636f6c6f7260008201527f732e617274222c00000000000000000000000000000000000000000000000000602082015250565b7f7b2274726169745f74797065223a22426c7565222c2276616c7565223a220000600082015250565b7f2c00000000000000000000000000000000000000000000000000000000000000600082015250565b7f227d2c0000000000000000000000000000000000000000000000000000000000600082015250565b7f7267622800000000000000000000000000000000000000000000000000000000600082015250565b7f4552433732313a207472616e7366657220746f20746865207a65726f2061646460008201527f7265737300000000000000000000000000000000000000000000000000000000602082015250565b7f4552433732313a20617070726f766520746f2063616c6c657200000000000000600082015250565b7f227d2c7b2274726169745f74797065223a22524742222c2276616c7565223a22600082015250565b7f4552433732313a206f70657261746f7220717565727920666f72206e6f6e657860008201527f697374656e7420746f6b656e0000000000000000000000000000000000000000602082015250565b7f2900000000000000000000000000000000000000000000000000000000000000600082015250565b7f7b2274726169745f74797065223a2248657820636f6465222c2276616c75652260008201527f3a22230000000000000000000000000000000000000000000000000000000000602082015250565b7f3c7376672077696474683d2236393022206865696768743d223639302220786d60008201527f6c6e733d22687474703a2f2f7777772e77332e6f72672f323030302f7376672260208201527f207374796c653d226261636b67726f756e642d636f6c6f723a23000000000000604082015250565b7f4552433732313a20617070726f76652063616c6c6572206973206e6f74206f7760008201527f6e6572206e6f7220617070726f76656420666f7220616c6c0000000000000000602082015250565b7f4552433732313a2062616c616e636520717565727920666f7220746865207a6560008201527f726f206164647265737300000000000000000000000000000000000000000000602082015250565b7f4552433732313a206f776e657220717565727920666f72206e6f6e657869737460008201527f656e7420746f6b656e0000000000000000000000000000000000000000000000602082015250565b7f22696d6167655f64617461223a22000000000000000000000000000000000000600082015250565b7f646174613a6170706c69636174696f6e2f6a736f6e0000000000000000000000600082015250565b7f22696d616765223a220000000000000000000000000000000000000000000000600082015250565b7f227d000000000000000000000000000000000000000000000000000000000000600082015250565b7f4552433732313a206d696e7420746f20746865207a65726f2061646472657373600082015250565b7f7d00000000000000000000000000000000000000000000000000000000000000600082015250565b7f4552433732313a20617070726f76656420717565727920666f72206e6f6e657860008201527f697374656e7420746f6b656e0000000000000000000000000000000000000000602082015250565b7f4f776e61626c653a2063616c6c6572206973206e6f7420746865206f776e6572600082015250565b7f4552433732313a207472616e73666572206f6620746f6b656e2074686174206960008201527f73206e6f74206f776e0000000000000000000000000000000000000000000000602082015250565b7f4552433732314d657461646174613a2055524920717565727920666f72206e6f60008201527f6e6578697374656e7420746f6b656e0000000000000000000000000000000000602082015250565b7f7b00000000000000000000000000000000000000000000000000000000000000600082015250565b7f2300000000000000000000000000000000000000000000000000000000000000600082015250565b7f5d00000000000000000000000000000000000000000000000000000000000000600082015250565b7f4552433732313a20617070726f76616c20746f2063757272656e74206f776e6560008201527f7200000000000000000000000000000000000000000000000000000000000000602082015250565b7f646174613a6170706c69636174696f6e2f6a736f6e3b6261736536342c000000600082015250565b7f646174613a6170706c69636174696f6e2f6a736f6e3b62617365363400000000600082015250565b7f7b2274726169745f74797065223a22526564222c2276616c7565223a22000000600082015250565b7f4552433732313a207472616e736665722063616c6c6572206973206e6f74206f60008201527f776e6572206e6f7220617070726f766564000000000000000000000000000000602082015250565b7f455243373231456e756d657261626c653a20676c6f62616c20696e646578206f60008201527f7574206f6620626f756e64730000000000000000000000000000000000000000602082015250565b7f223e000000000000000000000000000000000000000000000000000000000000600082015250565b7f5c6e5c6e546f6b656e2069643a20230000000000000000000000000000000000600082015250565b7f226465736372697074696f6e223a2254686520436f6c6f72732061726520612060008201527f736574206f6620382c3838382069636f6e6963207368616465732067656e657260208201527f6174656420616e642073746f72656420656e746972656c79206f6e2d6368616960408201527f6e20746f20626520757365642061732061207072696d697469766520616e642060608201527f666f7220636f6c6f72206669656c642076696265732e207e204120436f6c6f7260808201527f20697320466f726576657220e2889e000000000000000000000000000000000060a082015250565b7f7b2274726169745f74797065223a22477265656e222c2276616c7565223a2200600082015250565b7f5c6e4865783a2023000000000000000000000000000000000000000000000000600082015250565b7f3c2f7376673e0000000000000000000000000000000000000000000000000000600082015250565b7f646174613a696d6167652f7376672b786d6c3b6261736536342c000000000000600082015250565b7f2261747472696275746573223a5b000000000000000000000000000000000000600082015250565b61584781614a18565b811461585257600080fd5b50565b61585e81614a3c565b811461586957600080fd5b50565b61587581614a48565b811461588057600080fd5b50565b61588c81614a94565b811461589757600080fd5b50565b6158a381614a9e565b81146158ae57600080fd5b5056fe4142434445464748494a4b4c4d4e4f505152535455565758595a6162636465666768696a6b6c6d6e6f707172737475767778797a303132333435363738392b2fa26469706673582212200ea3fe5f65cb430974cb574b70c217f1e23c3d493a850413badc19b7719f965764736f6c63430008040033",
  "linkReferences": {},
  "deployedLinkReferences": {}
}