{
  "_format": "hh-sol-artifact-1",
  "contractName": "ConcaveNFT",
  "sourceName": "contracts/Concave.sol",
  "abi": [
    {
      "inputs": [
        {
          "internalType": "string",
          "name": "_name",
          "type": "string"
        },
        {
          "internalType": "string",
          "name": "_symbol",
          "type": "string"
        },
        {
          "internalType": "string",
          "name": "_initBaseURI",
          "type": "string"
        },
        {
          "internalType": "string",
          "name": "_initNotRevealedUri",
          "type": "string"
        }
      ],
      "stateMutability": "nonpayable",
      "type": "constructor"
    },
    {
      "anonymous": false,
      "inputs": [
        {
          "indexed": true,
          "internalType": "address",
          "name": "owner",
          "type": "address"
        },
        {
          "indexed": true,
          "internalType": "address",
          "name": "approved",
          "type": "address"
        },
        {
          "indexed": true,
          "internalType": "uint256",
          "name": "tokenId",
          "type": "uint256"
        }
      ],
      "name": "Approval",
      "type": "event"
    },
    {
      "anonymous": false,
      "inputs": [
        {
          "indexed": true,
          "internalType": "address",
          "name": "owner",
          "type": "address"
        },
        {
          "indexed": true,
          "internalType": "address",
          "name": "operator",
          "type": "address"
        },
        {
          "indexed": false,
          "internalType": "bool",
          "name": "approved",
          "type": "bool"
        }
      ],
      "name": "ApprovalForAll",
      "type": "event"
    },
    {
      "anonymous": false,
      "inputs": [
        {
          "indexed": true,
          "internalType": "address",
          "name": "previousOwner",
          "type": "address"
        },
        {
          "indexed": true,
          "internalType": "address",
          "name": "newOwner",
          "type": "address"
        }
      ],
      "name": "OwnershipTransferred",
      "type": "event"
    },
    {
      "anonymous": false,
      "inputs": [
        {
          "indexed": false,
          "internalType": "address",
          "name": "account",
          "type": "address"
        }
      ],
      "name": "Paused",
      "type": "event"
    },
    {
      "anonymous": false,
      "inputs": [
        {
          "indexed": true,
          "internalType": "address",
          "name": "from",
          "type": "address"
        },
        {
          "indexed": true,
          "internalType": "address",
          "name": "to",
          "type": "address"
        },
        {
          "indexed": true,
          "internalType": "uint256",
          "name": "tokenId",
          "type": "uint256"
        }
      ],
      "name": "Transfer",
      "type": "event"
    },
    {
      "anonymous": false,
      "inputs": [
        {
          "indexed": false,
          "internalType": "address",
          "name": "account",
          "type": "address"
        }
      ],
      "name": "Unpaused",
      "type": "event"
    },
    {
      "inputs": [
        {
          "internalType": "address",
          "name": "to",
          "type": "address"
        },
        {
          "internalType": "uint256",
          "name": "tokenId",
          "type": "uint256"
        }
      ],
      "name": "approve",
      "outputs": [],
      "stateMutability": "nonpayable",
      "type": "function"
    },
    {
      "inputs": [
        {
          "internalType": "address",
          "name": "owner",
          "type": "address"
        }
      ],
      "name": "balanceOf",
      "outputs": [
        {
          "internalType": "uint256",
          "name": "",
          "type": "uint256"
        }
      ],
      "stateMutability": "view",
      "type": "function"
    },
    {
      "inputs": [],
      "name": "baseURI",
      "outputs": [
        {
          "internalType": "string",
          "name": "",
          "type": "string"
        }
      ],
      "stateMutability": "view",
      "type": "function"
    },
    {
      "inputs": [
        {
          "internalType": "uint256",
          "name": "tokenId",
          "type": "uint256"
        }
      ],
      "name": "getApproved",
      "outputs": [
        {
          "internalType": "address",
          "name": "",
          "type": "address"
        }
      ],
      "stateMutability": "view",
      "type": "function"
    },
    {
      "inputs": [
        {
          "internalType": "address",
          "name": "owner",
          "type": "address"
        },
        {
          "internalType": "address",
          "name": "operator",
          "type": "address"
        }
      ],
      "name": "isApprovedForAll",
      "outputs": [
        {
          "internalType": "bool",
          "name": "",
          "type": "bool"
        }
      ],
      "stateMutability": "view",
      "type": "function"
    },
    {
      "inputs": [],
      "name": "maxMintAmount",
      "outputs": [
        {
          "internalType": "uint256",
          "name": "",
          "type": "uint256"
        }
      ],
      "stateMutability": "view",
      "type": "function"
    },
    {
      "inputs": [],
      "name": "maxSupply",
      "outputs": [
        {
          "internalType": "uint256",
          "name": "",
          "type": "uint256"
        }
      ],
      "stateMutability": "view",
      "type": "function"
    },
    {
      "inputs": [
        {
          "internalType": "uint256",
          "name": "_mintAmount",
          "type": "uint256"
        }
      ],
      "name": "mint",
      "outputs": [
        {
          "internalType": "uint256",
          "name": "",
          "type": "uint256"
        }
      ],
      "stateMutability": "payable",
      "type": "function"
    },
    {
      "inputs": [],
      "name": "name",
      "outputs": [
        {
          "internalType": "string",
          "name": "",
          "type": "string"
        }
      ],
      "stateMutability": "view",
      "type": "function"
    },
    {
      "inputs": [],
      "name": "notRevealedUri",
      "outputs": [
        {
          "internalType": "string",
          "name": "",
          "type": "string"
        }
      ],
      "stateMutability": "view",
      "type": "function"
    },
    {
      "inputs": [],
      "name": "owner",
      "outputs": [
        {
          "internalType": "address",
          "name": "",
          "type": "address"
        }
      ],
      "stateMutability": "view",
      "type": "function"
    },
    {
      "inputs": [
        {
          "internalType": "uint256",
          "name": "tokenId",
          "type": "uint256"
        }
      ],
      "name": "ownerOf",
      "outputs": [
        {
          "internalType": "address",
          "name": "",
          "type": "address"
        }
      ],
      "stateMutability": "view",
      "type": "function"
    },
    {
      "inputs": [],
      "name": "pause",
      "outputs": [],
      "stateMutability": "nonpayable",
      "type": "function"
    },
    {
      "inputs": [],
      "name": "paused",
      "outputs": [
        {
          "internalType": "bool",
          "name": "",
          "type": "bool"
        }
      ],
      "stateMutability": "view",
      "type": "function"
    },
    {
      "inputs": [],
      "name": "price",
      "outputs": [
        {
          "internalType": "uint256",
          "name": "",
          "type": "uint256"
        }
      ],
      "stateMutability": "view",
      "type": "function"
    },
    {
      "inputs": [],
      "name": "renounceOwnership",
      "outputs": [],
      "stateMutability": "nonpayable",
      "type": "function"
    },
    {
      "inputs": [],
      "name": "reveal",
      "outputs": [],
      "stateMutability": "nonpayable",
      "type": "function"
    },
    {
      "inputs": [],
      "name": "revealed",
      "outputs": [
        {
          "internalType": "bool",
          "name": "",
          "type": "bool"
        }
      ],
      "stateMutability": "view",
      "type": "function"
    },
    {
      "inputs": [
        {
          "internalType": "address",
          "name": "from",
          "type": "address"
        },
        {
          "internalType": "address",
          "name": "to",
          "type": "address"
        },
        {
          "internalType": "uint256",
          "name": "tokenId",
          "type": "uint256"
        }
      ],
      "name": "safeTransferFrom",
      "outputs": [],
      "stateMutability": "nonpayable",
      "type": "function"
    },
    {
      "inputs": [
        {
          "internalType": "address",
          "name": "from",
          "type": "address"
        },
        {
          "internalType": "address",
          "name": "to",
          "type": "address"
        },
        {
          "internalType": "uint256",
          "name": "tokenId",
          "type": "uint256"
        },
        {
          "internalType": "bytes",
          "name": "_data",
          "type": "bytes"
        }
      ],
      "name": "safeTransferFrom",
      "outputs": [],
      "stateMutability": "nonpayable",
      "type": "function"
    },
    {
      "inputs": [
        {
          "internalType": "address",
          "name": "operator",
          "type": "address"
        },
        {
          "internalType": "bool",
          "name": "approved",
          "type": "bool"
        }
      ],
      "name": "setApprovalForAll",
      "outputs": [],
      "stateMutability": "nonpayable",
      "type": "function"
    },
    {
      "inputs": [
        {
          "internalType": "string",
          "name": "_newBaseURI",
          "type": "string"
        }
      ],
      "name": "setBaseURI",
      "outputs": [],
      "stateMutability": "nonpayable",
      "type": "function"
    },
    {
      "inputs": [
        {
          "internalType": "uint256",
          "name": "_newmaxMintAmount",
          "type": "uint256"
        }
      ],
      "name": "setMaxMintAmount",
      "outputs": [],
      "stateMutability": "nonpayable",
      "type": "function"
    },
    {
      "inputs": [
        {
          "internalType": "string",
          "name": "_notRevealedURI",
          "type": "string"
        }
      ],
      "name": "setNotRevealedURI",
      "outputs": [],
      "stateMutability": "nonpayable",
      "type": "function"
    },
    {
      "inputs": [
        {
          "internalType": "uint256",
          "name": "_price",
          "type": "uint256"
        }
      ],
      "name": "setPrice",
      "outputs": [],
      "stateMutability": "nonpayable",
      "type": "function"
    },
    {
      "inputs": [
        {
          "internalType": "bytes4",
          "name": "interfaceId",
          "type": "bytes4"
        }
      ],
      "name": "supportsInterface",
      "outputs": [
        {
          "internalType": "bool",
          "name": "",
          "type": "bool"
        }
      ],
      "stateMutability": "view",
      "type": "function"
    },
    {
      "inputs": [],
      "name": "symbol",
      "outputs": [
        {
          "internalType": "string",
          "name": "",
          "type": "string"
        }
      ],
      "stateMutability": "view",
      "type": "function"
    },
    {
      "inputs": [
        {
          "internalType": "uint256",
          "name": "index",
          "type": "uint256"
        }
      ],
      "name": "tokenByIndex",
      "outputs": [
        {
          "internalType": "uint256",
          "name": "",
          "type": "uint256"
        }
      ],
      "stateMutability": "view",
      "type": "function"
    },
    {
      "inputs": [
        {
          "internalType": "address",
          "name": "owner",
          "type": "address"
        },
        {
          "internalType": "uint256",
          "name": "index",
          "type": "uint256"
        }
      ],
      "name": "tokenOfOwnerByIndex",
      "outputs": [
        {
          "internalType": "uint256",
          "name": "",
          "type": "uint256"
        }
      ],
      "stateMutability": "view",
      "type": "function"
    },
    {
      "inputs": [
        {
          "internalType": "uint256",
          "name": "tokenId",
          "type": "uint256"
        }
      ],
      "name": "tokenURI",
      "outputs": [
        {
          "internalType": "string",
          "name": "",
          "type": "string"
        }
      ],
      "stateMutability": "view",
      "type": "function"
    },
    {
      "inputs": [],
      "name": "totalSupply",
      "outputs": [
        {
          "internalType": "uint256",
          "name": "",
          "type": "uint256"
        }
      ],
      "stateMutability": "view",
      "type": "function"
    },
    {
      "inputs": [
        {
          "internalType": "address",
          "name": "from",
          "type": "address"
        },
        {
          "internalType": "address",
          "name": "to",
          "type": "address"
        },
        {
          "internalType": "uint256",
          "name": "tokenId",
          "type": "uint256"
        }
      ],
      "name": "transferFrom",
      "outputs": [],
      "stateMutability": "nonpayable",
      "type": "function"
    },
    {
      "inputs": [
        {
          "internalType": "address",
          "name": "newOwner",
          "type": "address"
        }
      ],
      "name": "transferOwnership",
      "outputs": [],
      "stateMutability": "nonpayable",
      "type": "function"
    },
    {
      "inputs": [],
      "name": "unpause",
      "outputs": [],
      "stateMutability": "nonpayable",
      "type": "function"
    },
    {
      "inputs": [],
      "name": "withdraw",
      "outputs": [],
      "stateMutability": "payable",
      "type": "function"
    }
  ],
  "bytecode": "0x60806040526110dd600e55600a600f55666a94d74f4300006010556000601160006101000a81548160ff0219169083151502179055503480156200004257600080fd5b5060405162004c9638038062004c968339818101604052810190620000689190620003e4565b8383816000908051906020019062000082929190620002c2565b5080600190805190602001906200009b929190620002c2565b5050506000600a60006101000a81548160ff021916908315150217905550620000d9620000cd6200012560201b60201c565b6200012d60201b60201c565b81600c9080519060200190620000f1929190620002c2565b5080600d90805190602001906200010a929190620002c2565b506200011b620001f360201b60201c565b5050505062000709565b600033905090565b6000600a60019054906101000a900473ffffffffffffffffffffffffffffffffffffffff16905081600a60016101000a81548173ffffffffffffffffffffffffffffffffffffffff021916908373ffffffffffffffffffffffffffffffffffffffff1602179055508173ffffffffffffffffffffffffffffffffffffffff168173ffffffffffffffffffffffffffffffffffffffff167f8be0079c531659141344cd1fd0a4f28419497f9722a3daafe3b4186f6b6457e060405160405180910390a35050565b62000203620002ab60201b60201c565b1562000246576040517f08c379a00000000000000000000000000000000000000000000000000000000081526004016200023d9062000509565b60405180910390fd5b6001600a60006101000a81548160ff0219169083151502179055507f62e78cea01bee320cd4e420270b5ea74000d11b0c9f74754ebdbfc544b05a258620002926200012560201b60201c565b604051620002a19190620004ec565b60405180910390a1565b6000600a60009054906101000a900460ff16905090565b828054620002d09062000605565b90600052602060002090601f016020900481019282620002f4576000855562000340565b82601f106200030f57805160ff191683800117855562000340565b8280016001018555821562000340579182015b828111156200033f57825182559160200191906001019062000322565b5b5090506200034f919062000353565b5090565b5b808211156200036e57600081600090555060010162000354565b5090565b600062000389620003838462000554565b6200052b565b905082815260208101848484011115620003a257600080fd5b620003af848285620005cf565b509392505050565b600082601f830112620003c957600080fd5b8151620003db84826020860162000372565b91505092915050565b60008060008060808587031215620003fb57600080fd5b600085015167ffffffffffffffff8111156200041657600080fd5b6200042487828801620003b7565b945050602085015167ffffffffffffffff8111156200044257600080fd5b6200045087828801620003b7565b935050604085015167ffffffffffffffff8111156200046e57600080fd5b6200047c87828801620003b7565b925050606085015167ffffffffffffffff8111156200049a57600080fd5b620004a887828801620003b7565b91505092959194509250565b620004bf816200059b565b82525050565b6000620004d46010836200058a565b9150620004e182620006e0565b602082019050919050565b6000602082019050620005036000830184620004b4565b92915050565b600060208201905081810360008301526200052481620004c5565b9050919050565b6000620005376200054a565b90506200054582826200063b565b919050565b6000604051905090565b600067ffffffffffffffff821115620005725762000571620006a0565b5b6200057d82620006cf565b9050602081019050919050565b600082825260208201905092915050565b6000620005a882620005af565b9050919050565b600073ffffffffffffffffffffffffffffffffffffffff82169050919050565b60005b83811015620005ef578082015181840152602081019050620005d2565b83811115620005ff576000848401525b50505050565b600060028204905060018216806200061e57607f821691505b6020821081141562000635576200063462000671565b5b50919050565b6200064682620006cf565b810181811067ffffffffffffffff82111715620006685762000667620006a0565b5b80604052505050565b7f4e487b7100000000000000000000000000000000000000000000000000000000600052602260045260246000fd5b7f4e487b7100000000000000000000000000000000000000000000000000000000600052604160045260246000fd5b6000601f19601f8301169050919050565b7f5061757361626c653a2070617573656400000000000000000000000000000000600082015250565b61457d80620007196000396000f3fe6080604052600436106102045760003560e01c80636352211e11610118578063a0712d68116100a0578063c87b56dd1161006f578063c87b56dd14610703578063d5abeb0114610740578063e985e9c51461076b578063f2c4ce1e146107a8578063f2fde38b146107d157610204565b8063a0712d681461066a578063a22cb4651461069a578063a475b5dd146106c3578063b88d4fde146106da57610204565b80638456cb59116100e75780638456cb59146105a95780638da5cb5b146105c057806391b7f5ed146105eb57806395d89b4114610614578063a035b1fe1461063f57610204565b80636352211e146104ed5780636c0360eb1461052a57806370a0823114610555578063715018a61461059257610204565b806323b872dd1161019b57806342842e0e1161016a57806342842e0e146104085780634f6ccce714610431578063518302271461046e57806355f804b3146104995780635c975abb146104c257610204565b806323b872dd146103815780632f745c59146103aa5780633ccfd60b146103e75780633f4ba83a146103f157610204565b8063088a4ed0116101d7578063088a4ed0146102d9578063095ea7b31461030257806318160ddd1461032b578063239c70ae1461035657610204565b806301ffc9a71461020957806306fdde0314610246578063081812fc14610271578063081c8c44146102ae575b600080fd5b34801561021557600080fd5b50610230600480360381019061022b919061311e565b6107fa565b60405161023d919061372a565b60405180910390f35b34801561025257600080fd5b5061025b610874565b6040516102689190613745565b60405180910390f35b34801561027d57600080fd5b50610298600480360381019061029391906131b1565b610906565b6040516102a591906136c3565b60405180910390f35b3480156102ba57600080fd5b506102c361098b565b6040516102d09190613745565b60405180910390f35b3480156102e557600080fd5b5061030060048036038101906102fb91906131b1565b610a19565b005b34801561030e57600080fd5b50610329600480360381019061032491906130e2565b610a9f565b005b34801561033757600080fd5b50610340610bb7565b60405161034d9190613a67565b60405180910390f35b34801561036257600080fd5b5061036b610bc4565b6040516103789190613a67565b60405180910390f35b34801561038d57600080fd5b506103a860048036038101906103a39190612fdc565b610bca565b005b3480156103b657600080fd5b506103d160048036038101906103cc91906130e2565b610c2a565b6040516103de9190613a67565b60405180910390f35b6103ef610ccf565b005b3480156103fd57600080fd5b50610406610d94565b005b34801561041457600080fd5b5061042f600480360381019061042a9190612fdc565b610e1a565b005b34801561043d57600080fd5b50610458600480360381019061045391906131b1565b610e3a565b6040516104659190613a67565b60405180910390f35b34801561047a57600080fd5b50610483610ed1565b604051610490919061372a565b60405180910390f35b3480156104a557600080fd5b506104c060048036038101906104bb9190613170565b610ee4565b005b3480156104ce57600080fd5b506104d7610f7a565b6040516104e4919061372a565b60405180910390f35b3480156104f957600080fd5b50610514600480360381019061050f91906131b1565b610f91565b60405161052191906136c3565b60405180910390f35b34801561053657600080fd5b5061053f611043565b60405161054c9190613745565b60405180910390f35b34801561056157600080fd5b5061057c60048036038101906105779190612f77565b6110d1565b6040516105899190613a67565b60405180910390f35b34801561059e57600080fd5b506105a7611189565b005b3480156105b557600080fd5b506105be611211565b005b3480156105cc57600080fd5b506105d5611297565b6040516105e291906136c3565b60405180910390f35b3480156105f757600080fd5b50610612600480360381019061060d91906131b1565b6112c1565b005b34801561062057600080fd5b50610629611347565b6040516106369190613745565b60405180910390f35b34801561064b57600080fd5b506106546113d9565b6040516106619190613a67565b60405180910390f35b610684600480360381019061067f91906131b1565b6113df565b6040516106919190613a67565b60405180910390f35b3480156106a657600080fd5b506106c160048036038101906106bc91906130a6565b6115b2565b005b3480156106cf57600080fd5b506106d86115c8565b005b3480156106e657600080fd5b5061070160048036038101906106fc919061302b565b611661565b005b34801561070f57600080fd5b5061072a600480360381019061072591906131b1565b6116c3565b6040516107379190613745565b60405180910390f35b34801561074c57600080fd5b50610755611812565b6040516107629190613a67565b60405180910390f35b34801561077757600080fd5b50610792600480360381019061078d9190612fa0565b611818565b60405161079f919061372a565b60405180910390f35b3480156107b457600080fd5b506107cf60048036038101906107ca9190613170565b6118ac565b005b3480156107dd57600080fd5b506107f860048036038101906107f39190612f77565b611942565b005b60007f780e9d63000000000000000000000000000000000000000000000000000000007bffffffffffffffffffffffffffffffffffffffffffffffffffffffff1916827bffffffffffffffffffffffffffffffffffffffffffffffffffffffff1916148061086d575061086c82611a3a565b5b9050919050565b60606000805461088390613d2c565b80601f01602080910402602001604051908101604052809291908181526020018280546108af90613d2c565b80156108fc5780601f106108d1576101008083540402835291602001916108fc565b820191906000526020600020905b8154815290600101906020018083116108df57829003601f168201915b5050505050905090565b600061091182611b1c565b610950576040517f08c379a000000000000000000000000000000000000000000000000000000000815260040161094790613927565b60405180910390fd5b6004600083815260200190815260200160002060009054906101000a900473ffffffffffffffffffffffffffffffffffffffff169050919050565b600d805461099890613d2c565b80601f01602080910402602001604051908101604052809291908181526020018280546109c490613d2c565b8015610a115780601f106109e657610100808354040283529160200191610a11565b820191906000526020600020905b8154815290600101906020018083116109f457829003601f168201915b505050505081565b610a21611b88565b73ffffffffffffffffffffffffffffffffffffffff16610a3f611297565b73ffffffffffffffffffffffffffffffffffffffff1614610a95576040517f08c379a0000000000000000000000000000000000000000000000000000000008152600401610a8c90613967565b60405180910390fd5b80600f8190555050565b6000610aaa82610f91565b90508073ffffffffffffffffffffffffffffffffffffffff168373ffffffffffffffffffffffffffffffffffffffff161415610b1b576040517f08c379a0000000000000000000000000000000000000000000000000000000008152600401610b12906139e7565b60405180910390fd5b8073ffffffffffffffffffffffffffffffffffffffff16610b3a611b88565b73ffffffffffffffffffffffffffffffffffffffff161480610b695750610b6881610b63611b88565b611818565b5b610ba8576040517f08c379a0000000000000000000000000000000000000000000000000000000008152600401610b9f906138a7565b60405180910390fd5b610bb28383611b90565b505050565b6000600880549050905090565b600f5481565b610bdb610bd5611b88565b82611c49565b610c1a576040517f08c379a0000000000000000000000000000000000000000000000000000000008152600401610c1190613a27565b60405180910390fd5b610c25838383611d27565b505050565b6000610c35836110d1565b8210610c76576040517f08c379a0000000000000000000000000000000000000000000000000000000008152600401610c6d90613787565b60405180910390fd5b600660008473ffffffffffffffffffffffffffffffffffffffff1673ffffffffffffffffffffffffffffffffffffffff168152602001908152602001600020600083815260200190815260200160002054905092915050565b610cd7611b88565b73ffffffffffffffffffffffffffffffffffffffff16610cf5611297565b73ffffffffffffffffffffffffffffffffffffffff1614610d4b576040517f08c379a0000000000000000000000000000000000000000000000000000000008152600401610d4290613967565b60405180910390fd5b3373ffffffffffffffffffffffffffffffffffffffff166108fc479081150290604051600060405180830381858888f19350505050158015610d91573d6000803e3d6000fd5b50565b610d9c611b88565b73ffffffffffffffffffffffffffffffffffffffff16610dba611297565b73ffffffffffffffffffffffffffffffffffffffff1614610e10576040517f08c379a0000000000000000000000000000000000000000000000000000000008152600401610e0790613967565b60405180910390fd5b610e18611f83565b565b610e3583838360405180602001604052806000815250611661565b505050565b6000610e44610bb7565b8210610e85576040517f08c379a0000000000000000000000000000000000000000000000000000000008152600401610e7c90613a47565b60405180910390fd5b60088281548110610ebf577f4e487b7100000000000000000000000000000000000000000000000000000000600052603260045260246000fd5b90600052602060002001549050919050565b601160009054906101000a900460ff1681565b610eec611b88565b73ffffffffffffffffffffffffffffffffffffffff16610f0a611297565b73ffffffffffffffffffffffffffffffffffffffff1614610f60576040517f08c379a0000000000000000000000000000000000000000000000000000000008152600401610f5790613967565b60405180910390fd5b80600c9080519060200190610f76929190612d9b565b5050565b6000600a60009054906101000a900460ff16905090565b6000806002600084815260200190815260200160002060009054906101000a900473ffffffffffffffffffffffffffffffffffffffff169050600073ffffffffffffffffffffffffffffffffffffffff168173ffffffffffffffffffffffffffffffffffffffff16141561103a576040517f08c379a0000000000000000000000000000000000000000000000000000000008152600401611031906138e7565b60405180910390fd5b80915050919050565b600c805461105090613d2c565b80601f016020809104026020016040519081016040528092919081815260200182805461107c90613d2c565b80156110c95780601f1061109e576101008083540402835291602001916110c9565b820191906000526020600020905b8154815290600101906020018083116110ac57829003601f168201915b505050505081565b60008073ffffffffffffffffffffffffffffffffffffffff168273ffffffffffffffffffffffffffffffffffffffff161415611142576040517f08c379a0000000000000000000000000000000000000000000000000000000008152600401611139906138c7565b60405180910390fd5b600360008373ffffffffffffffffffffffffffffffffffffffff1673ffffffffffffffffffffffffffffffffffffffff168152602001908152602001600020549050919050565b611191611b88565b73ffffffffffffffffffffffffffffffffffffffff166111af611297565b73ffffffffffffffffffffffffffffffffffffffff1614611205576040517f08c379a00000000000000000000000000000000000000000000000000000000081526004016111fc90613967565b60405180910390fd5b61120f6000612025565b565b611219611b88565b73ffffffffffffffffffffffffffffffffffffffff16611237611297565b73ffffffffffffffffffffffffffffffffffffffff161461128d576040517f08c379a000000000000000000000000000000000000000000000000000000000815260040161128490613967565b60405180910390fd5b6112956120eb565b565b6000600a60019054906101000a900473ffffffffffffffffffffffffffffffffffffffff16905090565b6112c9611b88565b73ffffffffffffffffffffffffffffffffffffffff166112e7611297565b73ffffffffffffffffffffffffffffffffffffffff161461133d576040517f08c379a000000000000000000000000000000000000000000000000000000000815260040161133490613967565b60405180910390fd5b8060108190555050565b60606001805461135690613d2c565b80601f016020809104026020016040519081016040528092919081815260200182805461138290613d2c565b80156113cf5780601f106113a4576101008083540402835291602001916113cf565b820191906000526020600020905b8154815290600101906020018083116113b257829003601f168201915b5050505050905090565b60105481565b60006113e9610f7a565b15611429576040517f08c379a000000000000000000000000000000000000000000000000000000000815260040161142090613887565b60405180910390fd5b6000821161146c576040517f08c379a000000000000000000000000000000000000000000000000000000000815260040161146390613807565b60405180910390fd5b600f548211156114b1576040517f08c379a00000000000000000000000000000000000000000000000000000000081526004016114a890613947565b60405180910390fd5b600e54826114bd610bb7565b6114c79190613b61565b1115611508576040517f08c379a00000000000000000000000000000000000000000000000000000000081526004016114ff906139c7565b60405180910390fd5b60c8611512610bb7565b1061156857816010546115259190613be8565b341015611567576040517f08c379a000000000000000000000000000000000000000000000000000000000815260040161155e90613a07565b60405180910390fd5b5b60005b828110156115a957600061157f600b61218e565b905061158b338261219c565b611595600b61236a565b5080806115a190613d8f565b91505061156b565b50819050919050565b6115c46115bd611b88565b8383612380565b5050565b6115d0611b88565b73ffffffffffffffffffffffffffffffffffffffff166115ee611297565b73ffffffffffffffffffffffffffffffffffffffff1614611644576040517f08c379a000000000000000000000000000000000000000000000000000000000815260040161163b90613967565b60405180910390fd5b6001601160006101000a81548160ff021916908315150217905550565b61167261166c611b88565b83611c49565b6116b1576040517f08c379a00000000000000000000000000000000000000000000000000000000081526004016116a890613a27565b60405180910390fd5b6116bd848484846124ed565b50505050565b60606116ce82611b1c565b61170d576040517f08c379a0000000000000000000000000000000000000000000000000000000008152600401611704906139a7565b60405180910390fd5b601160009054906101000a900460ff166117b357600d805461172e90613d2c565b80601f016020809104026020016040519081016040528092919081815260200182805461175a90613d2c565b80156117a75780601f1061177c576101008083540402835291602001916117a7565b820191906000526020600020905b81548152906001019060200180831161178a57829003601f168201915b5050505050905061180d565b6000600c80546117c290613d2c565b9050116117de576040518060200160405280600081525061180a565b600c6117e983612549565b6040516020016117fa929190613694565b6040516020818303038152906040525b90505b919050565b600e5481565b6000600560008473ffffffffffffffffffffffffffffffffffffffff1673ffffffffffffffffffffffffffffffffffffffff16815260200190815260200160002060008373ffffffffffffffffffffffffffffffffffffffff1673ffffffffffffffffffffffffffffffffffffffff16815260200190815260200160002060009054906101000a900460ff16905092915050565b6118b4611b88565b73ffffffffffffffffffffffffffffffffffffffff166118d2611297565b73ffffffffffffffffffffffffffffffffffffffff1614611928576040517f08c379a000000000000000000000000000000000000000000000000000000000815260040161191f90613967565b60405180910390fd5b80600d908051906020019061193e929190612d9b565b5050565b61194a611b88565b73ffffffffffffffffffffffffffffffffffffffff16611968611297565b73ffffffffffffffffffffffffffffffffffffffff16146119be576040517f08c379a00000000000000000000000000000000000000000000000000000000081526004016119b590613967565b60405180910390fd5b600073ffffffffffffffffffffffffffffffffffffffff168173ffffffffffffffffffffffffffffffffffffffff161415611a2e576040517f08c379a0000000000000000000000000000000000000000000000000000000008152600401611a25906137c7565b60405180910390fd5b611a3781612025565b50565b60007f80ac58cd000000000000000000000000000000000000000000000000000000007bffffffffffffffffffffffffffffffffffffffffffffffffffffffff1916827bffffffffffffffffffffffffffffffffffffffffffffffffffffffff19161480611b0557507f5b5e139f000000000000000000000000000000000000000000000000000000007bffffffffffffffffffffffffffffffffffffffffffffffffffffffff1916827bffffffffffffffffffffffffffffffffffffffffffffffffffffffff1916145b80611b155750611b14826126f6565b5b9050919050565b60008073ffffffffffffffffffffffffffffffffffffffff166002600084815260200190815260200160002060009054906101000a900473ffffffffffffffffffffffffffffffffffffffff1673ffffffffffffffffffffffffffffffffffffffff1614159050919050565b600033905090565b816004600083815260200190815260200160002060006101000a81548173ffffffffffffffffffffffffffffffffffffffff021916908373ffffffffffffffffffffffffffffffffffffffff160217905550808273ffffffffffffffffffffffffffffffffffffffff16611c0383610f91565b73ffffffffffffffffffffffffffffffffffffffff167f8c5be1e5ebec7d5bd14f71427d1e84f3dd0314c0f7b2291e5b200ac8c7c3b92560405160405180910390a45050565b6000611c5482611b1c565b611c93576040517f08c379a0000000000000000000000000000000000000000000000000000000008152600401611c8a90613867565b60405180910390fd5b6000611c9e83610f91565b90508073ffffffffffffffffffffffffffffffffffffffff168473ffffffffffffffffffffffffffffffffffffffff161480611d0d57508373ffffffffffffffffffffffffffffffffffffffff16611cf584610906565b73ffffffffffffffffffffffffffffffffffffffff16145b80611d1e5750611d1d8185611818565b5b91505092915050565b8273ffffffffffffffffffffffffffffffffffffffff16611d4782610f91565b73ffffffffffffffffffffffffffffffffffffffff1614611d9d576040517f08c379a0000000000000000000000000000000000000000000000000000000008152600401611d9490613987565b60405180910390fd5b600073ffffffffffffffffffffffffffffffffffffffff168273ffffffffffffffffffffffffffffffffffffffff161415611e0d576040517f08c379a0000000000000000000000000000000000000000000000000000000008152600401611e0490613827565b60405180910390fd5b611e18838383612760565b611e23600082611b90565b6001600360008573ffffffffffffffffffffffffffffffffffffffff1673ffffffffffffffffffffffffffffffffffffffff1681526020019081526020016000206000828254611e739190613c42565b925050819055506001600360008473ffffffffffffffffffffffffffffffffffffffff1673ffffffffffffffffffffffffffffffffffffffff1681526020019081526020016000206000828254611eca9190613b61565b92505081905550816002600083815260200190815260200160002060006101000a81548173ffffffffffffffffffffffffffffffffffffffff021916908373ffffffffffffffffffffffffffffffffffffffff160217905550808273ffffffffffffffffffffffffffffffffffffffff168473ffffffffffffffffffffffffffffffffffffffff167fddf252ad1be2c89b69c2b068fc378daa952ba7f163c4a11628f55a4df523b3ef60405160405180910390a4505050565b611f8b610f7a565b611fca576040517f08c379a0000000000000000000000000000000000000000000000000000000008152600401611fc190613767565b60405180910390fd5b6000600a60006101000a81548160ff0219169083151502179055507f5db9ee0a495bf2e6ff9c91a7834c1ba4fdd244a5e8aa4e537bd38aeae4b073aa61200e611b88565b60405161201b91906136c3565b60405180910390a1565b6000600a60019054906101000a900473ffffffffffffffffffffffffffffffffffffffff16905081600a60016101000a81548173ffffffffffffffffffffffffffffffffffffffff021916908373ffffffffffffffffffffffffffffffffffffffff1602179055508173ffffffffffffffffffffffffffffffffffffffff168173ffffffffffffffffffffffffffffffffffffffff167f8be0079c531659141344cd1fd0a4f28419497f9722a3daafe3b4186f6b6457e060405160405180910390a35050565b6120f3610f7a565b15612133576040517f08c379a000000000000000000000000000000000000000000000000000000000815260040161212a90613887565b60405180910390fd5b6001600a60006101000a81548160ff0219169083151502179055507f62e78cea01bee320cd4e420270b5ea74000d11b0c9f74754ebdbfc544b05a258612177611b88565b60405161218491906136c3565b60405180910390a1565b600081600001549050919050565b600073ffffffffffffffffffffffffffffffffffffffff168273ffffffffffffffffffffffffffffffffffffffff16141561220c576040517f08c379a000000000000000000000000000000000000000000000000000000000815260040161220390613907565b60405180910390fd5b61221581611b1c565b15612255576040517f08c379a000000000000000000000000000000000000000000000000000000000815260040161224c906137e7565b60405180910390fd5b61226160008383612760565b6001600360008473ffffffffffffffffffffffffffffffffffffffff1673ffffffffffffffffffffffffffffffffffffffff16815260200190815260200160002060008282546122b19190613b61565b92505081905550816002600083815260200190815260200160002060006101000a81548173ffffffffffffffffffffffffffffffffffffffff021916908373ffffffffffffffffffffffffffffffffffffffff160217905550808273ffffffffffffffffffffffffffffffffffffffff16600073ffffffffffffffffffffffffffffffffffffffff167fddf252ad1be2c89b69c2b068fc378daa952ba7f163c4a11628f55a4df523b3ef60405160405180910390a45050565b6001816000016000828254019250508190555050565b8173ffffffffffffffffffffffffffffffffffffffff168373ffffffffffffffffffffffffffffffffffffffff1614156123ef576040517f08c379a00000000000000000000000000000000000000000000000000000000081526004016123e690613847565b60405180910390fd5b80600560008573ffffffffffffffffffffffffffffffffffffffff1673ffffffffffffffffffffffffffffffffffffffff16815260200190815260200160002060008473ffffffffffffffffffffffffffffffffffffffff1673ffffffffffffffffffffffffffffffffffffffff16815260200190815260200160002060006101000a81548160ff0219169083151502179055508173ffffffffffffffffffffffffffffffffffffffff168373ffffffffffffffffffffffffffffffffffffffff167f17307eab39ab6107e8899845ad3d59bd9653f200f220920489ca2b5937696c31836040516124e0919061372a565b60405180910390a3505050565b6124f8848484611d27565b61250484848484612874565b612543576040517f08c379a000000000000000000000000000000000000000000000000000000000815260040161253a906137a7565b60405180910390fd5b50505050565b60606000821415612591576040518060400160405280600181526020017f300000000000000000000000000000000000000000000000000000000000000081525090506126f1565b600082905060005b600082146125c35780806125ac90613d8f565b915050600a826125bc9190613bb7565b9150612599565b60008167ffffffffffffffff811115612605577f4e487b7100000000000000000000000000000000000000000000000000000000600052604160045260246000fd5b6040519080825280601f01601f1916602001820160405280156126375781602001600182028036833780820191505090505b5090505b600085146126ea576001826126509190613c42565b9150600a8561265f9190613dd8565b603061266b9190613b61565b60f81b8183815181106126a7577f4e487b7100000000000000000000000000000000000000000000000000000000600052603260045260246000fd5b60200101907effffffffffffffffffffffffffffffffffffffffffffffffffffffffffffff1916908160001a905350600a856126e39190613bb7565b945061263b565b8093505050505b919050565b60007f01ffc9a7000000000000000000000000000000000000000000000000000000007bffffffffffffffffffffffffffffffffffffffffffffffffffffffff1916827bffffffffffffffffffffffffffffffffffffffffffffffffffffffff1916149050919050565b61276b838383612a0b565b600073ffffffffffffffffffffffffffffffffffffffff168373ffffffffffffffffffffffffffffffffffffffff1614156127ae576127a981612a10565b6127ed565b8173ffffffffffffffffffffffffffffffffffffffff168373ffffffffffffffffffffffffffffffffffffffff16146127ec576127eb8382612a59565b5b5b600073ffffffffffffffffffffffffffffffffffffffff168273ffffffffffffffffffffffffffffffffffffffff1614156128305761282b81612bc6565b61286f565b8273ffffffffffffffffffffffffffffffffffffffff168273ffffffffffffffffffffffffffffffffffffffff161461286e5761286d8282612d09565b5b5b505050565b60006128958473ffffffffffffffffffffffffffffffffffffffff16612d88565b156129fe578373ffffffffffffffffffffffffffffffffffffffff1663150b7a026128be611b88565b8786866040518563ffffffff1660e01b81526004016128e094939291906136de565b602060405180830381600087803b1580156128fa57600080fd5b505af192505050801561292b57506040513d601f19601f820116820180604052508101906129289190613147565b60015b6129ae573d806000811461295b576040519150601f19603f3d011682016040523d82523d6000602084013e612960565b606091505b506000815114156129a6576040517f08c379a000000000000000000000000000000000000000000000000000000000815260040161299d906137a7565b60405180910390fd5b805181602001fd5b63150b7a0260e01b7bffffffffffffffffffffffffffffffffffffffffffffffffffffffff1916817bffffffffffffffffffffffffffffffffffffffffffffffffffffffff191614915050612a03565b600190505b949350505050565b505050565b6008805490506009600083815260200190815260200160002081905550600881908060018154018082558091505060019003906000526020600020016000909190919091505550565b60006001612a66846110d1565b612a709190613c42565b9050600060076000848152602001908152602001600020549050818114612b55576000600660008673ffffffffffffffffffffffffffffffffffffffff1673ffffffffffffffffffffffffffffffffffffffff168152602001908152602001600020600084815260200190815260200160002054905080600660008773ffffffffffffffffffffffffffffffffffffffff1673ffffffffffffffffffffffffffffffffffffffff168152602001908152602001600020600084815260200190815260200160002081905550816007600083815260200190815260200160002081905550505b6007600084815260200190815260200160002060009055600660008573ffffffffffffffffffffffffffffffffffffffff1673ffffffffffffffffffffffffffffffffffffffff16815260200190815260200160002060008381526020019081526020016000206000905550505050565b60006001600880549050612bda9190613c42565b9050600060096000848152602001908152602001600020549050600060088381548110612c30577f4e487b7100000000000000000000000000000000000000000000000000000000600052603260045260246000fd5b906000526020600020015490508060088381548110612c78577f4e487b7100000000000000000000000000000000000000000000000000000000600052603260045260246000fd5b906000526020600020018190555081600960008381526020019081526020016000208190555060096000858152602001908152602001600020600090556008805480612ced577f4e487b7100000000000000000000000000000000000000000000000000000000600052603160045260246000fd5b6001900381819060005260206000200160009055905550505050565b6000612d14836110d1565b905081600660008573ffffffffffffffffffffffffffffffffffffffff1673ffffffffffffffffffffffffffffffffffffffff168152602001908152602001600020600083815260200190815260200160002081905550806007600084815260200190815260200160002081905550505050565b600080823b905060008111915050919050565b828054612da790613d2c565b90600052602060002090601f016020900481019282612dc95760008555612e10565b82601f10612de257805160ff1916838001178555612e10565b82800160010185558215612e10579182015b82811115612e0f578251825591602001919060010190612df4565b5b509050612e1d9190612e21565b5090565b5b80821115612e3a576000816000905550600101612e22565b5090565b6000612e51612e4c84613aa7565b613a82565b905082815260208101848484011115612e6957600080fd5b612e74848285613cea565b509392505050565b6000612e8f612e8a84613ad8565b613a82565b905082815260208101848484011115612ea757600080fd5b612eb2848285613cea565b509392505050565b600081359050612ec9816144eb565b92915050565b600081359050612ede81614502565b92915050565b600081359050612ef381614519565b92915050565b600081519050612f0881614519565b92915050565b600082601f830112612f1f57600080fd5b8135612f2f848260208601612e3e565b91505092915050565b600082601f830112612f4957600080fd5b8135612f59848260208601612e7c565b91505092915050565b600081359050612f7181614530565b92915050565b600060208284031215612f8957600080fd5b6000612f9784828501612eba565b91505092915050565b60008060408385031215612fb357600080fd5b6000612fc185828601612eba565b9250506020612fd285828601612eba565b9150509250929050565b600080600060608486031215612ff157600080fd5b6000612fff86828701612eba565b935050602061301086828701612eba565b925050604061302186828701612f62565b9150509250925092565b6000806000806080858703121561304157600080fd5b600061304f87828801612eba565b945050602061306087828801612eba565b935050604061307187828801612f62565b925050606085013567ffffffffffffffff81111561308e57600080fd5b61309a87828801612f0e565b91505092959194509250565b600080604083850312156130b957600080fd5b60006130c785828601612eba565b92505060206130d885828601612ecf565b9150509250929050565b600080604083850312156130f557600080fd5b600061310385828601612eba565b925050602061311485828601612f62565b9150509250929050565b60006020828403121561313057600080fd5b600061313e84828501612ee4565b91505092915050565b60006020828403121561315957600080fd5b600061316784828501612ef9565b91505092915050565b60006020828403121561318257600080fd5b600082013567ffffffffffffffff81111561319c57600080fd5b6131a884828501612f38565b91505092915050565b6000602082840312156131c357600080fd5b60006131d184828501612f62565b91505092915050565b6131e381613c76565b82525050565b6131f281613c88565b82525050565b600061320382613b1e565b61320d8185613b34565b935061321d818560208601613cf9565b61322681613ec5565b840191505092915050565b600061323c82613b29565b6132468185613b45565b9350613256818560208601613cf9565b61325f81613ec5565b840191505092915050565b600061327582613b29565b61327f8185613b56565b935061328f818560208601613cf9565b80840191505092915050565b600081546132a881613d2c565b6132b28186613b56565b945060018216600081146132cd57600181146132de57613311565b60ff19831686528186019350613311565b6132e785613b09565b60005b83811015613309578154818901526001820191506020810190506132ea565b838801955050505b50505092915050565b6000613327601483613b45565b915061333282613ed6565b602082019050919050565b600061334a602b83613b45565b915061335582613eff565b604082019050919050565b600061336d603283613b45565b915061337882613f4e565b604082019050919050565b6000613390602683613b45565b915061339b82613f9d565b604082019050919050565b60006133b3601c83613b45565b91506133be82613fec565b602082019050919050565b60006133d6600c83613b45565b91506133e182614015565b602082019050919050565b60006133f9602483613b45565b91506134048261403e565b604082019050919050565b600061341c601983613b45565b91506134278261408d565b602082019050919050565b600061343f602c83613b45565b915061344a826140b6565b604082019050919050565b6000613462601083613b45565b915061346d82614105565b602082019050919050565b6000613485603883613b45565b91506134908261412e565b604082019050919050565b60006134a8602a83613b45565b91506134b38261417d565b604082019050919050565b60006134cb602983613b45565b91506134d6826141cc565b604082019050919050565b60006134ee602083613b45565b91506134f98261421b565b602082019050919050565b6000613511602c83613b45565b915061351c82614244565b604082019050919050565b6000613534600583613b56565b915061353f82614293565b600582019050919050565b6000613557601083613b45565b9150613562826142bc565b602082019050919050565b600061357a602083613b45565b9150613585826142e5565b602082019050919050565b600061359d602983613b45565b91506135a88261430e565b604082019050919050565b60006135c0602f83613b45565b91506135cb8261435d565b604082019050919050565b60006135e3601083613b45565b91506135ee826143ac565b602082019050919050565b6000613606602183613b45565b9150613611826143d5565b604082019050919050565b6000613629601283613b45565b915061363482614424565b602082019050919050565b600061364c603183613b45565b91506136578261444d565b604082019050919050565b600061366f602c83613b45565b915061367a8261449c565b604082019050919050565b61368e81613ce0565b82525050565b60006136a0828561329b565b91506136ac828461326a565b91506136b782613527565b91508190509392505050565b60006020820190506136d860008301846131da565b92915050565b60006080820190506136f360008301876131da565b61370060208301866131da565b61370d6040830185613685565b818103606083015261371f81846131f8565b905095945050505050565b600060208201905061373f60008301846131e9565b92915050565b6000602082019050818103600083015261375f8184613231565b905092915050565b600060208201905081810360008301526137808161331a565b9050919050565b600060208201905081810360008301526137a08161333d565b9050919050565b600060208201905081810360008301526137c081613360565b9050919050565b600060208201905081810360008301526137e081613383565b9050919050565b60006020820190508181036000830152613800816133a6565b9050919050565b60006020820190508181036000830152613820816133c9565b9050919050565b60006020820190508181036000830152613840816133ec565b9050919050565b600060208201905081810360008301526138608161340f565b9050919050565b6000602082019050818103600083015261388081613432565b9050919050565b600060208201905081810360008301526138a081613455565b9050919050565b600060208201905081810360008301526138c081613478565b9050919050565b600060208201905081810360008301526138e08161349b565b9050919050565b60006020820190508181036000830152613900816134be565b9050919050565b60006020820190508181036000830152613920816134e1565b9050919050565b6000602082019050818103600083015261394081613504565b9050919050565b600060208201905081810360008301526139608161354a565b9050919050565b600060208201905081810360008301526139808161356d565b9050919050565b600060208201905081810360008301526139a081613590565b9050919050565b600060208201905081810360008301526139c0816135b3565b9050919050565b600060208201905081810360008301526139e0816135d6565b9050919050565b60006020820190508181036000830152613a00816135f9565b9050919050565b60006020820190508181036000830152613a208161361c565b9050919050565b60006020820190508181036000830152613a408161363f565b9050919050565b60006020820190508181036000830152613a6081613662565b9050919050565b6000602082019050613a7c6000830184613685565b92915050565b6000613a8c613a9d565b9050613a988282613d5e565b919050565b6000604051905090565b600067ffffffffffffffff821115613ac257613ac1613e96565b5b613acb82613ec5565b9050602081019050919050565b600067ffffffffffffffff821115613af357613af2613e96565b5b613afc82613ec5565b9050602081019050919050565b60008190508160005260206000209050919050565b600081519050919050565b600081519050919050565b600082825260208201905092915050565b600082825260208201905092915050565b600081905092915050565b6000613b6c82613ce0565b9150613b7783613ce0565b9250827fffffffffffffffffffffffffffffffffffffffffffffffffffffffffffffffff03821115613bac57613bab613e09565b5b828201905092915050565b6000613bc282613ce0565b9150613bcd83613ce0565b925082613bdd57613bdc613e38565b5b828204905092915050565b6000613bf382613ce0565b9150613bfe83613ce0565b9250817fffffffffffffffffffffffffffffffffffffffffffffffffffffffffffffffff0483118215151615613c3757613c36613e09565b5b828202905092915050565b6000613c4d82613ce0565b9150613c5883613ce0565b925082821015613c6b57613c6a613e09565b5b828203905092915050565b6000613c8182613cc0565b9050919050565b60008115159050919050565b60007fffffffff0000000000000000000000000000000000000000000000000000000082169050919050565b600073ffffffffffffffffffffffffffffffffffffffff82169050919050565b6000819050919050565b82818337600083830152505050565b60005b83811015613d17578082015181840152602081019050613cfc565b83811115613d26576000848401525b50505050565b60006002820490506001821680613d4457607f821691505b60208210811415613d5857613d57613e67565b5b50919050565b613d6782613ec5565b810181811067ffffffffffffffff82111715613d8657613d85613e96565b5b80604052505050565b6000613d9a82613ce0565b91507fffffffffffffffffffffffffffffffffffffffffffffffffffffffffffffffff821415613dcd57613dcc613e09565b5b600182019050919050565b6000613de382613ce0565b9150613dee83613ce0565b925082613dfe57613dfd613e38565b5b828206905092915050565b7f4e487b7100000000000000000000000000000000000000000000000000000000600052601160045260246000fd5b7f4e487b7100000000000000000000000000000000000000000000000000000000600052601260045260246000fd5b7f4e487b7100000000000000000000000000000000000000000000000000000000600052602260045260246000fd5b7f4e487b7100000000000000000000000000000000000000000000000000000000600052604160045260246000fd5b6000601f19601f8301169050919050565b7f5061757361626c653a206e6f7420706175736564000000000000000000000000600082015250565b7f455243373231456e756d657261626c653a206f776e657220696e646578206f7560008201527f74206f6620626f756e6473000000000000000000000000000000000000000000602082015250565b7f4552433732313a207472616e7366657220746f206e6f6e20455243373231526560008201527f63656976657220696d706c656d656e7465720000000000000000000000000000602082015250565b7f4f776e61626c653a206e6577206f776e657220697320746865207a65726f206160008201527f6464726573730000000000000000000000000000000000000000000000000000602082015250565b7f4552433732313a20746f6b656e20616c7265616479206d696e74656400000000600082015250565b7f6d696e74696e67207a65726f0000000000000000000000000000000000000000600082015250565b7f4552433732313a207472616e7366657220746f20746865207a65726f2061646460008201527f7265737300000000000000000000000000000000000000000000000000000000602082015250565b7f4552433732313a20617070726f766520746f2063616c6c657200000000000000600082015250565b7f4552433732313a206f70657261746f7220717565727920666f72206e6f6e657860008201527f697374656e7420746f6b656e0000000000000000000000000000000000000000602082015250565b7f5061757361626c653a2070617573656400000000000000000000000000000000600082015250565b7f4552433732313a20617070726f76652063616c6c6572206973206e6f74206f7760008201527f6e6572206e6f7220617070726f76656420666f7220616c6c0000000000000000602082015250565b7f4552433732313a2062616c616e636520717565727920666f7220746865207a6560008201527f726f206164647265737300000000000000000000000000000000000000000000602082015250565b7f4552433732313a206f776e657220717565727920666f72206e6f6e657869737460008201527f656e7420746f6b656e0000000000000000000000000000000000000000000000602082015250565b7f4552433732313a206d696e7420746f20746865207a65726f2061646472657373600082015250565b7f4552433732313a20617070726f76656420717565727920666f72206e6f6e657860008201527f697374656e7420746f6b656e0000000000000000000000000000000000000000602082015250565b7f2e6a736f6e000000000000000000000000000000000000000000000000000000600082015250565b7f6d696e74696e6720746f6f206d616e7900000000000000000000000000000000600082015250565b7f4f776e61626c653a2063616c6c6572206973206e6f7420746865206f776e6572600082015250565b7f4552433732313a207472616e73666572206f6620746f6b656e2074686174206960008201527f73206e6f74206f776e0000000000000000000000000000000000000000000000602082015250565b7f4552433732314d657461646174613a2055524920717565727920666f72206e6f60008201527f6e6578697374656e7420746f6b656e0000000000000000000000000000000000602082015250565b7f6e6f20656e6f75676820737570706c7900000000000000000000000000000000600082015250565b7f4552433732313a20617070726f76616c20746f2063757272656e74206f776e6560008201527f7200000000000000000000000000000000000000000000000000000000000000602082015250565b7f696e73756666696369656e742066756e64730000000000000000000000000000600082015250565b7f4552433732313a207472616e736665722063616c6c6572206973206e6f74206f60008201527f776e6572206e6f7220617070726f766564000000000000000000000000000000602082015250565b7f455243373231456e756d657261626c653a20676c6f62616c20696e646578206f60008201527f7574206f6620626f756e64730000000000000000000000000000000000000000602082015250565b6144f481613c76565b81146144ff57600080fd5b50565b61450b81613c88565b811461451657600080fd5b50565b61452281613c94565b811461452d57600080fd5b50565b61453981613ce0565b811461454457600080fd5b5056fea264697066735822122009513cb336d9a62b378b0b45750c342a60acd6fdacc29edfa20ea231e892218364736f6c63430008040033",
  "linkReferences": {},
  "deployedLinkReferences": {}
}