{
  "_format": "hh-sol-artifact-1",
  "contractName": "ConcaveNFT",
  "sourceName": "contracts/Concave.sol",
  "abi": [
    {
      "inputs": [
        {
          "internalType": "string",
          "name": "_name",
          "type": "string"
        },
        {
          "internalType": "string",
          "name": "_symbol",
          "type": "string"
        },
        {
          "internalType": "string",
          "name": "_initBaseURI",
          "type": "string"
        },
        {
          "internalType": "string",
          "name": "_initNotRevealedUri",
          "type": "string"
        }
      ],
      "stateMutability": "nonpayable",
      "type": "constructor"
    },
    {
      "anonymous": false,
      "inputs": [
        {
          "indexed": true,
          "internalType": "address",
          "name": "owner",
          "type": "address"
        },
        {
          "indexed": true,
          "internalType": "address",
          "name": "approved",
          "type": "address"
        },
        {
          "indexed": true,
          "internalType": "uint256",
          "name": "tokenId",
          "type": "uint256"
        }
      ],
      "name": "Approval",
      "type": "event"
    },
    {
      "anonymous": false,
      "inputs": [
        {
          "indexed": true,
          "internalType": "address",
          "name": "owner",
          "type": "address"
        },
        {
          "indexed": true,
          "internalType": "address",
          "name": "operator",
          "type": "address"
        },
        {
          "indexed": false,
          "internalType": "bool",
          "name": "approved",
          "type": "bool"
        }
      ],
      "name": "ApprovalForAll",
      "type": "event"
    },
    {
      "anonymous": false,
      "inputs": [
        {
          "indexed": true,
          "internalType": "address",
          "name": "previousOwner",
          "type": "address"
        },
        {
          "indexed": true,
          "internalType": "address",
          "name": "newOwner",
          "type": "address"
        }
      ],
      "name": "OwnershipTransferred",
      "type": "event"
    },
    {
      "anonymous": false,
      "inputs": [
        {
          "indexed": false,
          "internalType": "address",
          "name": "account",
          "type": "address"
        }
      ],
      "name": "Paused",
      "type": "event"
    },
    {
      "anonymous": false,
      "inputs": [
        {
          "indexed": true,
          "internalType": "address",
          "name": "from",
          "type": "address"
        },
        {
          "indexed": true,
          "internalType": "address",
          "name": "to",
          "type": "address"
        },
        {
          "indexed": true,
          "internalType": "uint256",
          "name": "tokenId",
          "type": "uint256"
        }
      ],
      "name": "Transfer",
      "type": "event"
    },
    {
      "anonymous": false,
      "inputs": [
        {
          "indexed": false,
          "internalType": "address",
          "name": "account",
          "type": "address"
        }
      ],
      "name": "Unpaused",
      "type": "event"
    },
    {
      "inputs": [],
      "name": "THE_COLORS",
      "outputs": [
        {
          "internalType": "address",
          "name": "",
          "type": "address"
        }
      ],
      "stateMutability": "view",
      "type": "function"
    },
    {
      "inputs": [
        {
          "internalType": "address",
          "name": "to",
          "type": "address"
        },
        {
          "internalType": "uint256",
          "name": "tokenId",
          "type": "uint256"
        }
      ],
      "name": "approve",
      "outputs": [],
      "stateMutability": "nonpayable",
      "type": "function"
    },
    {
      "inputs": [
        {
          "internalType": "address",
          "name": "owner",
          "type": "address"
        }
      ],
      "name": "balanceOf",
      "outputs": [
        {
          "internalType": "uint256",
          "name": "",
          "type": "uint256"
        }
      ],
      "stateMutability": "view",
      "type": "function"
    },
    {
      "inputs": [],
      "name": "baseURI",
      "outputs": [
        {
          "internalType": "string",
          "name": "",
          "type": "string"
        }
      ],
      "stateMutability": "view",
      "type": "function"
    },
    {
      "inputs": [
        {
          "internalType": "uint256",
          "name": "tokenId",
          "type": "uint256"
        }
      ],
      "name": "getApproved",
      "outputs": [
        {
          "internalType": "address",
          "name": "",
          "type": "address"
        }
      ],
      "stateMutability": "view",
      "type": "function"
    },
    {
      "inputs": [
        {
          "internalType": "address",
          "name": "owner",
          "type": "address"
        },
        {
          "internalType": "address",
          "name": "operator",
          "type": "address"
        }
      ],
      "name": "isApprovedForAll",
      "outputs": [
        {
          "internalType": "bool",
          "name": "",
          "type": "bool"
        }
      ],
      "stateMutability": "view",
      "type": "function"
    },
    {
      "inputs": [],
      "name": "maxMintAmount",
      "outputs": [
        {
          "internalType": "uint256",
          "name": "",
          "type": "uint256"
        }
      ],
      "stateMutability": "view",
      "type": "function"
    },
    {
      "inputs": [],
      "name": "maxSupply",
      "outputs": [
        {
          "internalType": "uint256",
          "name": "",
          "type": "uint256"
        }
      ],
      "stateMutability": "view",
      "type": "function"
    },
    {
      "inputs": [
        {
          "internalType": "uint256",
          "name": "_mintAmount",
          "type": "uint256"
        }
      ],
      "name": "mint",
      "outputs": [
        {
          "internalType": "uint256",
          "name": "",
          "type": "uint256"
        }
      ],
      "stateMutability": "payable",
      "type": "function"
    },
    {
      "inputs": [],
      "name": "name",
      "outputs": [
        {
          "internalType": "string",
          "name": "",
          "type": "string"
        }
      ],
      "stateMutability": "view",
      "type": "function"
    },
    {
      "inputs": [],
      "name": "notRevealedUri",
      "outputs": [
        {
          "internalType": "string",
          "name": "",
          "type": "string"
        }
      ],
      "stateMutability": "view",
      "type": "function"
    },
    {
      "inputs": [],
      "name": "owner",
      "outputs": [
        {
          "internalType": "address",
          "name": "",
          "type": "address"
        }
      ],
      "stateMutability": "view",
      "type": "function"
    },
    {
      "inputs": [
        {
          "internalType": "uint256",
          "name": "tokenId",
          "type": "uint256"
        }
      ],
      "name": "ownerOf",
      "outputs": [
        {
          "internalType": "address",
          "name": "",
          "type": "address"
        }
      ],
      "stateMutability": "view",
      "type": "function"
    },
    {
      "inputs": [],
      "name": "pause",
      "outputs": [],
      "stateMutability": "nonpayable",
      "type": "function"
    },
    {
      "inputs": [],
      "name": "paused",
      "outputs": [
        {
          "internalType": "bool",
          "name": "",
          "type": "bool"
        }
      ],
      "stateMutability": "view",
      "type": "function"
    },
    {
      "inputs": [],
      "name": "price",
      "outputs": [
        {
          "internalType": "uint256",
          "name": "",
          "type": "uint256"
        }
      ],
      "stateMutability": "view",
      "type": "function"
    },
    {
      "inputs": [],
      "name": "renounceOwnership",
      "outputs": [],
      "stateMutability": "nonpayable",
      "type": "function"
    },
    {
      "inputs": [],
      "name": "reveal",
      "outputs": [],
      "stateMutability": "nonpayable",
      "type": "function"
    },
    {
      "inputs": [],
      "name": "revealed",
      "outputs": [
        {
          "internalType": "bool",
          "name": "",
          "type": "bool"
        }
      ],
      "stateMutability": "view",
      "type": "function"
    },
    {
      "inputs": [
        {
          "internalType": "address",
          "name": "from",
          "type": "address"
        },
        {
          "internalType": "address",
          "name": "to",
          "type": "address"
        },
        {
          "internalType": "uint256",
          "name": "tokenId",
          "type": "uint256"
        }
      ],
      "name": "safeTransferFrom",
      "outputs": [],
      "stateMutability": "nonpayable",
      "type": "function"
    },
    {
      "inputs": [
        {
          "internalType": "address",
          "name": "from",
          "type": "address"
        },
        {
          "internalType": "address",
          "name": "to",
          "type": "address"
        },
        {
          "internalType": "uint256",
          "name": "tokenId",
          "type": "uint256"
        },
        {
          "internalType": "bytes",
          "name": "_data",
          "type": "bytes"
        }
      ],
      "name": "safeTransferFrom",
      "outputs": [],
      "stateMutability": "nonpayable",
      "type": "function"
    },
    {
      "inputs": [
        {
          "internalType": "address",
          "name": "operator",
          "type": "address"
        },
        {
          "internalType": "bool",
          "name": "approved",
          "type": "bool"
        }
      ],
      "name": "setApprovalForAll",
      "outputs": [],
      "stateMutability": "nonpayable",
      "type": "function"
    },
    {
      "inputs": [
        {
          "internalType": "string",
          "name": "_newBaseURI",
          "type": "string"
        }
      ],
      "name": "setBaseURI",
      "outputs": [],
      "stateMutability": "nonpayable",
      "type": "function"
    },
    {
      "inputs": [
        {
          "internalType": "uint256",
          "name": "_newmaxMintAmount",
          "type": "uint256"
        }
      ],
      "name": "setMaxMintAmount",
      "outputs": [],
      "stateMutability": "nonpayable",
      "type": "function"
    },
    {
      "inputs": [
        {
          "internalType": "string",
          "name": "_notRevealedURI",
          "type": "string"
        }
      ],
      "name": "setNotRevealedURI",
      "outputs": [],
      "stateMutability": "nonpayable",
      "type": "function"
    },
    {
      "inputs": [
        {
          "internalType": "uint256",
          "name": "_price",
          "type": "uint256"
        }
      ],
      "name": "setPrice",
      "outputs": [],
      "stateMutability": "nonpayable",
      "type": "function"
    },
    {
      "inputs": [
        {
          "internalType": "bytes4",
          "name": "interfaceId",
          "type": "bytes4"
        }
      ],
      "name": "supportsInterface",
      "outputs": [
        {
          "internalType": "bool",
          "name": "",
          "type": "bool"
        }
      ],
      "stateMutability": "view",
      "type": "function"
    },
    {
      "inputs": [],
      "name": "symbol",
      "outputs": [
        {
          "internalType": "string",
          "name": "",
          "type": "string"
        }
      ],
      "stateMutability": "view",
      "type": "function"
    },
    {
      "inputs": [
        {
          "internalType": "uint256",
          "name": "index",
          "type": "uint256"
        }
      ],
      "name": "tokenByIndex",
      "outputs": [
        {
          "internalType": "uint256",
          "name": "",
          "type": "uint256"
        }
      ],
      "stateMutability": "view",
      "type": "function"
    },
    {
      "inputs": [
        {
          "internalType": "address",
          "name": "owner",
          "type": "address"
        },
        {
          "internalType": "uint256",
          "name": "index",
          "type": "uint256"
        }
      ],
      "name": "tokenOfOwnerByIndex",
      "outputs": [
        {
          "internalType": "uint256",
          "name": "",
          "type": "uint256"
        }
      ],
      "stateMutability": "view",
      "type": "function"
    },
    {
      "inputs": [
        {
          "internalType": "uint256",
          "name": "tokenId",
          "type": "uint256"
        }
      ],
      "name": "tokenURI",
      "outputs": [
        {
          "internalType": "string",
          "name": "",
          "type": "string"
        }
      ],
      "stateMutability": "view",
      "type": "function"
    },
    {
      "inputs": [],
      "name": "totalSupply",
      "outputs": [
        {
          "internalType": "uint256",
          "name": "",
          "type": "uint256"
        }
      ],
      "stateMutability": "view",
      "type": "function"
    },
    {
      "inputs": [
        {
          "internalType": "address",
          "name": "from",
          "type": "address"
        },
        {
          "internalType": "address",
          "name": "to",
          "type": "address"
        },
        {
          "internalType": "uint256",
          "name": "tokenId",
          "type": "uint256"
        }
      ],
      "name": "transferFrom",
      "outputs": [],
      "stateMutability": "nonpayable",
      "type": "function"
    },
    {
      "inputs": [
        {
          "internalType": "address",
          "name": "newOwner",
          "type": "address"
        }
      ],
      "name": "transferOwnership",
      "outputs": [],
      "stateMutability": "nonpayable",
      "type": "function"
    },
    {
      "inputs": [],
      "name": "unpause",
      "outputs": [],
      "stateMutability": "nonpayable",
      "type": "function"
    },
    {
      "inputs": [],
      "name": "withdraw",
      "outputs": [],
      "stateMutability": "payable",
      "type": "function"
    }
  ],
  "bytecode": "0x60806040526110dd600e55600a600f55666a94d74f4300006010556000601160006101000a81548160ff02191690831515021790555060c86012553480156200004757600080fd5b50604051620050073803806200500783398181016040528101906200006d9190620003e9565b8383816000908051906020019062000087929190620002c7565b508060019080519060200190620000a0929190620002c7565b5050506000600a60006101000a81548160ff021916908315150217905550620000de620000d26200012a60201b60201c565b6200013260201b60201c565b81600c9080519060200190620000f6929190620002c7565b5080600d90805190602001906200010f929190620002c7565b5062000120620001f860201b60201c565b505050506200070e565b600033905090565b6000600a60019054906101000a900473ffffffffffffffffffffffffffffffffffffffff16905081600a60016101000a81548173ffffffffffffffffffffffffffffffffffffffff021916908373ffffffffffffffffffffffffffffffffffffffff1602179055508173ffffffffffffffffffffffffffffffffffffffff168173ffffffffffffffffffffffffffffffffffffffff167f8be0079c531659141344cd1fd0a4f28419497f9722a3daafe3b4186f6b6457e060405160405180910390a35050565b62000208620002b060201b60201c565b156200024b576040517f08c379a000000000000000000000000000000000000000000000000000000000815260040162000242906200050e565b60405180910390fd5b6001600a60006101000a81548160ff0219169083151502179055507f62e78cea01bee320cd4e420270b5ea74000d11b0c9f74754ebdbfc544b05a258620002976200012a60201b60201c565b604051620002a69190620004f1565b60405180910390a1565b6000600a60009054906101000a900460ff16905090565b828054620002d5906200060a565b90600052602060002090601f016020900481019282620002f9576000855562000345565b82601f106200031457805160ff191683800117855562000345565b8280016001018555821562000345579182015b828111156200034457825182559160200191906001019062000327565b5b50905062000354919062000358565b5090565b5b808211156200037357600081600090555060010162000359565b5090565b60006200038e620003888462000559565b62000530565b905082815260208101848484011115620003a757600080fd5b620003b4848285620005d4565b509392505050565b600082601f830112620003ce57600080fd5b8151620003e084826020860162000377565b91505092915050565b600080600080608085870312156200040057600080fd5b600085015167ffffffffffffffff8111156200041b57600080fd5b6200042987828801620003bc565b945050602085015167ffffffffffffffff8111156200044757600080fd5b6200045587828801620003bc565b935050604085015167ffffffffffffffff8111156200047357600080fd5b6200048187828801620003bc565b925050606085015167ffffffffffffffff8111156200049f57600080fd5b620004ad87828801620003bc565b91505092959194509250565b620004c481620005a0565b82525050565b6000620004d96010836200058f565b9150620004e682620006e5565b602082019050919050565b6000602082019050620005086000830184620004b9565b92915050565b600060208201905081810360008301526200052981620004ca565b9050919050565b60006200053c6200054f565b90506200054a828262000640565b919050565b6000604051905090565b600067ffffffffffffffff821115620005775762000576620006a5565b5b6200058282620006d4565b9050602081019050919050565b600082825260208201905092915050565b6000620005ad82620005b4565b9050919050565b600073ffffffffffffffffffffffffffffffffffffffff82169050919050565b60005b83811015620005f4578082015181840152602081019050620005d7565b8381111562000604576000848401525b50505050565b600060028204905060018216806200062357607f821691505b602082108114156200063a576200063962000676565b5b50919050565b6200064b82620006d4565b810181811067ffffffffffffffff821117156200066d576200066c620006a5565b5b80604052505050565b7f4e487b7100000000000000000000000000000000000000000000000000000000600052602260045260246000fd5b7f4e487b7100000000000000000000000000000000000000000000000000000000600052604160045260246000fd5b6000601f19601f8301169050919050565b7f5061757361626c653a2070617573656400000000000000000000000000000000600082015250565b6148e9806200071e6000396000f3fe60806040526004361061020f5760003560e01c80636c0360eb11610118578063a22cb465116100a0578063c8f8b6131161006f578063c8f8b6131461074b578063d5abeb0114610776578063e985e9c5146107a1578063f2c4ce1e146107de578063f2fde38b146108075761020f565b8063a22cb465146106a5578063a475b5dd146106ce578063b88d4fde146106e5578063c87b56dd1461070e5761020f565b80638da5cb5b116100e75780638da5cb5b146105cb57806391b7f5ed146105f657806395d89b411461061f578063a035b1fe1461064a578063a0712d68146106755761020f565b80636c0360eb1461053557806370a0823114610560578063715018a61461059d5780638456cb59146105b45761020f565b80632f745c591161019b5780634f6ccce71161016a5780634f6ccce71461043c578063518302271461047957806355f804b3146104a45780635c975abb146104cd5780636352211e146104f85761020f565b80632f745c59146103b55780633ccfd60b146103f25780633f4ba83a146103fc57806342842e0e146104135761020f565b8063088a4ed0116101e2578063088a4ed0146102e4578063095ea7b31461030d57806318160ddd14610336578063239c70ae1461036157806323b872dd1461038c5761020f565b806301ffc9a71461021457806306fdde0314610251578063081812fc1461027c578063081c8c44146102b9575b600080fd5b34801561022057600080fd5b5061023b6004803603810190610236919061331d565b610830565b60405161024891906139bb565b60405180910390f35b34801561025d57600080fd5b506102666108aa565b60405161027391906139d6565b60405180910390f35b34801561028857600080fd5b506102a3600480360381019061029e91906133b0565b61093c565b6040516102b09190613954565b60405180910390f35b3480156102c557600080fd5b506102ce6109c1565b6040516102db91906139d6565b60405180910390f35b3480156102f057600080fd5b5061030b600480360381019061030691906133b0565b610a4f565b005b34801561031957600080fd5b50610334600480360381019061032f91906132e1565b610ad5565b005b34801561034257600080fd5b5061034b610bed565b6040516103589190613d58565b60405180910390f35b34801561036d57600080fd5b50610376610bfa565b6040516103839190613d58565b60405180910390f35b34801561039857600080fd5b506103b360048036038101906103ae91906131db565b610c00565b005b3480156103c157600080fd5b506103dc60048036038101906103d791906132e1565b610c60565b6040516103e99190613d58565b60405180910390f35b6103fa610d05565b005b34801561040857600080fd5b50610411610dca565b005b34801561041f57600080fd5b5061043a600480360381019061043591906131db565b610e50565b005b34801561044857600080fd5b50610463600480360381019061045e91906133b0565b610e70565b6040516104709190613d58565b60405180910390f35b34801561048557600080fd5b5061048e610f07565b60405161049b91906139bb565b60405180910390f35b3480156104b057600080fd5b506104cb60048036038101906104c6919061336f565b610f1a565b005b3480156104d957600080fd5b506104e2610fb0565b6040516104ef91906139bb565b60405180910390f35b34801561050457600080fd5b5061051f600480360381019061051a91906133b0565b610fc7565b60405161052c9190613954565b60405180910390f35b34801561054157600080fd5b5061054a611079565b60405161055791906139d6565b60405180910390f35b34801561056c57600080fd5b5061058760048036038101906105829190613176565b611107565b6040516105949190613d58565b60405180910390f35b3480156105a957600080fd5b506105b26111bf565b005b3480156105c057600080fd5b506105c9611247565b005b3480156105d757600080fd5b506105e06112cd565b6040516105ed9190613954565b60405180910390f35b34801561060257600080fd5b5061061d600480360381019061061891906133b0565b6112f7565b005b34801561062b57600080fd5b5061063461137d565b60405161064191906139d6565b60405180910390f35b34801561065657600080fd5b5061065f61140f565b60405161066c9190613d58565b60405180910390f35b61068f600480360381019061068a91906133b0565b611415565b60405161069c9190613d58565b60405180910390f35b3480156106b157600080fd5b506106cc60048036038101906106c791906132a5565b611784565b005b3480156106da57600080fd5b506106e361179a565b005b3480156106f157600080fd5b5061070c6004803603810190610707919061322a565b611833565b005b34801561071a57600080fd5b50610735600480360381019061073091906133b0565b611895565b60405161074291906139d6565b60405180910390f35b34801561075757600080fd5b506107606119e4565b60405161076d9190613954565b60405180910390f35b34801561078257600080fd5b5061078b6119fc565b6040516107989190613d58565b60405180910390f35b3480156107ad57600080fd5b506107c860048036038101906107c3919061319f565b611a02565b6040516107d591906139bb565b60405180910390f35b3480156107ea57600080fd5b506108056004803603810190610800919061336f565b611a96565b005b34801561081357600080fd5b5061082e60048036038101906108299190613176565b611b2c565b005b60007f780e9d63000000000000000000000000000000000000000000000000000000007bffffffffffffffffffffffffffffffffffffffffffffffffffffffff1916827bffffffffffffffffffffffffffffffffffffffffffffffffffffffff191614806108a357506108a282611c24565b5b9050919050565b6060600080546108b99061401d565b80601f01602080910402602001604051908101604052809291908181526020018280546108e59061401d565b80156109325780601f1061090757610100808354040283529160200191610932565b820191906000526020600020905b81548152906001019060200180831161091557829003601f168201915b5050505050905090565b600061094782611d06565b610986576040517f08c379a000000000000000000000000000000000000000000000000000000000815260040161097d90613bd8565b60405180910390fd5b6004600083815260200190815260200160002060009054906101000a900473ffffffffffffffffffffffffffffffffffffffff169050919050565b600d80546109ce9061401d565b80601f01602080910402602001604051908101604052809291908181526020018280546109fa9061401d565b8015610a475780601f10610a1c57610100808354040283529160200191610a47565b820191906000526020600020905b815481529060010190602001808311610a2a57829003601f168201915b505050505081565b610a57611d72565b73ffffffffffffffffffffffffffffffffffffffff16610a756112cd565b73ffffffffffffffffffffffffffffffffffffffff1614610acb576040517f08c379a0000000000000000000000000000000000000000000000000000000008152600401610ac290613c18565b60405180910390fd5b80600f8190555050565b6000610ae082610fc7565b90508073ffffffffffffffffffffffffffffffffffffffff168373ffffffffffffffffffffffffffffffffffffffff161415610b51576040517f08c379a0000000000000000000000000000000000000000000000000000000008152600401610b4890613c98565b60405180910390fd5b8073ffffffffffffffffffffffffffffffffffffffff16610b70611d72565b73ffffffffffffffffffffffffffffffffffffffff161480610b9f5750610b9e81610b99611d72565b611a02565b5b610bde576040517f08c379a0000000000000000000000000000000000000000000000000000000008152600401610bd590613b58565b60405180910390fd5b610be88383611d7a565b505050565b6000600880549050905090565b600f5481565b610c11610c0b611d72565b82611e33565b610c50576040517f08c379a0000000000000000000000000000000000000000000000000000000008152600401610c4790613cf8565b60405180910390fd5b610c5b838383611f11565b505050565b6000610c6b83611107565b8210610cac576040517f08c379a0000000000000000000000000000000000000000000000000000000008152600401610ca390613a18565b60405180910390fd5b600660008473ffffffffffffffffffffffffffffffffffffffff1673ffffffffffffffffffffffffffffffffffffffff168152602001908152602001600020600083815260200190815260200160002054905092915050565b610d0d611d72565b73ffffffffffffffffffffffffffffffffffffffff16610d2b6112cd565b73ffffffffffffffffffffffffffffffffffffffff1614610d81576040517f08c379a0000000000000000000000000000000000000000000000000000000008152600401610d7890613c18565b60405180910390fd5b3373ffffffffffffffffffffffffffffffffffffffff166108fc479081150290604051600060405180830381858888f19350505050158015610dc7573d6000803e3d6000fd5b50565b610dd2611d72565b73ffffffffffffffffffffffffffffffffffffffff16610df06112cd565b73ffffffffffffffffffffffffffffffffffffffff1614610e46576040517f08c379a0000000000000000000000000000000000000000000000000000000008152600401610e3d90613c18565b60405180910390fd5b610e4e61216d565b565b610e6b83838360405180602001604052806000815250611833565b505050565b6000610e7a610bed565b8210610ebb576040517f08c379a0000000000000000000000000000000000000000000000000000000008152600401610eb290613d18565b60405180910390fd5b60088281548110610ef5577f4e487b7100000000000000000000000000000000000000000000000000000000600052603260045260246000fd5b90600052602060002001549050919050565b601160009054906101000a900460ff1681565b610f22611d72565b73ffffffffffffffffffffffffffffffffffffffff16610f406112cd565b73ffffffffffffffffffffffffffffffffffffffff1614610f96576040517f08c379a0000000000000000000000000000000000000000000000000000000008152600401610f8d90613c18565b60405180910390fd5b80600c9080519060200190610fac929190612f85565b5050565b6000600a60009054906101000a900460ff16905090565b6000806002600084815260200190815260200160002060009054906101000a900473ffffffffffffffffffffffffffffffffffffffff169050600073ffffffffffffffffffffffffffffffffffffffff168173ffffffffffffffffffffffffffffffffffffffff161415611070576040517f08c379a000000000000000000000000000000000000000000000000000000000815260040161106790613b98565b60405180910390fd5b80915050919050565b600c80546110869061401d565b80601f01602080910402602001604051908101604052809291908181526020018280546110b29061401d565b80156110ff5780601f106110d4576101008083540402835291602001916110ff565b820191906000526020600020905b8154815290600101906020018083116110e257829003601f168201915b505050505081565b60008073ffffffffffffffffffffffffffffffffffffffff168273ffffffffffffffffffffffffffffffffffffffff161415611178576040517f08c379a000000000000000000000000000000000000000000000000000000000815260040161116f90613b78565b60405180910390fd5b600360008373ffffffffffffffffffffffffffffffffffffffff1673ffffffffffffffffffffffffffffffffffffffff168152602001908152602001600020549050919050565b6111c7611d72565b73ffffffffffffffffffffffffffffffffffffffff166111e56112cd565b73ffffffffffffffffffffffffffffffffffffffff161461123b576040517f08c379a000000000000000000000000000000000000000000000000000000000815260040161123290613c18565b60405180910390fd5b611245600061220f565b565b61124f611d72565b73ffffffffffffffffffffffffffffffffffffffff1661126d6112cd565b73ffffffffffffffffffffffffffffffffffffffff16146112c3576040517f08c379a00000000000000000000000000000000000000000000000000000000081526004016112ba90613c18565b60405180910390fd5b6112cb6122d5565b565b6000600a60019054906101000a900473ffffffffffffffffffffffffffffffffffffffff16905090565b6112ff611d72565b73ffffffffffffffffffffffffffffffffffffffff1661131d6112cd565b73ffffffffffffffffffffffffffffffffffffffff1614611373576040517f08c379a000000000000000000000000000000000000000000000000000000000815260040161136a90613c18565b60405180910390fd5b8060108190555050565b60606001805461138c9061401d565b80601f01602080910402602001604051908101604052809291908181526020018280546113b89061401d565b80156114055780601f106113da57610100808354040283529160200191611405565b820191906000526020600020905b8154815290600101906020018083116113e857829003601f168201915b5050505050905090565b60105481565b600061141f610fb0565b1561145f576040517f08c379a000000000000000000000000000000000000000000000000000000000815260040161145690613b38565b60405180910390fd5b600082116114a2576040517f08c379a000000000000000000000000000000000000000000000000000000000815260040161149990613ab8565b60405180910390fd5b600f548211156114e7576040517f08c379a00000000000000000000000000000000000000000000000000000000081526004016114de90613bf8565b60405180910390fd5b600e54826114f3610bed565b6114fd9190613e52565b111561153e576040517f08c379a000000000000000000000000000000000000000000000000000000000815260040161153590613c78565b60405180910390fd5b601254611549610bed565b106115a3578160105461155c9190613ed9565b34101561159e576040517f08c379a000000000000000000000000000000000000000000000000000000000815260040161159590613cd8565b60405180910390fd5b61173a565b6000739fdb31f8ce3cb8400c7ccb2299492f2a498330a473ffffffffffffffffffffffffffffffffffffffff166370a08231336040518263ffffffff1660e01b81526004016115f29190613954565b60206040518083038186803b15801561160a57600080fd5b505afa15801561161e573d6000803e3d6000fd5b505050506040513d601f19601f8201168201806040525081019061164291906133d9565b905060006002826116539190613ed9565b905060008211611698576040517f08c379a000000000000000000000000000000000000000000000000000000000815260040161168f90613a78565b60405180910390fd5b60006116a333611107565b9050818111156116e8576040517f08c379a00000000000000000000000000000000000000000000000000000000081526004016116df90613d38565b60405180910390fd5b8185826116f59190613e52565b1115611736576040517f08c379a000000000000000000000000000000000000000000000000000000000815260040161172d90613cb8565b60405180910390fd5b5050505b60005b8281101561177b576000611751600b612378565b905061175d3382612386565b611767600b612554565b50808061177390614080565b91505061173d565b50819050919050565b61179661178f611d72565b838361256a565b5050565b6117a2611d72565b73ffffffffffffffffffffffffffffffffffffffff166117c06112cd565b73ffffffffffffffffffffffffffffffffffffffff1614611816576040517f08c379a000000000000000000000000000000000000000000000000000000000815260040161180d90613c18565b60405180910390fd5b6001601160006101000a81548160ff021916908315150217905550565b61184461183e611d72565b83611e33565b611883576040517f08c379a000000000000000000000000000000000000000000000000000000000815260040161187a90613cf8565b60405180910390fd5b61188f848484846126d7565b50505050565b60606118a082611d06565b6118df576040517f08c379a00000000000000000000000000000000000000000000000000000000081526004016118d690613c58565b60405180910390fd5b601160009054906101000a900460ff1661198557600d80546119009061401d565b80601f016020809104026020016040519081016040528092919081815260200182805461192c9061401d565b80156119795780601f1061194e57610100808354040283529160200191611979565b820191906000526020600020905b81548152906001019060200180831161195c57829003601f168201915b505050505090506119df565b6000600c80546119949061401d565b9050116119b057604051806020016040528060008152506119dc565b600c6119bb83612733565b6040516020016119cc929190613925565b6040516020818303038152906040525b90505b919050565b739fdb31f8ce3cb8400c7ccb2299492f2a498330a481565b600e5481565b6000600560008473ffffffffffffffffffffffffffffffffffffffff1673ffffffffffffffffffffffffffffffffffffffff16815260200190815260200160002060008373ffffffffffffffffffffffffffffffffffffffff1673ffffffffffffffffffffffffffffffffffffffff16815260200190815260200160002060009054906101000a900460ff16905092915050565b611a9e611d72565b73ffffffffffffffffffffffffffffffffffffffff16611abc6112cd565b73ffffffffffffffffffffffffffffffffffffffff1614611b12576040517f08c379a0000000000000000000000000000000000000000000000000000000008152600401611b0990613c18565b60405180910390fd5b80600d9080519060200190611b28929190612f85565b5050565b611b34611d72565b73ffffffffffffffffffffffffffffffffffffffff16611b526112cd565b73ffffffffffffffffffffffffffffffffffffffff1614611ba8576040517f08c379a0000000000000000000000000000000000000000000000000000000008152600401611b9f90613c18565b60405180910390fd5b600073ffffffffffffffffffffffffffffffffffffffff168173ffffffffffffffffffffffffffffffffffffffff161415611c18576040517f08c379a0000000000000000000000000000000000000000000000000000000008152600401611c0f90613a58565b60405180910390fd5b611c218161220f565b50565b60007f80ac58cd000000000000000000000000000000000000000000000000000000007bffffffffffffffffffffffffffffffffffffffffffffffffffffffff1916827bffffffffffffffffffffffffffffffffffffffffffffffffffffffff19161480611cef57507f5b5e139f000000000000000000000000000000000000000000000000000000007bffffffffffffffffffffffffffffffffffffffffffffffffffffffff1916827bffffffffffffffffffffffffffffffffffffffffffffffffffffffff1916145b80611cff5750611cfe826128e0565b5b9050919050565b60008073ffffffffffffffffffffffffffffffffffffffff166002600084815260200190815260200160002060009054906101000a900473ffffffffffffffffffffffffffffffffffffffff1673ffffffffffffffffffffffffffffffffffffffff1614159050919050565b600033905090565b816004600083815260200190815260200160002060006101000a81548173ffffffffffffffffffffffffffffffffffffffff021916908373ffffffffffffffffffffffffffffffffffffffff160217905550808273ffffffffffffffffffffffffffffffffffffffff16611ded83610fc7565b73ffffffffffffffffffffffffffffffffffffffff167f8c5be1e5ebec7d5bd14f71427d1e84f3dd0314c0f7b2291e5b200ac8c7c3b92560405160405180910390a45050565b6000611e3e82611d06565b611e7d576040517f08c379a0000000000000000000000000000000000000000000000000000000008152600401611e7490613b18565b60405180910390fd5b6000611e8883610fc7565b90508073ffffffffffffffffffffffffffffffffffffffff168473ffffffffffffffffffffffffffffffffffffffff161480611ef757508373ffffffffffffffffffffffffffffffffffffffff16611edf8461093c565b73ffffffffffffffffffffffffffffffffffffffff16145b80611f085750611f078185611a02565b5b91505092915050565b8273ffffffffffffffffffffffffffffffffffffffff16611f3182610fc7565b73ffffffffffffffffffffffffffffffffffffffff1614611f87576040517f08c379a0000000000000000000000000000000000000000000000000000000008152600401611f7e90613c38565b60405180910390fd5b600073ffffffffffffffffffffffffffffffffffffffff168273ffffffffffffffffffffffffffffffffffffffff161415611ff7576040517f08c379a0000000000000000000000000000000000000000000000000000000008152600401611fee90613ad8565b60405180910390fd5b61200283838361294a565b61200d600082611d7a565b6001600360008573ffffffffffffffffffffffffffffffffffffffff1673ffffffffffffffffffffffffffffffffffffffff168152602001908152602001600020600082825461205d9190613f33565b925050819055506001600360008473ffffffffffffffffffffffffffffffffffffffff1673ffffffffffffffffffffffffffffffffffffffff16815260200190815260200160002060008282546120b49190613e52565b92505081905550816002600083815260200190815260200160002060006101000a81548173ffffffffffffffffffffffffffffffffffffffff021916908373ffffffffffffffffffffffffffffffffffffffff160217905550808273ffffffffffffffffffffffffffffffffffffffff168473ffffffffffffffffffffffffffffffffffffffff167fddf252ad1be2c89b69c2b068fc378daa952ba7f163c4a11628f55a4df523b3ef60405160405180910390a4505050565b612175610fb0565b6121b4576040517f08c379a00000000000000000000000000000000000000000000000000000000081526004016121ab906139f8565b60405180910390fd5b6000600a60006101000a81548160ff0219169083151502179055507f5db9ee0a495bf2e6ff9c91a7834c1ba4fdd244a5e8aa4e537bd38aeae4b073aa6121f8611d72565b6040516122059190613954565b60405180910390a1565b6000600a60019054906101000a900473ffffffffffffffffffffffffffffffffffffffff16905081600a60016101000a81548173ffffffffffffffffffffffffffffffffffffffff021916908373ffffffffffffffffffffffffffffffffffffffff1602179055508173ffffffffffffffffffffffffffffffffffffffff168173ffffffffffffffffffffffffffffffffffffffff167f8be0079c531659141344cd1fd0a4f28419497f9722a3daafe3b4186f6b6457e060405160405180910390a35050565b6122dd610fb0565b1561231d576040517f08c379a000000000000000000000000000000000000000000000000000000000815260040161231490613b38565b60405180910390fd5b6001600a60006101000a81548160ff0219169083151502179055507f62e78cea01bee320cd4e420270b5ea74000d11b0c9f74754ebdbfc544b05a258612361611d72565b60405161236e9190613954565b60405180910390a1565b600081600001549050919050565b600073ffffffffffffffffffffffffffffffffffffffff168273ffffffffffffffffffffffffffffffffffffffff1614156123f6576040517f08c379a00000000000000000000000000000000000000000000000000000000081526004016123ed90613bb8565b60405180910390fd5b6123ff81611d06565b1561243f576040517f08c379a000000000000000000000000000000000000000000000000000000000815260040161243690613a98565b60405180910390fd5b61244b6000838361294a565b6001600360008473ffffffffffffffffffffffffffffffffffffffff1673ffffffffffffffffffffffffffffffffffffffff168152602001908152602001600020600082825461249b9190613e52565b92505081905550816002600083815260200190815260200160002060006101000a81548173ffffffffffffffffffffffffffffffffffffffff021916908373ffffffffffffffffffffffffffffffffffffffff160217905550808273ffffffffffffffffffffffffffffffffffffffff16600073ffffffffffffffffffffffffffffffffffffffff167fddf252ad1be2c89b69c2b068fc378daa952ba7f163c4a11628f55a4df523b3ef60405160405180910390a45050565b6001816000016000828254019250508190555050565b8173ffffffffffffffffffffffffffffffffffffffff168373ffffffffffffffffffffffffffffffffffffffff1614156125d9576040517f08c379a00000000000000000000000000000000000000000000000000000000081526004016125d090613af8565b60405180910390fd5b80600560008573ffffffffffffffffffffffffffffffffffffffff1673ffffffffffffffffffffffffffffffffffffffff16815260200190815260200160002060008473ffffffffffffffffffffffffffffffffffffffff1673ffffffffffffffffffffffffffffffffffffffff16815260200190815260200160002060006101000a81548160ff0219169083151502179055508173ffffffffffffffffffffffffffffffffffffffff168373ffffffffffffffffffffffffffffffffffffffff167f17307eab39ab6107e8899845ad3d59bd9653f200f220920489ca2b5937696c31836040516126ca91906139bb565b60405180910390a3505050565b6126e2848484611f11565b6126ee84848484612a5e565b61272d576040517f08c379a000000000000000000000000000000000000000000000000000000000815260040161272490613a38565b60405180910390fd5b50505050565b6060600082141561277b576040518060400160405280600181526020017f300000000000000000000000000000000000000000000000000000000000000081525090506128db565b600082905060005b600082146127ad57808061279690614080565b915050600a826127a69190613ea8565b9150612783565b60008167ffffffffffffffff8111156127ef577f4e487b7100000000000000000000000000000000000000000000000000000000600052604160045260246000fd5b6040519080825280601f01601f1916602001820160405280156128215781602001600182028036833780820191505090505b5090505b600085146128d45760018261283a9190613f33565b9150600a8561284991906140c9565b60306128559190613e52565b60f81b818381518110612891577f4e487b7100000000000000000000000000000000000000000000000000000000600052603260045260246000fd5b60200101907effffffffffffffffffffffffffffffffffffffffffffffffffffffffffffff1916908160001a905350600a856128cd9190613ea8565b9450612825565b8093505050505b919050565b60007f01ffc9a7000000000000000000000000000000000000000000000000000000007bffffffffffffffffffffffffffffffffffffffffffffffffffffffff1916827bffffffffffffffffffffffffffffffffffffffffffffffffffffffff1916149050919050565b612955838383612bf5565b600073ffffffffffffffffffffffffffffffffffffffff168373ffffffffffffffffffffffffffffffffffffffff1614156129985761299381612bfa565b6129d7565b8173ffffffffffffffffffffffffffffffffffffffff168373ffffffffffffffffffffffffffffffffffffffff16146129d6576129d58382612c43565b5b5b600073ffffffffffffffffffffffffffffffffffffffff168273ffffffffffffffffffffffffffffffffffffffff161415612a1a57612a1581612db0565b612a59565b8273ffffffffffffffffffffffffffffffffffffffff168273ffffffffffffffffffffffffffffffffffffffff1614612a5857612a578282612ef3565b5b5b505050565b6000612a7f8473ffffffffffffffffffffffffffffffffffffffff16612f72565b15612be8578373ffffffffffffffffffffffffffffffffffffffff1663150b7a02612aa8611d72565b8786866040518563ffffffff1660e01b8152600401612aca949392919061396f565b602060405180830381600087803b158015612ae457600080fd5b505af1925050508015612b1557506040513d601f19601f82011682018060405250810190612b129190613346565b60015b612b98573d8060008114612b45576040519150601f19603f3d011682016040523d82523d6000602084013e612b4a565b606091505b50600081511415612b90576040517f08c379a0000000000000000000000000000000000000000000000000000000008152600401612b8790613a38565b60405180910390fd5b805181602001fd5b63150b7a0260e01b7bffffffffffffffffffffffffffffffffffffffffffffffffffffffff1916817bffffffffffffffffffffffffffffffffffffffffffffffffffffffff191614915050612bed565b600190505b949350505050565b505050565b6008805490506009600083815260200190815260200160002081905550600881908060018154018082558091505060019003906000526020600020016000909190919091505550565b60006001612c5084611107565b612c5a9190613f33565b9050600060076000848152602001908152602001600020549050818114612d3f576000600660008673ffffffffffffffffffffffffffffffffffffffff1673ffffffffffffffffffffffffffffffffffffffff168152602001908152602001600020600084815260200190815260200160002054905080600660008773ffffffffffffffffffffffffffffffffffffffff1673ffffffffffffffffffffffffffffffffffffffff168152602001908152602001600020600084815260200190815260200160002081905550816007600083815260200190815260200160002081905550505b6007600084815260200190815260200160002060009055600660008573ffffffffffffffffffffffffffffffffffffffff1673ffffffffffffffffffffffffffffffffffffffff16815260200190815260200160002060008381526020019081526020016000206000905550505050565b60006001600880549050612dc49190613f33565b9050600060096000848152602001908152602001600020549050600060088381548110612e1a577f4e487b7100000000000000000000000000000000000000000000000000000000600052603260045260246000fd5b906000526020600020015490508060088381548110612e62577f4e487b7100000000000000000000000000000000000000000000000000000000600052603260045260246000fd5b906000526020600020018190555081600960008381526020019081526020016000208190555060096000858152602001908152602001600020600090556008805480612ed7577f4e487b7100000000000000000000000000000000000000000000000000000000600052603160045260246000fd5b6001900381819060005260206000200160009055905550505050565b6000612efe83611107565b905081600660008573ffffffffffffffffffffffffffffffffffffffff1673ffffffffffffffffffffffffffffffffffffffff168152602001908152602001600020600083815260200190815260200160002081905550806007600084815260200190815260200160002081905550505050565b600080823b905060008111915050919050565b828054612f919061401d565b90600052602060002090601f016020900481019282612fb35760008555612ffa565b82601f10612fcc57805160ff1916838001178555612ffa565b82800160010185558215612ffa579182015b82811115612ff9578251825591602001919060010190612fde565b5b509050613007919061300b565b5090565b5b8082111561302457600081600090555060010161300c565b5090565b600061303b61303684613d98565b613d73565b90508281526020810184848401111561305357600080fd5b61305e848285613fdb565b509392505050565b600061307961307484613dc9565b613d73565b90508281526020810184848401111561309157600080fd5b61309c848285613fdb565b509392505050565b6000813590506130b381614857565b92915050565b6000813590506130c88161486e565b92915050565b6000813590506130dd81614885565b92915050565b6000815190506130f281614885565b92915050565b600082601f83011261310957600080fd5b8135613119848260208601613028565b91505092915050565b600082601f83011261313357600080fd5b8135613143848260208601613066565b91505092915050565b60008135905061315b8161489c565b92915050565b6000815190506131708161489c565b92915050565b60006020828403121561318857600080fd5b6000613196848285016130a4565b91505092915050565b600080604083850312156131b257600080fd5b60006131c0858286016130a4565b92505060206131d1858286016130a4565b9150509250929050565b6000806000606084860312156131f057600080fd5b60006131fe868287016130a4565b935050602061320f868287016130a4565b92505060406132208682870161314c565b9150509250925092565b6000806000806080858703121561324057600080fd5b600061324e878288016130a4565b945050602061325f878288016130a4565b93505060406132708782880161314c565b925050606085013567ffffffffffffffff81111561328d57600080fd5b613299878288016130f8565b91505092959194509250565b600080604083850312156132b857600080fd5b60006132c6858286016130a4565b92505060206132d7858286016130b9565b9150509250929050565b600080604083850312156132f457600080fd5b6000613302858286016130a4565b92505060206133138582860161314c565b9150509250929050565b60006020828403121561332f57600080fd5b600061333d848285016130ce565b91505092915050565b60006020828403121561335857600080fd5b6000613366848285016130e3565b91505092915050565b60006020828403121561338157600080fd5b600082013567ffffffffffffffff81111561339b57600080fd5b6133a784828501613122565b91505092915050565b6000602082840312156133c257600080fd5b60006133d08482850161314c565b91505092915050565b6000602082840312156133eb57600080fd5b60006133f984828501613161565b91505092915050565b61340b81613f67565b82525050565b61341a81613f79565b82525050565b600061342b82613e0f565b6134358185613e25565b9350613445818560208601613fea565b61344e816141b6565b840191505092915050565b600061346482613e1a565b61346e8185613e36565b935061347e818560208601613fea565b613487816141b6565b840191505092915050565b600061349d82613e1a565b6134a78185613e47565b93506134b7818560208601613fea565b80840191505092915050565b600081546134d08161401d565b6134da8186613e47565b945060018216600081146134f5576001811461350657613539565b60ff19831686528186019350613539565b61350f85613dfa565b60005b8381101561353157815481890152600182019150602081019050613512565b838801955050505b50505092915050565b600061354f601483613e36565b915061355a826141c7565b602082019050919050565b6000613572602b83613e36565b915061357d826141f0565b604082019050919050565b6000613595603283613e36565b91506135a08261423f565b604082019050919050565b60006135b8602683613e36565b91506135c38261428e565b604082019050919050565b60006135db601083613e36565b91506135e6826142dd565b602082019050919050565b60006135fe601c83613e36565b915061360982614306565b602082019050919050565b6000613621600c83613e36565b915061362c8261432f565b602082019050919050565b6000613644602483613e36565b915061364f82614358565b604082019050919050565b6000613667601983613e36565b9150613672826143a7565b602082019050919050565b600061368a602c83613e36565b9150613695826143d0565b604082019050919050565b60006136ad601083613e36565b91506136b88261441f565b602082019050919050565b60006136d0603883613e36565b91506136db82614448565b604082019050919050565b60006136f3602a83613e36565b91506136fe82614497565b604082019050919050565b6000613716602983613e36565b9150613721826144e6565b604082019050919050565b6000613739602083613e36565b915061374482614535565b602082019050919050565b600061375c602c83613e36565b91506137678261455e565b604082019050919050565b600061377f600583613e47565b915061378a826145ad565b600582019050919050565b60006137a2601083613e36565b91506137ad826145d6565b602082019050919050565b60006137c5602083613e36565b91506137d0826145ff565b602082019050919050565b60006137e8602983613e36565b91506137f382614628565b604082019050919050565b600061380b602f83613e36565b915061381682614677565b604082019050919050565b600061382e601083613e36565b9150613839826146c6565b602082019050919050565b6000613851602183613e36565b915061385c826146ef565b604082019050919050565b6000613874601b83613e36565b915061387f8261473e565b602082019050919050565b6000613897601283613e36565b91506138a282614767565b602082019050919050565b60006138ba603183613e36565b91506138c582614790565b604082019050919050565b60006138dd602c83613e36565b91506138e8826147df565b604082019050919050565b6000613900601983613e36565b915061390b8261482e565b602082019050919050565b61391f81613fd1565b82525050565b600061393182856134c3565b915061393d8284613492565b915061394882613772565b91508190509392505050565b60006020820190506139696000830184613402565b92915050565b60006080820190506139846000830187613402565b6139916020830186613402565b61399e6040830185613916565b81810360608301526139b08184613420565b905095945050505050565b60006020820190506139d06000830184613411565b92915050565b600060208201905081810360008301526139f08184613459565b905092915050565b60006020820190508181036000830152613a1181613542565b9050919050565b60006020820190508181036000830152613a3181613565565b9050919050565b60006020820190508181036000830152613a5181613588565b9050919050565b60006020820190508181036000830152613a71816135ab565b9050919050565b60006020820190508181036000830152613a91816135ce565b9050919050565b60006020820190508181036000830152613ab1816135f1565b9050919050565b60006020820190508181036000830152613ad181613614565b9050919050565b60006020820190508181036000830152613af181613637565b9050919050565b60006020820190508181036000830152613b118161365a565b9050919050565b60006020820190508181036000830152613b318161367d565b9050919050565b60006020820190508181036000830152613b51816136a0565b9050919050565b60006020820190508181036000830152613b71816136c3565b9050919050565b60006020820190508181036000830152613b91816136e6565b9050919050565b60006020820190508181036000830152613bb181613709565b9050919050565b60006020820190508181036000830152613bd18161372c565b9050919050565b60006020820190508181036000830152613bf18161374f565b9050919050565b60006020820190508181036000830152613c1181613795565b9050919050565b60006020820190508181036000830152613c31816137b8565b9050919050565b60006020820190508181036000830152613c51816137db565b9050919050565b60006020820190508181036000830152613c71816137fe565b9050919050565b60006020820190508181036000830152613c9181613821565b9050919050565b60006020820190508181036000830152613cb181613844565b9050919050565b60006020820190508181036000830152613cd181613867565b9050919050565b60006020820190508181036000830152613cf18161388a565b9050919050565b60006020820190508181036000830152613d11816138ad565b9050919050565b60006020820190508181036000830152613d31816138d0565b9050919050565b60006020820190508181036000830152613d51816138f3565b9050919050565b6000602082019050613d6d6000830184613916565b92915050565b6000613d7d613d8e565b9050613d89828261404f565b919050565b6000604051905090565b600067ffffffffffffffff821115613db357613db2614187565b5b613dbc826141b6565b9050602081019050919050565b600067ffffffffffffffff821115613de457613de3614187565b5b613ded826141b6565b9050602081019050919050565b60008190508160005260206000209050919050565b600081519050919050565b600081519050919050565b600082825260208201905092915050565b600082825260208201905092915050565b600081905092915050565b6000613e5d82613fd1565b9150613e6883613fd1565b9250827fffffffffffffffffffffffffffffffffffffffffffffffffffffffffffffffff03821115613e9d57613e9c6140fa565b5b828201905092915050565b6000613eb382613fd1565b9150613ebe83613fd1565b925082613ece57613ecd614129565b5b828204905092915050565b6000613ee482613fd1565b9150613eef83613fd1565b9250817fffffffffffffffffffffffffffffffffffffffffffffffffffffffffffffffff0483118215151615613f2857613f276140fa565b5b828202905092915050565b6000613f3e82613fd1565b9150613f4983613fd1565b925082821015613f5c57613f5b6140fa565b5b828203905092915050565b6000613f7282613fb1565b9050919050565b60008115159050919050565b60007fffffffff0000000000000000000000000000000000000000000000000000000082169050919050565b600073ffffffffffffffffffffffffffffffffffffffff82169050919050565b6000819050919050565b82818337600083830152505050565b60005b83811015614008578082015181840152602081019050613fed565b83811115614017576000848401525b50505050565b6000600282049050600182168061403557607f821691505b6020821081141561404957614048614158565b5b50919050565b614058826141b6565b810181811067ffffffffffffffff8211171561407757614076614187565b5b80604052505050565b600061408b82613fd1565b91507fffffffffffffffffffffffffffffffffffffffffffffffffffffffffffffffff8214156140be576140bd6140fa565b5b600182019050919050565b60006140d482613fd1565b91506140df83613fd1565b9250826140ef576140ee614129565b5b828206905092915050565b7f4e487b7100000000000000000000000000000000000000000000000000000000600052601160045260246000fd5b7f4e487b7100000000000000000000000000000000000000000000000000000000600052601260045260246000fd5b7f4e487b7100000000000000000000000000000000000000000000000000000000600052602260045260246000fd5b7f4e487b7100000000000000000000000000000000000000000000000000000000600052604160045260246000fd5b6000601f19601f8301169050919050565b7f5061757361626c653a206e6f7420706175736564000000000000000000000000600082015250565b7f455243373231456e756d657261626c653a206f776e657220696e646578206f7560008201527f74206f6620626f756e6473000000000000000000000000000000000000000000602082015250565b7f4552433732313a207472616e7366657220746f206e6f6e20455243373231526560008201527f63656976657220696d706c656d656e7465720000000000000000000000000000602082015250565b7f4f776e61626c653a206e6577206f776e657220697320746865207a65726f206160008201527f6464726573730000000000000000000000000000000000000000000000000000602082015250565b7f4e6f7420436f6c6f7273204f776e657200000000000000000000000000000000600082015250565b7f4552433732313a20746f6b656e20616c7265616479206d696e74656400000000600082015250565b7f6d696e74696e67207a65726f0000000000000000000000000000000000000000600082015250565b7f4552433732313a207472616e7366657220746f20746865207a65726f2061646460008201527f7265737300000000000000000000000000000000000000000000000000000000602082015250565b7f4552433732313a20617070726f766520746f2063616c6c657200000000000000600082015250565b7f4552433732313a206f70657261746f7220717565727920666f72206e6f6e657860008201527f697374656e7420746f6b656e0000000000000000000000000000000000000000602082015250565b7f5061757361626c653a2070617573656400000000000000000000000000000000600082015250565b7f4552433732313a20617070726f76652063616c6c6572206973206e6f74206f7760008201527f6e6572206e6f7220617070726f76656420666f7220616c6c0000000000000000602082015250565b7f4552433732313a2062616c616e636520717565727920666f7220746865207a6560008201527f726f206164647265737300000000000000000000000000000000000000000000602082015250565b7f4552433732313a206f776e657220717565727920666f72206e6f6e657869737460008201527f656e7420746f6b656e0000000000000000000000000000000000000000000000602082015250565b7f4552433732313a206d696e7420746f20746865207a65726f2061646472657373600082015250565b7f4552433732313a20617070726f76656420717565727920666f72206e6f6e657860008201527f697374656e7420746f6b656e0000000000000000000000000000000000000000602082015250565b7f2e6a736f6e000000000000000000000000000000000000000000000000000000600082015250565b7f6d696e74696e6720746f6f206d616e7900000000000000000000000000000000600082015250565b7f4f776e61626c653a2063616c6c6572206973206e6f7420746865206f776e6572600082015250565b7f4552433732313a207472616e73666572206f6620746f6b656e2074686174206960008201527f73206e6f74206f776e0000000000000000000000000000000000000000000000602082015250565b7f4552433732314d657461646174613a2055524920717565727920666f72206e6f60008201527f6e6578697374656e7420746f6b656e0000000000000000000000000000000000602082015250565b7f6e6f20656e6f75676820737570706c7900000000000000000000000000000000600082015250565b7f4552433732313a20617070726f76616c20746f2063757272656e74206f776e6560008201527f7200000000000000000000000000000000000000000000000000000000000000602082015250565b7f4d696e7420616d6f756e74207375727061737365732071756f74610000000000600082015250565b7f696e73756666696369656e742066756e64730000000000000000000000000000600082015250565b7f4552433732313a207472616e736665722063616c6c6572206973206e6f74206f60008201527f776e6572206e6f7220617070726f766564000000000000000000000000000000602082015250565b7f455243373231456e756d657261626c653a20676c6f62616c20696e646578206f60008201527f7574206f6620626f756e64730000000000000000000000000000000000000000602082015250565b7f416c7265616479206d696e74656420796f75722071756f746100000000000000600082015250565b61486081613f67565b811461486b57600080fd5b50565b61487781613f79565b811461488257600080fd5b50565b61488e81613f85565b811461489957600080fd5b50565b6148a581613fd1565b81146148b057600080fd5b5056fea2646970667358221220103b6dd329c01a46d7ae1c282d373713da9ac7744bf2451177583d58d24c012464736f6c63430008040033",
  "linkReferences": {},
  "deployedLinkReferences": {}
}