{
  "_format": "hh-sol-artifact-1",
  "contractName": "ConcaveNFT",
  "sourceName": "contracts/Concave.sol",
  "abi": [
    {
      "inputs": [
        {
          "internalType": "string",
          "name": "_name",
          "type": "string"
        },
        {
          "internalType": "string",
          "name": "_symbol",
          "type": "string"
        },
        {
          "internalType": "string",
          "name": "_initBaseURI",
          "type": "string"
        },
        {
          "internalType": "string",
          "name": "_initNotRevealedUri",
          "type": "string"
        }
      ],
      "stateMutability": "nonpayable",
      "type": "constructor"
    },
    {
      "anonymous": false,
      "inputs": [
        {
          "indexed": true,
          "internalType": "address",
          "name": "owner",
          "type": "address"
        },
        {
          "indexed": true,
          "internalType": "address",
          "name": "approved",
          "type": "address"
        },
        {
          "indexed": true,
          "internalType": "uint256",
          "name": "tokenId",
          "type": "uint256"
        }
      ],
      "name": "Approval",
      "type": "event"
    },
    {
      "anonymous": false,
      "inputs": [
        {
          "indexed": true,
          "internalType": "address",
          "name": "owner",
          "type": "address"
        },
        {
          "indexed": true,
          "internalType": "address",
          "name": "operator",
          "type": "address"
        },
        {
          "indexed": false,
          "internalType": "bool",
          "name": "approved",
          "type": "bool"
        }
      ],
      "name": "ApprovalForAll",
      "type": "event"
    },
    {
      "anonymous": false,
      "inputs": [
        {
          "indexed": true,
          "internalType": "address",
          "name": "previousOwner",
          "type": "address"
        },
        {
          "indexed": true,
          "internalType": "address",
          "name": "newOwner",
          "type": "address"
        }
      ],
      "name": "OwnershipTransferred",
      "type": "event"
    },
    {
      "anonymous": false,
      "inputs": [
        {
          "indexed": true,
          "internalType": "address",
          "name": "from",
          "type": "address"
        },
        {
          "indexed": true,
          "internalType": "address",
          "name": "to",
          "type": "address"
        },
        {
          "indexed": true,
          "internalType": "uint256",
          "name": "tokenId",
          "type": "uint256"
        }
      ],
      "name": "Transfer",
      "type": "event"
    },
    {
      "inputs": [
        {
          "internalType": "uint256[]",
          "name": "tokenIds",
          "type": "uint256[]"
        }
      ],
      "name": "_presaleBatchMint",
      "outputs": [],
      "stateMutability": "nonpayable",
      "type": "function"
    },
    {
      "inputs": [
        {
          "internalType": "uint256",
          "name": "tokenId",
          "type": "uint256"
        }
      ],
      "name": "_presaleSingleMint",
      "outputs": [],
      "stateMutability": "payable",
      "type": "function"
    },
    {
      "inputs": [
        {
          "internalType": "address",
          "name": "to",
          "type": "address"
        },
        {
          "internalType": "uint256",
          "name": "tokenId",
          "type": "uint256"
        }
      ],
      "name": "approve",
      "outputs": [],
      "stateMutability": "nonpayable",
      "type": "function"
    },
    {
      "inputs": [
        {
          "internalType": "address",
          "name": "owner",
          "type": "address"
        }
      ],
      "name": "balanceOf",
      "outputs": [
        {
          "internalType": "uint256",
          "name": "",
          "type": "uint256"
        }
      ],
      "stateMutability": "view",
      "type": "function"
    },
    {
      "inputs": [],
      "name": "baseExtension",
      "outputs": [
        {
          "internalType": "string",
          "name": "",
          "type": "string"
        }
      ],
      "stateMutability": "view",
      "type": "function"
    },
    {
      "inputs": [],
      "name": "baseURI",
      "outputs": [
        {
          "internalType": "string",
          "name": "",
          "type": "string"
        }
      ],
      "stateMutability": "view",
      "type": "function"
    },
    {
      "inputs": [],
      "name": "cost",
      "outputs": [
        {
          "internalType": "uint256",
          "name": "",
          "type": "uint256"
        }
      ],
      "stateMutability": "view",
      "type": "function"
    },
    {
      "inputs": [
        {
          "internalType": "uint256",
          "name": "tokenId",
          "type": "uint256"
        }
      ],
      "name": "getApproved",
      "outputs": [
        {
          "internalType": "address",
          "name": "",
          "type": "address"
        }
      ],
      "stateMutability": "view",
      "type": "function"
    },
    {
      "inputs": [
        {
          "internalType": "address",
          "name": "user",
          "type": "address"
        }
      ],
      "name": "getColorsOwnedByUser",
      "outputs": [
        {
          "internalType": "uint256[]",
          "name": "tokenIdsList",
          "type": "uint256[]"
        }
      ],
      "stateMutability": "view",
      "type": "function"
    },
    {
      "inputs": [],
      "name": "getNextUnmintedToken",
      "outputs": [
        {
          "internalType": "uint256",
          "name": "nextTokenId",
          "type": "uint256"
        }
      ],
      "stateMutability": "view",
      "type": "function"
    },
    {
      "inputs": [
        {
          "internalType": "address",
          "name": "user",
          "type": "address"
        }
      ],
      "name": "getUnmintedSpiralsByUser",
      "outputs": [
        {
          "internalType": "uint256[]",
          "name": "tokenIdsList",
          "type": "uint256[]"
        }
      ],
      "stateMutability": "view",
      "type": "function"
    },
    {
      "inputs": [
        {
          "internalType": "uint256",
          "name": "",
          "type": "uint256"
        }
      ],
      "name": "hasClaimed",
      "outputs": [
        {
          "internalType": "bool",
          "name": "",
          "type": "bool"
        }
      ],
      "stateMutability": "view",
      "type": "function"
    },
    {
      "inputs": [
        {
          "internalType": "address",
          "name": "owner",
          "type": "address"
        },
        {
          "internalType": "address",
          "name": "operator",
          "type": "address"
        }
      ],
      "name": "isApprovedForAll",
      "outputs": [
        {
          "internalType": "bool",
          "name": "",
          "type": "bool"
        }
      ],
      "stateMutability": "view",
      "type": "function"
    },
    {
      "inputs": [],
      "name": "isPublicSaleActive",
      "outputs": [
        {
          "internalType": "bool",
          "name": "",
          "type": "bool"
        }
      ],
      "stateMutability": "view",
      "type": "function"
    },
    {
      "inputs": [],
      "name": "maxMintAmount",
      "outputs": [
        {
          "internalType": "uint256",
          "name": "",
          "type": "uint256"
        }
      ],
      "stateMutability": "view",
      "type": "function"
    },
    {
      "inputs": [],
      "name": "maxSupply",
      "outputs": [
        {
          "internalType": "uint256",
          "name": "",
          "type": "uint256"
        }
      ],
      "stateMutability": "view",
      "type": "function"
    },
    {
      "inputs": [
        {
          "internalType": "uint256",
          "name": "_mintAmount",
          "type": "uint256"
        }
      ],
      "name": "mint",
      "outputs": [],
      "stateMutability": "payable",
      "type": "function"
    },
    {
      "inputs": [],
      "name": "name",
      "outputs": [
        {
          "internalType": "string",
          "name": "",
          "type": "string"
        }
      ],
      "stateMutability": "view",
      "type": "function"
    },
    {
      "inputs": [],
      "name": "notRevealedUri",
      "outputs": [
        {
          "internalType": "string",
          "name": "",
          "type": "string"
        }
      ],
      "stateMutability": "view",
      "type": "function"
    },
    {
      "inputs": [],
      "name": "owner",
      "outputs": [
        {
          "internalType": "address",
          "name": "",
          "type": "address"
        }
      ],
      "stateMutability": "view",
      "type": "function"
    },
    {
      "inputs": [
        {
          "internalType": "uint256",
          "name": "tokenId",
          "type": "uint256"
        }
      ],
      "name": "ownerOf",
      "outputs": [
        {
          "internalType": "address",
          "name": "",
          "type": "address"
        }
      ],
      "stateMutability": "view",
      "type": "function"
    },
    {
      "inputs": [
        {
          "internalType": "bool",
          "name": "_state",
          "type": "bool"
        }
      ],
      "name": "pause",
      "outputs": [],
      "stateMutability": "nonpayable",
      "type": "function"
    },
    {
      "inputs": [],
      "name": "paused",
      "outputs": [
        {
          "internalType": "bool",
          "name": "",
          "type": "bool"
        }
      ],
      "stateMutability": "view",
      "type": "function"
    },
    {
      "inputs": [],
      "name": "renounceOwnership",
      "outputs": [],
      "stateMutability": "nonpayable",
      "type": "function"
    },
    {
      "inputs": [],
      "name": "reveal",
      "outputs": [],
      "stateMutability": "nonpayable",
      "type": "function"
    },
    {
      "inputs": [],
      "name": "revealed",
      "outputs": [
        {
          "internalType": "bool",
          "name": "",
          "type": "bool"
        }
      ],
      "stateMutability": "view",
      "type": "function"
    },
    {
      "inputs": [
        {
          "internalType": "address",
          "name": "from",
          "type": "address"
        },
        {
          "internalType": "address",
          "name": "to",
          "type": "address"
        },
        {
          "internalType": "uint256",
          "name": "tokenId",
          "type": "uint256"
        }
      ],
      "name": "safeTransferFrom",
      "outputs": [],
      "stateMutability": "nonpayable",
      "type": "function"
    },
    {
      "inputs": [
        {
          "internalType": "address",
          "name": "from",
          "type": "address"
        },
        {
          "internalType": "address",
          "name": "to",
          "type": "address"
        },
        {
          "internalType": "uint256",
          "name": "tokenId",
          "type": "uint256"
        },
        {
          "internalType": "bytes",
          "name": "_data",
          "type": "bytes"
        }
      ],
      "name": "safeTransferFrom",
      "outputs": [],
      "stateMutability": "nonpayable",
      "type": "function"
    },
    {
      "inputs": [
        {
          "internalType": "address",
          "name": "operator",
          "type": "address"
        },
        {
          "internalType": "bool",
          "name": "approved",
          "type": "bool"
        }
      ],
      "name": "setApprovalForAll",
      "outputs": [],
      "stateMutability": "nonpayable",
      "type": "function"
    },
    {
      "inputs": [
        {
          "internalType": "string",
          "name": "_newBaseExtension",
          "type": "string"
        }
      ],
      "name": "setBaseExtension",
      "outputs": [],
      "stateMutability": "nonpayable",
      "type": "function"
    },
    {
      "inputs": [
        {
          "internalType": "string",
          "name": "_newBaseURI",
          "type": "string"
        }
      ],
      "name": "setBaseURI",
      "outputs": [],
      "stateMutability": "nonpayable",
      "type": "function"
    },
    {
      "inputs": [
        {
          "internalType": "uint256",
          "name": "_newCost",
          "type": "uint256"
        }
      ],
      "name": "setCost",
      "outputs": [],
      "stateMutability": "nonpayable",
      "type": "function"
    },
    {
      "inputs": [
        {
          "internalType": "string",
          "name": "_notRevealedURI",
          "type": "string"
        }
      ],
      "name": "setNotRevealedURI",
      "outputs": [],
      "stateMutability": "nonpayable",
      "type": "function"
    },
    {
      "inputs": [
        {
          "internalType": "uint256",
          "name": "_newmaxMintAmount",
          "type": "uint256"
        }
      ],
      "name": "setmaxMintAmount",
      "outputs": [],
      "stateMutability": "nonpayable",
      "type": "function"
    },
    {
      "inputs": [
        {
          "internalType": "bytes4",
          "name": "interfaceId",
          "type": "bytes4"
        }
      ],
      "name": "supportsInterface",
      "outputs": [
        {
          "internalType": "bool",
          "name": "",
          "type": "bool"
        }
      ],
      "stateMutability": "view",
      "type": "function"
    },
    {
      "inputs": [],
      "name": "symbol",
      "outputs": [
        {
          "internalType": "string",
          "name": "",
          "type": "string"
        }
      ],
      "stateMutability": "view",
      "type": "function"
    },
    {
      "inputs": [],
      "name": "thecolorsaddress",
      "outputs": [
        {
          "internalType": "address",
          "name": "",
          "type": "address"
        }
      ],
      "stateMutability": "view",
      "type": "function"
    },
    {
      "inputs": [],
      "name": "togglePublicSale",
      "outputs": [],
      "stateMutability": "nonpayable",
      "type": "function"
    },
    {
      "inputs": [
        {
          "internalType": "uint256",
          "name": "index",
          "type": "uint256"
        }
      ],
      "name": "tokenByIndex",
      "outputs": [
        {
          "internalType": "uint256",
          "name": "",
          "type": "uint256"
        }
      ],
      "stateMutability": "view",
      "type": "function"
    },
    {
      "inputs": [
        {
          "internalType": "address",
          "name": "owner",
          "type": "address"
        },
        {
          "internalType": "uint256",
          "name": "index",
          "type": "uint256"
        }
      ],
      "name": "tokenOfOwnerByIndex",
      "outputs": [
        {
          "internalType": "uint256",
          "name": "",
          "type": "uint256"
        }
      ],
      "stateMutability": "view",
      "type": "function"
    },
    {
      "inputs": [
        {
          "internalType": "uint256",
          "name": "tokenId",
          "type": "uint256"
        }
      ],
      "name": "tokenURI",
      "outputs": [
        {
          "internalType": "string",
          "name": "",
          "type": "string"
        }
      ],
      "stateMutability": "view",
      "type": "function"
    },
    {
      "inputs": [],
      "name": "totalMinted",
      "outputs": [
        {
          "internalType": "uint256",
          "name": "",
          "type": "uint256"
        }
      ],
      "stateMutability": "view",
      "type": "function"
    },
    {
      "inputs": [],
      "name": "totalSupply",
      "outputs": [
        {
          "internalType": "uint256",
          "name": "",
          "type": "uint256"
        }
      ],
      "stateMutability": "view",
      "type": "function"
    },
    {
      "inputs": [
        {
          "internalType": "address",
          "name": "from",
          "type": "address"
        },
        {
          "internalType": "address",
          "name": "to",
          "type": "address"
        },
        {
          "internalType": "uint256",
          "name": "tokenId",
          "type": "uint256"
        }
      ],
      "name": "transferFrom",
      "outputs": [],
      "stateMutability": "nonpayable",
      "type": "function"
    },
    {
      "inputs": [
        {
          "internalType": "address",
          "name": "newOwner",
          "type": "address"
        }
      ],
      "name": "transferOwnership",
      "outputs": [],
      "stateMutability": "nonpayable",
      "type": "function"
    },
    {
      "inputs": [
        {
          "internalType": "address",
          "name": "_owner",
          "type": "address"
        }
      ],
      "name": "walletOfOwner",
      "outputs": [
        {
          "internalType": "uint256[]",
          "name": "",
          "type": "uint256[]"
        }
      ],
      "stateMutability": "view",
      "type": "function"
    },
    {
      "inputs": [],
      "name": "withdraw",
      "outputs": [],
      "stateMutability": "payable",
      "type": "function"
    }
  ],
  "bytecode": "0x60806040526040518060400160405280600581526020017f2e6a736f6e000000000000000000000000000000000000000000000000000000815250600c90805190602001906200005192919062000f06565b506000600e556000600f556110dd601055600a6011556000601260006101000a81548160ff0219169083151502179055506000601260016101000a81548160ff0219169083151502179055506000601260026101000a81548160ff021916908315150217905550739fdb31f8ce3cb8400c7ccb2299492f2a498330a4601260036101000a81548173ffffffffffffffffffffffffffffffffffffffff021916908373ffffffffffffffffffffffffffffffffffffffff160217905550601260039054906101000a900473ffffffffffffffffffffffffffffffffffffffff16601360006101000a81548173ffffffffffffffffffffffffffffffffffffffff021916908373ffffffffffffffffffffffffffffffffffffffff1602179055503480156200017d57600080fd5b5060405162006dc638038062006dc68339818101604052810190620001a391906200106b565b83838160009080519060200190620001bd92919062000f06565b508060019080519060200190620001d692919062000f06565b505050620001f9620001ed6200026460201b60201c565b6200026c60201b60201c565b6200020a826200033260201b60201c565b6200021b81620003dd60201b60201c565b6200022e3360006200048860201b60201c565b60016014600080815260200190815260200160002060006101000a81548160ff0219169083151502179055505050505062001760565b600033905090565b6000600a60009054906101000a900473ffffffffffffffffffffffffffffffffffffffff16905081600a60006101000a81548173ffffffffffffffffffffffffffffffffffffffff021916908373ffffffffffffffffffffffffffffffffffffffff1602179055508173ffffffffffffffffffffffffffffffffffffffff168173ffffffffffffffffffffffffffffffffffffffff167f8be0079c531659141344cd1fd0a4f28419497f9722a3daafe3b4186f6b6457e060405160405180910390a35050565b620003426200026460201b60201c565b73ffffffffffffffffffffffffffffffffffffffff1662000368620004ae60201b60201c565b73ffffffffffffffffffffffffffffffffffffffff1614620003c1576040517f08c379a0000000000000000000000000000000000000000000000000000000008152600401620003b8906200133d565b60405180910390fd5b80600b9080519060200190620003d992919062000f06565b5050565b620003ed6200026460201b60201c565b73ffffffffffffffffffffffffffffffffffffffff1662000413620004ae60201b60201c565b73ffffffffffffffffffffffffffffffffffffffff16146200046c576040517f08c379a000000000000000000000000000000000000000000000000000000000815260040162000463906200133d565b60405180910390fd5b80600d90805190602001906200048492919062000f06565b5050565b620004aa828260405180602001604052806000815250620004d860201b60201c565b5050565b6000600a60009054906101000a900473ffffffffffffffffffffffffffffffffffffffff16905090565b620004ea83836200054660201b60201c565b620004ff60008484846200072c60201b60201c565b62000541576040517f08c379a00000000000000000000000000000000000000000000000000000000081526004016200053890620012b5565b60405180910390fd5b505050565b600073ffffffffffffffffffffffffffffffffffffffff168273ffffffffffffffffffffffffffffffffffffffff161415620005b9576040517f08c379a0000000000000000000000000000000000000000000000000000000008152600401620005b0906200131b565b60405180910390fd5b620005ca81620008e660201b60201c565b156200060d576040517f08c379a00000000000000000000000000000000000000000000000000000000081526004016200060490620012d7565b60405180910390fd5b62000621600083836200095260201b60201c565b6001600360008473ffffffffffffffffffffffffffffffffffffffff1673ffffffffffffffffffffffffffffffffffffffff1681526020019081526020016000206000828254620006739190620013eb565b92505081905550816002600083815260200190815260200160002060006101000a81548173ffffffffffffffffffffffffffffffffffffffff021916908373ffffffffffffffffffffffffffffffffffffffff160217905550808273ffffffffffffffffffffffffffffffffffffffff16600073ffffffffffffffffffffffffffffffffffffffff167fddf252ad1be2c89b69c2b068fc378daa952ba7f163c4a11628f55a4df523b3ef60405160405180910390a45050565b60006200075a8473ffffffffffffffffffffffffffffffffffffffff1662000a9960201b620028421760201c565b15620008d9578373ffffffffffffffffffffffffffffffffffffffff1663150b7a026200078c6200026460201b60201c565b8786866040518563ffffffff1660e01b8152600401620007b0949392919062001261565b602060405180830381600087803b158015620007cb57600080fd5b505af1925050508015620007ff57506040513d601f19601f82011682018060405250810190620007fc91906200103f565b60015b62000888573d806000811462000832576040519150601f19603f3d011682016040523d82523d6000602084013e62000837565b606091505b5060008151141562000880576040517f08c379a00000000000000000000000000000000000000000000000000000000081526004016200087790620012b5565b60405180910390fd5b805181602001fd5b63150b7a0260e01b7bffffffffffffffffffffffffffffffffffffffffffffffffffffffff1916817bffffffffffffffffffffffffffffffffffffffffffffffffffffffff191614915050620008de565b600190505b949350505050565b60008073ffffffffffffffffffffffffffffffffffffffff166002600084815260200190815260200160002060009054906101000a900473ffffffffffffffffffffffffffffffffffffffff1673ffffffffffffffffffffffffffffffffffffffff1614159050919050565b6200096a83838362000aac60201b620028551760201c565b600073ffffffffffffffffffffffffffffffffffffffff168373ffffffffffffffffffffffffffffffffffffffff161415620009b757620009b18162000ab160201b60201c565b620009ff565b8173ffffffffffffffffffffffffffffffffffffffff168373ffffffffffffffffffffffffffffffffffffffff1614620009fe57620009fd838262000afa60201b60201c565b5b5b600073ffffffffffffffffffffffffffffffffffffffff168273ffffffffffffffffffffffffffffffffffffffff16141562000a4c5762000a468162000c7760201b60201c565b62000a94565b8273ffffffffffffffffffffffffffffffffffffffff168273ffffffffffffffffffffffffffffffffffffffff161462000a935762000a92828262000dbf60201b60201c565b5b5b505050565b600080823b905060008111915050919050565b505050565b6008805490506009600083815260200190815260200160002081905550600881908060018154018082558091505060019003906000526020600020016000909190919091505550565b6000600162000b148462000e4b60201b6200151a1760201c565b62000b20919062001448565b905060006007600084815260200190815260200160002054905081811462000c06576000600660008673ffffffffffffffffffffffffffffffffffffffff1673ffffffffffffffffffffffffffffffffffffffff168152602001908152602001600020600084815260200190815260200160002054905080600660008773ffffffffffffffffffffffffffffffffffffffff1673ffffffffffffffffffffffffffffffffffffffff168152602001908152602001600020600084815260200190815260200160002081905550816007600083815260200190815260200160002081905550505b6007600084815260200190815260200160002060009055600660008573ffffffffffffffffffffffffffffffffffffffff1673ffffffffffffffffffffffffffffffffffffffff16815260200190815260200160002060008381526020019081526020016000206000905550505050565b6000600160088054905062000c8d919062001448565b905060006009600084815260200190815260200160002054905060006008838154811062000ce4577f4e487b7100000000000000000000000000000000000000000000000000000000600052603260045260246000fd5b90600052602060002001549050806008838154811062000d2d577f4e487b7100000000000000000000000000000000000000000000000000000000600052603260045260246000fd5b90600052602060002001819055508160096000838152602001908152602001600020819055506009600085815260200190815260200160002060009055600880548062000da3577f4e487b7100000000000000000000000000000000000000000000000000000000600052603160045260246000fd5b6001900381819060005260206000200160009055905550505050565b600062000dd78362000e4b60201b6200151a1760201c565b905081600660008573ffffffffffffffffffffffffffffffffffffffff1673ffffffffffffffffffffffffffffffffffffffff168152602001908152602001600020600083815260200190815260200160002081905550806007600084815260200190815260200160002081905550505050565b60008073ffffffffffffffffffffffffffffffffffffffff168273ffffffffffffffffffffffffffffffffffffffff16141562000ebf576040517f08c379a000000000000000000000000000000000000000000000000000000000815260040162000eb690620012f9565b60405180910390fd5b600360008373ffffffffffffffffffffffffffffffffffffffff1673ffffffffffffffffffffffffffffffffffffffff168152602001908152602001600020549050919050565b82805462000f149062001523565b90600052602060002090601f01602090048101928262000f38576000855562000f84565b82601f1062000f5357805160ff191683800117855562000f84565b8280016001018555821562000f84579182015b8281111562000f8357825182559160200191906001019062000f66565b5b50905062000f93919062000f97565b5090565b5b8082111562000fb257600081600090555060010162000f98565b5090565b600062000fcd62000fc78462001388565b6200135f565b90508281526020810184848401111562000fe657600080fd5b62000ff3848285620014ed565b509392505050565b6000815190506200100c8162001746565b92915050565b600082601f8301126200102457600080fd5b81516200103684826020860162000fb6565b91505092915050565b6000602082840312156200105257600080fd5b6000620010628482850162000ffb565b91505092915050565b600080600080608085870312156200108257600080fd5b600085015167ffffffffffffffff8111156200109d57600080fd5b620010ab8782880162001012565b945050602085015167ffffffffffffffff811115620010c957600080fd5b620010d78782880162001012565b935050604085015167ffffffffffffffff811115620010f557600080fd5b620011038782880162001012565b925050606085015167ffffffffffffffff8111156200112157600080fd5b6200112f8782880162001012565b91505092959194509250565b620011468162001483565b82525050565b60006200115982620013be565b620011658185620013c9565b935062001177818560208601620014ed565b62001182816200161c565b840191505092915050565b60006200119c603283620013da565b9150620011a9826200162d565b604082019050919050565b6000620011c3601c83620013da565b9150620011d0826200167c565b602082019050919050565b6000620011ea602a83620013da565b9150620011f782620016a5565b604082019050919050565b600062001211602083620013da565b91506200121e82620016f4565b602082019050919050565b600062001238602083620013da565b915062001245826200171d565b602082019050919050565b6200125b81620014e3565b82525050565b60006080820190506200127860008301876200113b565b6200128760208301866200113b565b62001296604083018562001250565b8181036060830152620012aa81846200114c565b905095945050505050565b60006020820190508181036000830152620012d0816200118d565b9050919050565b60006020820190508181036000830152620012f281620011b4565b9050919050565b600060208201905081810360008301526200131481620011db565b9050919050565b60006020820190508181036000830152620013368162001202565b9050919050565b60006020820190508181036000830152620013588162001229565b9050919050565b60006200136b6200137e565b905062001379828262001559565b919050565b6000604051905090565b600067ffffffffffffffff821115620013a657620013a5620015ed565b5b620013b1826200161c565b9050602081019050919050565b600081519050919050565b600082825260208201905092915050565b600082825260208201905092915050565b6000620013f882620014e3565b91506200140583620014e3565b9250827fffffffffffffffffffffffffffffffffffffffffffffffffffffffffffffffff038211156200143d576200143c6200158f565b5b828201905092915050565b60006200145582620014e3565b91506200146283620014e3565b9250828210156200147857620014776200158f565b5b828203905092915050565b60006200149082620014c3565b9050919050565b60007fffffffff0000000000000000000000000000000000000000000000000000000082169050919050565b600073ffffffffffffffffffffffffffffffffffffffff82169050919050565b6000819050919050565b60005b838110156200150d578082015181840152602081019050620014f0565b838111156200151d576000848401525b50505050565b600060028204905060018216806200153c57607f821691505b60208210811415620015535762001552620015be565b5b50919050565b62001564826200161c565b810181811067ffffffffffffffff82111715620015865762001585620015ed565b5b80604052505050565b7f4e487b7100000000000000000000000000000000000000000000000000000000600052601160045260246000fd5b7f4e487b7100000000000000000000000000000000000000000000000000000000600052602260045260246000fd5b7f4e487b7100000000000000000000000000000000000000000000000000000000600052604160045260246000fd5b6000601f19601f8301169050919050565b7f4552433732313a207472616e7366657220746f206e6f6e20455243373231526560008201527f63656976657220696d706c656d656e7465720000000000000000000000000000602082015250565b7f4552433732313a20746f6b656e20616c7265616479206d696e74656400000000600082015250565b7f4552433732313a2062616c616e636520717565727920666f7220746865207a6560008201527f726f206164647265737300000000000000000000000000000000000000000000602082015250565b7f4552433732313a206d696e7420746f20746865207a65726f2061646472657373600082015250565b7f4f776e61626c653a2063616c6c6572206973206e6f7420746865206f776e6572600082015250565b620017518162001497565b81146200175d57600080fd5b50565b61565680620017706000396000f3fe6080604052600436106102885760003560e01c806370a082311161015a578063c6682862116100c1578063da3ef23f1161007a578063da3ef23f146109bb578063dd02b464146109e4578063e222c7f914610a0f578063e985e9c514610a26578063f2c4ce1e14610a63578063f2fde38b14610a8c57610288565b8063c668286214610871578063c87b56dd1461089c578063cc4ef120146108d9578063ce51650714610916578063d18b600714610953578063d5abeb011461099057610288565b8063a22cb46511610113578063a22cb46514610796578063a2309ff8146107bf578063a475b5dd146107ea578063b88d4fde14610801578063b8fa134d1461082a578063c3ac7c031461085557610288565b806370a08231146106a7578063715018a6146106e45780637f00c7a6146106fb5780638da5cb5b1461072457806395d89b411461074f578063a0712d681461077a57610288565b80632f745c59116101fe5780634f6ccce7116101b75780634f6ccce71461058357806351830227146105c057806355f804b3146105eb5780635c975abb146106145780636352211e1461063f5780636c0360eb1461067c57610288565b80632f745c59146104845780633ccfd60b146104c1578063421ce1ca146104cb57806342842e0e146104f4578063438b63001461051d57806344a0d68a1461055a57610288565b8063095ea7b311610250578063095ea7b31461038657806313faede6146103af57806318160ddd146103da5780631e84c41314610405578063239c70ae1461043057806323b872dd1461045b57610288565b806301ffc9a71461028d57806302329a29146102ca57806306fdde03146102f3578063081812fc1461031e578063081c8c441461035b575b600080fd5b34801561029957600080fd5b506102b460048036038101906102af9190614006565b610ab5565b6040516102c1919061470c565b60405180910390f35b3480156102d657600080fd5b506102f160048036038101906102ec9190613fdd565b610b2f565b005b3480156102ff57600080fd5b50610308610bc8565b6040516103159190614727565b60405180910390f35b34801561032a57600080fd5b5061034560048036038101906103409190614099565b610c5a565b6040516103529190614683565b60405180910390f35b34801561036757600080fd5b50610370610cdf565b60405161037d9190614727565b60405180910390f35b34801561039257600080fd5b506103ad60048036038101906103a89190613f60565b610d6d565b005b3480156103bb57600080fd5b506103c4610e85565b6040516103d19190614a89565b60405180910390f35b3480156103e657600080fd5b506103ef610e8b565b6040516103fc9190614a89565b60405180910390f35b34801561041157600080fd5b5061041a610e98565b604051610427919061470c565b60405180910390f35b34801561043c57600080fd5b50610445610eab565b6040516104529190614a89565b60405180910390f35b34801561046757600080fd5b50610482600480360381019061047d9190613e5a565b610eb1565b005b34801561049057600080fd5b506104ab60048036038101906104a69190613f60565b610f11565b6040516104b89190614a89565b60405180910390f35b6104c9610fb6565b005b3480156104d757600080fd5b506104f260048036038101906104ed9190613f9c565b61107b565b005b34801561050057600080fd5b5061051b60048036038101906105169190613e5a565b6110e7565b005b34801561052957600080fd5b50610544600480360381019061053f9190613dcc565b611107565b60405161055191906146ea565b60405180910390f35b34801561056657600080fd5b50610581600480360381019061057c9190614099565b611201565b005b34801561058f57600080fd5b506105aa60048036038101906105a59190614099565b611287565b6040516105b79190614a89565b60405180910390f35b3480156105cc57600080fd5b506105d561131e565b6040516105e2919061470c565b60405180910390f35b3480156105f757600080fd5b50610612600480360381019061060d9190614058565b611331565b005b34801561062057600080fd5b506106296113c7565b604051610636919061470c565b60405180910390f35b34801561064b57600080fd5b5061066660048036038101906106619190614099565b6113da565b6040516106739190614683565b60405180910390f35b34801561068857600080fd5b5061069161148c565b60405161069e9190614727565b60405180910390f35b3480156106b357600080fd5b506106ce60048036038101906106c99190613dcc565b61151a565b6040516106db9190614a89565b60405180910390f35b3480156106f057600080fd5b506106f96115d2565b005b34801561070757600080fd5b50610722600480360381019061071d9190614099565b61165a565b005b34801561073057600080fd5b506107396116e0565b6040516107469190614683565b60405180910390f35b34801561075b57600080fd5b5061076461170a565b6040516107719190614727565b60405180910390f35b610794600480360381019061078f9190614099565b61179c565b005b3480156107a257600080fd5b506107bd60048036038101906107b89190613f24565b61198b565b005b3480156107cb57600080fd5b506107d46119a1565b6040516107e19190614a89565b60405180910390f35b3480156107f657600080fd5b506107ff6119a7565b005b34801561080d57600080fd5b5061082860048036038101906108239190613ea9565b611a40565b005b34801561083657600080fd5b5061083f611aa2565b60405161084c9190614683565b60405180910390f35b61086f600480360381019061086a9190614099565b611ac8565b005b34801561087d57600080fd5b50610886611d7a565b6040516108939190614727565b60405180910390f35b3480156108a857600080fd5b506108c360048036038101906108be9190614099565b611e08565b6040516108d09190614727565b60405180910390f35b3480156108e557600080fd5b5061090060048036038101906108fb9190613dcc565b611f61565b60405161090d91906146ea565b60405180910390f35b34801561092257600080fd5b5061093d60048036038101906109389190614099565b6121f8565b60405161094a919061470c565b60405180910390f35b34801561095f57600080fd5b5061097a60048036038101906109759190613dcc565b612218565b60405161098791906146ea565b60405180910390f35b34801561099c57600080fd5b506109a561247e565b6040516109b29190614a89565b60405180910390f35b3480156109c757600080fd5b506109e260048036038101906109dd9190614058565b612484565b005b3480156109f057600080fd5b506109f961251a565b604051610a069190614a89565b60405180910390f35b348015610a1b57600080fd5b50610a24612578565b005b348015610a3257600080fd5b50610a4d6004803603810190610a489190613e1e565b612620565b604051610a5a919061470c565b60405180910390f35b348015610a6f57600080fd5b50610a8a6004803603810190610a859190614058565b6126b4565b005b348015610a9857600080fd5b50610ab36004803603810190610aae9190613dcc565b61274a565b005b60007f780e9d63000000000000000000000000000000000000000000000000000000007bffffffffffffffffffffffffffffffffffffffffffffffffffffffff1916827bffffffffffffffffffffffffffffffffffffffffffffffffffffffff19161480610b285750610b278261285a565b5b9050919050565b610b3761293c565b73ffffffffffffffffffffffffffffffffffffffff16610b556116e0565b73ffffffffffffffffffffffffffffffffffffffff1614610bab576040517f08c379a0000000000000000000000000000000000000000000000000000000008152600401610ba290614929565b60405180910390fd5b80601260006101000a81548160ff02191690831515021790555050565b606060008054610bd790614db3565b80601f0160208091040260200160405190810160405280929190818152602001828054610c0390614db3565b8015610c505780601f10610c2557610100808354040283529160200191610c50565b820191906000526020600020905b815481529060010190602001808311610c3357829003601f168201915b5050505050905090565b6000610c6582612944565b610ca4576040517f08c379a0000000000000000000000000000000000000000000000000000000008152600401610c9b90614909565b60405180910390fd5b6004600083815260200190815260200160002060009054906101000a900473ffffffffffffffffffffffffffffffffffffffff169050919050565b600d8054610cec90614db3565b80601f0160208091040260200160405190810160405280929190818152602001828054610d1890614db3565b8015610d655780601f10610d3a57610100808354040283529160200191610d65565b820191906000526020600020905b815481529060010190602001808311610d4857829003601f168201915b505050505081565b6000610d78826113da565b90508073ffffffffffffffffffffffffffffffffffffffff168373ffffffffffffffffffffffffffffffffffffffff161415610de9576040517f08c379a0000000000000000000000000000000000000000000000000000000008152600401610de0906149a9565b60405180910390fd5b8073ffffffffffffffffffffffffffffffffffffffff16610e0861293c565b73ffffffffffffffffffffffffffffffffffffffff161480610e375750610e3681610e3161293c565b612620565b5b610e76576040517f08c379a0000000000000000000000000000000000000000000000000000000008152600401610e6d90614849565b60405180910390fd5b610e8083836129b0565b505050565b600e5481565b6000600880549050905090565b601260019054906101000a900460ff1681565b60115481565b610ec2610ebc61293c565b82612a69565b610f01576040517f08c379a0000000000000000000000000000000000000000000000000000000008152600401610ef890614a09565b60405180910390fd5b610f0c838383612b47565b505050565b6000610f1c8361151a565b8210610f5d576040517f08c379a0000000000000000000000000000000000000000000000000000000008152600401610f5490614749565b60405180910390fd5b600660008473ffffffffffffffffffffffffffffffffffffffff1673ffffffffffffffffffffffffffffffffffffffff168152602001908152602001600020600083815260200190815260200160002054905092915050565b610fbe61293c565b73ffffffffffffffffffffffffffffffffffffffff16610fdc6116e0565b73ffffffffffffffffffffffffffffffffffffffff1614611032576040517f08c379a000000000000000000000000000000000000000000000000000000000815260040161102990614929565b60405180910390fd5b3373ffffffffffffffffffffffffffffffffffffffff166108fc479081150290604051600060405180830381858888f19350505050158015611078573d6000803e3d6000fd5b50565b60005b81518110156110e3576110d08282815181106110c3577f4e487b7100000000000000000000000000000000000000000000000000000000600052603260045260246000fd5b6020026020010151611ac8565b80806110db90614e16565b91505061107e565b5050565b61110283838360405180602001604052806000815250611a40565b505050565b606060006111148361151a565b905060008167ffffffffffffffff811115611158577f4e487b7100000000000000000000000000000000000000000000000000000000600052604160045260246000fd5b6040519080825280602002602001820160405280156111865781602001602082028036833780820191505090505b50905060005b828110156111f65761119e8582610f11565b8282815181106111d7577f4e487b7100000000000000000000000000000000000000000000000000000000600052603260045260246000fd5b60200260200101818152505080806111ee90614e16565b91505061118c565b508092505050919050565b61120961293c565b73ffffffffffffffffffffffffffffffffffffffff166112276116e0565b73ffffffffffffffffffffffffffffffffffffffff161461127d576040517f08c379a000000000000000000000000000000000000000000000000000000000815260040161127490614929565b60405180910390fd5b80600e8190555050565b6000611291610e8b565b82106112d2576040517f08c379a00000000000000000000000000000000000000000000000000000000081526004016112c990614a29565b60405180910390fd5b6008828154811061130c577f4e487b7100000000000000000000000000000000000000000000000000000000600052603260045260246000fd5b90600052602060002001549050919050565b601260029054906101000a900460ff1681565b61133961293c565b73ffffffffffffffffffffffffffffffffffffffff166113576116e0565b73ffffffffffffffffffffffffffffffffffffffff16146113ad576040517f08c379a00000000000000000000000000000000000000000000000000000000081526004016113a490614929565b60405180910390fd5b80600b90805190602001906113c3929190613b45565b5050565b601260009054906101000a900460ff1681565b6000806002600084815260200190815260200160002060009054906101000a900473ffffffffffffffffffffffffffffffffffffffff169050600073ffffffffffffffffffffffffffffffffffffffff168173ffffffffffffffffffffffffffffffffffffffff161415611483576040517f08c379a000000000000000000000000000000000000000000000000000000000815260040161147a90614889565b60405180910390fd5b80915050919050565b600b805461149990614db3565b80601f01602080910402602001604051908101604052809291908181526020018280546114c590614db3565b80156115125780601f106114e757610100808354040283529160200191611512565b820191906000526020600020905b8154815290600101906020018083116114f557829003601f168201915b505050505081565b60008073ffffffffffffffffffffffffffffffffffffffff168273ffffffffffffffffffffffffffffffffffffffff16141561158b576040517f08c379a000000000000000000000000000000000000000000000000000000000815260040161158290614869565b60405180910390fd5b600360008373ffffffffffffffffffffffffffffffffffffffff1673ffffffffffffffffffffffffffffffffffffffff168152602001908152602001600020549050919050565b6115da61293c565b73ffffffffffffffffffffffffffffffffffffffff166115f86116e0565b73ffffffffffffffffffffffffffffffffffffffff161461164e576040517f08c379a000000000000000000000000000000000000000000000000000000000815260040161164590614929565b60405180910390fd5b6116586000612da3565b565b61166261293c565b73ffffffffffffffffffffffffffffffffffffffff166116806116e0565b73ffffffffffffffffffffffffffffffffffffffff16146116d6576040517f08c379a00000000000000000000000000000000000000000000000000000000081526004016116cd90614929565b60405180910390fd5b8060118190555050565b6000600a60009054906101000a900473ffffffffffffffffffffffffffffffffffffffff16905090565b60606001805461171990614db3565b80601f016020809104026020016040519081016040528092919081815260200182805461174590614db3565b80156117925780601f1061176757610100808354040283529160200191611792565b820191906000526020600020905b81548152906001019060200180831161177557829003601f168201915b5050505050905090565b601260009054906101000a900460ff16156117ec576040517f08c379a00000000000000000000000000000000000000000000000000000000081526004016117e390614949565b60405180910390fd5b60105481600f546117fd9190614be8565b111561183e576040517f08c379a0000000000000000000000000000000000000000000000000000000008152600401611835906148a9565b60405180910390fd5b80600e5461184c9190614c6f565b34101561188e576040517f08c379a0000000000000000000000000000000000000000000000000000000008152600401611885906149e9565b60405180910390fd5b6011548111156118d3576040517f08c379a00000000000000000000000000000000000000000000000000000000081526004016118ca90614a69565b60405180910390fd5b601260019054906101000a900460ff16611922576040517f08c379a0000000000000000000000000000000000000000000000000000000008152600401611919906149c9565b60405180910390fd5b6000600190505b818111611987576119413361193c61251a565b612e69565b60016014600061194f61251a565b815260200190815260200160002060006101000a81548160ff021916908315150217905550808061197f90614e16565b915050611929565b5050565b61199d61199661293c565b8383612e87565b5050565b600f5481565b6119af61293c565b73ffffffffffffffffffffffffffffffffffffffff166119cd6116e0565b73ffffffffffffffffffffffffffffffffffffffff1614611a23576040517f08c379a0000000000000000000000000000000000000000000000000000000008152600401611a1a90614929565b60405180910390fd5b6001601260026101000a81548160ff021916908315150217905550565b611a51611a4b61293c565b83612a69565b611a90576040517f08c379a0000000000000000000000000000000000000000000000000000000008152600401611a8790614a09565b60405180910390fd5b611a9c84848484612ff4565b50505050565b601260039054906101000a900473ffffffffffffffffffffffffffffffffffffffff1681565b601260009054906101000a900460ff1615611b18576040517f08c379a0000000000000000000000000000000000000000000000000000000008152600401611b0f906148e9565b60405180910390fd5b6010546001600f54611b2a9190614be8565b1115611b6b576040517f08c379a0000000000000000000000000000000000000000000000000000000008152600401611b62906148a9565b60405180910390fd5b600e54341015611bb0576040517f08c379a0000000000000000000000000000000000000000000000000000000008152600401611ba7906149e9565b60405180910390fd5b3373ffffffffffffffffffffffffffffffffffffffff16601360009054906101000a900473ffffffffffffffffffffffffffffffffffffffff1673ffffffffffffffffffffffffffffffffffffffff16636352211e836040518263ffffffff1660e01b8152600401611c229190614a89565b60206040518083038186803b158015611c3a57600080fd5b505afa158015611c4e573d6000803e3d6000fd5b505050506040513d601f19601f82011682018060405250810190611c729190613df5565b73ffffffffffffffffffffffffffffffffffffffff1614611cc8576040517f08c379a0000000000000000000000000000000000000000000000000000000008152600401611cbf90614a49565b60405180910390fd5b6014600082815260200190815260200160002060009054906101000a900460ff1615611d29576040517f08c379a0000000000000000000000000000000000000000000000000000000008152600401611d2090614829565b60405180910390fd5b60016014600083815260200190815260200160002060006101000a81548160ff021916908315150217905550600f6000815480929190611d6890614e16565b9190505550611d773382612e69565b50565b600c8054611d8790614db3565b80601f0160208091040260200160405190810160405280929190818152602001828054611db390614db3565b8015611e005780601f10611dd557610100808354040283529160200191611e00565b820191906000526020600020905b815481529060010190602001808311611de357829003601f168201915b505050505081565b6060611e1382612944565b611e52576040517f08c379a0000000000000000000000000000000000000000000000000000000008152600401611e4990614989565b60405180910390fd5b60001515601260029054906101000a900460ff1615151415611f0057600d8054611e7b90614db3565b80601f0160208091040260200160405190810160405280929190818152602001828054611ea790614db3565b8015611ef45780601f10611ec957610100808354040283529160200191611ef4565b820191906000526020600020905b815481529060010190602001808311611ed757829003601f168201915b50505050509050611f5c565b6000611f0a613050565b90506000815111611f2a5760405180602001604052806000815250611f58565b80611f34846130e2565b600c604051602001611f4893929190614647565b6040516020818303038152906040525b9150505b919050565b606060006110dd67ffffffffffffffff811115611fa7577f4e487b7100000000000000000000000000000000000000000000000000000000600052604160045260246000fd5b604051908082528060200260200182016040528015611fd55781602001602082028036833780820191505090505b5090506000805b6110dd811015612164576000601360009054906101000a900473ffffffffffffffffffffffffffffffffffffffff1673ffffffffffffffffffffffffffffffffffffffff16636352211e836040518263ffffffff1660e01b81526004016120439190614a89565b60206040518083038186803b15801561205b57600080fd5b505afa15801561206f573d6000803e3d6000fd5b505050506040513d601f19601f820116820180604052508101906120939190613df5565b90508073ffffffffffffffffffffffffffffffffffffffff168673ffffffffffffffffffffffffffffffffffffffff161480156120f55750600115156014600084815260200190815260200160002060009054906101000a900460ff16151514155b156121505781848481518110612134577f4e487b7100000000000000000000000000000000000000000000000000000000600052603260045260246000fd5b60200260200101818152505060018361214d9190614be8565b92505b50808061215c90614e16565b915050611fdc565b506000816110dd6121759190614cc9565b905060005b818110156121ec5761270f8484815181106121be577f4e487b7100000000000000000000000000000000000000000000000000000000600052603260045260246000fd5b6020026020010181815250506001836121d79190614be8565b925080806121e490614e16565b91505061217a565b50829350505050919050565b60146020528060005260406000206000915054906101000a900460ff1681565b606060006110dd67ffffffffffffffff81111561225e577f4e487b7100000000000000000000000000000000000000000000000000000000600052604160045260246000fd5b60405190808252806020026020018201604052801561228c5781602001602082028036833780820191505090505b5090506000805b6110dd8110156123ea576000601360009054906101000a900473ffffffffffffffffffffffffffffffffffffffff1673ffffffffffffffffffffffffffffffffffffffff16636352211e836040518263ffffffff1660e01b81526004016122fa9190614a89565b60206040518083038186803b15801561231257600080fd5b505afa158015612326573d6000803e3d6000fd5b505050506040513d601f19601f8201168201806040525081019061234a9190613df5565b90508073ffffffffffffffffffffffffffffffffffffffff168673ffffffffffffffffffffffffffffffffffffffff1614156123d657818484815181106123ba577f4e487b7100000000000000000000000000000000000000000000000000000000600052603260045260246000fd5b6020026020010181815250506001836123d39190614be8565b92505b5080806123e290614e16565b915050612293565b506000816110dd6123fb9190614cc9565b905060005b818110156124725761270f848481518110612444577f4e487b7100000000000000000000000000000000000000000000000000000000600052603260045260246000fd5b60200260200101818152505060018361245d9190614be8565b9250808061246a90614e16565b915050612400565b50829350505050919050565b60105481565b61248c61293c565b73ffffffffffffffffffffffffffffffffffffffff166124aa6116e0565b73ffffffffffffffffffffffffffffffffffffffff1614612500576040517f08c379a00000000000000000000000000000000000000000000000000000000081526004016124f790614929565b60405180910390fd5b80600c9080519060200190612516929190613b45565b5050565b600080600090505b6110dd811161257357600115156014600083815260200190815260200160002060009054906101000a900460ff161515146125605780915050612575565b808061256b90614e16565b915050612522565b505b90565b61258061293c565b73ffffffffffffffffffffffffffffffffffffffff1661259e6116e0565b73ffffffffffffffffffffffffffffffffffffffff16146125f4576040517f08c379a00000000000000000000000000000000000000000000000000000000081526004016125eb90614929565b60405180910390fd5b601260019054906101000a900460ff1615601260016101000a81548160ff021916908315150217905550565b6000600560008473ffffffffffffffffffffffffffffffffffffffff1673ffffffffffffffffffffffffffffffffffffffff16815260200190815260200160002060008373ffffffffffffffffffffffffffffffffffffffff1673ffffffffffffffffffffffffffffffffffffffff16815260200190815260200160002060009054906101000a900460ff16905092915050565b6126bc61293c565b73ffffffffffffffffffffffffffffffffffffffff166126da6116e0565b73ffffffffffffffffffffffffffffffffffffffff1614612730576040517f08c379a000000000000000000000000000000000000000000000000000000000815260040161272790614929565b60405180910390fd5b80600d9080519060200190612746929190613b45565b5050565b61275261293c565b73ffffffffffffffffffffffffffffffffffffffff166127706116e0565b73ffffffffffffffffffffffffffffffffffffffff16146127c6576040517f08c379a00000000000000000000000000000000000000000000000000000000081526004016127bd90614929565b60405180910390fd5b600073ffffffffffffffffffffffffffffffffffffffff168173ffffffffffffffffffffffffffffffffffffffff161415612836576040517f08c379a000000000000000000000000000000000000000000000000000000000815260040161282d90614789565b60405180910390fd5b61283f81612da3565b50565b600080823b905060008111915050919050565b505050565b60007f80ac58cd000000000000000000000000000000000000000000000000000000007bffffffffffffffffffffffffffffffffffffffffffffffffffffffff1916827bffffffffffffffffffffffffffffffffffffffffffffffffffffffff1916148061292557507f5b5e139f000000000000000000000000000000000000000000000000000000007bffffffffffffffffffffffffffffffffffffffffffffffffffffffff1916827bffffffffffffffffffffffffffffffffffffffffffffffffffffffff1916145b8061293557506129348261328f565b5b9050919050565b600033905090565b60008073ffffffffffffffffffffffffffffffffffffffff166002600084815260200190815260200160002060009054906101000a900473ffffffffffffffffffffffffffffffffffffffff1673ffffffffffffffffffffffffffffffffffffffff1614159050919050565b816004600083815260200190815260200160002060006101000a81548173ffffffffffffffffffffffffffffffffffffffff021916908373ffffffffffffffffffffffffffffffffffffffff160217905550808273ffffffffffffffffffffffffffffffffffffffff16612a23836113da565b73ffffffffffffffffffffffffffffffffffffffff167f8c5be1e5ebec7d5bd14f71427d1e84f3dd0314c0f7b2291e5b200ac8c7c3b92560405160405180910390a45050565b6000612a7482612944565b612ab3576040517f08c379a0000000000000000000000000000000000000000000000000000000008152600401612aaa90614809565b60405180910390fd5b6000612abe836113da565b90508073ffffffffffffffffffffffffffffffffffffffff168473ffffffffffffffffffffffffffffffffffffffff161480612b2d57508373ffffffffffffffffffffffffffffffffffffffff16612b1584610c5a565b73ffffffffffffffffffffffffffffffffffffffff16145b80612b3e5750612b3d8185612620565b5b91505092915050565b8273ffffffffffffffffffffffffffffffffffffffff16612b67826113da565b73ffffffffffffffffffffffffffffffffffffffff1614612bbd576040517f08c379a0000000000000000000000000000000000000000000000000000000008152600401612bb490614969565b60405180910390fd5b600073ffffffffffffffffffffffffffffffffffffffff168273ffffffffffffffffffffffffffffffffffffffff161415612c2d576040517f08c379a0000000000000000000000000000000000000000000000000000000008152600401612c24906147c9565b60405180910390fd5b612c388383836132f9565b612c436000826129b0565b6001600360008573ffffffffffffffffffffffffffffffffffffffff1673ffffffffffffffffffffffffffffffffffffffff1681526020019081526020016000206000828254612c939190614cc9565b925050819055506001600360008473ffffffffffffffffffffffffffffffffffffffff1673ffffffffffffffffffffffffffffffffffffffff1681526020019081526020016000206000828254612cea9190614be8565b92505081905550816002600083815260200190815260200160002060006101000a81548173ffffffffffffffffffffffffffffffffffffffff021916908373ffffffffffffffffffffffffffffffffffffffff160217905550808273ffffffffffffffffffffffffffffffffffffffff168473ffffffffffffffffffffffffffffffffffffffff167fddf252ad1be2c89b69c2b068fc378daa952ba7f163c4a11628f55a4df523b3ef60405160405180910390a4505050565b6000600a60009054906101000a900473ffffffffffffffffffffffffffffffffffffffff16905081600a60006101000a81548173ffffffffffffffffffffffffffffffffffffffff021916908373ffffffffffffffffffffffffffffffffffffffff1602179055508173ffffffffffffffffffffffffffffffffffffffff168173ffffffffffffffffffffffffffffffffffffffff167f8be0079c531659141344cd1fd0a4f28419497f9722a3daafe3b4186f6b6457e060405160405180910390a35050565b612e8382826040518060200160405280600081525061340d565b5050565b8173ffffffffffffffffffffffffffffffffffffffff168373ffffffffffffffffffffffffffffffffffffffff161415612ef6576040517f08c379a0000000000000000000000000000000000000000000000000000000008152600401612eed906147e9565b60405180910390fd5b80600560008573ffffffffffffffffffffffffffffffffffffffff1673ffffffffffffffffffffffffffffffffffffffff16815260200190815260200160002060008473ffffffffffffffffffffffffffffffffffffffff1673ffffffffffffffffffffffffffffffffffffffff16815260200190815260200160002060006101000a81548160ff0219169083151502179055508173ffffffffffffffffffffffffffffffffffffffff168373ffffffffffffffffffffffffffffffffffffffff167f17307eab39ab6107e8899845ad3d59bd9653f200f220920489ca2b5937696c3183604051612fe7919061470c565b60405180910390a3505050565b612fff848484612b47565b61300b84848484613468565b61304a576040517f08c379a000000000000000000000000000000000000000000000000000000000815260040161304190614769565b60405180910390fd5b50505050565b6060600b805461305f90614db3565b80601f016020809104026020016040519081016040528092919081815260200182805461308b90614db3565b80156130d85780601f106130ad576101008083540402835291602001916130d8565b820191906000526020600020905b8154815290600101906020018083116130bb57829003601f168201915b5050505050905090565b6060600082141561312a576040518060400160405280600181526020017f3000000000000000000000000000000000000000000000000000000000000000815250905061328a565b600082905060005b6000821461315c57808061314590614e16565b915050600a826131559190614c3e565b9150613132565b60008167ffffffffffffffff81111561319e577f4e487b7100000000000000000000000000000000000000000000000000000000600052604160045260246000fd5b6040519080825280601f01601f1916602001820160405280156131d05781602001600182028036833780820191505090505b5090505b60008514613283576001826131e99190614cc9565b9150600a856131f89190614e5f565b60306132049190614be8565b60f81b818381518110613240577f4e487b7100000000000000000000000000000000000000000000000000000000600052603260045260246000fd5b60200101907effffffffffffffffffffffffffffffffffffffffffffffffffffffffffffff1916908160001a905350600a8561327c9190614c3e565b94506131d4565b8093505050505b919050565b60007f01ffc9a7000000000000000000000000000000000000000000000000000000007bffffffffffffffffffffffffffffffffffffffffffffffffffffffff1916827bffffffffffffffffffffffffffffffffffffffffffffffffffffffff1916149050919050565b613304838383612855565b600073ffffffffffffffffffffffffffffffffffffffff168373ffffffffffffffffffffffffffffffffffffffff16141561334757613342816135ff565b613386565b8173ffffffffffffffffffffffffffffffffffffffff168373ffffffffffffffffffffffffffffffffffffffff1614613385576133848382613648565b5b5b600073ffffffffffffffffffffffffffffffffffffffff168273ffffffffffffffffffffffffffffffffffffffff1614156133c9576133c4816137b5565b613408565b8273ffffffffffffffffffffffffffffffffffffffff168273ffffffffffffffffffffffffffffffffffffffff16146134075761340682826138f8565b5b5b505050565b6134178383613977565b6134246000848484613468565b613463576040517f08c379a000000000000000000000000000000000000000000000000000000000815260040161345a90614769565b60405180910390fd5b505050565b60006134898473ffffffffffffffffffffffffffffffffffffffff16612842565b156135f2578373ffffffffffffffffffffffffffffffffffffffff1663150b7a026134b261293c565b8786866040518563ffffffff1660e01b81526004016134d4949392919061469e565b602060405180830381600087803b1580156134ee57600080fd5b505af192505050801561351f57506040513d601f19601f8201168201806040525081019061351c919061402f565b60015b6135a2573d806000811461354f576040519150601f19603f3d011682016040523d82523d6000602084013e613554565b606091505b5060008151141561359a576040517f08c379a000000000000000000000000000000000000000000000000000000000815260040161359190614769565b60405180910390fd5b805181602001fd5b63150b7a0260e01b7bffffffffffffffffffffffffffffffffffffffffffffffffffffffff1916817bffffffffffffffffffffffffffffffffffffffffffffffffffffffff1916149150506135f7565b600190505b949350505050565b6008805490506009600083815260200190815260200160002081905550600881908060018154018082558091505060019003906000526020600020016000909190919091505550565b600060016136558461151a565b61365f9190614cc9565b9050600060076000848152602001908152602001600020549050818114613744576000600660008673ffffffffffffffffffffffffffffffffffffffff1673ffffffffffffffffffffffffffffffffffffffff168152602001908152602001600020600084815260200190815260200160002054905080600660008773ffffffffffffffffffffffffffffffffffffffff1673ffffffffffffffffffffffffffffffffffffffff168152602001908152602001600020600084815260200190815260200160002081905550816007600083815260200190815260200160002081905550505b6007600084815260200190815260200160002060009055600660008573ffffffffffffffffffffffffffffffffffffffff1673ffffffffffffffffffffffffffffffffffffffff16815260200190815260200160002060008381526020019081526020016000206000905550505050565b600060016008805490506137c99190614cc9565b905060006009600084815260200190815260200160002054905060006008838154811061381f577f4e487b7100000000000000000000000000000000000000000000000000000000600052603260045260246000fd5b906000526020600020015490508060088381548110613867577f4e487b7100000000000000000000000000000000000000000000000000000000600052603260045260246000fd5b9060005260206000200181905550816009600083815260200190815260200160002081905550600960008581526020019081526020016000206000905560088054806138dc577f4e487b7100000000000000000000000000000000000000000000000000000000600052603160045260246000fd5b6001900381819060005260206000200160009055905550505050565b60006139038361151a565b905081600660008573ffffffffffffffffffffffffffffffffffffffff1673ffffffffffffffffffffffffffffffffffffffff168152602001908152602001600020600083815260200190815260200160002081905550806007600084815260200190815260200160002081905550505050565b600073ffffffffffffffffffffffffffffffffffffffff168273ffffffffffffffffffffffffffffffffffffffff1614156139e7576040517f08c379a00000000000000000000000000000000000000000000000000000000081526004016139de906148c9565b60405180910390fd5b6139f081612944565b15613a30576040517f08c379a0000000000000000000000000000000000000000000000000000000008152600401613a27906147a9565b60405180910390fd5b613a3c600083836132f9565b6001600360008473ffffffffffffffffffffffffffffffffffffffff1673ffffffffffffffffffffffffffffffffffffffff1681526020019081526020016000206000828254613a8c9190614be8565b92505081905550816002600083815260200190815260200160002060006101000a81548173ffffffffffffffffffffffffffffffffffffffff021916908373ffffffffffffffffffffffffffffffffffffffff160217905550808273ffffffffffffffffffffffffffffffffffffffff16600073ffffffffffffffffffffffffffffffffffffffff167fddf252ad1be2c89b69c2b068fc378daa952ba7f163c4a11628f55a4df523b3ef60405160405180910390a45050565b828054613b5190614db3565b90600052602060002090601f016020900481019282613b735760008555613bba565b82601f10613b8c57805160ff1916838001178555613bba565b82800160010185558215613bba579182015b82811115613bb9578251825591602001919060010190613b9e565b5b509050613bc79190613bcb565b5090565b5b80821115613be4576000816000905550600101613bcc565b5090565b6000613bfb613bf684614ac9565b614aa4565b90508083825260208201905082856020860282011115613c1a57600080fd5b60005b85811015613c4a5781613c308882613db7565b845260208401935060208301925050600181019050613c1d565b5050509392505050565b6000613c67613c6284614af5565b614aa4565b905082815260208101848484011115613c7f57600080fd5b613c8a848285614d71565b509392505050565b6000613ca5613ca084614b26565b614aa4565b905082815260208101848484011115613cbd57600080fd5b613cc8848285614d71565b509392505050565b600081359050613cdf816155c4565b92915050565b600081519050613cf4816155c4565b92915050565b600082601f830112613d0b57600080fd5b8135613d1b848260208601613be8565b91505092915050565b600081359050613d33816155db565b92915050565b600081359050613d48816155f2565b92915050565b600081519050613d5d816155f2565b92915050565b600082601f830112613d7457600080fd5b8135613d84848260208601613c54565b91505092915050565b600082601f830112613d9e57600080fd5b8135613dae848260208601613c92565b91505092915050565b600081359050613dc681615609565b92915050565b600060208284031215613dde57600080fd5b6000613dec84828501613cd0565b91505092915050565b600060208284031215613e0757600080fd5b6000613e1584828501613ce5565b91505092915050565b60008060408385031215613e3157600080fd5b6000613e3f85828601613cd0565b9250506020613e5085828601613cd0565b9150509250929050565b600080600060608486031215613e6f57600080fd5b6000613e7d86828701613cd0565b9350506020613e8e86828701613cd0565b9250506040613e9f86828701613db7565b9150509250925092565b60008060008060808587031215613ebf57600080fd5b6000613ecd87828801613cd0565b9450506020613ede87828801613cd0565b9350506040613eef87828801613db7565b925050606085013567ffffffffffffffff811115613f0c57600080fd5b613f1887828801613d63565b91505092959194509250565b60008060408385031215613f3757600080fd5b6000613f4585828601613cd0565b9250506020613f5685828601613d24565b9150509250929050565b60008060408385031215613f7357600080fd5b6000613f8185828601613cd0565b9250506020613f9285828601613db7565b9150509250929050565b600060208284031215613fae57600080fd5b600082013567ffffffffffffffff811115613fc857600080fd5b613fd484828501613cfa565b91505092915050565b600060208284031215613fef57600080fd5b6000613ffd84828501613d24565b91505092915050565b60006020828403121561401857600080fd5b600061402684828501613d39565b91505092915050565b60006020828403121561404157600080fd5b600061404f84828501613d4e565b91505092915050565b60006020828403121561406a57600080fd5b600082013567ffffffffffffffff81111561408457600080fd5b61409084828501613d8d565b91505092915050565b6000602082840312156140ab57600080fd5b60006140b984828501613db7565b91505092915050565b60006140ce8383614629565b60208301905092915050565b6140e381614cfd565b82525050565b60006140f482614b7c565b6140fe8185614baa565b935061410983614b57565b8060005b8381101561413a57815161412188826140c2565b975061412c83614b9d565b92505060018101905061410d565b5085935050505092915050565b61415081614d0f565b82525050565b600061416182614b87565b61416b8185614bbb565b935061417b818560208601614d80565b61418481614f4c565b840191505092915050565b600061419a82614b92565b6141a48185614bcc565b93506141b4818560208601614d80565b6141bd81614f4c565b840191505092915050565b60006141d382614b92565b6141dd8185614bdd565b93506141ed818560208601614d80565b80840191505092915050565b6000815461420681614db3565b6142108186614bdd565b9450600182166000811461422b576001811461423c5761426f565b60ff1983168652818601935061426f565b61424585614b67565b60005b8381101561426757815481890152600182019150602081019050614248565b838801955050505b50505092915050565b6000614285602b83614bcc565b915061429082614f5d565b604082019050919050565b60006142a8603283614bcc565b91506142b382614fac565b604082019050919050565b60006142cb602683614bcc565b91506142d682614ffb565b604082019050919050565b60006142ee601c83614bcc565b91506142f98261504a565b602082019050919050565b6000614311602483614bcc565b915061431c82615073565b604082019050919050565b6000614334601983614bcc565b915061433f826150c2565b602082019050919050565b6000614357602c83614bcc565b9150614362826150eb565b604082019050919050565b600061437a602083614bcc565b91506143858261513a565b602082019050919050565b600061439d603883614bcc565b91506143a882615163565b604082019050919050565b60006143c0602a83614bcc565b91506143cb826151b2565b604082019050919050565b60006143e3602983614bcc565b91506143ee82615201565b604082019050919050565b6000614406601b83614bcc565b915061441182615250565b602082019050919050565b6000614429602083614bcc565b915061443482615279565b602082019050919050565b600061444c601183614bcc565b9150614457826152a2565b602082019050919050565b600061446f602c83614bcc565b915061447a826152cb565b604082019050919050565b6000614492602083614bcc565b915061449d8261531a565b602082019050919050565b60006144b5601683614bcc565b91506144c082615343565b602082019050919050565b60006144d8602983614bcc565b91506144e38261536c565b604082019050919050565b60006144fb602f83614bcc565b9150614506826153bb565b604082019050919050565b600061451e602183614bcc565b91506145298261540a565b604082019050919050565b6000614541601d83614bcc565b915061454c82615459565b602082019050919050565b6000614564601283614bcc565b915061456f82615482565b602082019050919050565b6000614587603183614bcc565b9150614592826154ab565b604082019050919050565b60006145aa602c83614bcc565b91506145b5826154fa565b604082019050919050565b60006145cd600183614bdd565b91506145d882615549565b600182019050919050565b60006145f0601c83614bcc565b91506145fb82615572565b602082019050919050565b6000614613601f83614bcc565b915061461e8261559b565b602082019050919050565b61463281614d67565b82525050565b61464181614d67565b82525050565b600061465382866141c8565b915061465e826145c0565b915061466a82856141c8565b915061467682846141f9565b9150819050949350505050565b600060208201905061469860008301846140da565b92915050565b60006080820190506146b360008301876140da565b6146c060208301866140da565b6146cd6040830185614638565b81810360608301526146df8184614156565b905095945050505050565b6000602082019050818103600083015261470481846140e9565b905092915050565b60006020820190506147216000830184614147565b92915050565b60006020820190508181036000830152614741818461418f565b905092915050565b6000602082019050818103600083015261476281614278565b9050919050565b600060208201905081810360008301526147828161429b565b9050919050565b600060208201905081810360008301526147a2816142be565b9050919050565b600060208201905081810360008301526147c2816142e1565b9050919050565b600060208201905081810360008301526147e281614304565b9050919050565b6000602082019050818103600083015261480281614327565b9050919050565b600060208201905081810360008301526148228161434a565b9050919050565b600060208201905081810360008301526148428161436d565b9050919050565b6000602082019050818103600083015261486281614390565b9050919050565b60006020820190508181036000830152614882816143b3565b9050919050565b600060208201905081810360008301526148a2816143d6565b9050919050565b600060208201905081810360008301526148c2816143f9565b9050919050565b600060208201905081810360008301526148e28161441c565b9050919050565b600060208201905081810360008301526149028161443f565b9050919050565b6000602082019050818103600083015261492281614462565b9050919050565b6000602082019050818103600083015261494281614485565b9050919050565b60006020820190508181036000830152614962816144a8565b9050919050565b60006020820190508181036000830152614982816144cb565b9050919050565b600060208201905081810360008301526149a2816144ee565b9050919050565b600060208201905081810360008301526149c281614511565b9050919050565b600060208201905081810360008301526149e281614534565b9050919050565b60006020820190508181036000830152614a0281614557565b9050919050565b60006020820190508181036000830152614a228161457a565b9050919050565b60006020820190508181036000830152614a428161459d565b9050919050565b60006020820190508181036000830152614a62816145e3565b9050919050565b60006020820190508181036000830152614a8281614606565b9050919050565b6000602082019050614a9e6000830184614638565b92915050565b6000614aae614abf565b9050614aba8282614de5565b919050565b6000604051905090565b600067ffffffffffffffff821115614ae457614ae3614f1d565b5b602082029050602081019050919050565b600067ffffffffffffffff821115614b1057614b0f614f1d565b5b614b1982614f4c565b9050602081019050919050565b600067ffffffffffffffff821115614b4157614b40614f1d565b5b614b4a82614f4c565b9050602081019050919050565b6000819050602082019050919050565b60008190508160005260206000209050919050565b600081519050919050565b600081519050919050565b600081519050919050565b6000602082019050919050565b600082825260208201905092915050565b600082825260208201905092915050565b600082825260208201905092915050565b600081905092915050565b6000614bf382614d67565b9150614bfe83614d67565b9250827fffffffffffffffffffffffffffffffffffffffffffffffffffffffffffffffff03821115614c3357614c32614e90565b5b828201905092915050565b6000614c4982614d67565b9150614c5483614d67565b925082614c6457614c63614ebf565b5b828204905092915050565b6000614c7a82614d67565b9150614c8583614d67565b9250817fffffffffffffffffffffffffffffffffffffffffffffffffffffffffffffffff0483118215151615614cbe57614cbd614e90565b5b828202905092915050565b6000614cd482614d67565b9150614cdf83614d67565b925082821015614cf257614cf1614e90565b5b828203905092915050565b6000614d0882614d47565b9050919050565b60008115159050919050565b60007fffffffff0000000000000000000000000000000000000000000000000000000082169050919050565b600073ffffffffffffffffffffffffffffffffffffffff82169050919050565b6000819050919050565b82818337600083830152505050565b60005b83811015614d9e578082015181840152602081019050614d83565b83811115614dad576000848401525b50505050565b60006002820490506001821680614dcb57607f821691505b60208210811415614ddf57614dde614eee565b5b50919050565b614dee82614f4c565b810181811067ffffffffffffffff82111715614e0d57614e0c614f1d565b5b80604052505050565b6000614e2182614d67565b91507fffffffffffffffffffffffffffffffffffffffffffffffffffffffffffffffff821415614e5457614e53614e90565b5b600182019050919050565b6000614e6a82614d67565b9150614e7583614d67565b925082614e8557614e84614ebf565b5b828206905092915050565b7f4e487b7100000000000000000000000000000000000000000000000000000000600052601160045260246000fd5b7f4e487b7100000000000000000000000000000000000000000000000000000000600052601260045260246000fd5b7f4e487b7100000000000000000000000000000000000000000000000000000000600052602260045260246000fd5b7f4e487b7100000000000000000000000000000000000000000000000000000000600052604160045260246000fd5b6000601f19601f8301169050919050565b7f455243373231456e756d657261626c653a206f776e657220696e646578206f7560008201527f74206f6620626f756e6473000000000000000000000000000000000000000000602082015250565b7f4552433732313a207472616e7366657220746f206e6f6e20455243373231526560008201527f63656976657220696d706c656d656e7465720000000000000000000000000000602082015250565b7f4f776e61626c653a206e6577206f776e657220697320746865207a65726f206160008201527f6464726573730000000000000000000000000000000000000000000000000000602082015250565b7f4552433732313a20746f6b656e20616c7265616479206d696e74656400000000600082015250565b7f4552433732313a207472616e7366657220746f20746865207a65726f2061646460008201527f7265737300000000000000000000000000000000000000000000000000000000602082015250565b7f4552433732313a20617070726f766520746f2063616c6c657200000000000000600082015250565b7f4552433732313a206f70657261746f7220717565727920666f72206e6f6e657860008201527f697374656e7420746f6b656e0000000000000000000000000000000000000000602082015250565b7f616c7265616479206d696e7465642077697468207468697320746f6b656e2121600082015250565b7f4552433732313a20617070726f76652063616c6c6572206973206e6f74206f7760008201527f6e6572206e6f7220617070726f76656420666f7220616c6c0000000000000000602082015250565b7f4552433732313a2062616c616e636520717565727920666f7220746865207a6560008201527f726f206164647265737300000000000000000000000000000000000000000000602082015250565b7f4552433732313a206f776e657220717565727920666f72206e6f6e657869737460008201527f656e7420746f6b656e0000000000000000000000000000000000000000000000602082015250565b7f6d617820737570706c7920686173206265656e20726561636865640000000000600082015250565b7f4552433732313a206d696e7420746f20746865207a65726f2061646472657373600082015250565b7f436f6e7472616374732070617573656421000000000000000000000000000000600082015250565b7f4552433732313a20617070726f76656420717565727920666f72206e6f6e657860008201527f697374656e7420746f6b656e0000000000000000000000000000000000000000602082015250565b7f4f776e61626c653a2063616c6c6572206973206e6f7420746865206f776e6572600082015250565b7f74686520636f6e74726163742069732070617573656400000000000000000000600082015250565b7f4552433732313a207472616e73666572206f6620746f6b656e2074686174206960008201527f73206e6f74206f776e0000000000000000000000000000000000000000000000602082015250565b7f4552433732314d657461646174613a2055524920717565727920666f72206e6f60008201527f6e6578697374656e7420746f6b656e0000000000000000000000000000000000602082015250565b7f4552433732313a20617070726f76616c20746f2063757272656e74206f776e6560008201527f7200000000000000000000000000000000000000000000000000000000000000602082015250565b7f5075626c69632073616c652069736e2774206163746976652079657421000000600082015250565b7f696e73756666696369656e742066756e64730000000000000000000000000000600082015250565b7f4552433732313a207472616e736665722063616c6c6572206973206e6f74206f60008201527f776e6572206e6f7220617070726f766564000000000000000000000000000000602082015250565b7f455243373231456e756d657261626c653a20676c6f62616c20696e646578206f60008201527f7574206f6620626f756e64730000000000000000000000000000000000000000602082015250565b7f2f00000000000000000000000000000000000000000000000000000000000000600082015250565b7f6e6f7420746865206f776e6572206f66207468697320636f6c6f722100000000600082015250565b7f6d6178206d696e7420616d6f756e742070657220747820657863656564656400600082015250565b6155cd81614cfd565b81146155d857600080fd5b50565b6155e481614d0f565b81146155ef57600080fd5b50565b6155fb81614d1b565b811461560657600080fd5b50565b61561281614d67565b811461561d57600080fd5b5056fea26469706673582212201ba0cf69013248372abc3a8c7e288deb45ed56ecd58e6a9ed1b16956efb13e5664736f6c63430008040033",
  "linkReferences": {},
  "deployedLinkReferences": {}
}