{
  "_format": "hh-sol-artifact-1",
  "contractName": "ConcaveNFT",
  "sourceName": "contracts/Concave.sol",
  "abi": [
    {
      "inputs": [
        {
          "internalType": "string",
          "name": "_name",
          "type": "string"
        },
        {
          "internalType": "string",
          "name": "_symbol",
          "type": "string"
        },
        {
          "internalType": "string",
          "name": "_initBaseURI",
          "type": "string"
        },
        {
          "internalType": "string",
          "name": "_initNotRevealedUri",
          "type": "string"
        }
      ],
      "stateMutability": "nonpayable",
      "type": "constructor"
    },
    {
      "anonymous": false,
      "inputs": [
        {
          "indexed": true,
          "internalType": "address",
          "name": "owner",
          "type": "address"
        },
        {
          "indexed": true,
          "internalType": "address",
          "name": "approved",
          "type": "address"
        },
        {
          "indexed": true,
          "internalType": "uint256",
          "name": "tokenId",
          "type": "uint256"
        }
      ],
      "name": "Approval",
      "type": "event"
    },
    {
      "anonymous": false,
      "inputs": [
        {
          "indexed": true,
          "internalType": "address",
          "name": "owner",
          "type": "address"
        },
        {
          "indexed": true,
          "internalType": "address",
          "name": "operator",
          "type": "address"
        },
        {
          "indexed": false,
          "internalType": "bool",
          "name": "approved",
          "type": "bool"
        }
      ],
      "name": "ApprovalForAll",
      "type": "event"
    },
    {
      "anonymous": false,
      "inputs": [
        {
          "indexed": true,
          "internalType": "address",
          "name": "previousOwner",
          "type": "address"
        },
        {
          "indexed": true,
          "internalType": "address",
          "name": "newOwner",
          "type": "address"
        }
      ],
      "name": "OwnershipTransferred",
      "type": "event"
    },
    {
      "anonymous": false,
      "inputs": [
        {
          "indexed": false,
          "internalType": "address",
          "name": "account",
          "type": "address"
        }
      ],
      "name": "Paused",
      "type": "event"
    },
    {
      "anonymous": false,
      "inputs": [
        {
          "indexed": true,
          "internalType": "address",
          "name": "from",
          "type": "address"
        },
        {
          "indexed": true,
          "internalType": "address",
          "name": "to",
          "type": "address"
        },
        {
          "indexed": true,
          "internalType": "uint256",
          "name": "tokenId",
          "type": "uint256"
        }
      ],
      "name": "Transfer",
      "type": "event"
    },
    {
      "anonymous": false,
      "inputs": [
        {
          "indexed": false,
          "internalType": "address",
          "name": "account",
          "type": "address"
        }
      ],
      "name": "Unpaused",
      "type": "event"
    },
    {
      "inputs": [
        {
          "internalType": "address",
          "name": "to",
          "type": "address"
        },
        {
          "internalType": "uint256",
          "name": "tokenId",
          "type": "uint256"
        }
      ],
      "name": "approve",
      "outputs": [],
      "stateMutability": "nonpayable",
      "type": "function"
    },
    {
      "inputs": [
        {
          "internalType": "address",
          "name": "owner",
          "type": "address"
        }
      ],
      "name": "balanceOf",
      "outputs": [
        {
          "internalType": "uint256",
          "name": "",
          "type": "uint256"
        }
      ],
      "stateMutability": "view",
      "type": "function"
    },
    {
      "inputs": [],
      "name": "baseURI",
      "outputs": [
        {
          "internalType": "string",
          "name": "",
          "type": "string"
        }
      ],
      "stateMutability": "view",
      "type": "function"
    },
    {
      "inputs": [
        {
          "internalType": "uint256",
          "name": "tokenId",
          "type": "uint256"
        }
      ],
      "name": "getApproved",
      "outputs": [
        {
          "internalType": "address",
          "name": "",
          "type": "address"
        }
      ],
      "stateMutability": "view",
      "type": "function"
    },
    {
      "inputs": [
        {
          "internalType": "address",
          "name": "owner",
          "type": "address"
        },
        {
          "internalType": "address",
          "name": "operator",
          "type": "address"
        }
      ],
      "name": "isApprovedForAll",
      "outputs": [
        {
          "internalType": "bool",
          "name": "",
          "type": "bool"
        }
      ],
      "stateMutability": "view",
      "type": "function"
    },
    {
      "inputs": [],
      "name": "maxMintAmount",
      "outputs": [
        {
          "internalType": "uint256",
          "name": "",
          "type": "uint256"
        }
      ],
      "stateMutability": "view",
      "type": "function"
    },
    {
      "inputs": [],
      "name": "maxSupply",
      "outputs": [
        {
          "internalType": "uint256",
          "name": "",
          "type": "uint256"
        }
      ],
      "stateMutability": "view",
      "type": "function"
    },
    {
      "inputs": [
        {
          "internalType": "uint256",
          "name": "_mintAmount",
          "type": "uint256"
        }
      ],
      "name": "mint",
      "outputs": [
        {
          "internalType": "uint256",
          "name": "",
          "type": "uint256"
        }
      ],
      "stateMutability": "payable",
      "type": "function"
    },
    {
      "inputs": [],
      "name": "name",
      "outputs": [
        {
          "internalType": "string",
          "name": "",
          "type": "string"
        }
      ],
      "stateMutability": "view",
      "type": "function"
    },
    {
      "inputs": [],
      "name": "notRevealedUri",
      "outputs": [
        {
          "internalType": "string",
          "name": "",
          "type": "string"
        }
      ],
      "stateMutability": "view",
      "type": "function"
    },
    {
      "inputs": [],
      "name": "owner",
      "outputs": [
        {
          "internalType": "address",
          "name": "",
          "type": "address"
        }
      ],
      "stateMutability": "view",
      "type": "function"
    },
    {
      "inputs": [
        {
          "internalType": "uint256",
          "name": "tokenId",
          "type": "uint256"
        }
      ],
      "name": "ownerOf",
      "outputs": [
        {
          "internalType": "address",
          "name": "",
          "type": "address"
        }
      ],
      "stateMutability": "view",
      "type": "function"
    },
    {
      "inputs": [],
      "name": "paused",
      "outputs": [
        {
          "internalType": "bool",
          "name": "",
          "type": "bool"
        }
      ],
      "stateMutability": "view",
      "type": "function"
    },
    {
      "inputs": [],
      "name": "price",
      "outputs": [
        {
          "internalType": "uint256",
          "name": "",
          "type": "uint256"
        }
      ],
      "stateMutability": "view",
      "type": "function"
    },
    {
      "inputs": [],
      "name": "renounceOwnership",
      "outputs": [],
      "stateMutability": "nonpayable",
      "type": "function"
    },
    {
      "inputs": [],
      "name": "reveal",
      "outputs": [],
      "stateMutability": "nonpayable",
      "type": "function"
    },
    {
      "inputs": [],
      "name": "revealed",
      "outputs": [
        {
          "internalType": "bool",
          "name": "",
          "type": "bool"
        }
      ],
      "stateMutability": "view",
      "type": "function"
    },
    {
      "inputs": [
        {
          "internalType": "address",
          "name": "from",
          "type": "address"
        },
        {
          "internalType": "address",
          "name": "to",
          "type": "address"
        },
        {
          "internalType": "uint256",
          "name": "tokenId",
          "type": "uint256"
        }
      ],
      "name": "safeTransferFrom",
      "outputs": [],
      "stateMutability": "nonpayable",
      "type": "function"
    },
    {
      "inputs": [
        {
          "internalType": "address",
          "name": "from",
          "type": "address"
        },
        {
          "internalType": "address",
          "name": "to",
          "type": "address"
        },
        {
          "internalType": "uint256",
          "name": "tokenId",
          "type": "uint256"
        },
        {
          "internalType": "bytes",
          "name": "_data",
          "type": "bytes"
        }
      ],
      "name": "safeTransferFrom",
      "outputs": [],
      "stateMutability": "nonpayable",
      "type": "function"
    },
    {
      "inputs": [
        {
          "internalType": "address",
          "name": "operator",
          "type": "address"
        },
        {
          "internalType": "bool",
          "name": "approved",
          "type": "bool"
        }
      ],
      "name": "setApprovalForAll",
      "outputs": [],
      "stateMutability": "nonpayable",
      "type": "function"
    },
    {
      "inputs": [
        {
          "internalType": "string",
          "name": "_newBaseURI",
          "type": "string"
        }
      ],
      "name": "setBaseURI",
      "outputs": [],
      "stateMutability": "nonpayable",
      "type": "function"
    },
    {
      "inputs": [
        {
          "internalType": "uint256",
          "name": "_newmaxMintAmount",
          "type": "uint256"
        }
      ],
      "name": "setMaxMintAmount",
      "outputs": [],
      "stateMutability": "nonpayable",
      "type": "function"
    },
    {
      "inputs": [
        {
          "internalType": "string",
          "name": "_notRevealedURI",
          "type": "string"
        }
      ],
      "name": "setNotRevealedURI",
      "outputs": [],
      "stateMutability": "nonpayable",
      "type": "function"
    },
    {
      "inputs": [
        {
          "internalType": "uint256",
          "name": "_price",
          "type": "uint256"
        }
      ],
      "name": "setPrice",
      "outputs": [],
      "stateMutability": "nonpayable",
      "type": "function"
    },
    {
      "inputs": [
        {
          "internalType": "bytes4",
          "name": "interfaceId",
          "type": "bytes4"
        }
      ],
      "name": "supportsInterface",
      "outputs": [
        {
          "internalType": "bool",
          "name": "",
          "type": "bool"
        }
      ],
      "stateMutability": "view",
      "type": "function"
    },
    {
      "inputs": [],
      "name": "symbol",
      "outputs": [
        {
          "internalType": "string",
          "name": "",
          "type": "string"
        }
      ],
      "stateMutability": "view",
      "type": "function"
    },
    {
      "inputs": [
        {
          "internalType": "uint256",
          "name": "index",
          "type": "uint256"
        }
      ],
      "name": "tokenByIndex",
      "outputs": [
        {
          "internalType": "uint256",
          "name": "",
          "type": "uint256"
        }
      ],
      "stateMutability": "view",
      "type": "function"
    },
    {
      "inputs": [
        {
          "internalType": "address",
          "name": "owner",
          "type": "address"
        },
        {
          "internalType": "uint256",
          "name": "index",
          "type": "uint256"
        }
      ],
      "name": "tokenOfOwnerByIndex",
      "outputs": [
        {
          "internalType": "uint256",
          "name": "",
          "type": "uint256"
        }
      ],
      "stateMutability": "view",
      "type": "function"
    },
    {
      "inputs": [
        {
          "internalType": "uint256",
          "name": "tokenId",
          "type": "uint256"
        }
      ],
      "name": "tokenURI",
      "outputs": [
        {
          "internalType": "string",
          "name": "",
          "type": "string"
        }
      ],
      "stateMutability": "view",
      "type": "function"
    },
    {
      "inputs": [],
      "name": "totalSupply",
      "outputs": [
        {
          "internalType": "uint256",
          "name": "",
          "type": "uint256"
        }
      ],
      "stateMutability": "view",
      "type": "function"
    },
    {
      "inputs": [
        {
          "internalType": "address",
          "name": "from",
          "type": "address"
        },
        {
          "internalType": "address",
          "name": "to",
          "type": "address"
        },
        {
          "internalType": "uint256",
          "name": "tokenId",
          "type": "uint256"
        }
      ],
      "name": "transferFrom",
      "outputs": [],
      "stateMutability": "nonpayable",
      "type": "function"
    },
    {
      "inputs": [
        {
          "internalType": "address",
          "name": "newOwner",
          "type": "address"
        }
      ],
      "name": "transferOwnership",
      "outputs": [],
      "stateMutability": "nonpayable",
      "type": "function"
    },
    {
      "inputs": [],
      "name": "withdraw",
      "outputs": [],
      "stateMutability": "payable",
      "type": "function"
    }
  ],
  "bytecode": "0x60806040526110dd600e55666a94d74f4300006010556000601160006101000a81548160ff0219169083151502179055503480156200003d57600080fd5b506040516200469a3803806200469a833981810160405281019062000063919062000300565b838381600090805190602001906200007d929190620001de565b50806001908051906020019062000096929190620001de565b5050506000600a60006101000a81548160ff021916908315150217905550620000d4620000c86200011060201b60201c565b6200011860201b60201c565b81600c9080519060200190620000ec929190620001de565b5080600d908051906020019062000105929190620001de565b505050505062000540565b600033905090565b6000600a60019054906101000a900473ffffffffffffffffffffffffffffffffffffffff16905081600a60016101000a81548173ffffffffffffffffffffffffffffffffffffffff021916908373ffffffffffffffffffffffffffffffffffffffff1602179055508173ffffffffffffffffffffffffffffffffffffffff168173ffffffffffffffffffffffffffffffffffffffff167f8be0079c531659141344cd1fd0a4f28419497f9722a3daafe3b4186f6b6457e060405160405180910390a35050565b828054620001ec9062000465565b90600052602060002090601f0160209004810192826200021057600085556200025c565b82601f106200022b57805160ff19168380011785556200025c565b828001600101855582156200025c579182015b828111156200025b5782518255916020019190600101906200023e565b5b5090506200026b91906200026f565b5090565b5b808211156200028a57600081600090555060010162000270565b5090565b6000620002a56200029f84620003f9565b620003d0565b905082815260208101848484011115620002be57600080fd5b620002cb8482856200042f565b509392505050565b600082601f830112620002e557600080fd5b8151620002f78482602086016200028e565b91505092915050565b600080600080608085870312156200031757600080fd5b600085015167ffffffffffffffff8111156200033257600080fd5b6200034087828801620002d3565b945050602085015167ffffffffffffffff8111156200035e57600080fd5b6200036c87828801620002d3565b935050604085015167ffffffffffffffff8111156200038a57600080fd5b6200039887828801620002d3565b925050606085015167ffffffffffffffff811115620003b657600080fd5b620003c487828801620002d3565b91505092959194509250565b6000620003dc620003ef565b9050620003ea82826200049b565b919050565b6000604051905090565b600067ffffffffffffffff82111562000417576200041662000500565b5b62000422826200052f565b9050602081019050919050565b60005b838110156200044f57808201518184015260208101905062000432565b838111156200045f576000848401525b50505050565b600060028204905060018216806200047e57607f821691505b60208210811415620004955762000494620004d1565b5b50919050565b620004a6826200052f565b810181811067ffffffffffffffff82111715620004c857620004c762000500565b5b80604052505050565b7f4e487b7100000000000000000000000000000000000000000000000000000000600052602260045260246000fd5b7f4e487b7100000000000000000000000000000000000000000000000000000000600052604160045260246000fd5b6000601f19601f8301169050919050565b61414a80620005506000396000f3fe6080604052600436106101ee5760003560e01c80636352211e1161010d578063a0712d68116100a0578063c87b56dd1161006f578063c87b56dd146106bf578063d5abeb01146106fc578063e985e9c514610727578063f2c4ce1e14610764578063f2fde38b1461078d576101ee565b8063a0712d6814610626578063a22cb46514610656578063a475b5dd1461067f578063b88d4fde14610696576101ee565b80638da5cb5b116100dc5780638da5cb5b1461057c57806391b7f5ed146105a757806395d89b41146105d0578063a035b1fe146105fb576101ee565b80636352211e146104c05780636c0360eb146104fd57806370a0823114610528578063715018a614610565576101ee565b806323b872dd116101855780634f6ccce7116101545780634f6ccce714610404578063518302271461044157806355f804b31461046c5780635c975abb14610495576101ee565b806323b872dd1461036b5780632f745c59146103945780633ccfd60b146103d157806342842e0e146103db576101ee565b8063088a4ed0116101c1578063088a4ed0146102c3578063095ea7b3146102ec57806318160ddd14610315578063239c70ae14610340576101ee565b806301ffc9a7146101f357806306fdde0314610230578063081812fc1461025b578063081c8c4414610298575b600080fd5b3480156101ff57600080fd5b5061021a60048036038101906102159190612e1d565b6107b6565b60405161022791906133e3565b60405180910390f35b34801561023c57600080fd5b50610245610830565b60405161025291906133fe565b60405180910390f35b34801561026757600080fd5b50610282600480360381019061027d9190612eb0565b6108c2565b60405161028f919061337c565b60405180910390f35b3480156102a457600080fd5b506102ad610947565b6040516102ba91906133fe565b60405180910390f35b3480156102cf57600080fd5b506102ea60048036038101906102e59190612eb0565b6109d5565b005b3480156102f857600080fd5b50610313600480360381019061030e9190612de1565b610a5b565b005b34801561032157600080fd5b5061032a610b73565b60405161033791906136e0565b60405180910390f35b34801561034c57600080fd5b50610355610b80565b60405161036291906136e0565b60405180910390f35b34801561037757600080fd5b50610392600480360381019061038d9190612cdb565b610b86565b005b3480156103a057600080fd5b506103bb60048036038101906103b69190612de1565b610be6565b6040516103c891906136e0565b60405180910390f35b6103d9610c8b565b005b3480156103e757600080fd5b5061040260048036038101906103fd9190612cdb565b610d50565b005b34801561041057600080fd5b5061042b60048036038101906104269190612eb0565b610d70565b60405161043891906136e0565b60405180910390f35b34801561044d57600080fd5b50610456610e07565b60405161046391906133e3565b60405180910390f35b34801561047857600080fd5b50610493600480360381019061048e9190612e6f565b610e1a565b005b3480156104a157600080fd5b506104aa610eb0565b6040516104b791906133e3565b60405180910390f35b3480156104cc57600080fd5b506104e760048036038101906104e29190612eb0565b610ec7565b6040516104f4919061337c565b60405180910390f35b34801561050957600080fd5b50610512610f79565b60405161051f91906133fe565b60405180910390f35b34801561053457600080fd5b5061054f600480360381019061054a9190612c76565b611007565b60405161055c91906136e0565b60405180910390f35b34801561057157600080fd5b5061057a6110bf565b005b34801561058857600080fd5b50610591611147565b60405161059e919061337c565b60405180910390f35b3480156105b357600080fd5b506105ce60048036038101906105c99190612eb0565b611171565b005b3480156105dc57600080fd5b506105e56111f7565b6040516105f291906133fe565b60405180910390f35b34801561060757600080fd5b50610610611289565b60405161061d91906136e0565b60405180910390f35b610640600480360381019061063b9190612eb0565b61128f565b60405161064d91906136e0565b60405180910390f35b34801561066257600080fd5b5061067d60048036038101906106789190612da5565b6113f6565b005b34801561068b57600080fd5b5061069461140c565b005b3480156106a257600080fd5b506106bd60048036038101906106b89190612d2a565b6114a5565b005b3480156106cb57600080fd5b506106e660048036038101906106e19190612eb0565b611507565b6040516106f391906133fe565b60405180910390f35b34801561070857600080fd5b50610711611656565b60405161071e91906136e0565b60405180910390f35b34801561073357600080fd5b5061074e60048036038101906107499190612c9f565b61165c565b60405161075b91906133e3565b60405180910390f35b34801561077057600080fd5b5061078b60048036038101906107869190612e6f565b6116f0565b005b34801561079957600080fd5b506107b460048036038101906107af9190612c76565b611786565b005b60007f780e9d63000000000000000000000000000000000000000000000000000000007bffffffffffffffffffffffffffffffffffffffffffffffffffffffff1916827bffffffffffffffffffffffffffffffffffffffffffffffffffffffff1916148061082957506108288261187e565b5b9050919050565b60606000805461083f9061394b565b80601f016020809104026020016040519081016040528092919081815260200182805461086b9061394b565b80156108b85780601f1061088d576101008083540402835291602001916108b8565b820191906000526020600020905b81548152906001019060200180831161089b57829003601f168201915b5050505050905090565b60006108cd82611960565b61090c576040517f08c379a0000000000000000000000000000000000000000000000000000000008152600401610903906135a0565b60405180910390fd5b6004600083815260200190815260200160002060009054906101000a900473ffffffffffffffffffffffffffffffffffffffff169050919050565b600d80546109549061394b565b80601f01602080910402602001604051908101604052809291908181526020018280546109809061394b565b80156109cd5780601f106109a2576101008083540402835291602001916109cd565b820191906000526020600020905b8154815290600101906020018083116109b057829003601f168201915b505050505081565b6109dd6119cc565b73ffffffffffffffffffffffffffffffffffffffff166109fb611147565b73ffffffffffffffffffffffffffffffffffffffff1614610a51576040517f08c379a0000000000000000000000000000000000000000000000000000000008152600401610a48906135e0565b60405180910390fd5b80600f8190555050565b6000610a6682610ec7565b90508073ffffffffffffffffffffffffffffffffffffffff168373ffffffffffffffffffffffffffffffffffffffff161415610ad7576040517f08c379a0000000000000000000000000000000000000000000000000000000008152600401610ace90613660565b60405180910390fd5b8073ffffffffffffffffffffffffffffffffffffffff16610af66119cc565b73ffffffffffffffffffffffffffffffffffffffff161480610b255750610b2481610b1f6119cc565b61165c565b5b610b64576040517f08c379a0000000000000000000000000000000000000000000000000000000008152600401610b5b90613520565b60405180910390fd5b610b6e83836119d4565b505050565b6000600880549050905090565b600f5481565b610b97610b916119cc565b82611a8d565b610bd6576040517f08c379a0000000000000000000000000000000000000000000000000000000008152600401610bcd906136a0565b60405180910390fd5b610be1838383611b6b565b505050565b6000610bf183611007565b8210610c32576040517f08c379a0000000000000000000000000000000000000000000000000000000008152600401610c2990613420565b60405180910390fd5b600660008473ffffffffffffffffffffffffffffffffffffffff1673ffffffffffffffffffffffffffffffffffffffff168152602001908152602001600020600083815260200190815260200160002054905092915050565b610c936119cc565b73ffffffffffffffffffffffffffffffffffffffff16610cb1611147565b73ffffffffffffffffffffffffffffffffffffffff1614610d07576040517f08c379a0000000000000000000000000000000000000000000000000000000008152600401610cfe906135e0565b60405180910390fd5b3373ffffffffffffffffffffffffffffffffffffffff166108fc479081150290604051600060405180830381858888f19350505050158015610d4d573d6000803e3d6000fd5b50565b610d6b838383604051806020016040528060008152506114a5565b505050565b6000610d7a610b73565b8210610dbb576040517f08c379a0000000000000000000000000000000000000000000000000000000008152600401610db2906136c0565b60405180910390fd5b60088281548110610df5577f4e487b7100000000000000000000000000000000000000000000000000000000600052603260045260246000fd5b90600052602060002001549050919050565b601160009054906101000a900460ff1681565b610e226119cc565b73ffffffffffffffffffffffffffffffffffffffff16610e40611147565b73ffffffffffffffffffffffffffffffffffffffff1614610e96576040517f08c379a0000000000000000000000000000000000000000000000000000000008152600401610e8d906135e0565b60405180910390fd5b80600c9080519060200190610eac929190612a9a565b5050565b6000600a60009054906101000a900460ff16905090565b6000806002600084815260200190815260200160002060009054906101000a900473ffffffffffffffffffffffffffffffffffffffff169050600073ffffffffffffffffffffffffffffffffffffffff168173ffffffffffffffffffffffffffffffffffffffff161415610f70576040517f08c379a0000000000000000000000000000000000000000000000000000000008152600401610f6790613560565b60405180910390fd5b80915050919050565b600c8054610f869061394b565b80601f0160208091040260200160405190810160405280929190818152602001828054610fb29061394b565b8015610fff5780601f10610fd457610100808354040283529160200191610fff565b820191906000526020600020905b815481529060010190602001808311610fe257829003601f168201915b505050505081565b60008073ffffffffffffffffffffffffffffffffffffffff168273ffffffffffffffffffffffffffffffffffffffff161415611078576040517f08c379a000000000000000000000000000000000000000000000000000000000815260040161106f90613540565b60405180910390fd5b600360008373ffffffffffffffffffffffffffffffffffffffff1673ffffffffffffffffffffffffffffffffffffffff168152602001908152602001600020549050919050565b6110c76119cc565b73ffffffffffffffffffffffffffffffffffffffff166110e5611147565b73ffffffffffffffffffffffffffffffffffffffff161461113b576040517f08c379a0000000000000000000000000000000000000000000000000000000008152600401611132906135e0565b60405180910390fd5b6111456000611dc7565b565b6000600a60019054906101000a900473ffffffffffffffffffffffffffffffffffffffff16905090565b6111796119cc565b73ffffffffffffffffffffffffffffffffffffffff16611197611147565b73ffffffffffffffffffffffffffffffffffffffff16146111ed576040517f08c379a00000000000000000000000000000000000000000000000000000000081526004016111e4906135e0565b60405180910390fd5b8060108190555050565b6060600180546112069061394b565b80601f01602080910402602001604051908101604052809291908181526020018280546112329061394b565b801561127f5780601f106112545761010080835404028352916020019161127f565b820191906000526020600020905b81548152906001019060200180831161126257829003601f168201915b5050505050905090565b60105481565b6000611299610eb0565b156112d9576040517f08c379a00000000000000000000000000000000000000000000000000000000081526004016112d0906134a0565b60405180910390fd5b600f5482111561131e576040517f08c379a0000000000000000000000000000000000000000000000000000000008152600401611315906135c0565b60405180910390fd5b600e548261132a610b73565b61133491906137da565b1115611375576040517f08c379a000000000000000000000000000000000000000000000000000000000815260040161136c90613640565b60405180910390fd5b60c861137f610b73565b11156113cb576010543410156113ca576040517f08c379a00000000000000000000000000000000000000000000000000000000081526004016113c190613680565b60405180910390fd5b5b60006113d7600b611e8d565b90506113e33382611e9b565b6113ed600b612069565b80915050919050565b6114086114016119cc565b838361207f565b5050565b6114146119cc565b73ffffffffffffffffffffffffffffffffffffffff16611432611147565b73ffffffffffffffffffffffffffffffffffffffff1614611488576040517f08c379a000000000000000000000000000000000000000000000000000000000815260040161147f906135e0565b60405180910390fd5b6001601160006101000a81548160ff021916908315150217905550565b6114b66114b06119cc565b83611a8d565b6114f5576040517f08c379a00000000000000000000000000000000000000000000000000000000081526004016114ec906136a0565b60405180910390fd5b611501848484846121ec565b50505050565b606061151282611960565b611551576040517f08c379a000000000000000000000000000000000000000000000000000000000815260040161154890613620565b60405180910390fd5b601160009054906101000a900460ff166115f757600d80546115729061394b565b80601f016020809104026020016040519081016040528092919081815260200182805461159e9061394b565b80156115eb5780601f106115c0576101008083540402835291602001916115eb565b820191906000526020600020905b8154815290600101906020018083116115ce57829003601f168201915b50505050509050611651565b6000600c80546116069061394b565b905011611622576040518060200160405280600081525061164e565b600c61162d83612248565b60405160200161163e92919061334d565b6040516020818303038152906040525b90505b919050565b600e5481565b6000600560008473ffffffffffffffffffffffffffffffffffffffff1673ffffffffffffffffffffffffffffffffffffffff16815260200190815260200160002060008373ffffffffffffffffffffffffffffffffffffffff1673ffffffffffffffffffffffffffffffffffffffff16815260200190815260200160002060009054906101000a900460ff16905092915050565b6116f86119cc565b73ffffffffffffffffffffffffffffffffffffffff16611716611147565b73ffffffffffffffffffffffffffffffffffffffff161461176c576040517f08c379a0000000000000000000000000000000000000000000000000000000008152600401611763906135e0565b60405180910390fd5b80600d9080519060200190611782929190612a9a565b5050565b61178e6119cc565b73ffffffffffffffffffffffffffffffffffffffff166117ac611147565b73ffffffffffffffffffffffffffffffffffffffff1614611802576040517f08c379a00000000000000000000000000000000000000000000000000000000081526004016117f9906135e0565b60405180910390fd5b600073ffffffffffffffffffffffffffffffffffffffff168173ffffffffffffffffffffffffffffffffffffffff161415611872576040517f08c379a000000000000000000000000000000000000000000000000000000000815260040161186990613460565b60405180910390fd5b61187b81611dc7565b50565b60007f80ac58cd000000000000000000000000000000000000000000000000000000007bffffffffffffffffffffffffffffffffffffffffffffffffffffffff1916827bffffffffffffffffffffffffffffffffffffffffffffffffffffffff1916148061194957507f5b5e139f000000000000000000000000000000000000000000000000000000007bffffffffffffffffffffffffffffffffffffffffffffffffffffffff1916827bffffffffffffffffffffffffffffffffffffffffffffffffffffffff1916145b806119595750611958826123f5565b5b9050919050565b60008073ffffffffffffffffffffffffffffffffffffffff166002600084815260200190815260200160002060009054906101000a900473ffffffffffffffffffffffffffffffffffffffff1673ffffffffffffffffffffffffffffffffffffffff1614159050919050565b600033905090565b816004600083815260200190815260200160002060006101000a81548173ffffffffffffffffffffffffffffffffffffffff021916908373ffffffffffffffffffffffffffffffffffffffff160217905550808273ffffffffffffffffffffffffffffffffffffffff16611a4783610ec7565b73ffffffffffffffffffffffffffffffffffffffff167f8c5be1e5ebec7d5bd14f71427d1e84f3dd0314c0f7b2291e5b200ac8c7c3b92560405160405180910390a45050565b6000611a9882611960565b611ad7576040517f08c379a0000000000000000000000000000000000000000000000000000000008152600401611ace90613500565b60405180910390fd5b6000611ae283610ec7565b90508073ffffffffffffffffffffffffffffffffffffffff168473ffffffffffffffffffffffffffffffffffffffff161480611b5157508373ffffffffffffffffffffffffffffffffffffffff16611b39846108c2565b73ffffffffffffffffffffffffffffffffffffffff16145b80611b625750611b61818561165c565b5b91505092915050565b8273ffffffffffffffffffffffffffffffffffffffff16611b8b82610ec7565b73ffffffffffffffffffffffffffffffffffffffff1614611be1576040517f08c379a0000000000000000000000000000000000000000000000000000000008152600401611bd890613600565b60405180910390fd5b600073ffffffffffffffffffffffffffffffffffffffff168273ffffffffffffffffffffffffffffffffffffffff161415611c51576040517f08c379a0000000000000000000000000000000000000000000000000000000008152600401611c48906134c0565b60405180910390fd5b611c5c83838361245f565b611c676000826119d4565b6001600360008573ffffffffffffffffffffffffffffffffffffffff1673ffffffffffffffffffffffffffffffffffffffff1681526020019081526020016000206000828254611cb79190613861565b925050819055506001600360008473ffffffffffffffffffffffffffffffffffffffff1673ffffffffffffffffffffffffffffffffffffffff1681526020019081526020016000206000828254611d0e91906137da565b92505081905550816002600083815260200190815260200160002060006101000a81548173ffffffffffffffffffffffffffffffffffffffff021916908373ffffffffffffffffffffffffffffffffffffffff160217905550808273ffffffffffffffffffffffffffffffffffffffff168473ffffffffffffffffffffffffffffffffffffffff167fddf252ad1be2c89b69c2b068fc378daa952ba7f163c4a11628f55a4df523b3ef60405160405180910390a4505050565b6000600a60019054906101000a900473ffffffffffffffffffffffffffffffffffffffff16905081600a60016101000a81548173ffffffffffffffffffffffffffffffffffffffff021916908373ffffffffffffffffffffffffffffffffffffffff1602179055508173ffffffffffffffffffffffffffffffffffffffff168173ffffffffffffffffffffffffffffffffffffffff167f8be0079c531659141344cd1fd0a4f28419497f9722a3daafe3b4186f6b6457e060405160405180910390a35050565b600081600001549050919050565b600073ffffffffffffffffffffffffffffffffffffffff168273ffffffffffffffffffffffffffffffffffffffff161415611f0b576040517f08c379a0000000000000000000000000000000000000000000000000000000008152600401611f0290613580565b60405180910390fd5b611f1481611960565b15611f54576040517f08c379a0000000000000000000000000000000000000000000000000000000008152600401611f4b90613480565b60405180910390fd5b611f606000838361245f565b6001600360008473ffffffffffffffffffffffffffffffffffffffff1673ffffffffffffffffffffffffffffffffffffffff1681526020019081526020016000206000828254611fb091906137da565b92505081905550816002600083815260200190815260200160002060006101000a81548173ffffffffffffffffffffffffffffffffffffffff021916908373ffffffffffffffffffffffffffffffffffffffff160217905550808273ffffffffffffffffffffffffffffffffffffffff16600073ffffffffffffffffffffffffffffffffffffffff167fddf252ad1be2c89b69c2b068fc378daa952ba7f163c4a11628f55a4df523b3ef60405160405180910390a45050565b6001816000016000828254019250508190555050565b8173ffffffffffffffffffffffffffffffffffffffff168373ffffffffffffffffffffffffffffffffffffffff1614156120ee576040517f08c379a00000000000000000000000000000000000000000000000000000000081526004016120e5906134e0565b60405180910390fd5b80600560008573ffffffffffffffffffffffffffffffffffffffff1673ffffffffffffffffffffffffffffffffffffffff16815260200190815260200160002060008473ffffffffffffffffffffffffffffffffffffffff1673ffffffffffffffffffffffffffffffffffffffff16815260200190815260200160002060006101000a81548160ff0219169083151502179055508173ffffffffffffffffffffffffffffffffffffffff168373ffffffffffffffffffffffffffffffffffffffff167f17307eab39ab6107e8899845ad3d59bd9653f200f220920489ca2b5937696c31836040516121df91906133e3565b60405180910390a3505050565b6121f7848484611b6b565b61220384848484612573565b612242576040517f08c379a000000000000000000000000000000000000000000000000000000000815260040161223990613440565b60405180910390fd5b50505050565b60606000821415612290576040518060400160405280600181526020017f300000000000000000000000000000000000000000000000000000000000000081525090506123f0565b600082905060005b600082146122c25780806122ab906139ae565b915050600a826122bb9190613830565b9150612298565b60008167ffffffffffffffff811115612304577f4e487b7100000000000000000000000000000000000000000000000000000000600052604160045260246000fd5b6040519080825280601f01601f1916602001820160405280156123365781602001600182028036833780820191505090505b5090505b600085146123e95760018261234f9190613861565b9150600a8561235e91906139f7565b603061236a91906137da565b60f81b8183815181106123a6577f4e487b7100000000000000000000000000000000000000000000000000000000600052603260045260246000fd5b60200101907effffffffffffffffffffffffffffffffffffffffffffffffffffffffffffff1916908160001a905350600a856123e29190613830565b945061233a565b8093505050505b919050565b60007f01ffc9a7000000000000000000000000000000000000000000000000000000007bffffffffffffffffffffffffffffffffffffffffffffffffffffffff1916827bffffffffffffffffffffffffffffffffffffffffffffffffffffffff1916149050919050565b61246a83838361270a565b600073ffffffffffffffffffffffffffffffffffffffff168373ffffffffffffffffffffffffffffffffffffffff1614156124ad576124a88161270f565b6124ec565b8173ffffffffffffffffffffffffffffffffffffffff168373ffffffffffffffffffffffffffffffffffffffff16146124eb576124ea8382612758565b5b5b600073ffffffffffffffffffffffffffffffffffffffff168273ffffffffffffffffffffffffffffffffffffffff16141561252f5761252a816128c5565b61256e565b8273ffffffffffffffffffffffffffffffffffffffff168273ffffffffffffffffffffffffffffffffffffffff161461256d5761256c8282612a08565b5b5b505050565b60006125948473ffffffffffffffffffffffffffffffffffffffff16612a87565b156126fd578373ffffffffffffffffffffffffffffffffffffffff1663150b7a026125bd6119cc565b8786866040518563ffffffff1660e01b81526004016125df9493929190613397565b602060405180830381600087803b1580156125f957600080fd5b505af192505050801561262a57506040513d601f19601f820116820180604052508101906126279190612e46565b60015b6126ad573d806000811461265a576040519150601f19603f3d011682016040523d82523d6000602084013e61265f565b606091505b506000815114156126a5576040517f08c379a000000000000000000000000000000000000000000000000000000000815260040161269c90613440565b60405180910390fd5b805181602001fd5b63150b7a0260e01b7bffffffffffffffffffffffffffffffffffffffffffffffffffffffff1916817bffffffffffffffffffffffffffffffffffffffffffffffffffffffff191614915050612702565b600190505b949350505050565b505050565b6008805490506009600083815260200190815260200160002081905550600881908060018154018082558091505060019003906000526020600020016000909190919091505550565b6000600161276584611007565b61276f9190613861565b9050600060076000848152602001908152602001600020549050818114612854576000600660008673ffffffffffffffffffffffffffffffffffffffff1673ffffffffffffffffffffffffffffffffffffffff168152602001908152602001600020600084815260200190815260200160002054905080600660008773ffffffffffffffffffffffffffffffffffffffff1673ffffffffffffffffffffffffffffffffffffffff168152602001908152602001600020600084815260200190815260200160002081905550816007600083815260200190815260200160002081905550505b6007600084815260200190815260200160002060009055600660008573ffffffffffffffffffffffffffffffffffffffff1673ffffffffffffffffffffffffffffffffffffffff16815260200190815260200160002060008381526020019081526020016000206000905550505050565b600060016008805490506128d99190613861565b905060006009600084815260200190815260200160002054905060006008838154811061292f577f4e487b7100000000000000000000000000000000000000000000000000000000600052603260045260246000fd5b906000526020600020015490508060088381548110612977577f4e487b7100000000000000000000000000000000000000000000000000000000600052603260045260246000fd5b9060005260206000200181905550816009600083815260200190815260200160002081905550600960008581526020019081526020016000206000905560088054806129ec577f4e487b7100000000000000000000000000000000000000000000000000000000600052603160045260246000fd5b6001900381819060005260206000200160009055905550505050565b6000612a1383611007565b905081600660008573ffffffffffffffffffffffffffffffffffffffff1673ffffffffffffffffffffffffffffffffffffffff168152602001908152602001600020600083815260200190815260200160002081905550806007600084815260200190815260200160002081905550505050565b600080823b905060008111915050919050565b828054612aa69061394b565b90600052602060002090601f016020900481019282612ac85760008555612b0f565b82601f10612ae157805160ff1916838001178555612b0f565b82800160010185558215612b0f579182015b82811115612b0e578251825591602001919060010190612af3565b5b509050612b1c9190612b20565b5090565b5b80821115612b39576000816000905550600101612b21565b5090565b6000612b50612b4b84613720565b6136fb565b905082815260208101848484011115612b6857600080fd5b612b73848285613909565b509392505050565b6000612b8e612b8984613751565b6136fb565b905082815260208101848484011115612ba657600080fd5b612bb1848285613909565b509392505050565b600081359050612bc8816140b8565b92915050565b600081359050612bdd816140cf565b92915050565b600081359050612bf2816140e6565b92915050565b600081519050612c07816140e6565b92915050565b600082601f830112612c1e57600080fd5b8135612c2e848260208601612b3d565b91505092915050565b600082601f830112612c4857600080fd5b8135612c58848260208601612b7b565b91505092915050565b600081359050612c70816140fd565b92915050565b600060208284031215612c8857600080fd5b6000612c9684828501612bb9565b91505092915050565b60008060408385031215612cb257600080fd5b6000612cc085828601612bb9565b9250506020612cd185828601612bb9565b9150509250929050565b600080600060608486031215612cf057600080fd5b6000612cfe86828701612bb9565b9350506020612d0f86828701612bb9565b9250506040612d2086828701612c61565b9150509250925092565b60008060008060808587031215612d4057600080fd5b6000612d4e87828801612bb9565b9450506020612d5f87828801612bb9565b9350506040612d7087828801612c61565b925050606085013567ffffffffffffffff811115612d8d57600080fd5b612d9987828801612c0d565b91505092959194509250565b60008060408385031215612db857600080fd5b6000612dc685828601612bb9565b9250506020612dd785828601612bce565b9150509250929050565b60008060408385031215612df457600080fd5b6000612e0285828601612bb9565b9250506020612e1385828601612c61565b9150509250929050565b600060208284031215612e2f57600080fd5b6000612e3d84828501612be3565b91505092915050565b600060208284031215612e5857600080fd5b6000612e6684828501612bf8565b91505092915050565b600060208284031215612e8157600080fd5b600082013567ffffffffffffffff811115612e9b57600080fd5b612ea784828501612c37565b91505092915050565b600060208284031215612ec257600080fd5b6000612ed084828501612c61565b91505092915050565b612ee281613895565b82525050565b612ef1816138a7565b82525050565b6000612f0282613797565b612f0c81856137ad565b9350612f1c818560208601613918565b612f2581613ae4565b840191505092915050565b6000612f3b826137a2565b612f4581856137be565b9350612f55818560208601613918565b612f5e81613ae4565b840191505092915050565b6000612f74826137a2565b612f7e81856137cf565b9350612f8e818560208601613918565b80840191505092915050565b60008154612fa78161394b565b612fb181866137cf565b94506001821660008114612fcc5760018114612fdd57613010565b60ff19831686528186019350613010565b612fe685613782565b60005b8381101561300857815481890152600182019150602081019050612fe9565b838801955050505b50505092915050565b6000613026602b836137be565b915061303182613af5565b604082019050919050565b60006130496032836137be565b915061305482613b44565b604082019050919050565b600061306c6026836137be565b915061307782613b93565b604082019050919050565b600061308f601c836137be565b915061309a82613be2565b602082019050919050565b60006130b26012836137be565b91506130bd82613c0b565b602082019050919050565b60006130d56024836137be565b91506130e082613c34565b604082019050919050565b60006130f86019836137be565b915061310382613c83565b602082019050919050565b600061311b602c836137be565b915061312682613cac565b604082019050919050565b600061313e6038836137be565b915061314982613cfb565b604082019050919050565b6000613161602a836137be565b915061316c82613d4a565b604082019050919050565b60006131846029836137be565b915061318f82613d99565b604082019050919050565b60006131a76020836137be565b91506131b282613de8565b602082019050919050565b60006131ca602c836137be565b91506131d582613e11565b604082019050919050565b60006131ed6005836137cf565b91506131f882613e60565b600582019050919050565b60006132106010836137be565b915061321b82613e89565b602082019050919050565b60006132336020836137be565b915061323e82613eb2565b602082019050919050565b60006132566029836137be565b915061326182613edb565b604082019050919050565b6000613279602f836137be565b915061328482613f2a565b604082019050919050565b600061329c6010836137be565b91506132a782613f79565b602082019050919050565b60006132bf6021836137be565b91506132ca82613fa2565b604082019050919050565b60006132e26012836137be565b91506132ed82613ff1565b602082019050919050565b60006133056031836137be565b91506133108261401a565b604082019050919050565b6000613328602c836137be565b915061333382614069565b604082019050919050565b613347816138ff565b82525050565b60006133598285612f9a565b91506133658284612f69565b9150613370826131e0565b91508190509392505050565b60006020820190506133916000830184612ed9565b92915050565b60006080820190506133ac6000830187612ed9565b6133b96020830186612ed9565b6133c6604083018561333e565b81810360608301526133d88184612ef7565b905095945050505050565b60006020820190506133f86000830184612ee8565b92915050565b600060208201905081810360008301526134188184612f30565b905092915050565b6000602082019050818103600083015261343981613019565b9050919050565b600060208201905081810360008301526134598161303c565b9050919050565b600060208201905081810360008301526134798161305f565b9050919050565b6000602082019050818103600083015261349981613082565b9050919050565b600060208201905081810360008301526134b9816130a5565b9050919050565b600060208201905081810360008301526134d9816130c8565b9050919050565b600060208201905081810360008301526134f9816130eb565b9050919050565b600060208201905081810360008301526135198161310e565b9050919050565b6000602082019050818103600083015261353981613131565b9050919050565b6000602082019050818103600083015261355981613154565b9050919050565b6000602082019050818103600083015261357981613177565b9050919050565b600060208201905081810360008301526135998161319a565b9050919050565b600060208201905081810360008301526135b9816131bd565b9050919050565b600060208201905081810360008301526135d981613203565b9050919050565b600060208201905081810360008301526135f981613226565b9050919050565b6000602082019050818103600083015261361981613249565b9050919050565b600060208201905081810360008301526136398161326c565b9050919050565b600060208201905081810360008301526136598161328f565b9050919050565b60006020820190508181036000830152613679816132b2565b9050919050565b60006020820190508181036000830152613699816132d5565b9050919050565b600060208201905081810360008301526136b9816132f8565b9050919050565b600060208201905081810360008301526136d98161331b565b9050919050565b60006020820190506136f5600083018461333e565b92915050565b6000613705613716565b9050613711828261397d565b919050565b6000604051905090565b600067ffffffffffffffff82111561373b5761373a613ab5565b5b61374482613ae4565b9050602081019050919050565b600067ffffffffffffffff82111561376c5761376b613ab5565b5b61377582613ae4565b9050602081019050919050565b60008190508160005260206000209050919050565b600081519050919050565b600081519050919050565b600082825260208201905092915050565b600082825260208201905092915050565b600081905092915050565b60006137e5826138ff565b91506137f0836138ff565b9250827fffffffffffffffffffffffffffffffffffffffffffffffffffffffffffffffff0382111561382557613824613a28565b5b828201905092915050565b600061383b826138ff565b9150613846836138ff565b92508261385657613855613a57565b5b828204905092915050565b600061386c826138ff565b9150613877836138ff565b92508282101561388a57613889613a28565b5b828203905092915050565b60006138a0826138df565b9050919050565b60008115159050919050565b60007fffffffff0000000000000000000000000000000000000000000000000000000082169050919050565b600073ffffffffffffffffffffffffffffffffffffffff82169050919050565b6000819050919050565b82818337600083830152505050565b60005b8381101561393657808201518184015260208101905061391b565b83811115613945576000848401525b50505050565b6000600282049050600182168061396357607f821691505b6020821081141561397757613976613a86565b5b50919050565b61398682613ae4565b810181811067ffffffffffffffff821117156139a5576139a4613ab5565b5b80604052505050565b60006139b9826138ff565b91507fffffffffffffffffffffffffffffffffffffffffffffffffffffffffffffffff8214156139ec576139eb613a28565b5b600182019050919050565b6000613a02826138ff565b9150613a0d836138ff565b925082613a1d57613a1c613a57565b5b828206905092915050565b7f4e487b7100000000000000000000000000000000000000000000000000000000600052601160045260246000fd5b7f4e487b7100000000000000000000000000000000000000000000000000000000600052601260045260246000fd5b7f4e487b7100000000000000000000000000000000000000000000000000000000600052602260045260246000fd5b7f4e487b7100000000000000000000000000000000000000000000000000000000600052604160045260246000fd5b6000601f19601f8301169050919050565b7f455243373231456e756d657261626c653a206f776e657220696e646578206f7560008201527f74206f6620626f756e6473000000000000000000000000000000000000000000602082015250565b7f4552433732313a207472616e7366657220746f206e6f6e20455243373231526560008201527f63656976657220696d706c656d656e7465720000000000000000000000000000602082015250565b7f4f776e61626c653a206e6577206f776e657220697320746865207a65726f206160008201527f6464726573730000000000000000000000000000000000000000000000000000602082015250565b7f4552433732313a20746f6b656e20616c7265616479206d696e74656400000000600082015250565b7f636f6e7472616374206973207061757365640000000000000000000000000000600082015250565b7f4552433732313a207472616e7366657220746f20746865207a65726f2061646460008201527f7265737300000000000000000000000000000000000000000000000000000000602082015250565b7f4552433732313a20617070726f766520746f2063616c6c657200000000000000600082015250565b7f4552433732313a206f70657261746f7220717565727920666f72206e6f6e657860008201527f697374656e7420746f6b656e0000000000000000000000000000000000000000602082015250565b7f4552433732313a20617070726f76652063616c6c6572206973206e6f74206f7760008201527f6e6572206e6f7220617070726f76656420666f7220616c6c0000000000000000602082015250565b7f4552433732313a2062616c616e636520717565727920666f7220746865207a6560008201527f726f206164647265737300000000000000000000000000000000000000000000602082015250565b7f4552433732313a206f776e657220717565727920666f72206e6f6e657869737460008201527f656e7420746f6b656e0000000000000000000000000000000000000000000000602082015250565b7f4552433732313a206d696e7420746f20746865207a65726f2061646472657373600082015250565b7f4552433732313a20617070726f76656420717565727920666f72206e6f6e657860008201527f697374656e7420746f6b656e0000000000000000000000000000000000000000602082015250565b7f2e6a736f6e000000000000000000000000000000000000000000000000000000600082015250565b7f6d696e74696e6720746f6f206d616e7900000000000000000000000000000000600082015250565b7f4f776e61626c653a2063616c6c6572206973206e6f7420746865206f776e6572600082015250565b7f4552433732313a207472616e73666572206f6620746f6b656e2074686174206960008201527f73206e6f74206f776e0000000000000000000000000000000000000000000000602082015250565b7f4552433732314d657461646174613a2055524920717565727920666f72206e6f60008201527f6e6578697374656e7420746f6b656e0000000000000000000000000000000000602082015250565b7f6e6f20656e6f75676820737570706c7900000000000000000000000000000000600082015250565b7f4552433732313a20617070726f76616c20746f2063757272656e74206f776e6560008201527f7200000000000000000000000000000000000000000000000000000000000000602082015250565b7f696e73756666696369656e742066756e64730000000000000000000000000000600082015250565b7f4552433732313a207472616e736665722063616c6c6572206973206e6f74206f60008201527f776e6572206e6f7220617070726f766564000000000000000000000000000000602082015250565b7f455243373231456e756d657261626c653a20676c6f62616c20696e646578206f60008201527f7574206f6620626f756e64730000000000000000000000000000000000000000602082015250565b6140c181613895565b81146140cc57600080fd5b50565b6140d8816138a7565b81146140e357600080fd5b50565b6140ef816138b3565b81146140fa57600080fd5b50565b614106816138ff565b811461411157600080fd5b5056fea26469706673582212205a44220c94cd6fb3e432b5fb58f88b733372159ef06148d24ea6a1fee16af79564736f6c63430008040033",
  "linkReferences": {},
  "deployedLinkReferences": {}
}