{
  "_format": "hh-sol-artifact-1",
  "contractName": "ConcaveNFT",
  "sourceName": "contracts/Concave.sol",
  "abi": [
    {
      "inputs": [
        {
          "internalType": "string",
          "name": "_name",
          "type": "string"
        },
        {
          "internalType": "string",
          "name": "_symbol",
          "type": "string"
        },
        {
          "internalType": "string",
          "name": "_initBaseURI",
          "type": "string"
        },
        {
          "internalType": "string",
          "name": "_initNotRevealedUri",
          "type": "string"
        }
      ],
      "stateMutability": "nonpayable",
      "type": "constructor"
    },
    {
      "anonymous": false,
      "inputs": [
        {
          "indexed": true,
          "internalType": "address",
          "name": "owner",
          "type": "address"
        },
        {
          "indexed": true,
          "internalType": "address",
          "name": "approved",
          "type": "address"
        },
        {
          "indexed": true,
          "internalType": "uint256",
          "name": "tokenId",
          "type": "uint256"
        }
      ],
      "name": "Approval",
      "type": "event"
    },
    {
      "anonymous": false,
      "inputs": [
        {
          "indexed": true,
          "internalType": "address",
          "name": "owner",
          "type": "address"
        },
        {
          "indexed": true,
          "internalType": "address",
          "name": "operator",
          "type": "address"
        },
        {
          "indexed": false,
          "internalType": "bool",
          "name": "approved",
          "type": "bool"
        }
      ],
      "name": "ApprovalForAll",
      "type": "event"
    },
    {
      "anonymous": false,
      "inputs": [
        {
          "indexed": true,
          "internalType": "address",
          "name": "previousOwner",
          "type": "address"
        },
        {
          "indexed": true,
          "internalType": "address",
          "name": "newOwner",
          "type": "address"
        }
      ],
      "name": "OwnershipTransferred",
      "type": "event"
    },
    {
      "anonymous": false,
      "inputs": [
        {
          "indexed": false,
          "internalType": "address",
          "name": "account",
          "type": "address"
        }
      ],
      "name": "Paused",
      "type": "event"
    },
    {
      "anonymous": false,
      "inputs": [
        {
          "indexed": true,
          "internalType": "address",
          "name": "from",
          "type": "address"
        },
        {
          "indexed": true,
          "internalType": "address",
          "name": "to",
          "type": "address"
        },
        {
          "indexed": true,
          "internalType": "uint256",
          "name": "tokenId",
          "type": "uint256"
        }
      ],
      "name": "Transfer",
      "type": "event"
    },
    {
      "anonymous": false,
      "inputs": [
        {
          "indexed": false,
          "internalType": "address",
          "name": "account",
          "type": "address"
        }
      ],
      "name": "Unpaused",
      "type": "event"
    },
    {
      "inputs": [],
      "name": "THE_COLORS",
      "outputs": [
        {
          "internalType": "address",
          "name": "",
          "type": "address"
        }
      ],
      "stateMutability": "view",
      "type": "function"
    },
    {
      "inputs": [
        {
          "internalType": "address",
          "name": "to",
          "type": "address"
        },
        {
          "internalType": "uint256",
          "name": "tokenId",
          "type": "uint256"
        }
      ],
      "name": "approve",
      "outputs": [],
      "stateMutability": "nonpayable",
      "type": "function"
    },
    {
      "inputs": [
        {
          "internalType": "address",
          "name": "owner",
          "type": "address"
        }
      ],
      "name": "balanceOf",
      "outputs": [
        {
          "internalType": "uint256",
          "name": "",
          "type": "uint256"
        }
      ],
      "stateMutability": "view",
      "type": "function"
    },
    {
      "inputs": [],
      "name": "baseURI",
      "outputs": [
        {
          "internalType": "string",
          "name": "",
          "type": "string"
        }
      ],
      "stateMutability": "view",
      "type": "function"
    },
    {
      "inputs": [
        {
          "internalType": "uint256",
          "name": "tokenId",
          "type": "uint256"
        }
      ],
      "name": "getApproved",
      "outputs": [
        {
          "internalType": "address",
          "name": "",
          "type": "address"
        }
      ],
      "stateMutability": "view",
      "type": "function"
    },
    {
      "inputs": [
        {
          "internalType": "address",
          "name": "",
          "type": "address"
        }
      ],
      "name": "hasMinted",
      "outputs": [
        {
          "internalType": "uint256",
          "name": "",
          "type": "uint256"
        }
      ],
      "stateMutability": "view",
      "type": "function"
    },
    {
      "inputs": [
        {
          "internalType": "address",
          "name": "owner",
          "type": "address"
        },
        {
          "internalType": "address",
          "name": "operator",
          "type": "address"
        }
      ],
      "name": "isApprovedForAll",
      "outputs": [
        {
          "internalType": "bool",
          "name": "",
          "type": "bool"
        }
      ],
      "stateMutability": "view",
      "type": "function"
    },
    {
      "inputs": [],
      "name": "maxMintAmount",
      "outputs": [
        {
          "internalType": "uint256",
          "name": "",
          "type": "uint256"
        }
      ],
      "stateMutability": "view",
      "type": "function"
    },
    {
      "inputs": [],
      "name": "maxSupply",
      "outputs": [
        {
          "internalType": "uint256",
          "name": "",
          "type": "uint256"
        }
      ],
      "stateMutability": "view",
      "type": "function"
    },
    {
      "inputs": [
        {
          "internalType": "uint256",
          "name": "_mintAmount",
          "type": "uint256"
        }
      ],
      "name": "mint",
      "outputs": [
        {
          "internalType": "uint256",
          "name": "",
          "type": "uint256"
        }
      ],
      "stateMutability": "payable",
      "type": "function"
    },
    {
      "inputs": [],
      "name": "name",
      "outputs": [
        {
          "internalType": "string",
          "name": "",
          "type": "string"
        }
      ],
      "stateMutability": "view",
      "type": "function"
    },
    {
      "inputs": [],
      "name": "notRevealedUri",
      "outputs": [
        {
          "internalType": "string",
          "name": "",
          "type": "string"
        }
      ],
      "stateMutability": "view",
      "type": "function"
    },
    {
      "inputs": [],
      "name": "owner",
      "outputs": [
        {
          "internalType": "address",
          "name": "",
          "type": "address"
        }
      ],
      "stateMutability": "view",
      "type": "function"
    },
    {
      "inputs": [
        {
          "internalType": "uint256",
          "name": "tokenId",
          "type": "uint256"
        }
      ],
      "name": "ownerOf",
      "outputs": [
        {
          "internalType": "address",
          "name": "",
          "type": "address"
        }
      ],
      "stateMutability": "view",
      "type": "function"
    },
    {
      "inputs": [],
      "name": "pause",
      "outputs": [],
      "stateMutability": "nonpayable",
      "type": "function"
    },
    {
      "inputs": [],
      "name": "paused",
      "outputs": [
        {
          "internalType": "bool",
          "name": "",
          "type": "bool"
        }
      ],
      "stateMutability": "view",
      "type": "function"
    },
    {
      "inputs": [],
      "name": "price",
      "outputs": [
        {
          "internalType": "uint256",
          "name": "",
          "type": "uint256"
        }
      ],
      "stateMutability": "view",
      "type": "function"
    },
    {
      "inputs": [],
      "name": "renounceOwnership",
      "outputs": [],
      "stateMutability": "nonpayable",
      "type": "function"
    },
    {
      "inputs": [],
      "name": "reveal",
      "outputs": [],
      "stateMutability": "nonpayable",
      "type": "function"
    },
    {
      "inputs": [],
      "name": "revealed",
      "outputs": [
        {
          "internalType": "bool",
          "name": "",
          "type": "bool"
        }
      ],
      "stateMutability": "view",
      "type": "function"
    },
    {
      "inputs": [
        {
          "internalType": "address",
          "name": "from",
          "type": "address"
        },
        {
          "internalType": "address",
          "name": "to",
          "type": "address"
        },
        {
          "internalType": "uint256",
          "name": "tokenId",
          "type": "uint256"
        }
      ],
      "name": "safeTransferFrom",
      "outputs": [],
      "stateMutability": "nonpayable",
      "type": "function"
    },
    {
      "inputs": [
        {
          "internalType": "address",
          "name": "from",
          "type": "address"
        },
        {
          "internalType": "address",
          "name": "to",
          "type": "address"
        },
        {
          "internalType": "uint256",
          "name": "tokenId",
          "type": "uint256"
        },
        {
          "internalType": "bytes",
          "name": "_data",
          "type": "bytes"
        }
      ],
      "name": "safeTransferFrom",
      "outputs": [],
      "stateMutability": "nonpayable",
      "type": "function"
    },
    {
      "inputs": [
        {
          "internalType": "address",
          "name": "operator",
          "type": "address"
        },
        {
          "internalType": "bool",
          "name": "approved",
          "type": "bool"
        }
      ],
      "name": "setApprovalForAll",
      "outputs": [],
      "stateMutability": "nonpayable",
      "type": "function"
    },
    {
      "inputs": [
        {
          "internalType": "string",
          "name": "_newBaseURI",
          "type": "string"
        }
      ],
      "name": "setBaseURI",
      "outputs": [],
      "stateMutability": "nonpayable",
      "type": "function"
    },
    {
      "inputs": [
        {
          "internalType": "uint256",
          "name": "_newmaxMintAmount",
          "type": "uint256"
        }
      ],
      "name": "setMaxMintAmount",
      "outputs": [],
      "stateMutability": "nonpayable",
      "type": "function"
    },
    {
      "inputs": [
        {
          "internalType": "string",
          "name": "_notRevealedURI",
          "type": "string"
        }
      ],
      "name": "setNotRevealedURI",
      "outputs": [],
      "stateMutability": "nonpayable",
      "type": "function"
    },
    {
      "inputs": [
        {
          "internalType": "uint256",
          "name": "_price",
          "type": "uint256"
        }
      ],
      "name": "setPrice",
      "outputs": [],
      "stateMutability": "nonpayable",
      "type": "function"
    },
    {
      "inputs": [
        {
          "internalType": "bytes4",
          "name": "interfaceId",
          "type": "bytes4"
        }
      ],
      "name": "supportsInterface",
      "outputs": [
        {
          "internalType": "bool",
          "name": "",
          "type": "bool"
        }
      ],
      "stateMutability": "view",
      "type": "function"
    },
    {
      "inputs": [],
      "name": "symbol",
      "outputs": [
        {
          "internalType": "string",
          "name": "",
          "type": "string"
        }
      ],
      "stateMutability": "view",
      "type": "function"
    },
    {
      "inputs": [
        {
          "internalType": "uint256",
          "name": "index",
          "type": "uint256"
        }
      ],
      "name": "tokenByIndex",
      "outputs": [
        {
          "internalType": "uint256",
          "name": "",
          "type": "uint256"
        }
      ],
      "stateMutability": "view",
      "type": "function"
    },
    {
      "inputs": [
        {
          "internalType": "address",
          "name": "owner",
          "type": "address"
        },
        {
          "internalType": "uint256",
          "name": "index",
          "type": "uint256"
        }
      ],
      "name": "tokenOfOwnerByIndex",
      "outputs": [
        {
          "internalType": "uint256",
          "name": "",
          "type": "uint256"
        }
      ],
      "stateMutability": "view",
      "type": "function"
    },
    {
      "inputs": [
        {
          "internalType": "uint256",
          "name": "tokenId",
          "type": "uint256"
        }
      ],
      "name": "tokenURI",
      "outputs": [
        {
          "internalType": "string",
          "name": "",
          "type": "string"
        }
      ],
      "stateMutability": "view",
      "type": "function"
    },
    {
      "inputs": [],
      "name": "totalSupply",
      "outputs": [
        {
          "internalType": "uint256",
          "name": "",
          "type": "uint256"
        }
      ],
      "stateMutability": "view",
      "type": "function"
    },
    {
      "inputs": [
        {
          "internalType": "address",
          "name": "from",
          "type": "address"
        },
        {
          "internalType": "address",
          "name": "to",
          "type": "address"
        },
        {
          "internalType": "uint256",
          "name": "tokenId",
          "type": "uint256"
        }
      ],
      "name": "transferFrom",
      "outputs": [],
      "stateMutability": "nonpayable",
      "type": "function"
    },
    {
      "inputs": [
        {
          "internalType": "address",
          "name": "newOwner",
          "type": "address"
        }
      ],
      "name": "transferOwnership",
      "outputs": [],
      "stateMutability": "nonpayable",
      "type": "function"
    },
    {
      "inputs": [],
      "name": "unpause",
      "outputs": [],
      "stateMutability": "nonpayable",
      "type": "function"
    },
    {
      "inputs": [],
      "name": "withdraw",
      "outputs": [],
      "stateMutability": "payable",
      "type": "function"
    }
  ],
  "bytecode": "0x60806040526110dd600e55600a600f55666a94d74f4300006010556000601160006101000a81548160ff02191690831515021790555060c86012553480156200004757600080fd5b506040516200512c3803806200512c83398181016040528101906200006d9190620003e9565b8383816000908051906020019062000087929190620002c7565b508060019080519060200190620000a0929190620002c7565b5050506000600a60006101000a81548160ff021916908315150217905550620000de620000d26200012a60201b60201c565b6200013260201b60201c565b81600c9080519060200190620000f6929190620002c7565b5080600d90805190602001906200010f929190620002c7565b5062000120620001f860201b60201c565b505050506200070e565b600033905090565b6000600a60019054906101000a900473ffffffffffffffffffffffffffffffffffffffff16905081600a60016101000a81548173ffffffffffffffffffffffffffffffffffffffff021916908373ffffffffffffffffffffffffffffffffffffffff1602179055508173ffffffffffffffffffffffffffffffffffffffff168173ffffffffffffffffffffffffffffffffffffffff167f8be0079c531659141344cd1fd0a4f28419497f9722a3daafe3b4186f6b6457e060405160405180910390a35050565b62000208620002b060201b60201c565b156200024b576040517f08c379a000000000000000000000000000000000000000000000000000000000815260040162000242906200050e565b60405180910390fd5b6001600a60006101000a81548160ff0219169083151502179055507f62e78cea01bee320cd4e420270b5ea74000d11b0c9f74754ebdbfc544b05a258620002976200012a60201b60201c565b604051620002a69190620004f1565b60405180910390a1565b6000600a60009054906101000a900460ff16905090565b828054620002d5906200060a565b90600052602060002090601f016020900481019282620002f9576000855562000345565b82601f106200031457805160ff191683800117855562000345565b8280016001018555821562000345579182015b828111156200034457825182559160200191906001019062000327565b5b50905062000354919062000358565b5090565b5b808211156200037357600081600090555060010162000359565b5090565b60006200038e620003888462000559565b62000530565b905082815260208101848484011115620003a757600080fd5b620003b4848285620005d4565b509392505050565b600082601f830112620003ce57600080fd5b8151620003e084826020860162000377565b91505092915050565b600080600080608085870312156200040057600080fd5b600085015167ffffffffffffffff8111156200041b57600080fd5b6200042987828801620003bc565b945050602085015167ffffffffffffffff8111156200044757600080fd5b6200045587828801620003bc565b935050604085015167ffffffffffffffff8111156200047357600080fd5b6200048187828801620003bc565b925050606085015167ffffffffffffffff8111156200049f57600080fd5b620004ad87828801620003bc565b91505092959194509250565b620004c481620005a0565b82525050565b6000620004d96010836200058f565b9150620004e682620006e5565b602082019050919050565b6000602082019050620005086000830184620004b9565b92915050565b600060208201905081810360008301526200052981620004ca565b9050919050565b60006200053c6200054f565b90506200054a828262000640565b919050565b6000604051905090565b600067ffffffffffffffff821115620005775762000576620006a5565b5b6200058282620006d4565b9050602081019050919050565b600082825260208201905092915050565b6000620005ad82620005b4565b9050919050565b600073ffffffffffffffffffffffffffffffffffffffff82169050919050565b60005b83811015620005f4578082015181840152602081019050620005d7565b8381111562000604576000848401525b50505050565b600060028204905060018216806200062357607f821691505b602082108114156200063a576200063962000676565b5b50919050565b6200064b82620006d4565b810181811067ffffffffffffffff821117156200066d576200066c620006a5565b5b80604052505050565b7f4e487b7100000000000000000000000000000000000000000000000000000000600052602260045260246000fd5b7f4e487b7100000000000000000000000000000000000000000000000000000000600052604160045260246000fd5b6000601f19601f8301169050919050565b7f5061757361626c653a2070617573656400000000000000000000000000000000600082015250565b614a0e806200071e6000396000f3fe60806040526004361061021a5760003560e01c80636352211e11610123578063a0712d68116100ab578063c8f8b6131161006f578063c8f8b61314610793578063d5abeb01146107be578063e985e9c5146107e9578063f2c4ce1e14610826578063f2fde38b1461084f5761021a565b8063a0712d68146106bd578063a22cb465146106ed578063a475b5dd14610716578063b88d4fde1461072d578063c87b56dd146107565761021a565b80638456cb59116100f25780638456cb59146105fc5780638da5cb5b1461061357806391b7f5ed1461063e57806395d89b4114610667578063a035b1fe146106925761021a565b80636352211e146105405780636c0360eb1461057d57806370a08231146105a8578063715018a6146105e55761021a565b80632f745c59116101a657806342842e0e1161017557806342842e0e1461045b5780634f6ccce71461048457806351830227146104c157806355f804b3146104ec5780635c975abb146105155761021a565b80632f745c59146103c057806338e21cce146103fd5780633ccfd60b1461043a5780633f4ba83a146104445761021a565b8063088a4ed0116101ed578063088a4ed0146102ef578063095ea7b31461031857806318160ddd14610341578063239c70ae1461036c57806323b872dd146103975761021a565b806301ffc9a71461021f57806306fdde031461025c578063081812fc14610287578063081c8c44146102c4575b600080fd5b34801561022b57600080fd5b5061024660048036038101906102419190613442565b610878565b6040516102539190613ae0565b60405180910390f35b34801561026857600080fd5b506102716108f2565b60405161027e9190613afb565b60405180910390f35b34801561029357600080fd5b506102ae60048036038101906102a991906134d5565b610984565b6040516102bb9190613a79565b60405180910390f35b3480156102d057600080fd5b506102d9610a09565b6040516102e69190613afb565b60405180910390f35b3480156102fb57600080fd5b50610316600480360381019061031191906134d5565b610a97565b005b34801561032457600080fd5b5061033f600480360381019061033a9190613406565b610b1d565b005b34801561034d57600080fd5b50610356610c35565b6040516103639190613e7d565b60405180910390f35b34801561037857600080fd5b50610381610c42565b60405161038e9190613e7d565b60405180910390f35b3480156103a357600080fd5b506103be60048036038101906103b99190613300565b610c48565b005b3480156103cc57600080fd5b506103e760048036038101906103e29190613406565b610ca8565b6040516103f49190613e7d565b60405180910390f35b34801561040957600080fd5b50610424600480360381019061041f919061329b565b610d4d565b6040516104319190613e7d565b60405180910390f35b610442610d65565b005b34801561045057600080fd5b50610459610e2a565b005b34801561046757600080fd5b50610482600480360381019061047d9190613300565b610eb0565b005b34801561049057600080fd5b506104ab60048036038101906104a691906134d5565b610ed0565b6040516104b89190613e7d565b60405180910390f35b3480156104cd57600080fd5b506104d6610f67565b6040516104e39190613ae0565b60405180910390f35b3480156104f857600080fd5b50610513600480360381019061050e9190613494565b610f7a565b005b34801561052157600080fd5b5061052a611010565b6040516105379190613ae0565b60405180910390f35b34801561054c57600080fd5b50610567600480360381019061056291906134d5565b611027565b6040516105749190613a79565b60405180910390f35b34801561058957600080fd5b506105926110d9565b60405161059f9190613afb565b60405180910390f35b3480156105b457600080fd5b506105cf60048036038101906105ca919061329b565b611167565b6040516105dc9190613e7d565b60405180910390f35b3480156105f157600080fd5b506105fa61121f565b005b34801561060857600080fd5b506106116112a7565b005b34801561061f57600080fd5b5061062861132d565b6040516106359190613a79565b60405180910390f35b34801561064a57600080fd5b50610665600480360381019061066091906134d5565b611357565b005b34801561067357600080fd5b5061067c6113dd565b6040516106899190613afb565b60405180910390f35b34801561069e57600080fd5b506106a761146f565b6040516106b49190613e7d565b60405180910390f35b6106d760048036038101906106d291906134d5565b611475565b6040516106e49190613e7d565b60405180910390f35b3480156106f957600080fd5b50610714600480360381019061070f91906133ca565b6118a9565b005b34801561072257600080fd5b5061072b6118bf565b005b34801561073957600080fd5b50610754600480360381019061074f919061334f565b611958565b005b34801561076257600080fd5b5061077d600480360381019061077891906134d5565b6119ba565b60405161078a9190613afb565b60405180910390f35b34801561079f57600080fd5b506107a8611b09565b6040516107b59190613a79565b60405180910390f35b3480156107ca57600080fd5b506107d3611b21565b6040516107e09190613e7d565b60405180910390f35b3480156107f557600080fd5b50610810600480360381019061080b91906132c4565b611b27565b60405161081d9190613ae0565b60405180910390f35b34801561083257600080fd5b5061084d60048036038101906108489190613494565b611bbb565b005b34801561085b57600080fd5b506108766004803603810190610871919061329b565b611c51565b005b60007f780e9d63000000000000000000000000000000000000000000000000000000007bffffffffffffffffffffffffffffffffffffffffffffffffffffffff1916827bffffffffffffffffffffffffffffffffffffffffffffffffffffffff191614806108eb57506108ea82611d49565b5b9050919050565b60606000805461090190614142565b80601f016020809104026020016040519081016040528092919081815260200182805461092d90614142565b801561097a5780601f1061094f5761010080835404028352916020019161097a565b820191906000526020600020905b81548152906001019060200180831161095d57829003601f168201915b5050505050905090565b600061098f82611e2b565b6109ce576040517f08c379a00000000000000000000000000000000000000000000000000000000081526004016109c590613cfd565b60405180910390fd5b6004600083815260200190815260200160002060009054906101000a900473ffffffffffffffffffffffffffffffffffffffff169050919050565b600d8054610a1690614142565b80601f0160208091040260200160405190810160405280929190818152602001828054610a4290614142565b8015610a8f5780601f10610a6457610100808354040283529160200191610a8f565b820191906000526020600020905b815481529060010190602001808311610a7257829003601f168201915b505050505081565b610a9f611e97565b73ffffffffffffffffffffffffffffffffffffffff16610abd61132d565b73ffffffffffffffffffffffffffffffffffffffff1614610b13576040517f08c379a0000000000000000000000000000000000000000000000000000000008152600401610b0a90613d3d565b60405180910390fd5b80600f8190555050565b6000610b2882611027565b90508073ffffffffffffffffffffffffffffffffffffffff168373ffffffffffffffffffffffffffffffffffffffff161415610b99576040517f08c379a0000000000000000000000000000000000000000000000000000000008152600401610b9090613dbd565b60405180910390fd5b8073ffffffffffffffffffffffffffffffffffffffff16610bb8611e97565b73ffffffffffffffffffffffffffffffffffffffff161480610be75750610be681610be1611e97565b611b27565b5b610c26576040517f08c379a0000000000000000000000000000000000000000000000000000000008152600401610c1d90613c7d565b60405180910390fd5b610c308383611e9f565b505050565b6000600880549050905090565b600f5481565b610c59610c53611e97565b82611f58565b610c98576040517f08c379a0000000000000000000000000000000000000000000000000000000008152600401610c8f90613e1d565b60405180910390fd5b610ca3838383612036565b505050565b6000610cb383611167565b8210610cf4576040517f08c379a0000000000000000000000000000000000000000000000000000000008152600401610ceb90613b3d565b60405180910390fd5b600660008473ffffffffffffffffffffffffffffffffffffffff1673ffffffffffffffffffffffffffffffffffffffff168152602001908152602001600020600083815260200190815260200160002054905092915050565b60136020528060005260406000206000915090505481565b610d6d611e97565b73ffffffffffffffffffffffffffffffffffffffff16610d8b61132d565b73ffffffffffffffffffffffffffffffffffffffff1614610de1576040517f08c379a0000000000000000000000000000000000000000000000000000000008152600401610dd890613d3d565b60405180910390fd5b3373ffffffffffffffffffffffffffffffffffffffff166108fc479081150290604051600060405180830381858888f19350505050158015610e27573d6000803e3d6000fd5b50565b610e32611e97565b73ffffffffffffffffffffffffffffffffffffffff16610e5061132d565b73ffffffffffffffffffffffffffffffffffffffff1614610ea6576040517f08c379a0000000000000000000000000000000000000000000000000000000008152600401610e9d90613d3d565b60405180910390fd5b610eae612292565b565b610ecb83838360405180602001604052806000815250611958565b505050565b6000610eda610c35565b8210610f1b576040517f08c379a0000000000000000000000000000000000000000000000000000000008152600401610f1290613e3d565b60405180910390fd5b60088281548110610f55577f4e487b7100000000000000000000000000000000000000000000000000000000600052603260045260246000fd5b90600052602060002001549050919050565b601160009054906101000a900460ff1681565b610f82611e97565b73ffffffffffffffffffffffffffffffffffffffff16610fa061132d565b73ffffffffffffffffffffffffffffffffffffffff1614610ff6576040517f08c379a0000000000000000000000000000000000000000000000000000000008152600401610fed90613d3d565b60405180910390fd5b80600c908051906020019061100c9291906130aa565b5050565b6000600a60009054906101000a900460ff16905090565b6000806002600084815260200190815260200160002060009054906101000a900473ffffffffffffffffffffffffffffffffffffffff169050600073ffffffffffffffffffffffffffffffffffffffff168173ffffffffffffffffffffffffffffffffffffffff1614156110d0576040517f08c379a00000000000000000000000000000000000000000000000000000000081526004016110c790613cbd565b60405180910390fd5b80915050919050565b600c80546110e690614142565b80601f016020809104026020016040519081016040528092919081815260200182805461111290614142565b801561115f5780601f106111345761010080835404028352916020019161115f565b820191906000526020600020905b81548152906001019060200180831161114257829003601f168201915b505050505081565b60008073ffffffffffffffffffffffffffffffffffffffff168273ffffffffffffffffffffffffffffffffffffffff1614156111d8576040517f08c379a00000000000000000000000000000000000000000000000000000000081526004016111cf90613c9d565b60405180910390fd5b600360008373ffffffffffffffffffffffffffffffffffffffff1673ffffffffffffffffffffffffffffffffffffffff168152602001908152602001600020549050919050565b611227611e97565b73ffffffffffffffffffffffffffffffffffffffff1661124561132d565b73ffffffffffffffffffffffffffffffffffffffff161461129b576040517f08c379a000000000000000000000000000000000000000000000000000000000815260040161129290613d3d565b60405180910390fd5b6112a56000612334565b565b6112af611e97565b73ffffffffffffffffffffffffffffffffffffffff166112cd61132d565b73ffffffffffffffffffffffffffffffffffffffff1614611323576040517f08c379a000000000000000000000000000000000000000000000000000000000815260040161131a90613d3d565b60405180910390fd5b61132b6123fa565b565b6000600a60019054906101000a900473ffffffffffffffffffffffffffffffffffffffff16905090565b61135f611e97565b73ffffffffffffffffffffffffffffffffffffffff1661137d61132d565b73ffffffffffffffffffffffffffffffffffffffff16146113d3576040517f08c379a00000000000000000000000000000000000000000000000000000000081526004016113ca90613d3d565b60405180910390fd5b8060108190555050565b6060600180546113ec90614142565b80601f016020809104026020016040519081016040528092919081815260200182805461141890614142565b80156114655780601f1061143a57610100808354040283529160200191611465565b820191906000526020600020905b81548152906001019060200180831161144857829003601f168201915b5050505050905090565b60105481565b600061147f611010565b156114bf576040517f08c379a00000000000000000000000000000000000000000000000000000000081526004016114b690613c5d565b60405180910390fd5b60008211611502576040517f08c379a00000000000000000000000000000000000000000000000000000000081526004016114f990613bdd565b60405180910390fd5b600f54821115611547576040517f08c379a000000000000000000000000000000000000000000000000000000000815260040161153e90613d1d565b60405180910390fd5b600e5482611553610c35565b61155d9190613f77565b111561159e576040517f08c379a000000000000000000000000000000000000000000000000000000000815260040161159590613d9d565b60405180910390fd5b6012546115a9610c35565b1061160357816010546115bc9190613ffe565b3410156115fe576040517f08c379a00000000000000000000000000000000000000000000000000000000081526004016115f590613dfd565b60405180910390fd5b61180a565b6000739fdb31f8ce3cb8400c7ccb2299492f2a498330a473ffffffffffffffffffffffffffffffffffffffff166370a08231336040518263ffffffff1660e01b81526004016116529190613a79565b60206040518083038186803b15801561166a57600080fd5b505afa15801561167e573d6000803e3d6000fd5b505050506040513d601f19601f820116820180604052508101906116a291906134fe565b905060006002826116b39190613ffe565b9050600082116116f8576040517f08c379a00000000000000000000000000000000000000000000000000000000081526004016116ef90613b9d565b60405180910390fd5b80601360003373ffffffffffffffffffffffffffffffffffffffff1673ffffffffffffffffffffffffffffffffffffffff16815260200190815260200160002054111561177a576040517f08c379a000000000000000000000000000000000000000000000000000000000815260040161177190613e5d565b60405180910390fd5b8084601360003373ffffffffffffffffffffffffffffffffffffffff1673ffffffffffffffffffffffffffffffffffffffff168152602001908152602001600020546117c69190613f77565b1115611807576040517f08c379a00000000000000000000000000000000000000000000000000000000081526004016117fe90613ddd565b60405180910390fd5b50505b60005b828110156118a0576000611821600b61249d565b905061182d33826124ab565b611837600b612679565b601360003373ffffffffffffffffffffffffffffffffffffffff1673ffffffffffffffffffffffffffffffffffffffff1681526020019081526020016000206000815480929190611887906141a5565b9190505550508080611898906141a5565b91505061180d565b50819050919050565b6118bb6118b4611e97565b838361268f565b5050565b6118c7611e97565b73ffffffffffffffffffffffffffffffffffffffff166118e561132d565b73ffffffffffffffffffffffffffffffffffffffff161461193b576040517f08c379a000000000000000000000000000000000000000000000000000000000815260040161193290613d3d565b60405180910390fd5b6001601160006101000a81548160ff021916908315150217905550565b611969611963611e97565b83611f58565b6119a8576040517f08c379a000000000000000000000000000000000000000000000000000000000815260040161199f90613e1d565b60405180910390fd5b6119b4848484846127fc565b50505050565b60606119c582611e2b565b611a04576040517f08c379a00000000000000000000000000000000000000000000000000000000081526004016119fb90613d7d565b60405180910390fd5b601160009054906101000a900460ff16611aaa57600d8054611a2590614142565b80601f0160208091040260200160405190810160405280929190818152602001828054611a5190614142565b8015611a9e5780601f10611a7357610100808354040283529160200191611a9e565b820191906000526020600020905b815481529060010190602001808311611a8157829003601f168201915b50505050509050611b04565b6000600c8054611ab990614142565b905011611ad55760405180602001604052806000815250611b01565b600c611ae083612858565b604051602001611af1929190613a4a565b6040516020818303038152906040525b90505b919050565b739fdb31f8ce3cb8400c7ccb2299492f2a498330a481565b600e5481565b6000600560008473ffffffffffffffffffffffffffffffffffffffff1673ffffffffffffffffffffffffffffffffffffffff16815260200190815260200160002060008373ffffffffffffffffffffffffffffffffffffffff1673ffffffffffffffffffffffffffffffffffffffff16815260200190815260200160002060009054906101000a900460ff16905092915050565b611bc3611e97565b73ffffffffffffffffffffffffffffffffffffffff16611be161132d565b73ffffffffffffffffffffffffffffffffffffffff1614611c37576040517f08c379a0000000000000000000000000000000000000000000000000000000008152600401611c2e90613d3d565b60405180910390fd5b80600d9080519060200190611c4d9291906130aa565b5050565b611c59611e97565b73ffffffffffffffffffffffffffffffffffffffff16611c7761132d565b73ffffffffffffffffffffffffffffffffffffffff1614611ccd576040517f08c379a0000000000000000000000000000000000000000000000000000000008152600401611cc490613d3d565b60405180910390fd5b600073ffffffffffffffffffffffffffffffffffffffff168173ffffffffffffffffffffffffffffffffffffffff161415611d3d576040517f08c379a0000000000000000000000000000000000000000000000000000000008152600401611d3490613b7d565b60405180910390fd5b611d4681612334565b50565b60007f80ac58cd000000000000000000000000000000000000000000000000000000007bffffffffffffffffffffffffffffffffffffffffffffffffffffffff1916827bffffffffffffffffffffffffffffffffffffffffffffffffffffffff19161480611e1457507f5b5e139f000000000000000000000000000000000000000000000000000000007bffffffffffffffffffffffffffffffffffffffffffffffffffffffff1916827bffffffffffffffffffffffffffffffffffffffffffffffffffffffff1916145b80611e245750611e2382612a05565b5b9050919050565b60008073ffffffffffffffffffffffffffffffffffffffff166002600084815260200190815260200160002060009054906101000a900473ffffffffffffffffffffffffffffffffffffffff1673ffffffffffffffffffffffffffffffffffffffff1614159050919050565b600033905090565b816004600083815260200190815260200160002060006101000a81548173ffffffffffffffffffffffffffffffffffffffff021916908373ffffffffffffffffffffffffffffffffffffffff160217905550808273ffffffffffffffffffffffffffffffffffffffff16611f1283611027565b73ffffffffffffffffffffffffffffffffffffffff167f8c5be1e5ebec7d5bd14f71427d1e84f3dd0314c0f7b2291e5b200ac8c7c3b92560405160405180910390a45050565b6000611f6382611e2b565b611fa2576040517f08c379a0000000000000000000000000000000000000000000000000000000008152600401611f9990613c3d565b60405180910390fd5b6000611fad83611027565b90508073ffffffffffffffffffffffffffffffffffffffff168473ffffffffffffffffffffffffffffffffffffffff16148061201c57508373ffffffffffffffffffffffffffffffffffffffff1661200484610984565b73ffffffffffffffffffffffffffffffffffffffff16145b8061202d575061202c8185611b27565b5b91505092915050565b8273ffffffffffffffffffffffffffffffffffffffff1661205682611027565b73ffffffffffffffffffffffffffffffffffffffff16146120ac576040517f08c379a00000000000000000000000000000000000000000000000000000000081526004016120a390613d5d565b60405180910390fd5b600073ffffffffffffffffffffffffffffffffffffffff168273ffffffffffffffffffffffffffffffffffffffff16141561211c576040517f08c379a000000000000000000000000000000000000000000000000000000000815260040161211390613bfd565b60405180910390fd5b612127838383612a6f565b612132600082611e9f565b6001600360008573ffffffffffffffffffffffffffffffffffffffff1673ffffffffffffffffffffffffffffffffffffffff16815260200190815260200160002060008282546121829190614058565b925050819055506001600360008473ffffffffffffffffffffffffffffffffffffffff1673ffffffffffffffffffffffffffffffffffffffff16815260200190815260200160002060008282546121d99190613f77565b92505081905550816002600083815260200190815260200160002060006101000a81548173ffffffffffffffffffffffffffffffffffffffff021916908373ffffffffffffffffffffffffffffffffffffffff160217905550808273ffffffffffffffffffffffffffffffffffffffff168473ffffffffffffffffffffffffffffffffffffffff167fddf252ad1be2c89b69c2b068fc378daa952ba7f163c4a11628f55a4df523b3ef60405160405180910390a4505050565b61229a611010565b6122d9576040517f08c379a00000000000000000000000000000000000000000000000000000000081526004016122d090613b1d565b60405180910390fd5b6000600a60006101000a81548160ff0219169083151502179055507f5db9ee0a495bf2e6ff9c91a7834c1ba4fdd244a5e8aa4e537bd38aeae4b073aa61231d611e97565b60405161232a9190613a79565b60405180910390a1565b6000600a60019054906101000a900473ffffffffffffffffffffffffffffffffffffffff16905081600a60016101000a81548173ffffffffffffffffffffffffffffffffffffffff021916908373ffffffffffffffffffffffffffffffffffffffff1602179055508173ffffffffffffffffffffffffffffffffffffffff168173ffffffffffffffffffffffffffffffffffffffff167f8be0079c531659141344cd1fd0a4f28419497f9722a3daafe3b4186f6b6457e060405160405180910390a35050565b612402611010565b15612442576040517f08c379a000000000000000000000000000000000000000000000000000000000815260040161243990613c5d565b60405180910390fd5b6001600a60006101000a81548160ff0219169083151502179055507f62e78cea01bee320cd4e420270b5ea74000d11b0c9f74754ebdbfc544b05a258612486611e97565b6040516124939190613a79565b60405180910390a1565b600081600001549050919050565b600073ffffffffffffffffffffffffffffffffffffffff168273ffffffffffffffffffffffffffffffffffffffff16141561251b576040517f08c379a000000000000000000000000000000000000000000000000000000000815260040161251290613cdd565b60405180910390fd5b61252481611e2b565b15612564576040517f08c379a000000000000000000000000000000000000000000000000000000000815260040161255b90613bbd565b60405180910390fd5b61257060008383612a6f565b6001600360008473ffffffffffffffffffffffffffffffffffffffff1673ffffffffffffffffffffffffffffffffffffffff16815260200190815260200160002060008282546125c09190613f77565b92505081905550816002600083815260200190815260200160002060006101000a81548173ffffffffffffffffffffffffffffffffffffffff021916908373ffffffffffffffffffffffffffffffffffffffff160217905550808273ffffffffffffffffffffffffffffffffffffffff16600073ffffffffffffffffffffffffffffffffffffffff167fddf252ad1be2c89b69c2b068fc378daa952ba7f163c4a11628f55a4df523b3ef60405160405180910390a45050565b6001816000016000828254019250508190555050565b8173ffffffffffffffffffffffffffffffffffffffff168373ffffffffffffffffffffffffffffffffffffffff1614156126fe576040517f08c379a00000000000000000000000000000000000000000000000000000000081526004016126f590613c1d565b60405180910390fd5b80600560008573ffffffffffffffffffffffffffffffffffffffff1673ffffffffffffffffffffffffffffffffffffffff16815260200190815260200160002060008473ffffffffffffffffffffffffffffffffffffffff1673ffffffffffffffffffffffffffffffffffffffff16815260200190815260200160002060006101000a81548160ff0219169083151502179055508173ffffffffffffffffffffffffffffffffffffffff168373ffffffffffffffffffffffffffffffffffffffff167f17307eab39ab6107e8899845ad3d59bd9653f200f220920489ca2b5937696c31836040516127ef9190613ae0565b60405180910390a3505050565b612807848484612036565b61281384848484612b83565b612852576040517f08c379a000000000000000000000000000000000000000000000000000000000815260040161284990613b5d565b60405180910390fd5b50505050565b606060008214156128a0576040518060400160405280600181526020017f30000000000000000000000000000000000000000000000000000000000000008152509050612a00565b600082905060005b600082146128d25780806128bb906141a5565b915050600a826128cb9190613fcd565b91506128a8565b60008167ffffffffffffffff811115612914577f4e487b7100000000000000000000000000000000000000000000000000000000600052604160045260246000fd5b6040519080825280601f01601f1916602001820160405280156129465781602001600182028036833780820191505090505b5090505b600085146129f95760018261295f9190614058565b9150600a8561296e91906141ee565b603061297a9190613f77565b60f81b8183815181106129b6577f4e487b7100000000000000000000000000000000000000000000000000000000600052603260045260246000fd5b60200101907effffffffffffffffffffffffffffffffffffffffffffffffffffffffffffff1916908160001a905350600a856129f29190613fcd565b945061294a565b8093505050505b919050565b60007f01ffc9a7000000000000000000000000000000000000000000000000000000007bffffffffffffffffffffffffffffffffffffffffffffffffffffffff1916827bffffffffffffffffffffffffffffffffffffffffffffffffffffffff1916149050919050565b612a7a838383612d1a565b600073ffffffffffffffffffffffffffffffffffffffff168373ffffffffffffffffffffffffffffffffffffffff161415612abd57612ab881612d1f565b612afc565b8173ffffffffffffffffffffffffffffffffffffffff168373ffffffffffffffffffffffffffffffffffffffff1614612afb57612afa8382612d68565b5b5b600073ffffffffffffffffffffffffffffffffffffffff168273ffffffffffffffffffffffffffffffffffffffff161415612b3f57612b3a81612ed5565b612b7e565b8273ffffffffffffffffffffffffffffffffffffffff168273ffffffffffffffffffffffffffffffffffffffff1614612b7d57612b7c8282613018565b5b5b505050565b6000612ba48473ffffffffffffffffffffffffffffffffffffffff16613097565b15612d0d578373ffffffffffffffffffffffffffffffffffffffff1663150b7a02612bcd611e97565b8786866040518563ffffffff1660e01b8152600401612bef9493929190613a94565b602060405180830381600087803b158015612c0957600080fd5b505af1925050508015612c3a57506040513d601f19601f82011682018060405250810190612c37919061346b565b60015b612cbd573d8060008114612c6a576040519150601f19603f3d011682016040523d82523d6000602084013e612c6f565b606091505b50600081511415612cb5576040517f08c379a0000000000000000000000000000000000000000000000000000000008152600401612cac90613b5d565b60405180910390fd5b805181602001fd5b63150b7a0260e01b7bffffffffffffffffffffffffffffffffffffffffffffffffffffffff1916817bffffffffffffffffffffffffffffffffffffffffffffffffffffffff191614915050612d12565b600190505b949350505050565b505050565b6008805490506009600083815260200190815260200160002081905550600881908060018154018082558091505060019003906000526020600020016000909190919091505550565b60006001612d7584611167565b612d7f9190614058565b9050600060076000848152602001908152602001600020549050818114612e64576000600660008673ffffffffffffffffffffffffffffffffffffffff1673ffffffffffffffffffffffffffffffffffffffff168152602001908152602001600020600084815260200190815260200160002054905080600660008773ffffffffffffffffffffffffffffffffffffffff1673ffffffffffffffffffffffffffffffffffffffff168152602001908152602001600020600084815260200190815260200160002081905550816007600083815260200190815260200160002081905550505b6007600084815260200190815260200160002060009055600660008573ffffffffffffffffffffffffffffffffffffffff1673ffffffffffffffffffffffffffffffffffffffff16815260200190815260200160002060008381526020019081526020016000206000905550505050565b60006001600880549050612ee99190614058565b9050600060096000848152602001908152602001600020549050600060088381548110612f3f577f4e487b7100000000000000000000000000000000000000000000000000000000600052603260045260246000fd5b906000526020600020015490508060088381548110612f87577f4e487b7100000000000000000000000000000000000000000000000000000000600052603260045260246000fd5b906000526020600020018190555081600960008381526020019081526020016000208190555060096000858152602001908152602001600020600090556008805480612ffc577f4e487b7100000000000000000000000000000000000000000000000000000000600052603160045260246000fd5b6001900381819060005260206000200160009055905550505050565b600061302383611167565b905081600660008573ffffffffffffffffffffffffffffffffffffffff1673ffffffffffffffffffffffffffffffffffffffff168152602001908152602001600020600083815260200190815260200160002081905550806007600084815260200190815260200160002081905550505050565b600080823b905060008111915050919050565b8280546130b690614142565b90600052602060002090601f0160209004810192826130d8576000855561311f565b82601f106130f157805160ff191683800117855561311f565b8280016001018555821561311f579182015b8281111561311e578251825591602001919060010190613103565b5b50905061312c9190613130565b5090565b5b80821115613149576000816000905550600101613131565b5090565b600061316061315b84613ebd565b613e98565b90508281526020810184848401111561317857600080fd5b613183848285614100565b509392505050565b600061319e61319984613eee565b613e98565b9050828152602081018484840111156131b657600080fd5b6131c1848285614100565b509392505050565b6000813590506131d88161497c565b92915050565b6000813590506131ed81614993565b92915050565b600081359050613202816149aa565b92915050565b600081519050613217816149aa565b92915050565b600082601f83011261322e57600080fd5b813561323e84826020860161314d565b91505092915050565b600082601f83011261325857600080fd5b813561326884826020860161318b565b91505092915050565b600081359050613280816149c1565b92915050565b600081519050613295816149c1565b92915050565b6000602082840312156132ad57600080fd5b60006132bb848285016131c9565b91505092915050565b600080604083850312156132d757600080fd5b60006132e5858286016131c9565b92505060206132f6858286016131c9565b9150509250929050565b60008060006060848603121561331557600080fd5b6000613323868287016131c9565b9350506020613334868287016131c9565b925050604061334586828701613271565b9150509250925092565b6000806000806080858703121561336557600080fd5b6000613373878288016131c9565b9450506020613384878288016131c9565b935050604061339587828801613271565b925050606085013567ffffffffffffffff8111156133b257600080fd5b6133be8782880161321d565b91505092959194509250565b600080604083850312156133dd57600080fd5b60006133eb858286016131c9565b92505060206133fc858286016131de565b9150509250929050565b6000806040838503121561341957600080fd5b6000613427858286016131c9565b925050602061343885828601613271565b9150509250929050565b60006020828403121561345457600080fd5b6000613462848285016131f3565b91505092915050565b60006020828403121561347d57600080fd5b600061348b84828501613208565b91505092915050565b6000602082840312156134a657600080fd5b600082013567ffffffffffffffff8111156134c057600080fd5b6134cc84828501613247565b91505092915050565b6000602082840312156134e757600080fd5b60006134f584828501613271565b91505092915050565b60006020828403121561351057600080fd5b600061351e84828501613286565b91505092915050565b6135308161408c565b82525050565b61353f8161409e565b82525050565b600061355082613f34565b61355a8185613f4a565b935061356a81856020860161410f565b613573816142db565b840191505092915050565b600061358982613f3f565b6135938185613f5b565b93506135a381856020860161410f565b6135ac816142db565b840191505092915050565b60006135c282613f3f565b6135cc8185613f6c565b93506135dc81856020860161410f565b80840191505092915050565b600081546135f581614142565b6135ff8186613f6c565b9450600182166000811461361a576001811461362b5761365e565b60ff1983168652818601935061365e565b61363485613f1f565b60005b8381101561365657815481890152600182019150602081019050613637565b838801955050505b50505092915050565b6000613674601483613f5b565b915061367f826142ec565b602082019050919050565b6000613697602b83613f5b565b91506136a282614315565b604082019050919050565b60006136ba603283613f5b565b91506136c582614364565b604082019050919050565b60006136dd602683613f5b565b91506136e8826143b3565b604082019050919050565b6000613700601083613f5b565b915061370b82614402565b602082019050919050565b6000613723601c83613f5b565b915061372e8261442b565b602082019050919050565b6000613746600c83613f5b565b915061375182614454565b602082019050919050565b6000613769602483613f5b565b91506137748261447d565b604082019050919050565b600061378c601983613f5b565b9150613797826144cc565b602082019050919050565b60006137af602c83613f5b565b91506137ba826144f5565b604082019050919050565b60006137d2601083613f5b565b91506137dd82614544565b602082019050919050565b60006137f5603883613f5b565b91506138008261456d565b604082019050919050565b6000613818602a83613f5b565b9150613823826145bc565b604082019050919050565b600061383b602983613f5b565b91506138468261460b565b604082019050919050565b600061385e602083613f5b565b91506138698261465a565b602082019050919050565b6000613881602c83613f5b565b915061388c82614683565b604082019050919050565b60006138a4600583613f6c565b91506138af826146d2565b600582019050919050565b60006138c7601083613f5b565b91506138d2826146fb565b602082019050919050565b60006138ea602083613f5b565b91506138f582614724565b602082019050919050565b600061390d602983613f5b565b91506139188261474d565b604082019050919050565b6000613930602f83613f5b565b915061393b8261479c565b604082019050919050565b6000613953601083613f5b565b915061395e826147eb565b602082019050919050565b6000613976602183613f5b565b915061398182614814565b604082019050919050565b6000613999601b83613f5b565b91506139a482614863565b602082019050919050565b60006139bc601283613f5b565b91506139c78261488c565b602082019050919050565b60006139df603183613f5b565b91506139ea826148b5565b604082019050919050565b6000613a02602c83613f5b565b9150613a0d82614904565b604082019050919050565b6000613a25601983613f5b565b9150613a3082614953565b602082019050919050565b613a44816140f6565b82525050565b6000613a5682856135e8565b9150613a6282846135b7565b9150613a6d82613897565b91508190509392505050565b6000602082019050613a8e6000830184613527565b92915050565b6000608082019050613aa96000830187613527565b613ab66020830186613527565b613ac36040830185613a3b565b8181036060830152613ad58184613545565b905095945050505050565b6000602082019050613af56000830184613536565b92915050565b60006020820190508181036000830152613b15818461357e565b905092915050565b60006020820190508181036000830152613b3681613667565b9050919050565b60006020820190508181036000830152613b568161368a565b9050919050565b60006020820190508181036000830152613b76816136ad565b9050919050565b60006020820190508181036000830152613b96816136d0565b9050919050565b60006020820190508181036000830152613bb6816136f3565b9050919050565b60006020820190508181036000830152613bd681613716565b9050919050565b60006020820190508181036000830152613bf681613739565b9050919050565b60006020820190508181036000830152613c168161375c565b9050919050565b60006020820190508181036000830152613c368161377f565b9050919050565b60006020820190508181036000830152613c56816137a2565b9050919050565b60006020820190508181036000830152613c76816137c5565b9050919050565b60006020820190508181036000830152613c96816137e8565b9050919050565b60006020820190508181036000830152613cb68161380b565b9050919050565b60006020820190508181036000830152613cd68161382e565b9050919050565b60006020820190508181036000830152613cf681613851565b9050919050565b60006020820190508181036000830152613d1681613874565b9050919050565b60006020820190508181036000830152613d36816138ba565b9050919050565b60006020820190508181036000830152613d56816138dd565b9050919050565b60006020820190508181036000830152613d7681613900565b9050919050565b60006020820190508181036000830152613d9681613923565b9050919050565b60006020820190508181036000830152613db681613946565b9050919050565b60006020820190508181036000830152613dd681613969565b9050919050565b60006020820190508181036000830152613df68161398c565b9050919050565b60006020820190508181036000830152613e16816139af565b9050919050565b60006020820190508181036000830152613e36816139d2565b9050919050565b60006020820190508181036000830152613e56816139f5565b9050919050565b60006020820190508181036000830152613e7681613a18565b9050919050565b6000602082019050613e926000830184613a3b565b92915050565b6000613ea2613eb3565b9050613eae8282614174565b919050565b6000604051905090565b600067ffffffffffffffff821115613ed857613ed76142ac565b5b613ee1826142db565b9050602081019050919050565b600067ffffffffffffffff821115613f0957613f086142ac565b5b613f12826142db565b9050602081019050919050565b60008190508160005260206000209050919050565b600081519050919050565b600081519050919050565b600082825260208201905092915050565b600082825260208201905092915050565b600081905092915050565b6000613f82826140f6565b9150613f8d836140f6565b9250827fffffffffffffffffffffffffffffffffffffffffffffffffffffffffffffffff03821115613fc257613fc161421f565b5b828201905092915050565b6000613fd8826140f6565b9150613fe3836140f6565b925082613ff357613ff261424e565b5b828204905092915050565b6000614009826140f6565b9150614014836140f6565b9250817fffffffffffffffffffffffffffffffffffffffffffffffffffffffffffffffff048311821515161561404d5761404c61421f565b5b828202905092915050565b6000614063826140f6565b915061406e836140f6565b9250828210156140815761408061421f565b5b828203905092915050565b6000614097826140d6565b9050919050565b60008115159050919050565b60007fffffffff0000000000000000000000000000000000000000000000000000000082169050919050565b600073ffffffffffffffffffffffffffffffffffffffff82169050919050565b6000819050919050565b82818337600083830152505050565b60005b8381101561412d578082015181840152602081019050614112565b8381111561413c576000848401525b50505050565b6000600282049050600182168061415a57607f821691505b6020821081141561416e5761416d61427d565b5b50919050565b61417d826142db565b810181811067ffffffffffffffff8211171561419c5761419b6142ac565b5b80604052505050565b60006141b0826140f6565b91507fffffffffffffffffffffffffffffffffffffffffffffffffffffffffffffffff8214156141e3576141e261421f565b5b600182019050919050565b60006141f9826140f6565b9150614204836140f6565b9250826142145761421361424e565b5b828206905092915050565b7f4e487b7100000000000000000000000000000000000000000000000000000000600052601160045260246000fd5b7f4e487b7100000000000000000000000000000000000000000000000000000000600052601260045260246000fd5b7f4e487b7100000000000000000000000000000000000000000000000000000000600052602260045260246000fd5b7f4e487b7100000000000000000000000000000000000000000000000000000000600052604160045260246000fd5b6000601f19601f8301169050919050565b7f5061757361626c653a206e6f7420706175736564000000000000000000000000600082015250565b7f455243373231456e756d657261626c653a206f776e657220696e646578206f7560008201527f74206f6620626f756e6473000000000000000000000000000000000000000000602082015250565b7f4552433732313a207472616e7366657220746f206e6f6e20455243373231526560008201527f63656976657220696d706c656d656e7465720000000000000000000000000000602082015250565b7f4f776e61626c653a206e6577206f776e657220697320746865207a65726f206160008201527f6464726573730000000000000000000000000000000000000000000000000000602082015250565b7f4e6f7420436f6c6f7273204f776e657200000000000000000000000000000000600082015250565b7f4552433732313a20746f6b656e20616c7265616479206d696e74656400000000600082015250565b7f6d696e74696e67207a65726f0000000000000000000000000000000000000000600082015250565b7f4552433732313a207472616e7366657220746f20746865207a65726f2061646460008201527f7265737300000000000000000000000000000000000000000000000000000000602082015250565b7f4552433732313a20617070726f766520746f2063616c6c657200000000000000600082015250565b7f4552433732313a206f70657261746f7220717565727920666f72206e6f6e657860008201527f697374656e7420746f6b656e0000000000000000000000000000000000000000602082015250565b7f5061757361626c653a2070617573656400000000000000000000000000000000600082015250565b7f4552433732313a20617070726f76652063616c6c6572206973206e6f74206f7760008201527f6e6572206e6f7220617070726f76656420666f7220616c6c0000000000000000602082015250565b7f4552433732313a2062616c616e636520717565727920666f7220746865207a6560008201527f726f206164647265737300000000000000000000000000000000000000000000602082015250565b7f4552433732313a206f776e657220717565727920666f72206e6f6e657869737460008201527f656e7420746f6b656e0000000000000000000000000000000000000000000000602082015250565b7f4552433732313a206d696e7420746f20746865207a65726f2061646472657373600082015250565b7f4552433732313a20617070726f76656420717565727920666f72206e6f6e657860008201527f697374656e7420746f6b656e0000000000000000000000000000000000000000602082015250565b7f2e6a736f6e000000000000000000000000000000000000000000000000000000600082015250565b7f6d696e74696e6720746f6f206d616e7900000000000000000000000000000000600082015250565b7f4f776e61626c653a2063616c6c6572206973206e6f7420746865206f776e6572600082015250565b7f4552433732313a207472616e73666572206f6620746f6b656e2074686174206960008201527f73206e6f74206f776e0000000000000000000000000000000000000000000000602082015250565b7f4552433732314d657461646174613a2055524920717565727920666f72206e6f60008201527f6e6578697374656e7420746f6b656e0000000000000000000000000000000000602082015250565b7f6e6f20656e6f75676820737570706c7900000000000000000000000000000000600082015250565b7f4552433732313a20617070726f76616c20746f2063757272656e74206f776e6560008201527f7200000000000000000000000000000000000000000000000000000000000000602082015250565b7f4d696e7420616d6f756e74207375727061737365732071756f74610000000000600082015250565b7f696e73756666696369656e742066756e64730000000000000000000000000000600082015250565b7f4552433732313a207472616e736665722063616c6c6572206973206e6f74206f60008201527f776e6572206e6f7220617070726f766564000000000000000000000000000000602082015250565b7f455243373231456e756d657261626c653a20676c6f62616c20696e646578206f60008201527f7574206f6620626f756e64730000000000000000000000000000000000000000602082015250565b7f416c7265616479206d696e74656420796f75722071756f746100000000000000600082015250565b6149858161408c565b811461499057600080fd5b50565b61499c8161409e565b81146149a757600080fd5b50565b6149b3816140aa565b81146149be57600080fd5b50565b6149ca816140f6565b81146149d557600080fd5b5056fea264697066735822122084f9af07d6da20935858f20c54006cde4352d0a01507dc02ba96f6820dae04d764736f6c63430008040033",
  "linkReferences": {},
  "deployedLinkReferences": {}
}