{
  "_format": "hh-sol-artifact-1",
  "contractName": "ConcaveNFT",
  "sourceName": "contracts/Concave.sol",
  "abi": [
    {
      "inputs": [
        {
          "internalType": "string",
          "name": "_name",
          "type": "string"
        },
        {
          "internalType": "string",
          "name": "_symbol",
          "type": "string"
        },
        {
          "internalType": "string",
          "name": "_initBaseURI",
          "type": "string"
        },
        {
          "internalType": "string",
          "name": "_initNotRevealedUri",
          "type": "string"
        }
      ],
      "stateMutability": "nonpayable",
      "type": "constructor"
    },
    {
      "anonymous": false,
      "inputs": [
        {
          "indexed": true,
          "internalType": "address",
          "name": "owner",
          "type": "address"
        },
        {
          "indexed": true,
          "internalType": "address",
          "name": "approved",
          "type": "address"
        },
        {
          "indexed": true,
          "internalType": "uint256",
          "name": "tokenId",
          "type": "uint256"
        }
      ],
      "name": "Approval",
      "type": "event"
    },
    {
      "anonymous": false,
      "inputs": [
        {
          "indexed": true,
          "internalType": "address",
          "name": "owner",
          "type": "address"
        },
        {
          "indexed": true,
          "internalType": "address",
          "name": "operator",
          "type": "address"
        },
        {
          "indexed": false,
          "internalType": "bool",
          "name": "approved",
          "type": "bool"
        }
      ],
      "name": "ApprovalForAll",
      "type": "event"
    },
    {
      "anonymous": false,
      "inputs": [
        {
          "indexed": true,
          "internalType": "address",
          "name": "from",
          "type": "address"
        },
        {
          "indexed": true,
          "internalType": "address",
          "name": "to",
          "type": "address"
        },
        {
          "indexed": true,
          "internalType": "uint256",
          "name": "tokenId",
          "type": "uint256"
        }
      ],
      "name": "Transfer",
      "type": "event"
    },
    {
      "inputs": [
        {
          "internalType": "address",
          "name": "to",
          "type": "address"
        },
        {
          "internalType": "uint256",
          "name": "tokenId",
          "type": "uint256"
        }
      ],
      "name": "approve",
      "outputs": [],
      "stateMutability": "nonpayable",
      "type": "function"
    },
    {
      "inputs": [
        {
          "internalType": "address",
          "name": "owner",
          "type": "address"
        }
      ],
      "name": "balanceOf",
      "outputs": [
        {
          "internalType": "uint256",
          "name": "",
          "type": "uint256"
        }
      ],
      "stateMutability": "view",
      "type": "function"
    },
    {
      "inputs": [],
      "name": "baseURI",
      "outputs": [
        {
          "internalType": "string",
          "name": "",
          "type": "string"
        }
      ],
      "stateMutability": "view",
      "type": "function"
    },
    {
      "inputs": [
        {
          "internalType": "uint256",
          "name": "tokenId",
          "type": "uint256"
        }
      ],
      "name": "getApproved",
      "outputs": [
        {
          "internalType": "address",
          "name": "",
          "type": "address"
        }
      ],
      "stateMutability": "view",
      "type": "function"
    },
    {
      "inputs": [
        {
          "internalType": "address",
          "name": "owner",
          "type": "address"
        },
        {
          "internalType": "address",
          "name": "operator",
          "type": "address"
        }
      ],
      "name": "isApprovedForAll",
      "outputs": [
        {
          "internalType": "bool",
          "name": "",
          "type": "bool"
        }
      ],
      "stateMutability": "view",
      "type": "function"
    },
    {
      "inputs": [
        {
          "internalType": "uint256",
          "name": "_mintAmount",
          "type": "uint256"
        }
      ],
      "name": "mint",
      "outputs": [
        {
          "internalType": "uint256",
          "name": "",
          "type": "uint256"
        }
      ],
      "stateMutability": "nonpayable",
      "type": "function"
    },
    {
      "inputs": [],
      "name": "name",
      "outputs": [
        {
          "internalType": "string",
          "name": "",
          "type": "string"
        }
      ],
      "stateMutability": "view",
      "type": "function"
    },
    {
      "inputs": [
        {
          "internalType": "uint256",
          "name": "tokenId",
          "type": "uint256"
        }
      ],
      "name": "ownerOf",
      "outputs": [
        {
          "internalType": "address",
          "name": "",
          "type": "address"
        }
      ],
      "stateMutability": "view",
      "type": "function"
    },
    {
      "inputs": [
        {
          "internalType": "address",
          "name": "from",
          "type": "address"
        },
        {
          "internalType": "address",
          "name": "to",
          "type": "address"
        },
        {
          "internalType": "uint256",
          "name": "tokenId",
          "type": "uint256"
        }
      ],
      "name": "safeTransferFrom",
      "outputs": [],
      "stateMutability": "nonpayable",
      "type": "function"
    },
    {
      "inputs": [
        {
          "internalType": "address",
          "name": "from",
          "type": "address"
        },
        {
          "internalType": "address",
          "name": "to",
          "type": "address"
        },
        {
          "internalType": "uint256",
          "name": "tokenId",
          "type": "uint256"
        },
        {
          "internalType": "bytes",
          "name": "_data",
          "type": "bytes"
        }
      ],
      "name": "safeTransferFrom",
      "outputs": [],
      "stateMutability": "nonpayable",
      "type": "function"
    },
    {
      "inputs": [
        {
          "internalType": "address",
          "name": "operator",
          "type": "address"
        },
        {
          "internalType": "bool",
          "name": "approved",
          "type": "bool"
        }
      ],
      "name": "setApprovalForAll",
      "outputs": [],
      "stateMutability": "nonpayable",
      "type": "function"
    },
    {
      "inputs": [
        {
          "internalType": "bytes4",
          "name": "interfaceId",
          "type": "bytes4"
        }
      ],
      "name": "supportsInterface",
      "outputs": [
        {
          "internalType": "bool",
          "name": "",
          "type": "bool"
        }
      ],
      "stateMutability": "view",
      "type": "function"
    },
    {
      "inputs": [],
      "name": "symbol",
      "outputs": [
        {
          "internalType": "string",
          "name": "",
          "type": "string"
        }
      ],
      "stateMutability": "view",
      "type": "function"
    },
    {
      "inputs": [
        {
          "internalType": "uint256",
          "name": "tokenId",
          "type": "uint256"
        }
      ],
      "name": "tokenURI",
      "outputs": [
        {
          "internalType": "string",
          "name": "",
          "type": "string"
        }
      ],
      "stateMutability": "view",
      "type": "function"
    },
    {
      "inputs": [
        {
          "internalType": "address",
          "name": "from",
          "type": "address"
        },
        {
          "internalType": "address",
          "name": "to",
          "type": "address"
        },
        {
          "internalType": "uint256",
          "name": "tokenId",
          "type": "uint256"
        }
      ],
      "name": "transferFrom",
      "outputs": [],
      "stateMutability": "nonpayable",
      "type": "function"
    }
  ],
  "bytecode": "0x60806040523480156200001157600080fd5b5060405162002c7638038062002c768339818101604052810190620000379190620001b2565b838381600090805190602001906200005192919062000090565b5080600190805190602001906200006a92919062000090565b50505081600790805190602001906200008592919062000090565b5050505050620003f2565b8280546200009e9062000317565b90600052602060002090601f016020900481019282620000c257600085556200010e565b82601f10620000dd57805160ff19168380011785556200010e565b828001600101855582156200010e579182015b828111156200010d578251825591602001919060010190620000f0565b5b5090506200011d919062000121565b5090565b5b808211156200013c57600081600090555060010162000122565b5090565b6000620001576200015184620002ab565b62000282565b9050828152602081018484840111156200017057600080fd5b6200017d848285620002e1565b509392505050565b600082601f8301126200019757600080fd5b8151620001a984826020860162000140565b91505092915050565b60008060008060808587031215620001c957600080fd5b600085015167ffffffffffffffff811115620001e457600080fd5b620001f28782880162000185565b945050602085015167ffffffffffffffff8111156200021057600080fd5b6200021e8782880162000185565b935050604085015167ffffffffffffffff8111156200023c57600080fd5b6200024a8782880162000185565b925050606085015167ffffffffffffffff8111156200026857600080fd5b620002768782880162000185565b91505092959194509250565b60006200028e620002a1565b90506200029c82826200034d565b919050565b6000604051905090565b600067ffffffffffffffff821115620002c957620002c8620003b2565b5b620002d482620003e1565b9050602081019050919050565b60005b8381101562000301578082015181840152602081019050620002e4565b8381111562000311576000848401525b50505050565b600060028204905060018216806200033057607f821691505b6020821081141562000347576200034662000383565b5b50919050565b6200035882620003e1565b810181811067ffffffffffffffff821117156200037a5762000379620003b2565b5b80604052505050565b7f4e487b7100000000000000000000000000000000000000000000000000000000600052602260045260246000fd5b7f4e487b7100000000000000000000000000000000000000000000000000000000600052604160045260246000fd5b6000601f19601f8301169050919050565b61287480620004026000396000f3fe608060405234801561001057600080fd5b50600436106100f55760003560e01c80636c0360eb11610097578063a22cb46511610066578063a22cb46514610298578063b88d4fde146102b4578063c87b56dd146102d0578063e985e9c514610300576100f5565b80636c0360eb146101fc57806370a082311461021a57806395d89b411461024a578063a0712d6814610268576100f5565b8063095ea7b3116100d3578063095ea7b31461017857806323b872dd1461019457806342842e0e146101b05780636352211e146101cc576100f5565b806301ffc9a7146100fa57806306fdde031461012a578063081812fc14610148575b600080fd5b610114600480360381019061010f919061198b565b610330565b6040516101219190611df8565b60405180910390f35b610132610412565b60405161013f9190611e13565b60405180910390f35b610162600480360381019061015d91906119dd565b6104a4565b60405161016f9190611d91565b60405180910390f35b610192600480360381019061018d919061194f565b610529565b005b6101ae60048036038101906101a99190611849565b610641565b005b6101ca60048036038101906101c59190611849565b6106a1565b005b6101e660048036038101906101e191906119dd565b6106c1565b6040516101f39190611d91565b60405180910390f35b610204610773565b6040516102119190611e13565b60405180910390f35b610234600480360381019061022f91906117e4565b610801565b6040516102419190611ff5565b60405180910390f35b6102526108b9565b60405161025f9190611e13565b60405180910390f35b610282600480360381019061027d91906119dd565b61094b565b60405161028f9190611ff5565b60405180910390f35b6102b260048036038101906102ad9190611913565b610977565b005b6102ce60048036038101906102c99190611898565b61098d565b005b6102ea60048036038101906102e591906119dd565b6109ef565b6040516102f79190611e13565b60405180910390f35b61031a6004803603810190610315919061180d565b610a97565b6040516103279190611df8565b60405180910390f35b60007f80ac58cd000000000000000000000000000000000000000000000000000000007bffffffffffffffffffffffffffffffffffffffffffffffffffffffff1916827bffffffffffffffffffffffffffffffffffffffffffffffffffffffff191614806103fb57507f5b5e139f000000000000000000000000000000000000000000000000000000007bffffffffffffffffffffffffffffffffffffffffffffffffffffffff1916827bffffffffffffffffffffffffffffffffffffffffffffffffffffffff1916145b8061040b575061040a82610b2b565b5b9050919050565b6060600080546104219061222f565b80601f016020809104026020016040519081016040528092919081815260200182805461044d9061222f565b801561049a5780601f1061046f5761010080835404028352916020019161049a565b820191906000526020600020905b81548152906001019060200180831161047d57829003601f168201915b5050505050905090565b60006104af82610b95565b6104ee576040517f08c379a00000000000000000000000000000000000000000000000000000000081526004016104e590611f55565b60405180910390fd5b6004600083815260200190815260200160002060009054906101000a900473ffffffffffffffffffffffffffffffffffffffff169050919050565b6000610534826106c1565b90508073ffffffffffffffffffffffffffffffffffffffff168373ffffffffffffffffffffffffffffffffffffffff1614156105a5576040517f08c379a000000000000000000000000000000000000000000000000000000000815260040161059c90611fb5565b60405180910390fd5b8073ffffffffffffffffffffffffffffffffffffffff166105c4610c01565b73ffffffffffffffffffffffffffffffffffffffff1614806105f357506105f2816105ed610c01565b610a97565b5b610632576040517f08c379a000000000000000000000000000000000000000000000000000000000815260040161062990611ed5565b60405180910390fd5b61063c8383610c09565b505050565b61065261064c610c01565b82610cc2565b610691576040517f08c379a000000000000000000000000000000000000000000000000000000000815260040161068890611fd5565b60405180910390fd5b61069c838383610da0565b505050565b6106bc8383836040518060200160405280600081525061098d565b505050565b6000806002600084815260200190815260200160002060009054906101000a900473ffffffffffffffffffffffffffffffffffffffff169050600073ffffffffffffffffffffffffffffffffffffffff168173ffffffffffffffffffffffffffffffffffffffff16141561076a576040517f08c379a000000000000000000000000000000000000000000000000000000000815260040161076190611f15565b60405180910390fd5b80915050919050565b600780546107809061222f565b80601f01602080910402602001604051908101604052809291908181526020018280546107ac9061222f565b80156107f95780601f106107ce576101008083540402835291602001916107f9565b820191906000526020600020905b8154815290600101906020018083116107dc57829003601f168201915b505050505081565b60008073ffffffffffffffffffffffffffffffffffffffff168273ffffffffffffffffffffffffffffffffffffffff161415610872576040517f08c379a000000000000000000000000000000000000000000000000000000000815260040161086990611ef5565b60405180910390fd5b600360008373ffffffffffffffffffffffffffffffffffffffff1673ffffffffffffffffffffffffffffffffffffffff168152602001908152602001600020549050919050565b6060600180546108c89061222f565b80601f01602080910402602001604051908101604052809291908181526020018280546108f49061222f565b80156109415780601f1061091657610100808354040283529160200191610941565b820191906000526020600020905b81548152906001019060200180831161092457829003601f168201915b5050505050905090565b6000806109586006610ffc565b9050610964338261100a565b61096e60066111d8565b80915050919050565b610989610982610c01565b83836111ee565b5050565b61099e610998610c01565b83610cc2565b6109dd576040517f08c379a00000000000000000000000000000000000000000000000000000000081526004016109d490611fd5565b60405180910390fd5b6109e98484848461135b565b50505050565b60606109fa82610b95565b610a39576040517f08c379a0000000000000000000000000000000000000000000000000000000008152600401610a3090611f95565b60405180910390fd5b600060078054610a489061222f565b905011610a645760405180602001604052806000815250610a90565b6007610a6f836113b7565b604051602001610a80929190611d62565b6040516020818303038152906040525b9050919050565b6000600560008473ffffffffffffffffffffffffffffffffffffffff1673ffffffffffffffffffffffffffffffffffffffff16815260200190815260200160002060008373ffffffffffffffffffffffffffffffffffffffff1673ffffffffffffffffffffffffffffffffffffffff16815260200190815260200160002060009054906101000a900460ff16905092915050565b60007f01ffc9a7000000000000000000000000000000000000000000000000000000007bffffffffffffffffffffffffffffffffffffffffffffffffffffffff1916827bffffffffffffffffffffffffffffffffffffffffffffffffffffffff1916149050919050565b60008073ffffffffffffffffffffffffffffffffffffffff166002600084815260200190815260200160002060009054906101000a900473ffffffffffffffffffffffffffffffffffffffff1673ffffffffffffffffffffffffffffffffffffffff1614159050919050565b600033905090565b816004600083815260200190815260200160002060006101000a81548173ffffffffffffffffffffffffffffffffffffffff021916908373ffffffffffffffffffffffffffffffffffffffff160217905550808273ffffffffffffffffffffffffffffffffffffffff16610c7c836106c1565b73ffffffffffffffffffffffffffffffffffffffff167f8c5be1e5ebec7d5bd14f71427d1e84f3dd0314c0f7b2291e5b200ac8c7c3b92560405160405180910390a45050565b6000610ccd82610b95565b610d0c576040517f08c379a0000000000000000000000000000000000000000000000000000000008152600401610d0390611eb5565b60405180910390fd5b6000610d17836106c1565b90508073ffffffffffffffffffffffffffffffffffffffff168473ffffffffffffffffffffffffffffffffffffffff161480610d8657508373ffffffffffffffffffffffffffffffffffffffff16610d6e846104a4565b73ffffffffffffffffffffffffffffffffffffffff16145b80610d975750610d968185610a97565b5b91505092915050565b8273ffffffffffffffffffffffffffffffffffffffff16610dc0826106c1565b73ffffffffffffffffffffffffffffffffffffffff1614610e16576040517f08c379a0000000000000000000000000000000000000000000000000000000008152600401610e0d90611f75565b60405180910390fd5b600073ffffffffffffffffffffffffffffffffffffffff168273ffffffffffffffffffffffffffffffffffffffff161415610e86576040517f08c379a0000000000000000000000000000000000000000000000000000000008152600401610e7d90611e75565b60405180910390fd5b610e91838383611564565b610e9c600082610c09565b6001600360008573ffffffffffffffffffffffffffffffffffffffff1673ffffffffffffffffffffffffffffffffffffffff1681526020019081526020016000206000828254610eec9190612145565b925050819055506001600360008473ffffffffffffffffffffffffffffffffffffffff1673ffffffffffffffffffffffffffffffffffffffff1681526020019081526020016000206000828254610f4391906120be565b92505081905550816002600083815260200190815260200160002060006101000a81548173ffffffffffffffffffffffffffffffffffffffff021916908373ffffffffffffffffffffffffffffffffffffffff160217905550808273ffffffffffffffffffffffffffffffffffffffff168473ffffffffffffffffffffffffffffffffffffffff167fddf252ad1be2c89b69c2b068fc378daa952ba7f163c4a11628f55a4df523b3ef60405160405180910390a4505050565b600081600001549050919050565b600073ffffffffffffffffffffffffffffffffffffffff168273ffffffffffffffffffffffffffffffffffffffff16141561107a576040517f08c379a000000000000000000000000000000000000000000000000000000000815260040161107190611f35565b60405180910390fd5b61108381610b95565b156110c3576040517f08c379a00000000000000000000000000000000000000000000000000000000081526004016110ba90611e55565b60405180910390fd5b6110cf60008383611564565b6001600360008473ffffffffffffffffffffffffffffffffffffffff1673ffffffffffffffffffffffffffffffffffffffff168152602001908152602001600020600082825461111f91906120be565b92505081905550816002600083815260200190815260200160002060006101000a81548173ffffffffffffffffffffffffffffffffffffffff021916908373ffffffffffffffffffffffffffffffffffffffff160217905550808273ffffffffffffffffffffffffffffffffffffffff16600073ffffffffffffffffffffffffffffffffffffffff167fddf252ad1be2c89b69c2b068fc378daa952ba7f163c4a11628f55a4df523b3ef60405160405180910390a45050565b6001816000016000828254019250508190555050565b8173ffffffffffffffffffffffffffffffffffffffff168373ffffffffffffffffffffffffffffffffffffffff16141561125d576040517f08c379a000000000000000000000000000000000000000000000000000000000815260040161125490611e95565b60405180910390fd5b80600560008573ffffffffffffffffffffffffffffffffffffffff1673ffffffffffffffffffffffffffffffffffffffff16815260200190815260200160002060008473ffffffffffffffffffffffffffffffffffffffff1673ffffffffffffffffffffffffffffffffffffffff16815260200190815260200160002060006101000a81548160ff0219169083151502179055508173ffffffffffffffffffffffffffffffffffffffff168373ffffffffffffffffffffffffffffffffffffffff167f17307eab39ab6107e8899845ad3d59bd9653f200f220920489ca2b5937696c318360405161134e9190611df8565b60405180910390a3505050565b611366848484610da0565b61137284848484611569565b6113b1576040517f08c379a00000000000000000000000000000000000000000000000000000000081526004016113a890611e35565b60405180910390fd5b50505050565b606060008214156113ff576040518060400160405280600181526020017f3000000000000000000000000000000000000000000000000000000000000000815250905061155f565b600082905060005b6000821461143157808061141a90612292565b915050600a8261142a9190612114565b9150611407565b60008167ffffffffffffffff811115611473577f4e487b7100000000000000000000000000000000000000000000000000000000600052604160045260246000fd5b6040519080825280601f01601f1916602001820160405280156114a55781602001600182028036833780820191505090505b5090505b60008514611558576001826114be9190612145565b9150600a856114cd91906122db565b60306114d991906120be565b60f81b818381518110611515577f4e487b7100000000000000000000000000000000000000000000000000000000600052603260045260246000fd5b60200101907effffffffffffffffffffffffffffffffffffffffffffffffffffffffffffff1916908160001a905350600a856115519190612114565b94506114a9565b8093505050505b919050565b505050565b600061158a8473ffffffffffffffffffffffffffffffffffffffff16611700565b156116f3578373ffffffffffffffffffffffffffffffffffffffff1663150b7a026115b3610c01565b8786866040518563ffffffff1660e01b81526004016115d59493929190611dac565b602060405180830381600087803b1580156115ef57600080fd5b505af192505050801561162057506040513d601f19601f8201168201806040525081019061161d91906119b4565b60015b6116a3573d8060008114611650576040519150601f19603f3d011682016040523d82523d6000602084013e611655565b606091505b5060008151141561169b576040517f08c379a000000000000000000000000000000000000000000000000000000000815260040161169290611e35565b60405180910390fd5b805181602001fd5b63150b7a0260e01b7bffffffffffffffffffffffffffffffffffffffffffffffffffffffff1916817bffffffffffffffffffffffffffffffffffffffffffffffffffffffff1916149150506116f8565b600190505b949350505050565b600080823b905060008111915050919050565b600061172661172184612035565b612010565b90508281526020810184848401111561173e57600080fd5b6117498482856121ed565b509392505050565b600081359050611760816127e2565b92915050565b600081359050611775816127f9565b92915050565b60008135905061178a81612810565b92915050565b60008151905061179f81612810565b92915050565b600082601f8301126117b657600080fd5b81356117c6848260208601611713565b91505092915050565b6000813590506117de81612827565b92915050565b6000602082840312156117f657600080fd5b600061180484828501611751565b91505092915050565b6000806040838503121561182057600080fd5b600061182e85828601611751565b925050602061183f85828601611751565b9150509250929050565b60008060006060848603121561185e57600080fd5b600061186c86828701611751565b935050602061187d86828701611751565b925050604061188e868287016117cf565b9150509250925092565b600080600080608085870312156118ae57600080fd5b60006118bc87828801611751565b94505060206118cd87828801611751565b93505060406118de878288016117cf565b925050606085013567ffffffffffffffff8111156118fb57600080fd5b611907878288016117a5565b91505092959194509250565b6000806040838503121561192657600080fd5b600061193485828601611751565b925050602061194585828601611766565b9150509250929050565b6000806040838503121561196257600080fd5b600061197085828601611751565b9250506020611981858286016117cf565b9150509250929050565b60006020828403121561199d57600080fd5b60006119ab8482850161177b565b91505092915050565b6000602082840312156119c657600080fd5b60006119d484828501611790565b91505092915050565b6000602082840312156119ef57600080fd5b60006119fd848285016117cf565b91505092915050565b611a0f81612179565b82525050565b611a1e8161218b565b82525050565b6000611a2f8261207b565b611a398185612091565b9350611a498185602086016121fc565b611a52816123c8565b840191505092915050565b6000611a6882612086565b611a7281856120a2565b9350611a828185602086016121fc565b611a8b816123c8565b840191505092915050565b6000611aa182612086565b611aab81856120b3565b9350611abb8185602086016121fc565b80840191505092915050565b60008154611ad48161222f565b611ade81866120b3565b94506001821660008114611af95760018114611b0a57611b3d565b60ff19831686528186019350611b3d565b611b1385612066565b60005b83811015611b3557815481890152600182019150602081019050611b16565b838801955050505b50505092915050565b6000611b536032836120a2565b9150611b5e826123d9565b604082019050919050565b6000611b76601c836120a2565b9150611b8182612428565b602082019050919050565b6000611b996024836120a2565b9150611ba482612451565b604082019050919050565b6000611bbc6019836120a2565b9150611bc7826124a0565b602082019050919050565b6000611bdf602c836120a2565b9150611bea826124c9565b604082019050919050565b6000611c026038836120a2565b9150611c0d82612518565b604082019050919050565b6000611c25602a836120a2565b9150611c3082612567565b604082019050919050565b6000611c486029836120a2565b9150611c53826125b6565b604082019050919050565b6000611c6b6020836120a2565b9150611c7682612605565b602082019050919050565b6000611c8e602c836120a2565b9150611c998261262e565b604082019050919050565b6000611cb16005836120b3565b9150611cbc8261267d565b600582019050919050565b6000611cd46029836120a2565b9150611cdf826126a6565b604082019050919050565b6000611cf7602f836120a2565b9150611d02826126f5565b604082019050919050565b6000611d1a6021836120a2565b9150611d2582612744565b604082019050919050565b6000611d3d6031836120a2565b9150611d4882612793565b604082019050919050565b611d5c816121e3565b82525050565b6000611d6e8285611ac7565b9150611d7a8284611a96565b9150611d8582611ca4565b91508190509392505050565b6000602082019050611da66000830184611a06565b92915050565b6000608082019050611dc16000830187611a06565b611dce6020830186611a06565b611ddb6040830185611d53565b8181036060830152611ded8184611a24565b905095945050505050565b6000602082019050611e0d6000830184611a15565b92915050565b60006020820190508181036000830152611e2d8184611a5d565b905092915050565b60006020820190508181036000830152611e4e81611b46565b9050919050565b60006020820190508181036000830152611e6e81611b69565b9050919050565b60006020820190508181036000830152611e8e81611b8c565b9050919050565b60006020820190508181036000830152611eae81611baf565b9050919050565b60006020820190508181036000830152611ece81611bd2565b9050919050565b60006020820190508181036000830152611eee81611bf5565b9050919050565b60006020820190508181036000830152611f0e81611c18565b9050919050565b60006020820190508181036000830152611f2e81611c3b565b9050919050565b60006020820190508181036000830152611f4e81611c5e565b9050919050565b60006020820190508181036000830152611f6e81611c81565b9050919050565b60006020820190508181036000830152611f8e81611cc7565b9050919050565b60006020820190508181036000830152611fae81611cea565b9050919050565b60006020820190508181036000830152611fce81611d0d565b9050919050565b60006020820190508181036000830152611fee81611d30565b9050919050565b600060208201905061200a6000830184611d53565b92915050565b600061201a61202b565b90506120268282612261565b919050565b6000604051905090565b600067ffffffffffffffff8211156120505761204f612399565b5b612059826123c8565b9050602081019050919050565b60008190508160005260206000209050919050565b600081519050919050565b600081519050919050565b600082825260208201905092915050565b600082825260208201905092915050565b600081905092915050565b60006120c9826121e3565b91506120d4836121e3565b9250827fffffffffffffffffffffffffffffffffffffffffffffffffffffffffffffffff038211156121095761210861230c565b5b828201905092915050565b600061211f826121e3565b915061212a836121e3565b92508261213a5761213961233b565b5b828204905092915050565b6000612150826121e3565b915061215b836121e3565b92508282101561216e5761216d61230c565b5b828203905092915050565b6000612184826121c3565b9050919050565b60008115159050919050565b60007fffffffff0000000000000000000000000000000000000000000000000000000082169050919050565b600073ffffffffffffffffffffffffffffffffffffffff82169050919050565b6000819050919050565b82818337600083830152505050565b60005b8381101561221a5780820151818401526020810190506121ff565b83811115612229576000848401525b50505050565b6000600282049050600182168061224757607f821691505b6020821081141561225b5761225a61236a565b5b50919050565b61226a826123c8565b810181811067ffffffffffffffff8211171561228957612288612399565b5b80604052505050565b600061229d826121e3565b91507fffffffffffffffffffffffffffffffffffffffffffffffffffffffffffffffff8214156122d0576122cf61230c565b5b600182019050919050565b60006122e6826121e3565b91506122f1836121e3565b9250826123015761230061233b565b5b828206905092915050565b7f4e487b7100000000000000000000000000000000000000000000000000000000600052601160045260246000fd5b7f4e487b7100000000000000000000000000000000000000000000000000000000600052601260045260246000fd5b7f4e487b7100000000000000000000000000000000000000000000000000000000600052602260045260246000fd5b7f4e487b7100000000000000000000000000000000000000000000000000000000600052604160045260246000fd5b6000601f19601f8301169050919050565b7f4552433732313a207472616e7366657220746f206e6f6e20455243373231526560008201527f63656976657220696d706c656d656e7465720000000000000000000000000000602082015250565b7f4552433732313a20746f6b656e20616c7265616479206d696e74656400000000600082015250565b7f4552433732313a207472616e7366657220746f20746865207a65726f2061646460008201527f7265737300000000000000000000000000000000000000000000000000000000602082015250565b7f4552433732313a20617070726f766520746f2063616c6c657200000000000000600082015250565b7f4552433732313a206f70657261746f7220717565727920666f72206e6f6e657860008201527f697374656e7420746f6b656e0000000000000000000000000000000000000000602082015250565b7f4552433732313a20617070726f76652063616c6c6572206973206e6f74206f7760008201527f6e6572206e6f7220617070726f76656420666f7220616c6c0000000000000000602082015250565b7f4552433732313a2062616c616e636520717565727920666f7220746865207a6560008201527f726f206164647265737300000000000000000000000000000000000000000000602082015250565b7f4552433732313a206f776e657220717565727920666f72206e6f6e657869737460008201527f656e7420746f6b656e0000000000000000000000000000000000000000000000602082015250565b7f4552433732313a206d696e7420746f20746865207a65726f2061646472657373600082015250565b7f4552433732313a20617070726f76656420717565727920666f72206e6f6e657860008201527f697374656e7420746f6b656e0000000000000000000000000000000000000000602082015250565b7f2e6a736f6e000000000000000000000000000000000000000000000000000000600082015250565b7f4552433732313a207472616e73666572206f6620746f6b656e2074686174206960008201527f73206e6f74206f776e0000000000000000000000000000000000000000000000602082015250565b7f4552433732314d657461646174613a2055524920717565727920666f72206e6f60008201527f6e6578697374656e7420746f6b656e0000000000000000000000000000000000602082015250565b7f4552433732313a20617070726f76616c20746f2063757272656e74206f776e6560008201527f7200000000000000000000000000000000000000000000000000000000000000602082015250565b7f4552433732313a207472616e736665722063616c6c6572206973206e6f74206f60008201527f776e6572206e6f7220617070726f766564000000000000000000000000000000602082015250565b6127eb81612179565b81146127f657600080fd5b50565b6128028161218b565b811461280d57600080fd5b50565b61281981612197565b811461282457600080fd5b50565b612830816121e3565b811461283b57600080fd5b5056fea2646970667358221220173c4e8687baf3c4129d7ed274119d09f6102a12080d40a46c7dadc0776e22b664736f6c63430008040033",
  "linkReferences": {},
  "deployedLinkReferences": {}
}