{
  "_format": "hh-sol-artifact-1",
  "contractName": "ConcaveNFT",
  "sourceName": "contracts/Concave.sol",
  "abi": [
    {
      "inputs": [
        {
          "internalType": "string",
          "name": "_name",
          "type": "string"
        },
        {
          "internalType": "string",
          "name": "_symbol",
          "type": "string"
        },
        {
          "internalType": "string",
          "name": "_initBaseURI",
          "type": "string"
        },
        {
          "internalType": "string",
          "name": "_initNotRevealedUri",
          "type": "string"
        }
      ],
      "stateMutability": "nonpayable",
      "type": "constructor"
    },
    {
      "anonymous": false,
      "inputs": [
        {
          "indexed": true,
          "internalType": "address",
          "name": "owner",
          "type": "address"
        },
        {
          "indexed": true,
          "internalType": "address",
          "name": "approved",
          "type": "address"
        },
        {
          "indexed": true,
          "internalType": "uint256",
          "name": "tokenId",
          "type": "uint256"
        }
      ],
      "name": "Approval",
      "type": "event"
    },
    {
      "anonymous": false,
      "inputs": [
        {
          "indexed": true,
          "internalType": "address",
          "name": "owner",
          "type": "address"
        },
        {
          "indexed": true,
          "internalType": "address",
          "name": "operator",
          "type": "address"
        },
        {
          "indexed": false,
          "internalType": "bool",
          "name": "approved",
          "type": "bool"
        }
      ],
      "name": "ApprovalForAll",
      "type": "event"
    },
    {
      "anonymous": false,
      "inputs": [
        {
          "indexed": true,
          "internalType": "address",
          "name": "previousOwner",
          "type": "address"
        },
        {
          "indexed": true,
          "internalType": "address",
          "name": "newOwner",
          "type": "address"
        }
      ],
      "name": "OwnershipTransferred",
      "type": "event"
    },
    {
      "anonymous": false,
      "inputs": [
        {
          "indexed": true,
          "internalType": "address",
          "name": "from",
          "type": "address"
        },
        {
          "indexed": true,
          "internalType": "address",
          "name": "to",
          "type": "address"
        },
        {
          "indexed": true,
          "internalType": "uint256",
          "name": "tokenId",
          "type": "uint256"
        }
      ],
      "name": "Transfer",
      "type": "event"
    },
    {
      "inputs": [
        {
          "internalType": "uint256[]",
          "name": "tokenIds",
          "type": "uint256[]"
        }
      ],
      "name": "_presaleBatchMint",
      "outputs": [],
      "stateMutability": "nonpayable",
      "type": "function"
    },
    {
      "inputs": [
        {
          "internalType": "uint256",
          "name": "tokenId",
          "type": "uint256"
        }
      ],
      "name": "_presaleSingleMint",
      "outputs": [],
      "stateMutability": "payable",
      "type": "function"
    },
    {
      "inputs": [
        {
          "internalType": "address",
          "name": "to",
          "type": "address"
        },
        {
          "internalType": "uint256",
          "name": "tokenId",
          "type": "uint256"
        }
      ],
      "name": "approve",
      "outputs": [],
      "stateMutability": "nonpayable",
      "type": "function"
    },
    {
      "inputs": [
        {
          "internalType": "address",
          "name": "owner",
          "type": "address"
        }
      ],
      "name": "balanceOf",
      "outputs": [
        {
          "internalType": "uint256",
          "name": "",
          "type": "uint256"
        }
      ],
      "stateMutability": "view",
      "type": "function"
    },
    {
      "inputs": [],
      "name": "baseExtension",
      "outputs": [
        {
          "internalType": "string",
          "name": "",
          "type": "string"
        }
      ],
      "stateMutability": "view",
      "type": "function"
    },
    {
      "inputs": [],
      "name": "baseURI",
      "outputs": [
        {
          "internalType": "string",
          "name": "",
          "type": "string"
        }
      ],
      "stateMutability": "view",
      "type": "function"
    },
    {
      "inputs": [],
      "name": "cost",
      "outputs": [
        {
          "internalType": "uint256",
          "name": "",
          "type": "uint256"
        }
      ],
      "stateMutability": "view",
      "type": "function"
    },
    {
      "inputs": [
        {
          "internalType": "uint256",
          "name": "tokenId",
          "type": "uint256"
        }
      ],
      "name": "getApproved",
      "outputs": [
        {
          "internalType": "address",
          "name": "",
          "type": "address"
        }
      ],
      "stateMutability": "view",
      "type": "function"
    },
    {
      "inputs": [
        {
          "internalType": "address",
          "name": "user",
          "type": "address"
        }
      ],
      "name": "getColorsOwnedByUser",
      "outputs": [
        {
          "internalType": "uint256[]",
          "name": "tokenIdsList",
          "type": "uint256[]"
        }
      ],
      "stateMutability": "view",
      "type": "function"
    },
    {
      "inputs": [],
      "name": "getNextUnmintedToken",
      "outputs": [
        {
          "internalType": "uint256",
          "name": "nextTokenId",
          "type": "uint256"
        }
      ],
      "stateMutability": "view",
      "type": "function"
    },
    {
      "inputs": [
        {
          "internalType": "address",
          "name": "user",
          "type": "address"
        }
      ],
      "name": "getUnmintedSpiralsByUser",
      "outputs": [
        {
          "internalType": "uint256[]",
          "name": "tokenIdsList",
          "type": "uint256[]"
        }
      ],
      "stateMutability": "view",
      "type": "function"
    },
    {
      "inputs": [
        {
          "internalType": "uint256",
          "name": "",
          "type": "uint256"
        }
      ],
      "name": "hasClaimed",
      "outputs": [
        {
          "internalType": "bool",
          "name": "",
          "type": "bool"
        }
      ],
      "stateMutability": "view",
      "type": "function"
    },
    {
      "inputs": [
        {
          "internalType": "address",
          "name": "owner",
          "type": "address"
        },
        {
          "internalType": "address",
          "name": "operator",
          "type": "address"
        }
      ],
      "name": "isApprovedForAll",
      "outputs": [
        {
          "internalType": "bool",
          "name": "",
          "type": "bool"
        }
      ],
      "stateMutability": "view",
      "type": "function"
    },
    {
      "inputs": [],
      "name": "isPublicSaleActive",
      "outputs": [
        {
          "internalType": "bool",
          "name": "",
          "type": "bool"
        }
      ],
      "stateMutability": "view",
      "type": "function"
    },
    {
      "inputs": [],
      "name": "maxMintAmount",
      "outputs": [
        {
          "internalType": "uint256",
          "name": "",
          "type": "uint256"
        }
      ],
      "stateMutability": "view",
      "type": "function"
    },
    {
      "inputs": [],
      "name": "maxSupply",
      "outputs": [
        {
          "internalType": "uint256",
          "name": "",
          "type": "uint256"
        }
      ],
      "stateMutability": "view",
      "type": "function"
    },
    {
      "inputs": [
        {
          "internalType": "uint256",
          "name": "_mintAmount",
          "type": "uint256"
        }
      ],
      "name": "mint",
      "outputs": [],
      "stateMutability": "payable",
      "type": "function"
    },
    {
      "inputs": [],
      "name": "name",
      "outputs": [
        {
          "internalType": "string",
          "name": "",
          "type": "string"
        }
      ],
      "stateMutability": "view",
      "type": "function"
    },
    {
      "inputs": [],
      "name": "notRevealedUri",
      "outputs": [
        {
          "internalType": "string",
          "name": "",
          "type": "string"
        }
      ],
      "stateMutability": "view",
      "type": "function"
    },
    {
      "inputs": [],
      "name": "owner",
      "outputs": [
        {
          "internalType": "address",
          "name": "",
          "type": "address"
        }
      ],
      "stateMutability": "view",
      "type": "function"
    },
    {
      "inputs": [
        {
          "internalType": "uint256",
          "name": "tokenId",
          "type": "uint256"
        }
      ],
      "name": "ownerOf",
      "outputs": [
        {
          "internalType": "address",
          "name": "",
          "type": "address"
        }
      ],
      "stateMutability": "view",
      "type": "function"
    },
    {
      "inputs": [
        {
          "internalType": "bool",
          "name": "_state",
          "type": "bool"
        }
      ],
      "name": "pause",
      "outputs": [],
      "stateMutability": "nonpayable",
      "type": "function"
    },
    {
      "inputs": [],
      "name": "paused",
      "outputs": [
        {
          "internalType": "bool",
          "name": "",
          "type": "bool"
        }
      ],
      "stateMutability": "view",
      "type": "function"
    },
    {
      "inputs": [],
      "name": "renounceOwnership",
      "outputs": [],
      "stateMutability": "nonpayable",
      "type": "function"
    },
    {
      "inputs": [],
      "name": "reveal",
      "outputs": [],
      "stateMutability": "nonpayable",
      "type": "function"
    },
    {
      "inputs": [],
      "name": "revealed",
      "outputs": [
        {
          "internalType": "bool",
          "name": "",
          "type": "bool"
        }
      ],
      "stateMutability": "view",
      "type": "function"
    },
    {
      "inputs": [
        {
          "internalType": "address",
          "name": "from",
          "type": "address"
        },
        {
          "internalType": "address",
          "name": "to",
          "type": "address"
        },
        {
          "internalType": "uint256",
          "name": "tokenId",
          "type": "uint256"
        }
      ],
      "name": "safeTransferFrom",
      "outputs": [],
      "stateMutability": "nonpayable",
      "type": "function"
    },
    {
      "inputs": [
        {
          "internalType": "address",
          "name": "from",
          "type": "address"
        },
        {
          "internalType": "address",
          "name": "to",
          "type": "address"
        },
        {
          "internalType": "uint256",
          "name": "tokenId",
          "type": "uint256"
        },
        {
          "internalType": "bytes",
          "name": "_data",
          "type": "bytes"
        }
      ],
      "name": "safeTransferFrom",
      "outputs": [],
      "stateMutability": "nonpayable",
      "type": "function"
    },
    {
      "inputs": [
        {
          "internalType": "address",
          "name": "operator",
          "type": "address"
        },
        {
          "internalType": "bool",
          "name": "approved",
          "type": "bool"
        }
      ],
      "name": "setApprovalForAll",
      "outputs": [],
      "stateMutability": "nonpayable",
      "type": "function"
    },
    {
      "inputs": [
        {
          "internalType": "string",
          "name": "_newBaseExtension",
          "type": "string"
        }
      ],
      "name": "setBaseExtension",
      "outputs": [],
      "stateMutability": "nonpayable",
      "type": "function"
    },
    {
      "inputs": [
        {
          "internalType": "string",
          "name": "_newBaseURI",
          "type": "string"
        }
      ],
      "name": "setBaseURI",
      "outputs": [],
      "stateMutability": "nonpayable",
      "type": "function"
    },
    {
      "inputs": [
        {
          "internalType": "uint256",
          "name": "_newCost",
          "type": "uint256"
        }
      ],
      "name": "setCost",
      "outputs": [],
      "stateMutability": "nonpayable",
      "type": "function"
    },
    {
      "inputs": [
        {
          "internalType": "string",
          "name": "_notRevealedURI",
          "type": "string"
        }
      ],
      "name": "setNotRevealedURI",
      "outputs": [],
      "stateMutability": "nonpayable",
      "type": "function"
    },
    {
      "inputs": [
        {
          "internalType": "uint256",
          "name": "_newmaxMintAmount",
          "type": "uint256"
        }
      ],
      "name": "setmaxMintAmount",
      "outputs": [],
      "stateMutability": "nonpayable",
      "type": "function"
    },
    {
      "inputs": [
        {
          "internalType": "bytes4",
          "name": "interfaceId",
          "type": "bytes4"
        }
      ],
      "name": "supportsInterface",
      "outputs": [
        {
          "internalType": "bool",
          "name": "",
          "type": "bool"
        }
      ],
      "stateMutability": "view",
      "type": "function"
    },
    {
      "inputs": [],
      "name": "symbol",
      "outputs": [
        {
          "internalType": "string",
          "name": "",
          "type": "string"
        }
      ],
      "stateMutability": "view",
      "type": "function"
    },
    {
      "inputs": [],
      "name": "thecolorsaddress",
      "outputs": [
        {
          "internalType": "address",
          "name": "",
          "type": "address"
        }
      ],
      "stateMutability": "view",
      "type": "function"
    },
    {
      "inputs": [],
      "name": "togglePublicSale",
      "outputs": [],
      "stateMutability": "nonpayable",
      "type": "function"
    },
    {
      "inputs": [
        {
          "internalType": "uint256",
          "name": "index",
          "type": "uint256"
        }
      ],
      "name": "tokenByIndex",
      "outputs": [
        {
          "internalType": "uint256",
          "name": "",
          "type": "uint256"
        }
      ],
      "stateMutability": "view",
      "type": "function"
    },
    {
      "inputs": [
        {
          "internalType": "address",
          "name": "owner",
          "type": "address"
        },
        {
          "internalType": "uint256",
          "name": "index",
          "type": "uint256"
        }
      ],
      "name": "tokenOfOwnerByIndex",
      "outputs": [
        {
          "internalType": "uint256",
          "name": "",
          "type": "uint256"
        }
      ],
      "stateMutability": "view",
      "type": "function"
    },
    {
      "inputs": [
        {
          "internalType": "uint256",
          "name": "tokenId",
          "type": "uint256"
        }
      ],
      "name": "tokenURI",
      "outputs": [
        {
          "internalType": "string",
          "name": "",
          "type": "string"
        }
      ],
      "stateMutability": "view",
      "type": "function"
    },
    {
      "inputs": [],
      "name": "totalMinted",
      "outputs": [
        {
          "internalType": "uint256",
          "name": "",
          "type": "uint256"
        }
      ],
      "stateMutability": "view",
      "type": "function"
    },
    {
      "inputs": [],
      "name": "totalSupply",
      "outputs": [
        {
          "internalType": "uint256",
          "name": "",
          "type": "uint256"
        }
      ],
      "stateMutability": "view",
      "type": "function"
    },
    {
      "inputs": [
        {
          "internalType": "address",
          "name": "from",
          "type": "address"
        },
        {
          "internalType": "address",
          "name": "to",
          "type": "address"
        },
        {
          "internalType": "uint256",
          "name": "tokenId",
          "type": "uint256"
        }
      ],
      "name": "transferFrom",
      "outputs": [],
      "stateMutability": "nonpayable",
      "type": "function"
    },
    {
      "inputs": [
        {
          "internalType": "address",
          "name": "newOwner",
          "type": "address"
        }
      ],
      "name": "transferOwnership",
      "outputs": [],
      "stateMutability": "nonpayable",
      "type": "function"
    },
    {
      "inputs": [
        {
          "internalType": "address",
          "name": "_owner",
          "type": "address"
        }
      ],
      "name": "walletOfOwner",
      "outputs": [
        {
          "internalType": "uint256[]",
          "name": "",
          "type": "uint256[]"
        }
      ],
      "stateMutability": "view",
      "type": "function"
    },
    {
      "inputs": [],
      "name": "withdraw",
      "outputs": [],
      "stateMutability": "payable",
      "type": "function"
    }
  ],
  "bytecode": "0x60806040526040518060400160405280600581526020017f2e6a736f6e000000000000000000000000000000000000000000000000000000815250600c90805190602001906200005192919062000f06565b506000600e556000600f556110dd601055600a6011556000601260006101000a81548160ff0219169083151502179055506000601260016101000a81548160ff0219169083151502179055506000601260026101000a81548160ff02191690831515021790555073b27a31f1b0af2946b7f582768f03239b1ec07c2c601260036101000a81548173ffffffffffffffffffffffffffffffffffffffff021916908373ffffffffffffffffffffffffffffffffffffffff160217905550601260039054906101000a900473ffffffffffffffffffffffffffffffffffffffff16601360006101000a81548173ffffffffffffffffffffffffffffffffffffffff021916908373ffffffffffffffffffffffffffffffffffffffff1602179055503480156200017d57600080fd5b5060405162006d8c38038062006d8c8339818101604052810190620001a391906200106b565b83838160009080519060200190620001bd92919062000f06565b508060019080519060200190620001d692919062000f06565b505050620001f9620001ed6200026460201b60201c565b6200026c60201b60201c565b6200020a826200033260201b60201c565b6200021b81620003dd60201b60201c565b6200022e3360006200048860201b60201c565b60016014600080815260200190815260200160002060006101000a81548160ff0219169083151502179055505050505062001760565b600033905090565b6000600a60009054906101000a900473ffffffffffffffffffffffffffffffffffffffff16905081600a60006101000a81548173ffffffffffffffffffffffffffffffffffffffff021916908373ffffffffffffffffffffffffffffffffffffffff1602179055508173ffffffffffffffffffffffffffffffffffffffff168173ffffffffffffffffffffffffffffffffffffffff167f8be0079c531659141344cd1fd0a4f28419497f9722a3daafe3b4186f6b6457e060405160405180910390a35050565b620003426200026460201b60201c565b73ffffffffffffffffffffffffffffffffffffffff1662000368620004ae60201b60201c565b73ffffffffffffffffffffffffffffffffffffffff1614620003c1576040517f08c379a0000000000000000000000000000000000000000000000000000000008152600401620003b8906200133d565b60405180910390fd5b80600b9080519060200190620003d992919062000f06565b5050565b620003ed6200026460201b60201c565b73ffffffffffffffffffffffffffffffffffffffff1662000413620004ae60201b60201c565b73ffffffffffffffffffffffffffffffffffffffff16146200046c576040517f08c379a000000000000000000000000000000000000000000000000000000000815260040162000463906200133d565b60405180910390fd5b80600d90805190602001906200048492919062000f06565b5050565b620004aa828260405180602001604052806000815250620004d860201b60201c565b5050565b6000600a60009054906101000a900473ffffffffffffffffffffffffffffffffffffffff16905090565b620004ea83836200054660201b60201c565b620004ff60008484846200072c60201b60201c565b62000541576040517f08c379a00000000000000000000000000000000000000000000000000000000081526004016200053890620012b5565b60405180910390fd5b505050565b600073ffffffffffffffffffffffffffffffffffffffff168273ffffffffffffffffffffffffffffffffffffffff161415620005b9576040517f08c379a0000000000000000000000000000000000000000000000000000000008152600401620005b0906200131b565b60405180910390fd5b620005ca81620008e660201b60201c565b156200060d576040517f08c379a00000000000000000000000000000000000000000000000000000000081526004016200060490620012d7565b60405180910390fd5b62000621600083836200095260201b60201c565b6001600360008473ffffffffffffffffffffffffffffffffffffffff1673ffffffffffffffffffffffffffffffffffffffff1681526020019081526020016000206000828254620006739190620013eb565b92505081905550816002600083815260200190815260200160002060006101000a81548173ffffffffffffffffffffffffffffffffffffffff021916908373ffffffffffffffffffffffffffffffffffffffff160217905550808273ffffffffffffffffffffffffffffffffffffffff16600073ffffffffffffffffffffffffffffffffffffffff167fddf252ad1be2c89b69c2b068fc378daa952ba7f163c4a11628f55a4df523b3ef60405160405180910390a45050565b60006200075a8473ffffffffffffffffffffffffffffffffffffffff1662000a9960201b620028081760201c565b15620008d9578373ffffffffffffffffffffffffffffffffffffffff1663150b7a026200078c6200026460201b60201c565b8786866040518563ffffffff1660e01b8152600401620007b0949392919062001261565b602060405180830381600087803b158015620007cb57600080fd5b505af1925050508015620007ff57506040513d601f19601f82011682018060405250810190620007fc91906200103f565b60015b62000888573d806000811462000832576040519150601f19603f3d011682016040523d82523d6000602084013e62000837565b606091505b5060008151141562000880576040517f08c379a00000000000000000000000000000000000000000000000000000000081526004016200087790620012b5565b60405180910390fd5b805181602001fd5b63150b7a0260e01b7bffffffffffffffffffffffffffffffffffffffffffffffffffffffff1916817bffffffffffffffffffffffffffffffffffffffffffffffffffffffff191614915050620008de565b600190505b949350505050565b60008073ffffffffffffffffffffffffffffffffffffffff166002600084815260200190815260200160002060009054906101000a900473ffffffffffffffffffffffffffffffffffffffff1673ffffffffffffffffffffffffffffffffffffffff1614159050919050565b6200096a83838362000aac60201b6200281b1760201c565b600073ffffffffffffffffffffffffffffffffffffffff168373ffffffffffffffffffffffffffffffffffffffff161415620009b757620009b18162000ab160201b60201c565b620009ff565b8173ffffffffffffffffffffffffffffffffffffffff168373ffffffffffffffffffffffffffffffffffffffff1614620009fe57620009fd838262000afa60201b60201c565b5b5b600073ffffffffffffffffffffffffffffffffffffffff168273ffffffffffffffffffffffffffffffffffffffff16141562000a4c5762000a468162000c7760201b60201c565b62000a94565b8273ffffffffffffffffffffffffffffffffffffffff168273ffffffffffffffffffffffffffffffffffffffff161462000a935762000a92828262000dbf60201b60201c565b5b5b505050565b600080823b905060008111915050919050565b505050565b6008805490506009600083815260200190815260200160002081905550600881908060018154018082558091505060019003906000526020600020016000909190919091505550565b6000600162000b148462000e4b60201b6200151a1760201c565b62000b20919062001448565b905060006007600084815260200190815260200160002054905081811462000c06576000600660008673ffffffffffffffffffffffffffffffffffffffff1673ffffffffffffffffffffffffffffffffffffffff168152602001908152602001600020600084815260200190815260200160002054905080600660008773ffffffffffffffffffffffffffffffffffffffff1673ffffffffffffffffffffffffffffffffffffffff168152602001908152602001600020600084815260200190815260200160002081905550816007600083815260200190815260200160002081905550505b6007600084815260200190815260200160002060009055600660008573ffffffffffffffffffffffffffffffffffffffff1673ffffffffffffffffffffffffffffffffffffffff16815260200190815260200160002060008381526020019081526020016000206000905550505050565b6000600160088054905062000c8d919062001448565b905060006009600084815260200190815260200160002054905060006008838154811062000ce4577f4e487b7100000000000000000000000000000000000000000000000000000000600052603260045260246000fd5b90600052602060002001549050806008838154811062000d2d577f4e487b7100000000000000000000000000000000000000000000000000000000600052603260045260246000fd5b90600052602060002001819055508160096000838152602001908152602001600020819055506009600085815260200190815260200160002060009055600880548062000da3577f4e487b7100000000000000000000000000000000000000000000000000000000600052603160045260246000fd5b6001900381819060005260206000200160009055905550505050565b600062000dd78362000e4b60201b6200151a1760201c565b905081600660008573ffffffffffffffffffffffffffffffffffffffff1673ffffffffffffffffffffffffffffffffffffffff168152602001908152602001600020600083815260200190815260200160002081905550806007600084815260200190815260200160002081905550505050565b60008073ffffffffffffffffffffffffffffffffffffffff168273ffffffffffffffffffffffffffffffffffffffff16141562000ebf576040517f08c379a000000000000000000000000000000000000000000000000000000000815260040162000eb690620012f9565b60405180910390fd5b600360008373ffffffffffffffffffffffffffffffffffffffff1673ffffffffffffffffffffffffffffffffffffffff168152602001908152602001600020549050919050565b82805462000f149062001523565b90600052602060002090601f01602090048101928262000f38576000855562000f84565b82601f1062000f5357805160ff191683800117855562000f84565b8280016001018555821562000f84579182015b8281111562000f8357825182559160200191906001019062000f66565b5b50905062000f93919062000f97565b5090565b5b8082111562000fb257600081600090555060010162000f98565b5090565b600062000fcd62000fc78462001388565b6200135f565b90508281526020810184848401111562000fe657600080fd5b62000ff3848285620014ed565b509392505050565b6000815190506200100c8162001746565b92915050565b600082601f8301126200102457600080fd5b81516200103684826020860162000fb6565b91505092915050565b6000602082840312156200105257600080fd5b6000620010628482850162000ffb565b91505092915050565b600080600080608085870312156200108257600080fd5b600085015167ffffffffffffffff8111156200109d57600080fd5b620010ab8782880162001012565b945050602085015167ffffffffffffffff811115620010c957600080fd5b620010d78782880162001012565b935050604085015167ffffffffffffffff811115620010f557600080fd5b620011038782880162001012565b925050606085015167ffffffffffffffff8111156200112157600080fd5b6200112f8782880162001012565b91505092959194509250565b620011468162001483565b82525050565b60006200115982620013be565b620011658185620013c9565b935062001177818560208601620014ed565b62001182816200161c565b840191505092915050565b60006200119c603283620013da565b9150620011a9826200162d565b604082019050919050565b6000620011c3601c83620013da565b9150620011d0826200167c565b602082019050919050565b6000620011ea602a83620013da565b9150620011f782620016a5565b604082019050919050565b600062001211602083620013da565b91506200121e82620016f4565b602082019050919050565b600062001238602083620013da565b915062001245826200171d565b602082019050919050565b6200125b81620014e3565b82525050565b60006080820190506200127860008301876200113b565b6200128760208301866200113b565b62001296604083018562001250565b8181036060830152620012aa81846200114c565b905095945050505050565b60006020820190508181036000830152620012d0816200118d565b9050919050565b60006020820190508181036000830152620012f281620011b4565b9050919050565b600060208201905081810360008301526200131481620011db565b9050919050565b60006020820190508181036000830152620013368162001202565b9050919050565b60006020820190508181036000830152620013588162001229565b9050919050565b60006200136b6200137e565b905062001379828262001559565b919050565b6000604051905090565b600067ffffffffffffffff821115620013a657620013a5620015ed565b5b620013b1826200161c565b9050602081019050919050565b600081519050919050565b600082825260208201905092915050565b600082825260208201905092915050565b6000620013f882620014e3565b91506200140583620014e3565b9250827fffffffffffffffffffffffffffffffffffffffffffffffffffffffffffffffff038211156200143d576200143c6200158f565b5b828201905092915050565b60006200145582620014e3565b91506200146283620014e3565b9250828210156200147857620014776200158f565b5b828203905092915050565b60006200149082620014c3565b9050919050565b60007fffffffff0000000000000000000000000000000000000000000000000000000082169050919050565b600073ffffffffffffffffffffffffffffffffffffffff82169050919050565b6000819050919050565b60005b838110156200150d578082015181840152602081019050620014f0565b838111156200151d576000848401525b50505050565b600060028204905060018216806200153c57607f821691505b60208210811415620015535762001552620015be565b5b50919050565b62001564826200161c565b810181811067ffffffffffffffff82111715620015865762001585620015ed565b5b80604052505050565b7f4e487b7100000000000000000000000000000000000000000000000000000000600052601160045260246000fd5b7f4e487b7100000000000000000000000000000000000000000000000000000000600052602260045260246000fd5b7f4e487b7100000000000000000000000000000000000000000000000000000000600052604160045260246000fd5b6000601f19601f8301169050919050565b7f4552433732313a207472616e7366657220746f206e6f6e20455243373231526560008201527f63656976657220696d706c656d656e7465720000000000000000000000000000602082015250565b7f4552433732313a20746f6b656e20616c7265616479206d696e74656400000000600082015250565b7f4552433732313a2062616c616e636520717565727920666f7220746865207a6560008201527f726f206164647265737300000000000000000000000000000000000000000000602082015250565b7f4552433732313a206d696e7420746f20746865207a65726f2061646472657373600082015250565b7f4f776e61626c653a2063616c6c6572206973206e6f7420746865206f776e6572600082015250565b620017518162001497565b81146200175d57600080fd5b50565b61561c80620017706000396000f3fe6080604052600436106102885760003560e01c806370a082311161015a578063c6682862116100c1578063da3ef23f1161007a578063da3ef23f146109bb578063dd02b464146109e4578063e222c7f914610a0f578063e985e9c514610a26578063f2c4ce1e14610a63578063f2fde38b14610a8c57610288565b8063c668286214610871578063c87b56dd1461089c578063cc4ef120146108d9578063ce51650714610916578063d18b600714610953578063d5abeb011461099057610288565b8063a22cb46511610113578063a22cb46514610796578063a2309ff8146107bf578063a475b5dd146107ea578063b88d4fde14610801578063b8fa134d1461082a578063c3ac7c031461085557610288565b806370a08231146106a7578063715018a6146106e45780637f00c7a6146106fb5780638da5cb5b1461072457806395d89b411461074f578063a0712d681461077a57610288565b80632f745c59116101fe5780634f6ccce7116101b75780634f6ccce71461058357806351830227146105c057806355f804b3146105eb5780635c975abb146106145780636352211e1461063f5780636c0360eb1461067c57610288565b80632f745c59146104845780633ccfd60b146104c1578063421ce1ca146104cb57806342842e0e146104f4578063438b63001461051d57806344a0d68a1461055a57610288565b8063095ea7b311610250578063095ea7b31461038657806313faede6146103af57806318160ddd146103da5780631e84c41314610405578063239c70ae1461043057806323b872dd1461045b57610288565b806301ffc9a71461028d57806302329a29146102ca57806306fdde03146102f3578063081812fc1461031e578063081c8c441461035b575b600080fd5b34801561029957600080fd5b506102b460048036038101906102af9190613fcc565b610ab5565b6040516102c191906146d2565b60405180910390f35b3480156102d657600080fd5b506102f160048036038101906102ec9190613fa3565b610b2f565b005b3480156102ff57600080fd5b50610308610bc8565b60405161031591906146ed565b60405180910390f35b34801561032a57600080fd5b506103456004803603810190610340919061405f565b610c5a565b6040516103529190614649565b60405180910390f35b34801561036757600080fd5b50610370610cdf565b60405161037d91906146ed565b60405180910390f35b34801561039257600080fd5b506103ad60048036038101906103a89190613f26565b610d6d565b005b3480156103bb57600080fd5b506103c4610e85565b6040516103d19190614a4f565b60405180910390f35b3480156103e657600080fd5b506103ef610e8b565b6040516103fc9190614a4f565b60405180910390f35b34801561041157600080fd5b5061041a610e98565b60405161042791906146d2565b60405180910390f35b34801561043c57600080fd5b50610445610eab565b6040516104529190614a4f565b60405180910390f35b34801561046757600080fd5b50610482600480360381019061047d9190613e20565b610eb1565b005b34801561049057600080fd5b506104ab60048036038101906104a69190613f26565b610f11565b6040516104b89190614a4f565b60405180910390f35b6104c9610fb6565b005b3480156104d757600080fd5b506104f260048036038101906104ed9190613f62565b61107b565b005b34801561050057600080fd5b5061051b60048036038101906105169190613e20565b6110e7565b005b34801561052957600080fd5b50610544600480360381019061053f9190613d92565b611107565b60405161055191906146b0565b60405180910390f35b34801561056657600080fd5b50610581600480360381019061057c919061405f565b611201565b005b34801561058f57600080fd5b506105aa60048036038101906105a5919061405f565b611287565b6040516105b79190614a4f565b60405180910390f35b3480156105cc57600080fd5b506105d561131e565b6040516105e291906146d2565b60405180910390f35b3480156105f757600080fd5b50610612600480360381019061060d919061401e565b611331565b005b34801561062057600080fd5b506106296113c7565b60405161063691906146d2565b60405180910390f35b34801561064b57600080fd5b506106666004803603810190610661919061405f565b6113da565b6040516106739190614649565b60405180910390f35b34801561068857600080fd5b5061069161148c565b60405161069e91906146ed565b60405180910390f35b3480156106b357600080fd5b506106ce60048036038101906106c99190613d92565b61151a565b6040516106db9190614a4f565b60405180910390f35b3480156106f057600080fd5b506106f96115d2565b005b34801561070757600080fd5b50610722600480360381019061071d919061405f565b61165a565b005b34801561073057600080fd5b506107396116e0565b6040516107469190614649565b60405180910390f35b34801561075b57600080fd5b5061076461170a565b60405161077191906146ed565b60405180910390f35b610794600480360381019061078f919061405f565b61179c565b005b3480156107a257600080fd5b506107bd60048036038101906107b89190613eea565b611958565b005b3480156107cb57600080fd5b506107d461196e565b6040516107e19190614a4f565b60405180910390f35b3480156107f657600080fd5b506107ff611974565b005b34801561080d57600080fd5b5061082860048036038101906108239190613e6f565b611a0d565b005b34801561083657600080fd5b5061083f611a6f565b60405161084c9190614649565b60405180910390f35b61086f600480360381019061086a919061405f565b611a95565b005b34801561087d57600080fd5b50610886611d47565b60405161089391906146ed565b60405180910390f35b3480156108a857600080fd5b506108c360048036038101906108be919061405f565b611dd5565b6040516108d091906146ed565b60405180910390f35b3480156108e557600080fd5b5061090060048036038101906108fb9190613d92565b611f2e565b60405161090d91906146b0565b60405180910390f35b34801561092257600080fd5b5061093d6004803603810190610938919061405f565b6121be565b60405161094a91906146d2565b60405180910390f35b34801561095f57600080fd5b5061097a60048036038101906109759190613d92565b6121de565b60405161098791906146b0565b60405180910390f35b34801561099c57600080fd5b506109a5612444565b6040516109b29190614a4f565b60405180910390f35b3480156109c757600080fd5b506109e260048036038101906109dd919061401e565b61244a565b005b3480156109f057600080fd5b506109f96124e0565b604051610a069190614a4f565b60405180910390f35b348015610a1b57600080fd5b50610a2461253e565b005b348015610a3257600080fd5b50610a4d6004803603810190610a489190613de4565b6125e6565b604051610a5a91906146d2565b60405180910390f35b348015610a6f57600080fd5b50610a8a6004803603810190610a85919061401e565b61267a565b005b348015610a9857600080fd5b50610ab36004803603810190610aae9190613d92565b612710565b005b60007f780e9d63000000000000000000000000000000000000000000000000000000007bffffffffffffffffffffffffffffffffffffffffffffffffffffffff1916827bffffffffffffffffffffffffffffffffffffffffffffffffffffffff19161480610b285750610b2782612820565b5b9050919050565b610b37612902565b73ffffffffffffffffffffffffffffffffffffffff16610b556116e0565b73ffffffffffffffffffffffffffffffffffffffff1614610bab576040517f08c379a0000000000000000000000000000000000000000000000000000000008152600401610ba2906148ef565b60405180910390fd5b80601260006101000a81548160ff02191690831515021790555050565b606060008054610bd790614d79565b80601f0160208091040260200160405190810160405280929190818152602001828054610c0390614d79565b8015610c505780601f10610c2557610100808354040283529160200191610c50565b820191906000526020600020905b815481529060010190602001808311610c3357829003601f168201915b5050505050905090565b6000610c658261290a565b610ca4576040517f08c379a0000000000000000000000000000000000000000000000000000000008152600401610c9b906148cf565b60405180910390fd5b6004600083815260200190815260200160002060009054906101000a900473ffffffffffffffffffffffffffffffffffffffff169050919050565b600d8054610cec90614d79565b80601f0160208091040260200160405190810160405280929190818152602001828054610d1890614d79565b8015610d655780601f10610d3a57610100808354040283529160200191610d65565b820191906000526020600020905b815481529060010190602001808311610d4857829003601f168201915b505050505081565b6000610d78826113da565b90508073ffffffffffffffffffffffffffffffffffffffff168373ffffffffffffffffffffffffffffffffffffffff161415610de9576040517f08c379a0000000000000000000000000000000000000000000000000000000008152600401610de09061496f565b60405180910390fd5b8073ffffffffffffffffffffffffffffffffffffffff16610e08612902565b73ffffffffffffffffffffffffffffffffffffffff161480610e375750610e3681610e31612902565b6125e6565b5b610e76576040517f08c379a0000000000000000000000000000000000000000000000000000000008152600401610e6d9061480f565b60405180910390fd5b610e808383612976565b505050565b600e5481565b6000600880549050905090565b601260019054906101000a900460ff1681565b60115481565b610ec2610ebc612902565b82612a2f565b610f01576040517f08c379a0000000000000000000000000000000000000000000000000000000008152600401610ef8906149cf565b60405180910390fd5b610f0c838383612b0d565b505050565b6000610f1c8361151a565b8210610f5d576040517f08c379a0000000000000000000000000000000000000000000000000000000008152600401610f549061470f565b60405180910390fd5b600660008473ffffffffffffffffffffffffffffffffffffffff1673ffffffffffffffffffffffffffffffffffffffff168152602001908152602001600020600083815260200190815260200160002054905092915050565b610fbe612902565b73ffffffffffffffffffffffffffffffffffffffff16610fdc6116e0565b73ffffffffffffffffffffffffffffffffffffffff1614611032576040517f08c379a0000000000000000000000000000000000000000000000000000000008152600401611029906148ef565b60405180910390fd5b3373ffffffffffffffffffffffffffffffffffffffff166108fc479081150290604051600060405180830381858888f19350505050158015611078573d6000803e3d6000fd5b50565b60005b81518110156110e3576110d08282815181106110c3577f4e487b7100000000000000000000000000000000000000000000000000000000600052603260045260246000fd5b6020026020010151611a95565b80806110db90614ddc565b91505061107e565b5050565b61110283838360405180602001604052806000815250611a0d565b505050565b606060006111148361151a565b905060008167ffffffffffffffff811115611158577f4e487b7100000000000000000000000000000000000000000000000000000000600052604160045260246000fd5b6040519080825280602002602001820160405280156111865781602001602082028036833780820191505090505b50905060005b828110156111f65761119e8582610f11565b8282815181106111d7577f4e487b7100000000000000000000000000000000000000000000000000000000600052603260045260246000fd5b60200260200101818152505080806111ee90614ddc565b91505061118c565b508092505050919050565b611209612902565b73ffffffffffffffffffffffffffffffffffffffff166112276116e0565b73ffffffffffffffffffffffffffffffffffffffff161461127d576040517f08c379a0000000000000000000000000000000000000000000000000000000008152600401611274906148ef565b60405180910390fd5b80600e8190555050565b6000611291610e8b565b82106112d2576040517f08c379a00000000000000000000000000000000000000000000000000000000081526004016112c9906149ef565b60405180910390fd5b6008828154811061130c577f4e487b7100000000000000000000000000000000000000000000000000000000600052603260045260246000fd5b90600052602060002001549050919050565b601260029054906101000a900460ff1681565b611339612902565b73ffffffffffffffffffffffffffffffffffffffff166113576116e0565b73ffffffffffffffffffffffffffffffffffffffff16146113ad576040517f08c379a00000000000000000000000000000000000000000000000000000000081526004016113a4906148ef565b60405180910390fd5b80600b90805190602001906113c3929190613b0b565b5050565b601260009054906101000a900460ff1681565b6000806002600084815260200190815260200160002060009054906101000a900473ffffffffffffffffffffffffffffffffffffffff169050600073ffffffffffffffffffffffffffffffffffffffff168173ffffffffffffffffffffffffffffffffffffffff161415611483576040517f08c379a000000000000000000000000000000000000000000000000000000000815260040161147a9061484f565b60405180910390fd5b80915050919050565b600b805461149990614d79565b80601f01602080910402602001604051908101604052809291908181526020018280546114c590614d79565b80156115125780601f106114e757610100808354040283529160200191611512565b820191906000526020600020905b8154815290600101906020018083116114f557829003601f168201915b505050505081565b60008073ffffffffffffffffffffffffffffffffffffffff168273ffffffffffffffffffffffffffffffffffffffff16141561158b576040517f08c379a00000000000000000000000000000000000000000000000000000000081526004016115829061482f565b60405180910390fd5b600360008373ffffffffffffffffffffffffffffffffffffffff1673ffffffffffffffffffffffffffffffffffffffff168152602001908152602001600020549050919050565b6115da612902565b73ffffffffffffffffffffffffffffffffffffffff166115f86116e0565b73ffffffffffffffffffffffffffffffffffffffff161461164e576040517f08c379a0000000000000000000000000000000000000000000000000000000008152600401611645906148ef565b60405180910390fd5b6116586000612d69565b565b611662612902565b73ffffffffffffffffffffffffffffffffffffffff166116806116e0565b73ffffffffffffffffffffffffffffffffffffffff16146116d6576040517f08c379a00000000000000000000000000000000000000000000000000000000081526004016116cd906148ef565b60405180910390fd5b8060118190555050565b6000600a60009054906101000a900473ffffffffffffffffffffffffffffffffffffffff16905090565b60606001805461171990614d79565b80601f016020809104026020016040519081016040528092919081815260200182805461174590614d79565b80156117925780601f1061176757610100808354040283529160200191611792565b820191906000526020600020905b81548152906001019060200180831161177557829003601f168201915b5050505050905090565b601260009054906101000a900460ff16156117ec576040517f08c379a00000000000000000000000000000000000000000000000000000000081526004016117e39061490f565b60405180910390fd5b60105481600f546117fd9190614bae565b111561183e576040517f08c379a00000000000000000000000000000000000000000000000000000000081526004016118359061486f565b60405180910390fd5b80600e5461184c9190614c35565b34101561188e576040517f08c379a0000000000000000000000000000000000000000000000000000000008152600401611885906149af565b60405180910390fd5b6011548111156118d3576040517f08c379a00000000000000000000000000000000000000000000000000000000081526004016118ca90614a2f565b60405180910390fd5b601260019054906101000a900460ff16611922576040517f08c379a00000000000000000000000000000000000000000000000000000000081526004016119199061498f565b60405180910390fd5b6000600190505b818111611954576119413361193c6124e0565b612e2f565b808061194c90614ddc565b915050611929565b5050565b61196a611963612902565b8383612e4d565b5050565b600f5481565b61197c612902565b73ffffffffffffffffffffffffffffffffffffffff1661199a6116e0565b73ffffffffffffffffffffffffffffffffffffffff16146119f0576040517f08c379a00000000000000000000000000000000000000000000000000000000081526004016119e7906148ef565b60405180910390fd5b6001601260026101000a81548160ff021916908315150217905550565b611a1e611a18612902565b83612a2f565b611a5d576040517f08c379a0000000000000000000000000000000000000000000000000000000008152600401611a54906149cf565b60405180910390fd5b611a6984848484612fba565b50505050565b601260039054906101000a900473ffffffffffffffffffffffffffffffffffffffff1681565b601260009054906101000a900460ff1615611ae5576040517f08c379a0000000000000000000000000000000000000000000000000000000008152600401611adc906148af565b60405180910390fd5b6010546001600f54611af79190614bae565b1115611b38576040517f08c379a0000000000000000000000000000000000000000000000000000000008152600401611b2f9061486f565b60405180910390fd5b600e54341015611b7d576040517f08c379a0000000000000000000000000000000000000000000000000000000008152600401611b74906149af565b60405180910390fd5b3373ffffffffffffffffffffffffffffffffffffffff16601360009054906101000a900473ffffffffffffffffffffffffffffffffffffffff1673ffffffffffffffffffffffffffffffffffffffff16636352211e836040518263ffffffff1660e01b8152600401611bef9190614a4f565b60206040518083038186803b158015611c0757600080fd5b505afa158015611c1b573d6000803e3d6000fd5b505050506040513d601f19601f82011682018060405250810190611c3f9190613dbb565b73ffffffffffffffffffffffffffffffffffffffff1614611c95576040517f08c379a0000000000000000000000000000000000000000000000000000000008152600401611c8c90614a0f565b60405180910390fd5b6014600082815260200190815260200160002060009054906101000a900460ff1615611cf6576040517f08c379a0000000000000000000000000000000000000000000000000000000008152600401611ced906147ef565b60405180910390fd5b60016014600083815260200190815260200160002060006101000a81548160ff021916908315150217905550600f6000815480929190611d3590614ddc565b9190505550611d443382612e2f565b50565b600c8054611d5490614d79565b80601f0160208091040260200160405190810160405280929190818152602001828054611d8090614d79565b8015611dcd5780601f10611da257610100808354040283529160200191611dcd565b820191906000526020600020905b815481529060010190602001808311611db057829003601f168201915b505050505081565b6060611de08261290a565b611e1f576040517f08c379a0000000000000000000000000000000000000000000000000000000008152600401611e169061494f565b60405180910390fd5b60001515601260029054906101000a900460ff1615151415611ecd57600d8054611e4890614d79565b80601f0160208091040260200160405190810160405280929190818152602001828054611e7490614d79565b8015611ec15780601f10611e9657610100808354040283529160200191611ec1565b820191906000526020600020905b815481529060010190602001808311611ea457829003601f168201915b50505050509050611f29565b6000611ed7613016565b90506000815111611ef75760405180602001604052806000815250611f25565b80611f01846130a8565b600c604051602001611f159392919061460d565b6040516020818303038152906040525b9150505b919050565b606060006110dd67ffffffffffffffff811115611f74577f4e487b7100000000000000000000000000000000000000000000000000000000600052604160045260246000fd5b604051908082528060200260200182016040528015611fa25781602001602082028036833780820191505090505b5090506000805b6110dd81101561212a576000601360009054906101000a900473ffffffffffffffffffffffffffffffffffffffff1673ffffffffffffffffffffffffffffffffffffffff16636352211e836040518263ffffffff1660e01b81526004016120109190614a4f565b60206040518083038186803b15801561202857600080fd5b505afa15801561203c573d6000803e3d6000fd5b505050506040513d601f19601f820116820180604052508101906120609190613dbb565b90508073ffffffffffffffffffffffffffffffffffffffff168673ffffffffffffffffffffffffffffffffffffffff161480156120bb57506014600083815260200190815260200160002060009054906101000a900460ff16155b1561211657818484815181106120fa577f4e487b7100000000000000000000000000000000000000000000000000000000600052603260045260246000fd5b6020026020010181815250506001836121139190614bae565b92505b50808061212290614ddc565b915050611fa9565b506000816110dd61213b9190614c8f565b905060005b818110156121b25761270f848481518110612184577f4e487b7100000000000000000000000000000000000000000000000000000000600052603260045260246000fd5b60200260200101818152505060018361219d9190614bae565b925080806121aa90614ddc565b915050612140565b50829350505050919050565b60146020528060005260406000206000915054906101000a900460ff1681565b606060006110dd67ffffffffffffffff811115612224577f4e487b7100000000000000000000000000000000000000000000000000000000600052604160045260246000fd5b6040519080825280602002602001820160405280156122525781602001602082028036833780820191505090505b5090506000805b6110dd8110156123b0576000601360009054906101000a900473ffffffffffffffffffffffffffffffffffffffff1673ffffffffffffffffffffffffffffffffffffffff16636352211e836040518263ffffffff1660e01b81526004016122c09190614a4f565b60206040518083038186803b1580156122d857600080fd5b505afa1580156122ec573d6000803e3d6000fd5b505050506040513d601f19601f820116820180604052508101906123109190613dbb565b90508073ffffffffffffffffffffffffffffffffffffffff168673ffffffffffffffffffffffffffffffffffffffff16141561239c5781848481518110612380577f4e487b7100000000000000000000000000000000000000000000000000000000600052603260045260246000fd5b6020026020010181815250506001836123999190614bae565b92505b5080806123a890614ddc565b915050612259565b506000816110dd6123c19190614c8f565b905060005b818110156124385761270f84848151811061240a577f4e487b7100000000000000000000000000000000000000000000000000000000600052603260045260246000fd5b6020026020010181815250506001836124239190614bae565b9250808061243090614ddc565b9150506123c6565b50829350505050919050565b60105481565b612452612902565b73ffffffffffffffffffffffffffffffffffffffff166124706116e0565b73ffffffffffffffffffffffffffffffffffffffff16146124c6576040517f08c379a00000000000000000000000000000000000000000000000000000000081526004016124bd906148ef565b60405180910390fd5b80600c90805190602001906124dc929190613b0b565b5050565b600080600090505b6110dd811161253957600115156014600083815260200190815260200160002060009054906101000a900460ff16151514612526578091505061253b565b808061253190614ddc565b9150506124e8565b505b90565b612546612902565b73ffffffffffffffffffffffffffffffffffffffff166125646116e0565b73ffffffffffffffffffffffffffffffffffffffff16146125ba576040517f08c379a00000000000000000000000000000000000000000000000000000000081526004016125b1906148ef565b60405180910390fd5b601260019054906101000a900460ff1615601260016101000a81548160ff021916908315150217905550565b6000600560008473ffffffffffffffffffffffffffffffffffffffff1673ffffffffffffffffffffffffffffffffffffffff16815260200190815260200160002060008373ffffffffffffffffffffffffffffffffffffffff1673ffffffffffffffffffffffffffffffffffffffff16815260200190815260200160002060009054906101000a900460ff16905092915050565b612682612902565b73ffffffffffffffffffffffffffffffffffffffff166126a06116e0565b73ffffffffffffffffffffffffffffffffffffffff16146126f6576040517f08c379a00000000000000000000000000000000000000000000000000000000081526004016126ed906148ef565b60405180910390fd5b80600d908051906020019061270c929190613b0b565b5050565b612718612902565b73ffffffffffffffffffffffffffffffffffffffff166127366116e0565b73ffffffffffffffffffffffffffffffffffffffff161461278c576040517f08c379a0000000000000000000000000000000000000000000000000000000008152600401612783906148ef565b60405180910390fd5b600073ffffffffffffffffffffffffffffffffffffffff168173ffffffffffffffffffffffffffffffffffffffff1614156127fc576040517f08c379a00000000000000000000000000000000000000000000000000000000081526004016127f39061474f565b60405180910390fd5b61280581612d69565b50565b600080823b905060008111915050919050565b505050565b60007f80ac58cd000000000000000000000000000000000000000000000000000000007bffffffffffffffffffffffffffffffffffffffffffffffffffffffff1916827bffffffffffffffffffffffffffffffffffffffffffffffffffffffff191614806128eb57507f5b5e139f000000000000000000000000000000000000000000000000000000007bffffffffffffffffffffffffffffffffffffffffffffffffffffffff1916827bffffffffffffffffffffffffffffffffffffffffffffffffffffffff1916145b806128fb57506128fa82613255565b5b9050919050565b600033905090565b60008073ffffffffffffffffffffffffffffffffffffffff166002600084815260200190815260200160002060009054906101000a900473ffffffffffffffffffffffffffffffffffffffff1673ffffffffffffffffffffffffffffffffffffffff1614159050919050565b816004600083815260200190815260200160002060006101000a81548173ffffffffffffffffffffffffffffffffffffffff021916908373ffffffffffffffffffffffffffffffffffffffff160217905550808273ffffffffffffffffffffffffffffffffffffffff166129e9836113da565b73ffffffffffffffffffffffffffffffffffffffff167f8c5be1e5ebec7d5bd14f71427d1e84f3dd0314c0f7b2291e5b200ac8c7c3b92560405160405180910390a45050565b6000612a3a8261290a565b612a79576040517f08c379a0000000000000000000000000000000000000000000000000000000008152600401612a70906147cf565b60405180910390fd5b6000612a84836113da565b90508073ffffffffffffffffffffffffffffffffffffffff168473ffffffffffffffffffffffffffffffffffffffff161480612af357508373ffffffffffffffffffffffffffffffffffffffff16612adb84610c5a565b73ffffffffffffffffffffffffffffffffffffffff16145b80612b045750612b0381856125e6565b5b91505092915050565b8273ffffffffffffffffffffffffffffffffffffffff16612b2d826113da565b73ffffffffffffffffffffffffffffffffffffffff1614612b83576040517f08c379a0000000000000000000000000000000000000000000000000000000008152600401612b7a9061492f565b60405180910390fd5b600073ffffffffffffffffffffffffffffffffffffffff168273ffffffffffffffffffffffffffffffffffffffff161415612bf3576040517f08c379a0000000000000000000000000000000000000000000000000000000008152600401612bea9061478f565b60405180910390fd5b612bfe8383836132bf565b612c09600082612976565b6001600360008573ffffffffffffffffffffffffffffffffffffffff1673ffffffffffffffffffffffffffffffffffffffff1681526020019081526020016000206000828254612c599190614c8f565b925050819055506001600360008473ffffffffffffffffffffffffffffffffffffffff1673ffffffffffffffffffffffffffffffffffffffff1681526020019081526020016000206000828254612cb09190614bae565b92505081905550816002600083815260200190815260200160002060006101000a81548173ffffffffffffffffffffffffffffffffffffffff021916908373ffffffffffffffffffffffffffffffffffffffff160217905550808273ffffffffffffffffffffffffffffffffffffffff168473ffffffffffffffffffffffffffffffffffffffff167fddf252ad1be2c89b69c2b068fc378daa952ba7f163c4a11628f55a4df523b3ef60405160405180910390a4505050565b6000600a60009054906101000a900473ffffffffffffffffffffffffffffffffffffffff16905081600a60006101000a81548173ffffffffffffffffffffffffffffffffffffffff021916908373ffffffffffffffffffffffffffffffffffffffff1602179055508173ffffffffffffffffffffffffffffffffffffffff168173ffffffffffffffffffffffffffffffffffffffff167f8be0079c531659141344cd1fd0a4f28419497f9722a3daafe3b4186f6b6457e060405160405180910390a35050565b612e498282604051806020016040528060008152506133d3565b5050565b8173ffffffffffffffffffffffffffffffffffffffff168373ffffffffffffffffffffffffffffffffffffffff161415612ebc576040517f08c379a0000000000000000000000000000000000000000000000000000000008152600401612eb3906147af565b60405180910390fd5b80600560008573ffffffffffffffffffffffffffffffffffffffff1673ffffffffffffffffffffffffffffffffffffffff16815260200190815260200160002060008473ffffffffffffffffffffffffffffffffffffffff1673ffffffffffffffffffffffffffffffffffffffff16815260200190815260200160002060006101000a81548160ff0219169083151502179055508173ffffffffffffffffffffffffffffffffffffffff168373ffffffffffffffffffffffffffffffffffffffff167f17307eab39ab6107e8899845ad3d59bd9653f200f220920489ca2b5937696c3183604051612fad91906146d2565b60405180910390a3505050565b612fc5848484612b0d565b612fd18484848461342e565b613010576040517f08c379a00000000000000000000000000000000000000000000000000000000081526004016130079061472f565b60405180910390fd5b50505050565b6060600b805461302590614d79565b80601f016020809104026020016040519081016040528092919081815260200182805461305190614d79565b801561309e5780601f106130735761010080835404028352916020019161309e565b820191906000526020600020905b81548152906001019060200180831161308157829003601f168201915b5050505050905090565b606060008214156130f0576040518060400160405280600181526020017f30000000000000000000000000000000000000000000000000000000000000008152509050613250565b600082905060005b6000821461312257808061310b90614ddc565b915050600a8261311b9190614c04565b91506130f8565b60008167ffffffffffffffff811115613164577f4e487b7100000000000000000000000000000000000000000000000000000000600052604160045260246000fd5b6040519080825280601f01601f1916602001820160405280156131965781602001600182028036833780820191505090505b5090505b60008514613249576001826131af9190614c8f565b9150600a856131be9190614e25565b60306131ca9190614bae565b60f81b818381518110613206577f4e487b7100000000000000000000000000000000000000000000000000000000600052603260045260246000fd5b60200101907effffffffffffffffffffffffffffffffffffffffffffffffffffffffffffff1916908160001a905350600a856132429190614c04565b945061319a565b8093505050505b919050565b60007f01ffc9a7000000000000000000000000000000000000000000000000000000007bffffffffffffffffffffffffffffffffffffffffffffffffffffffff1916827bffffffffffffffffffffffffffffffffffffffffffffffffffffffff1916149050919050565b6132ca83838361281b565b600073ffffffffffffffffffffffffffffffffffffffff168373ffffffffffffffffffffffffffffffffffffffff16141561330d57613308816135c5565b61334c565b8173ffffffffffffffffffffffffffffffffffffffff168373ffffffffffffffffffffffffffffffffffffffff161461334b5761334a838261360e565b5b5b600073ffffffffffffffffffffffffffffffffffffffff168273ffffffffffffffffffffffffffffffffffffffff16141561338f5761338a8161377b565b6133ce565b8273ffffffffffffffffffffffffffffffffffffffff168273ffffffffffffffffffffffffffffffffffffffff16146133cd576133cc82826138be565b5b5b505050565b6133dd838361393d565b6133ea600084848461342e565b613429576040517f08c379a00000000000000000000000000000000000000000000000000000000081526004016134209061472f565b60405180910390fd5b505050565b600061344f8473ffffffffffffffffffffffffffffffffffffffff16612808565b156135b8578373ffffffffffffffffffffffffffffffffffffffff1663150b7a02613478612902565b8786866040518563ffffffff1660e01b815260040161349a9493929190614664565b602060405180830381600087803b1580156134b457600080fd5b505af19250505080156134e557506040513d601f19601f820116820180604052508101906134e29190613ff5565b60015b613568573d8060008114613515576040519150601f19603f3d011682016040523d82523d6000602084013e61351a565b606091505b50600081511415613560576040517f08c379a00000000000000000000000000000000000000000000000000000000081526004016135579061472f565b60405180910390fd5b805181602001fd5b63150b7a0260e01b7bffffffffffffffffffffffffffffffffffffffffffffffffffffffff1916817bffffffffffffffffffffffffffffffffffffffffffffffffffffffff1916149150506135bd565b600190505b949350505050565b6008805490506009600083815260200190815260200160002081905550600881908060018154018082558091505060019003906000526020600020016000909190919091505550565b6000600161361b8461151a565b6136259190614c8f565b905060006007600084815260200190815260200160002054905081811461370a576000600660008673ffffffffffffffffffffffffffffffffffffffff1673ffffffffffffffffffffffffffffffffffffffff168152602001908152602001600020600084815260200190815260200160002054905080600660008773ffffffffffffffffffffffffffffffffffffffff1673ffffffffffffffffffffffffffffffffffffffff168152602001908152602001600020600084815260200190815260200160002081905550816007600083815260200190815260200160002081905550505b6007600084815260200190815260200160002060009055600660008573ffffffffffffffffffffffffffffffffffffffff1673ffffffffffffffffffffffffffffffffffffffff16815260200190815260200160002060008381526020019081526020016000206000905550505050565b6000600160088054905061378f9190614c8f565b90506000600960008481526020019081526020016000205490506000600883815481106137e5577f4e487b7100000000000000000000000000000000000000000000000000000000600052603260045260246000fd5b90600052602060002001549050806008838154811061382d577f4e487b7100000000000000000000000000000000000000000000000000000000600052603260045260246000fd5b9060005260206000200181905550816009600083815260200190815260200160002081905550600960008581526020019081526020016000206000905560088054806138a2577f4e487b7100000000000000000000000000000000000000000000000000000000600052603160045260246000fd5b6001900381819060005260206000200160009055905550505050565b60006138c98361151a565b905081600660008573ffffffffffffffffffffffffffffffffffffffff1673ffffffffffffffffffffffffffffffffffffffff168152602001908152602001600020600083815260200190815260200160002081905550806007600084815260200190815260200160002081905550505050565b600073ffffffffffffffffffffffffffffffffffffffff168273ffffffffffffffffffffffffffffffffffffffff1614156139ad576040517f08c379a00000000000000000000000000000000000000000000000000000000081526004016139a49061488f565b60405180910390fd5b6139b68161290a565b156139f6576040517f08c379a00000000000000000000000000000000000000000000000000000000081526004016139ed9061476f565b60405180910390fd5b613a02600083836132bf565b6001600360008473ffffffffffffffffffffffffffffffffffffffff1673ffffffffffffffffffffffffffffffffffffffff1681526020019081526020016000206000828254613a529190614bae565b92505081905550816002600083815260200190815260200160002060006101000a81548173ffffffffffffffffffffffffffffffffffffffff021916908373ffffffffffffffffffffffffffffffffffffffff160217905550808273ffffffffffffffffffffffffffffffffffffffff16600073ffffffffffffffffffffffffffffffffffffffff167fddf252ad1be2c89b69c2b068fc378daa952ba7f163c4a11628f55a4df523b3ef60405160405180910390a45050565b828054613b1790614d79565b90600052602060002090601f016020900481019282613b395760008555613b80565b82601f10613b5257805160ff1916838001178555613b80565b82800160010185558215613b80579182015b82811115613b7f578251825591602001919060010190613b64565b5b509050613b8d9190613b91565b5090565b5b80821115613baa576000816000905550600101613b92565b5090565b6000613bc1613bbc84614a8f565b614a6a565b90508083825260208201905082856020860282011115613be057600080fd5b60005b85811015613c105781613bf68882613d7d565b845260208401935060208301925050600181019050613be3565b5050509392505050565b6000613c2d613c2884614abb565b614a6a565b905082815260208101848484011115613c4557600080fd5b613c50848285614d37565b509392505050565b6000613c6b613c6684614aec565b614a6a565b905082815260208101848484011115613c8357600080fd5b613c8e848285614d37565b509392505050565b600081359050613ca58161558a565b92915050565b600081519050613cba8161558a565b92915050565b600082601f830112613cd157600080fd5b8135613ce1848260208601613bae565b91505092915050565b600081359050613cf9816155a1565b92915050565b600081359050613d0e816155b8565b92915050565b600081519050613d23816155b8565b92915050565b600082601f830112613d3a57600080fd5b8135613d4a848260208601613c1a565b91505092915050565b600082601f830112613d6457600080fd5b8135613d74848260208601613c58565b91505092915050565b600081359050613d8c816155cf565b92915050565b600060208284031215613da457600080fd5b6000613db284828501613c96565b91505092915050565b600060208284031215613dcd57600080fd5b6000613ddb84828501613cab565b91505092915050565b60008060408385031215613df757600080fd5b6000613e0585828601613c96565b9250506020613e1685828601613c96565b9150509250929050565b600080600060608486031215613e3557600080fd5b6000613e4386828701613c96565b9350506020613e5486828701613c96565b9250506040613e6586828701613d7d565b9150509250925092565b60008060008060808587031215613e8557600080fd5b6000613e9387828801613c96565b9450506020613ea487828801613c96565b9350506040613eb587828801613d7d565b925050606085013567ffffffffffffffff811115613ed257600080fd5b613ede87828801613d29565b91505092959194509250565b60008060408385031215613efd57600080fd5b6000613f0b85828601613c96565b9250506020613f1c85828601613cea565b9150509250929050565b60008060408385031215613f3957600080fd5b6000613f4785828601613c96565b9250506020613f5885828601613d7d565b9150509250929050565b600060208284031215613f7457600080fd5b600082013567ffffffffffffffff811115613f8e57600080fd5b613f9a84828501613cc0565b91505092915050565b600060208284031215613fb557600080fd5b6000613fc384828501613cea565b91505092915050565b600060208284031215613fde57600080fd5b6000613fec84828501613cff565b91505092915050565b60006020828403121561400757600080fd5b600061401584828501613d14565b91505092915050565b60006020828403121561403057600080fd5b600082013567ffffffffffffffff81111561404a57600080fd5b61405684828501613d53565b91505092915050565b60006020828403121561407157600080fd5b600061407f84828501613d7d565b91505092915050565b600061409483836145ef565b60208301905092915050565b6140a981614cc3565b82525050565b60006140ba82614b42565b6140c48185614b70565b93506140cf83614b1d565b8060005b838110156141005781516140e78882614088565b97506140f283614b63565b9250506001810190506140d3565b5085935050505092915050565b61411681614cd5565b82525050565b600061412782614b4d565b6141318185614b81565b9350614141818560208601614d46565b61414a81614f12565b840191505092915050565b600061416082614b58565b61416a8185614b92565b935061417a818560208601614d46565b61418381614f12565b840191505092915050565b600061419982614b58565b6141a38185614ba3565b93506141b3818560208601614d46565b80840191505092915050565b600081546141cc81614d79565b6141d68186614ba3565b945060018216600081146141f1576001811461420257614235565b60ff19831686528186019350614235565b61420b85614b2d565b60005b8381101561422d5781548189015260018201915060208101905061420e565b838801955050505b50505092915050565b600061424b602b83614b92565b915061425682614f23565b604082019050919050565b600061426e603283614b92565b915061427982614f72565b604082019050919050565b6000614291602683614b92565b915061429c82614fc1565b604082019050919050565b60006142b4601c83614b92565b91506142bf82615010565b602082019050919050565b60006142d7602483614b92565b91506142e282615039565b604082019050919050565b60006142fa601983614b92565b915061430582615088565b602082019050919050565b600061431d602c83614b92565b9150614328826150b1565b604082019050919050565b6000614340602083614b92565b915061434b82615100565b602082019050919050565b6000614363603883614b92565b915061436e82615129565b604082019050919050565b6000614386602a83614b92565b915061439182615178565b604082019050919050565b60006143a9602983614b92565b91506143b4826151c7565b604082019050919050565b60006143cc601b83614b92565b91506143d782615216565b602082019050919050565b60006143ef602083614b92565b91506143fa8261523f565b602082019050919050565b6000614412601183614b92565b915061441d82615268565b602082019050919050565b6000614435602c83614b92565b915061444082615291565b604082019050919050565b6000614458602083614b92565b9150614463826152e0565b602082019050919050565b600061447b601683614b92565b915061448682615309565b602082019050919050565b600061449e602983614b92565b91506144a982615332565b604082019050919050565b60006144c1602f83614b92565b91506144cc82615381565b604082019050919050565b60006144e4602183614b92565b91506144ef826153d0565b604082019050919050565b6000614507601d83614b92565b91506145128261541f565b602082019050919050565b600061452a601283614b92565b915061453582615448565b602082019050919050565b600061454d603183614b92565b915061455882615471565b604082019050919050565b6000614570602c83614b92565b915061457b826154c0565b604082019050919050565b6000614593600183614ba3565b915061459e8261550f565b600182019050919050565b60006145b6601c83614b92565b91506145c182615538565b602082019050919050565b60006145d9601f83614b92565b91506145e482615561565b602082019050919050565b6145f881614d2d565b82525050565b61460781614d2d565b82525050565b6000614619828661418e565b915061462482614586565b9150614630828561418e565b915061463c82846141bf565b9150819050949350505050565b600060208201905061465e60008301846140a0565b92915050565b600060808201905061467960008301876140a0565b61468660208301866140a0565b61469360408301856145fe565b81810360608301526146a5818461411c565b905095945050505050565b600060208201905081810360008301526146ca81846140af565b905092915050565b60006020820190506146e7600083018461410d565b92915050565b600060208201905081810360008301526147078184614155565b905092915050565b600060208201905081810360008301526147288161423e565b9050919050565b6000602082019050818103600083015261474881614261565b9050919050565b6000602082019050818103600083015261476881614284565b9050919050565b60006020820190508181036000830152614788816142a7565b9050919050565b600060208201905081810360008301526147a8816142ca565b9050919050565b600060208201905081810360008301526147c8816142ed565b9050919050565b600060208201905081810360008301526147e881614310565b9050919050565b6000602082019050818103600083015261480881614333565b9050919050565b6000602082019050818103600083015261482881614356565b9050919050565b6000602082019050818103600083015261484881614379565b9050919050565b600060208201905081810360008301526148688161439c565b9050919050565b60006020820190508181036000830152614888816143bf565b9050919050565b600060208201905081810360008301526148a8816143e2565b9050919050565b600060208201905081810360008301526148c881614405565b9050919050565b600060208201905081810360008301526148e881614428565b9050919050565b600060208201905081810360008301526149088161444b565b9050919050565b600060208201905081810360008301526149288161446e565b9050919050565b6000602082019050818103600083015261494881614491565b9050919050565b60006020820190508181036000830152614968816144b4565b9050919050565b60006020820190508181036000830152614988816144d7565b9050919050565b600060208201905081810360008301526149a8816144fa565b9050919050565b600060208201905081810360008301526149c88161451d565b9050919050565b600060208201905081810360008301526149e881614540565b9050919050565b60006020820190508181036000830152614a0881614563565b9050919050565b60006020820190508181036000830152614a28816145a9565b9050919050565b60006020820190508181036000830152614a48816145cc565b9050919050565b6000602082019050614a6460008301846145fe565b92915050565b6000614a74614a85565b9050614a808282614dab565b919050565b6000604051905090565b600067ffffffffffffffff821115614aaa57614aa9614ee3565b5b602082029050602081019050919050565b600067ffffffffffffffff821115614ad657614ad5614ee3565b5b614adf82614f12565b9050602081019050919050565b600067ffffffffffffffff821115614b0757614b06614ee3565b5b614b1082614f12565b9050602081019050919050565b6000819050602082019050919050565b60008190508160005260206000209050919050565b600081519050919050565b600081519050919050565b600081519050919050565b6000602082019050919050565b600082825260208201905092915050565b600082825260208201905092915050565b600082825260208201905092915050565b600081905092915050565b6000614bb982614d2d565b9150614bc483614d2d565b9250827fffffffffffffffffffffffffffffffffffffffffffffffffffffffffffffffff03821115614bf957614bf8614e56565b5b828201905092915050565b6000614c0f82614d2d565b9150614c1a83614d2d565b925082614c2a57614c29614e85565b5b828204905092915050565b6000614c4082614d2d565b9150614c4b83614d2d565b9250817fffffffffffffffffffffffffffffffffffffffffffffffffffffffffffffffff0483118215151615614c8457614c83614e56565b5b828202905092915050565b6000614c9a82614d2d565b9150614ca583614d2d565b925082821015614cb857614cb7614e56565b5b828203905092915050565b6000614cce82614d0d565b9050919050565b60008115159050919050565b60007fffffffff0000000000000000000000000000000000000000000000000000000082169050919050565b600073ffffffffffffffffffffffffffffffffffffffff82169050919050565b6000819050919050565b82818337600083830152505050565b60005b83811015614d64578082015181840152602081019050614d49565b83811115614d73576000848401525b50505050565b60006002820490506001821680614d9157607f821691505b60208210811415614da557614da4614eb4565b5b50919050565b614db482614f12565b810181811067ffffffffffffffff82111715614dd357614dd2614ee3565b5b80604052505050565b6000614de782614d2d565b91507fffffffffffffffffffffffffffffffffffffffffffffffffffffffffffffffff821415614e1a57614e19614e56565b5b600182019050919050565b6000614e3082614d2d565b9150614e3b83614d2d565b925082614e4b57614e4a614e85565b5b828206905092915050565b7f4e487b7100000000000000000000000000000000000000000000000000000000600052601160045260246000fd5b7f4e487b7100000000000000000000000000000000000000000000000000000000600052601260045260246000fd5b7f4e487b7100000000000000000000000000000000000000000000000000000000600052602260045260246000fd5b7f4e487b7100000000000000000000000000000000000000000000000000000000600052604160045260246000fd5b6000601f19601f8301169050919050565b7f455243373231456e756d657261626c653a206f776e657220696e646578206f7560008201527f74206f6620626f756e6473000000000000000000000000000000000000000000602082015250565b7f4552433732313a207472616e7366657220746f206e6f6e20455243373231526560008201527f63656976657220696d706c656d656e7465720000000000000000000000000000602082015250565b7f4f776e61626c653a206e6577206f776e657220697320746865207a65726f206160008201527f6464726573730000000000000000000000000000000000000000000000000000602082015250565b7f4552433732313a20746f6b656e20616c7265616479206d696e74656400000000600082015250565b7f4552433732313a207472616e7366657220746f20746865207a65726f2061646460008201527f7265737300000000000000000000000000000000000000000000000000000000602082015250565b7f4552433732313a20617070726f766520746f2063616c6c657200000000000000600082015250565b7f4552433732313a206f70657261746f7220717565727920666f72206e6f6e657860008201527f697374656e7420746f6b656e0000000000000000000000000000000000000000602082015250565b7f616c7265616479206d696e7465642077697468207468697320746f6b656e2121600082015250565b7f4552433732313a20617070726f76652063616c6c6572206973206e6f74206f7760008201527f6e6572206e6f7220617070726f76656420666f7220616c6c0000000000000000602082015250565b7f4552433732313a2062616c616e636520717565727920666f7220746865207a6560008201527f726f206164647265737300000000000000000000000000000000000000000000602082015250565b7f4552433732313a206f776e657220717565727920666f72206e6f6e657869737460008201527f656e7420746f6b656e0000000000000000000000000000000000000000000000602082015250565b7f6d617820737570706c7920686173206265656e20726561636865640000000000600082015250565b7f4552433732313a206d696e7420746f20746865207a65726f2061646472657373600082015250565b7f436f6e7472616374732070617573656421000000000000000000000000000000600082015250565b7f4552433732313a20617070726f76656420717565727920666f72206e6f6e657860008201527f697374656e7420746f6b656e0000000000000000000000000000000000000000602082015250565b7f4f776e61626c653a2063616c6c6572206973206e6f7420746865206f776e6572600082015250565b7f74686520636f6e74726163742069732070617573656400000000000000000000600082015250565b7f4552433732313a207472616e73666572206f6620746f6b656e2074686174206960008201527f73206e6f74206f776e0000000000000000000000000000000000000000000000602082015250565b7f4552433732314d657461646174613a2055524920717565727920666f72206e6f60008201527f6e6578697374656e7420746f6b656e0000000000000000000000000000000000602082015250565b7f4552433732313a20617070726f76616c20746f2063757272656e74206f776e6560008201527f7200000000000000000000000000000000000000000000000000000000000000602082015250565b7f5075626c69632073616c652069736e2774206163746976652079657421000000600082015250565b7f696e73756666696369656e742066756e64730000000000000000000000000000600082015250565b7f4552433732313a207472616e736665722063616c6c6572206973206e6f74206f60008201527f776e6572206e6f7220617070726f766564000000000000000000000000000000602082015250565b7f455243373231456e756d657261626c653a20676c6f62616c20696e646578206f60008201527f7574206f6620626f756e64730000000000000000000000000000000000000000602082015250565b7f2f00000000000000000000000000000000000000000000000000000000000000600082015250565b7f6e6f7420746865206f776e6572206f66207468697320636f6c6f722100000000600082015250565b7f6d6178206d696e7420616d6f756e742070657220747820657863656564656400600082015250565b61559381614cc3565b811461559e57600080fd5b50565b6155aa81614cd5565b81146155b557600080fd5b50565b6155c181614ce1565b81146155cc57600080fd5b50565b6155d881614d2d565b81146155e357600080fd5b5056fea26469706673582212206a956a07864f8f7a859f062f48a123c85dc9c8f24409395525c5908c752fa86e64736f6c63430008040033",
  "linkReferences": {},
  "deployedLinkReferences": {}
}